{
	"AstanaIT_University_Assanali.sol": {
		"University_AstanaIT_Assanali": {
			"abi": [
				{
					"inputs": [],
					"stateMutability": "nonpayable",
					"type": "constructor"
				},
				{
					"inputs": [
						{
							"internalType": "address",
							"name": "spender",
							"type": "address"
						},
						{
							"internalType": "uint256",
							"name": "allowance",
							"type": "uint256"
						},
						{
							"internalType": "uint256",
							"name": "needed",
							"type": "uint256"
						}
					],
					"name": "ERC20InsufficientAllowance",
					"type": "error"
				},
				{
					"inputs": [
						{
							"internalType": "address",
							"name": "sender",
							"type": "address"
						},
						{
							"internalType": "uint256",
							"name": "balance",
							"type": "uint256"
						},
						{
							"internalType": "uint256",
							"name": "needed",
							"type": "uint256"
						}
					],
					"name": "ERC20InsufficientBalance",
					"type": "error"
				},
				{
					"inputs": [
						{
							"internalType": "address",
							"name": "approver",
							"type": "address"
						}
					],
					"name": "ERC20InvalidApprover",
					"type": "error"
				},
				{
					"inputs": [
						{
							"internalType": "address",
							"name": "receiver",
							"type": "address"
						}
					],
					"name": "ERC20InvalidReceiver",
					"type": "error"
				},
				{
					"inputs": [
						{
							"internalType": "address",
							"name": "sender",
							"type": "address"
						}
					],
					"name": "ERC20InvalidSender",
					"type": "error"
				},
				{
					"inputs": [
						{
							"internalType": "address",
							"name": "spender",
							"type": "address"
						}
					],
					"name": "ERC20InvalidSpender",
					"type": "error"
				},
				{
					"anonymous": false,
					"inputs": [
						{
							"indexed": true,
							"internalType": "address",
							"name": "owner",
							"type": "address"
						},
						{
							"indexed": true,
							"internalType": "address",
							"name": "spender",
							"type": "address"
						},
						{
							"indexed": false,
							"internalType": "uint256",
							"name": "value",
							"type": "uint256"
						}
					],
					"name": "Approval",
					"type": "event"
				},
				{
					"anonymous": false,
					"inputs": [
						{
							"indexed": false,
							"internalType": "string",
							"name": "timestamp",
							"type": "string"
						},
						{
							"indexed": false,
							"internalType": "address",
							"name": "sender",
							"type": "address"
						},
						{
							"indexed": false,
							"internalType": "address",
							"name": "receiver",
							"type": "address"
						}
					],
					"name": "LatestTransactionInfo",
					"type": "event"
				},
				{
					"anonymous": false,
					"inputs": [
						{
							"indexed": true,
							"internalType": "address",
							"name": "from",
							"type": "address"
						},
						{
							"indexed": true,
							"internalType": "address",
							"name": "to",
							"type": "address"
						},
						{
							"indexed": false,
							"internalType": "uint256",
							"name": "value",
							"type": "uint256"
						}
					],
					"name": "Transfer",
					"type": "event"
				},
				{
					"inputs": [],
					"name": "DECIMALS",
					"outputs": [
						{
							"internalType": "uint8",
							"name": "",
							"type": "uint8"
						}
					],
					"stateMutability": "view",
					"type": "function"
				},
				{
					"inputs": [],
					"name": "INITIAL_SUPPLY",
					"outputs": [
						{
							"internalType": "uint256",
							"name": "",
							"type": "uint256"
						}
					],
					"stateMutability": "view",
					"type": "function"
				},
				{
					"inputs": [],
					"name": "NAME",
					"outputs": [
						{
							"internalType": "string",
							"name": "",
							"type": "string"
						}
					],
					"stateMutability": "view",
					"type": "function"
				},
				{
					"inputs": [],
					"name": "SYMBOL",
					"outputs": [
						{
							"internalType": "string",
							"name": "",
							"type": "string"
						}
					],
					"stateMutability": "view",
					"type": "function"
				},
				{
					"inputs": [
						{
							"internalType": "address",
							"name": "owner",
							"type": "address"
						},
						{
							"internalType": "address",
							"name": "spender",
							"type": "address"
						}
					],
					"name": "allowance",
					"outputs": [
						{
							"internalType": "uint256",
							"name": "",
							"type": "uint256"
						}
					],
					"stateMutability": "view",
					"type": "function"
				},
				{
					"inputs": [
						{
							"internalType": "address",
							"name": "spender",
							"type": "address"
						},
						{
							"internalType": "uint256",
							"name": "value",
							"type": "uint256"
						}
					],
					"name": "approve",
					"outputs": [
						{
							"internalType": "bool",
							"name": "",
							"type": "bool"
						}
					],
					"stateMutability": "nonpayable",
					"type": "function"
				},
				{
					"inputs": [
						{
							"internalType": "address",
							"name": "account",
							"type": "address"
						}
					],
					"name": "balanceOf",
					"outputs": [
						{
							"internalType": "uint256",
							"name": "",
							"type": "uint256"
						}
					],
					"stateMutability": "view",
					"type": "function"
				},
				{
					"inputs": [],
					"name": "decimals",
					"outputs": [
						{
							"internalType": "uint8",
							"name": "",
							"type": "uint8"
						}
					],
					"stateMutability": "view",
					"type": "function"
				},
				{
					"inputs": [],
					"name": "getLatestTransactionTimestamp",
					"outputs": [
						{
							"internalType": "string",
							"name": "",
							"type": "string"
						}
					],
					"stateMutability": "view",
					"type": "function"
				},
				{
					"inputs": [],
					"name": "getTransactionReceiver",
					"outputs": [
						{
							"internalType": "address",
							"name": "",
							"type": "address"
						}
					],
					"stateMutability": "view",
					"type": "function"
				},
				{
					"inputs": [],
					"name": "getTransactionSender",
					"outputs": [
						{
							"internalType": "address",
							"name": "",
							"type": "address"
						}
					],
					"stateMutability": "view",
					"type": "function"
				},
				{
					"inputs": [],
					"name": "name",
					"outputs": [
						{
							"internalType": "string",
							"name": "",
							"type": "string"
						}
					],
					"stateMutability": "view",
					"type": "function"
				},
				{
					"inputs": [],
					"name": "symbol",
					"outputs": [
						{
							"internalType": "string",
							"name": "",
							"type": "string"
						}
					],
					"stateMutability": "view",
					"type": "function"
				},
				{
					"inputs": [],
					"name": "totalSupply",
					"outputs": [
						{
							"internalType": "uint256",
							"name": "",
							"type": "uint256"
						}
					],
					"stateMutability": "view",
					"type": "function"
				},
				{
					"inputs": [
						{
							"internalType": "address",
							"name": "to",
							"type": "address"
						},
						{
							"internalType": "uint256",
							"name": "amount",
							"type": "uint256"
						}
					],
					"name": "transfer",
					"outputs": [
						{
							"internalType": "bool",
							"name": "",
							"type": "bool"
						}
					],
					"stateMutability": "nonpayable",
					"type": "function"
				},
				{
					"inputs": [
						{
							"internalType": "address",
							"name": "from",
							"type": "address"
						},
						{
							"internalType": "address",
							"name": "to",
							"type": "address"
						},
						{
							"internalType": "uint256",
							"name": "amount",
							"type": "uint256"
						}
					],
					"name": "transferFrom",
					"outputs": [
						{
							"internalType": "bool",
							"name": "",
							"type": "bool"
						}
					],
					"stateMutability": "nonpayable",
					"type": "function"
				}
			],
			"devdoc": {
				"errors": {
					"ERC20InsufficientAllowance(address,uint256,uint256)": [
						{
							"details": "Indicates a failure with the `spender`’s `allowance`. Used in transfers.",
							"params": {
								"allowance": "Amount of tokens a `spender` is allowed to operate with.",
								"needed": "Minimum amount required to perform a transfer.",
								"spender": "Address that may be allowed to operate on tokens without being their owner."
							}
						}
					],
					"ERC20InsufficientBalance(address,uint256,uint256)": [
						{
							"details": "Indicates an error related to the current `balance` of a `sender`. Used in transfers.",
							"params": {
								"balance": "Current balance for the interacting account.",
								"needed": "Minimum amount required to perform a transfer.",
								"sender": "Address whose tokens are being transferred."
							}
						}
					],
					"ERC20InvalidApprover(address)": [
						{
							"details": "Indicates a failure with the `approver` of a token to be approved. Used in approvals.",
							"params": {
								"approver": "Address initiating an approval operation."
							}
						}
					],
					"ERC20InvalidReceiver(address)": [
						{
							"details": "Indicates a failure with the token `receiver`. Used in transfers.",
							"params": {
								"receiver": "Address to which tokens are being transferred."
							}
						}
					],
					"ERC20InvalidSender(address)": [
						{
							"details": "Indicates a failure with the token `sender`. Used in transfers.",
							"params": {
								"sender": "Address whose tokens are being transferred."
							}
						}
					],
					"ERC20InvalidSpender(address)": [
						{
							"details": "Indicates a failure with the `spender` to be approved. Used in approvals.",
							"params": {
								"spender": "Address that may be allowed to operate on tokens without being their owner."
							}
						}
					]
				},
				"events": {
					"Approval(address,address,uint256)": {
						"details": "Emitted when the allowance of a `spender` for an `owner` is set by a call to {approve}. `value` is the new allowance."
					},
					"Transfer(address,address,uint256)": {
						"details": "Emitted when `value` tokens are moved from one account (`from`) to another (`to`). Note that `value` may be zero."
					}
				},
				"kind": "dev",
				"methods": {
					"allowance(address,address)": {
						"details": "See {IERC20-allowance}."
					},
					"approve(address,uint256)": {
						"details": "See {IERC20-approve}. NOTE: If `value` is the maximum `uint256`, the allowance is not updated on `transferFrom`. This is semantically equivalent to an infinite approval. Requirements: - `spender` cannot be the zero address."
					},
					"balanceOf(address)": {
						"details": "See {IERC20-balanceOf}."
					},
					"decimals()": {
						"details": "Returns the number of decimals used to get its user representation. For example, if `decimals` equals `2`, a balance of `505` tokens should be displayed to a user as `5.05` (`505 / 10 ** 2`). Tokens usually opt for a value of 18, imitating the relationship between Ether and Wei. This is the default value returned by this function, unless it's overridden. NOTE: This information is only used for _display_ purposes: it in no way affects any of the arithmetic of the contract, including {IERC20-balanceOf} and {IERC20-transfer}."
					},
					"name()": {
						"details": "Returns the name of the token."
					},
					"symbol()": {
						"details": "Returns the symbol of the token, usually a shorter version of the name."
					},
					"totalSupply()": {
						"details": "See {IERC20-totalSupply}."
					}
				},
				"version": 1
			},
			"evm": {
				"assembly": "    /* \"AstanaIT_University_Assanali.sol\":174:4137  contract University_AstanaIT_Assanali is ERC20 {... */\n  mstore(0x40, 0x80)\n    /* \"AstanaIT_University_Assanali.sol\":602:688  constructor() ERC20(NAME, SYMBOL) {... */\n  callvalue\n  dup1\n  iszero\n  tag_1\n  jumpi\n  0x00\n  dup1\n  revert\ntag_1:\n  pop\n    /* \"AstanaIT_University_Assanali.sol\":622:626  NAME */\n  mload(0x40)\n  dup1\n  0x40\n  add\n  0x40\n  mstore\n  dup1\n  0x1c\n  dup2\n  mstore\n  0x20\n  add\n  0x556e69766572736974795f417374616e6149545f417373616e616c6900000000\n  dup2\n  mstore\n  pop\n    /* \"AstanaIT_University_Assanali.sol\":628:634  SYMBOL */\n  mload(0x40)\n  dup1\n  0x40\n  add\n  0x40\n  mstore\n  dup1\n  0x03\n  dup2\n  mstore\n  0x20\n  add\n  0x5541410000000000000000000000000000000000000000000000000000000000\n  dup2\n  mstore\n  pop\n    /* \"@openzeppelin/contracts/token/ERC20/ERC20.sol\":1970:1975  name_ */\n  dup2\n    /* \"@openzeppelin/contracts/token/ERC20/ERC20.sol\":1962:1967  _name */\n  0x03\n    /* \"@openzeppelin/contracts/token/ERC20/ERC20.sol\":1962:1975  _name = name_ */\n  swap1\n  dup2\n  tag_5\n  swap2\n  swap1\n  tag_6\n  jump\t// in\ntag_5:\n  pop\n    /* \"@openzeppelin/contracts/token/ERC20/ERC20.sol\":1995:2002  symbol_ */\n  dup1\n    /* \"@openzeppelin/contracts/token/ERC20/ERC20.sol\":1985:1992  _symbol */\n  0x04\n    /* \"@openzeppelin/contracts/token/ERC20/ERC20.sol\":1985:2002  _symbol = symbol_ */\n  swap1\n  dup2\n  tag_7\n  swap2\n  swap1\n  tag_6\n  jump\t// in\ntag_7:\n  pop\n    /* \"@openzeppelin/contracts/token/ERC20/ERC20.sol\":1896:2009  constructor(string memory name_, string memory symbol_) {... */\n  pop\n  pop\n    /* \"AstanaIT_University_Assanali.sol\":647:680  _mint(msg.sender, INITIAL_SUPPLY) */\n  tag_9\n    /* \"AstanaIT_University_Assanali.sol\":653:663  msg.sender */\n  caller\n    /* \"AstanaIT_University_Assanali.sol\":390:392  18 */\n  0x12\n    /* \"AstanaIT_University_Assanali.sol\":452:469  uint256(DECIMALS) */\n  0xff\n  and\n    /* \"AstanaIT_University_Assanali.sol\":448:450  10 */\n  0x0a\n    /* \"AstanaIT_University_Assanali.sol\":448:469  10**uint256(DECIMALS) */\n  tag_10\n  swap2\n  swap1\n  tag_11\n  jump\t// in\ntag_10:\n    /* \"AstanaIT_University_Assanali.sol\":440:444  2000 */\n  0x07d0\n    /* \"AstanaIT_University_Assanali.sol\":440:470  2000 * (10**uint256(DECIMALS)) */\n  tag_12\n  swap2\n  swap1\n  tag_13\n  jump\t// in\ntag_12:\n    /* \"AstanaIT_University_Assanali.sol\":647:652  _mint */\n  shl(0x20, tag_14)\n    /* \"AstanaIT_University_Assanali.sol\":647:680  _mint(msg.sender, INITIAL_SUPPLY) */\n  0x20\n  shr\n  jump\t// in\ntag_9:\n    /* \"AstanaIT_University_Assanali.sol\":174:4137  contract University_AstanaIT_Assanali is ERC20 {... */\n  jump(tag_15)\n    /* \"@openzeppelin/contracts/token/ERC20/ERC20.sol\":7721:7929  function _mint(address account, uint256 value) internal {... */\ntag_14:\n    /* \"@openzeppelin/contracts/token/ERC20/ERC20.sol\":7810:7811  0 */\n  0x00\n    /* \"@openzeppelin/contracts/token/ERC20/ERC20.sol\":7791:7812  account == address(0) */\n  0xffffffffffffffffffffffffffffffffffffffff\n  and\n    /* \"@openzeppelin/contracts/token/ERC20/ERC20.sol\":7791:7798  account */\n  dup3\n    /* \"@openzeppelin/contracts/token/ERC20/ERC20.sol\":7791:7812  account == address(0) */\n  0xffffffffffffffffffffffffffffffffffffffff\n  and\n  sub\n    /* \"@openzeppelin/contracts/token/ERC20/ERC20.sol\":7787:7878  if (account == address(0)) {... */\n  tag_17\n  jumpi\n    /* \"@openzeppelin/contracts/token/ERC20/ERC20.sol\":7864:7865  0 */\n  0x00\n    /* \"@openzeppelin/contracts/token/ERC20/ERC20.sol\":7835:7867  ERC20InvalidReceiver(address(0)) */\n  mload(0x40)\n  0xec442f0500000000000000000000000000000000000000000000000000000000\n  dup2\n  mstore\n  0x04\n  add\n  tag_18\n  swap2\n  swap1\n  tag_19\n  jump\t// in\ntag_18:\n  mload(0x40)\n  dup1\n  swap2\n  sub\n  swap1\n  revert\n    /* \"@openzeppelin/contracts/token/ERC20/ERC20.sol\":7787:7878  if (account == address(0)) {... */\ntag_17:\n    /* \"@openzeppelin/contracts/token/ERC20/ERC20.sol\":7887:7922  _update(address(0), account, value) */\n  tag_20\n    /* \"@openzeppelin/contracts/token/ERC20/ERC20.sol\":7903:7904  0 */\n  0x00\n    /* \"@openzeppelin/contracts/token/ERC20/ERC20.sol\":7907:7914  account */\n  dup4\n    /* \"@openzeppelin/contracts/token/ERC20/ERC20.sol\":7916:7921  value */\n  dup4\n    /* \"@openzeppelin/contracts/token/ERC20/ERC20.sol\":7887:7894  _update */\n  shl(0x20, tag_21)\n    /* \"@openzeppelin/contracts/token/ERC20/ERC20.sol\":7887:7922  _update(address(0), account, value) */\n  0x20\n  shr\n  jump\t// in\ntag_20:\n    /* \"@openzeppelin/contracts/token/ERC20/ERC20.sol\":7721:7929  function _mint(address account, uint256 value) internal {... */\n  pop\n  pop\n  jump\t// out\n    /* \"@openzeppelin/contracts/token/ERC20/ERC20.sol\":6271:7378  function _update(address from, address to, uint256 value) internal virtual {... */\ntag_21:\n    /* \"@openzeppelin/contracts/token/ERC20/ERC20.sol\":6376:6377  0 */\n  0x00\n    /* \"@openzeppelin/contracts/token/ERC20/ERC20.sol\":6360:6378  from == address(0) */\n  0xffffffffffffffffffffffffffffffffffffffff\n  and\n    /* \"@openzeppelin/contracts/token/ERC20/ERC20.sol\":6360:6364  from */\n  dup4\n    /* \"@openzeppelin/contracts/token/ERC20/ERC20.sol\":6360:6378  from == address(0) */\n  0xffffffffffffffffffffffffffffffffffffffff\n  and\n  sub\n    /* \"@openzeppelin/contracts/token/ERC20/ERC20.sol\":6356:6896  if (from == address(0)) {... */\n  tag_23\n  jumpi\n    /* \"@openzeppelin/contracts/token/ERC20/ERC20.sol\":6512:6517  value */\n  dup1\n    /* \"@openzeppelin/contracts/token/ERC20/ERC20.sol\":6496:6508  _totalSupply */\n  0x02\n  0x00\n    /* \"@openzeppelin/contracts/token/ERC20/ERC20.sol\":6496:6517  _totalSupply += value */\n  dup3\n  dup3\n  sload\n  tag_24\n  swap2\n  swap1\n  tag_25\n  jump\t// in\ntag_24:\n  swap3\n  pop\n  pop\n  dup2\n  swap1\n  sstore\n  pop\n    /* \"@openzeppelin/contracts/token/ERC20/ERC20.sol\":6356:6896  if (from == address(0)) {... */\n  jump(tag_26)\ntag_23:\n    /* \"@openzeppelin/contracts/token/ERC20/ERC20.sol\":6548:6567  uint256 fromBalance */\n  0x00\n    /* \"@openzeppelin/contracts/token/ERC20/ERC20.sol\":6570:6579  _balances */\n  dup1\n    /* \"@openzeppelin/contracts/token/ERC20/ERC20.sol\":6570:6585  _balances[from] */\n  0x00\n    /* \"@openzeppelin/contracts/token/ERC20/ERC20.sol\":6580:6584  from */\n  dup6\n    /* \"@openzeppelin/contracts/token/ERC20/ERC20.sol\":6570:6585  _balances[from] */\n  0xffffffffffffffffffffffffffffffffffffffff\n  and\n  0xffffffffffffffffffffffffffffffffffffffff\n  and\n  dup2\n  mstore\n  0x20\n  add\n  swap1\n  dup2\n  mstore\n  0x20\n  add\n  0x00\n  keccak256\n  sload\n    /* \"@openzeppelin/contracts/token/ERC20/ERC20.sol\":6548:6585  uint256 fromBalance = _balances[from] */\n  swap1\n  pop\n    /* \"@openzeppelin/contracts/token/ERC20/ERC20.sol\":6617:6622  value */\n  dup2\n    /* \"@openzeppelin/contracts/token/ERC20/ERC20.sol\":6603:6614  fromBalance */\n  dup2\n    /* \"@openzeppelin/contracts/token/ERC20/ERC20.sol\":6603:6622  fromBalance < value */\n  lt\n    /* \"@openzeppelin/contracts/token/ERC20/ERC20.sol\":6599:6714  if (fromBalance < value) {... */\n  iszero\n  tag_27\n  jumpi\n    /* \"@openzeppelin/contracts/token/ERC20/ERC20.sol\":6674:6678  from */\n  dup4\n    /* \"@openzeppelin/contracts/token/ERC20/ERC20.sol\":6680:6691  fromBalance */\n  dup2\n    /* \"@openzeppelin/contracts/token/ERC20/ERC20.sol\":6693:6698  value */\n  dup4\n    /* \"@openzeppelin/contracts/token/ERC20/ERC20.sol\":6649:6699  ERC20InsufficientBalance(from, fromBalance, value) */\n  mload(0x40)\n  0xe450d38c00000000000000000000000000000000000000000000000000000000\n  dup2\n  mstore\n  0x04\n  add\n  tag_28\n  swap4\n  swap3\n  swap2\n  swap1\n  tag_29\n  jump\t// in\ntag_28:\n  mload(0x40)\n  dup1\n  swap2\n  sub\n  swap1\n  revert\n    /* \"@openzeppelin/contracts/token/ERC20/ERC20.sol\":6599:6714  if (fromBalance < value) {... */\ntag_27:\n    /* \"@openzeppelin/contracts/token/ERC20/ERC20.sol\":6866:6871  value */\n  dup2\n    /* \"@openzeppelin/contracts/token/ERC20/ERC20.sol\":6852:6863  fromBalance */\n  dup2\n    /* \"@openzeppelin/contracts/token/ERC20/ERC20.sol\":6852:6871  fromBalance - value */\n  sub\n    /* \"@openzeppelin/contracts/token/ERC20/ERC20.sol\":6834:6843  _balances */\n  0x00\n    /* \"@openzeppelin/contracts/token/ERC20/ERC20.sol\":6834:6849  _balances[from] */\n  dup1\n    /* \"@openzeppelin/contracts/token/ERC20/ERC20.sol\":6844:6848  from */\n  dup7\n    /* \"@openzeppelin/contracts/token/ERC20/ERC20.sol\":6834:6849  _balances[from] */\n  0xffffffffffffffffffffffffffffffffffffffff\n  and\n  0xffffffffffffffffffffffffffffffffffffffff\n  and\n  dup2\n  mstore\n  0x20\n  add\n  swap1\n  dup2\n  mstore\n  0x20\n  add\n  0x00\n  keccak256\n    /* \"@openzeppelin/contracts/token/ERC20/ERC20.sol\":6834:6871  _balances[from] = fromBalance - value */\n  dup2\n  swap1\n  sstore\n  pop\n    /* \"@openzeppelin/contracts/token/ERC20/ERC20.sol\":6534:6896  {... */\n  pop\n    /* \"@openzeppelin/contracts/token/ERC20/ERC20.sol\":6356:6896  if (from == address(0)) {... */\ntag_26:\n    /* \"@openzeppelin/contracts/token/ERC20/ERC20.sol\":6924:6925  0 */\n  0x00\n    /* \"@openzeppelin/contracts/token/ERC20/ERC20.sol\":6910:6926  to == address(0) */\n  0xffffffffffffffffffffffffffffffffffffffff\n  and\n    /* \"@openzeppelin/contracts/token/ERC20/ERC20.sol\":6910:6912  to */\n  dup3\n    /* \"@openzeppelin/contracts/token/ERC20/ERC20.sol\":6910:6926  to == address(0) */\n  0xffffffffffffffffffffffffffffffffffffffff\n  and\n  sub\n    /* \"@openzeppelin/contracts/token/ERC20/ERC20.sol\":6906:7331  if (to == address(0)) {... */\n  tag_30\n  jumpi\n    /* \"@openzeppelin/contracts/token/ERC20/ERC20.sol\":7089:7094  value */\n  dup1\n    /* \"@openzeppelin/contracts/token/ERC20/ERC20.sol\":7073:7085  _totalSupply */\n  0x02\n  0x00\n    /* \"@openzeppelin/contracts/token/ERC20/ERC20.sol\":7073:7094  _totalSupply -= value */\n  dup3\n  dup3\n  sload\n  sub\n  swap3\n  pop\n  pop\n  dup2\n  swap1\n  sstore\n  pop\n    /* \"@openzeppelin/contracts/token/ERC20/ERC20.sol\":6906:7331  if (to == address(0)) {... */\n  jump(tag_31)\ntag_30:\n    /* \"@openzeppelin/contracts/token/ERC20/ERC20.sol\":7301:7306  value */\n  dup1\n    /* \"@openzeppelin/contracts/token/ERC20/ERC20.sol\":7284:7293  _balances */\n  0x00\n    /* \"@openzeppelin/contracts/token/ERC20/ERC20.sol\":7284:7297  _balances[to] */\n  dup1\n    /* \"@openzeppelin/contracts/token/ERC20/ERC20.sol\":7294:7296  to */\n  dup5\n    /* \"@openzeppelin/contracts/token/ERC20/ERC20.sol\":7284:7297  _balances[to] */\n  0xffffffffffffffffffffffffffffffffffffffff\n  and\n  0xffffffffffffffffffffffffffffffffffffffff\n  and\n  dup2\n  mstore\n  0x20\n  add\n  swap1\n  dup2\n  mstore\n  0x20\n  add\n  0x00\n  keccak256\n  0x00\n    /* \"@openzeppelin/contracts/token/ERC20/ERC20.sol\":7284:7306  _balances[to] += value */\n  dup3\n  dup3\n  sload\n  add\n  swap3\n  pop\n  pop\n  dup2\n  swap1\n  sstore\n  pop\n    /* \"@openzeppelin/contracts/token/ERC20/ERC20.sol\":6906:7331  if (to == address(0)) {... */\ntag_31:\n    /* \"@openzeppelin/contracts/token/ERC20/ERC20.sol\":7361:7363  to */\n  dup2\n    /* \"@openzeppelin/contracts/token/ERC20/ERC20.sol\":7346:7371  Transfer(from, to, value) */\n  0xffffffffffffffffffffffffffffffffffffffff\n  and\n    /* \"@openzeppelin/contracts/token/ERC20/ERC20.sol\":7355:7359  from */\n  dup4\n    /* \"@openzeppelin/contracts/token/ERC20/ERC20.sol\":7346:7371  Transfer(from, to, value) */\n  0xffffffffffffffffffffffffffffffffffffffff\n  and\n  0xddf252ad1be2c89b69c2b068fc378daa952ba7f163c4a11628f55a4df523b3ef\n    /* \"@openzeppelin/contracts/token/ERC20/ERC20.sol\":7365:7370  value */\n  dup4\n    /* \"@openzeppelin/contracts/token/ERC20/ERC20.sol\":7346:7371  Transfer(from, to, value) */\n  mload(0x40)\n  tag_32\n  swap2\n  swap1\n  tag_33\n  jump\t// in\ntag_32:\n  mload(0x40)\n  dup1\n  swap2\n  sub\n  swap1\n  log3\n    /* \"@openzeppelin/contracts/token/ERC20/ERC20.sol\":6271:7378  function _update(address from, address to, uint256 value) internal virtual {... */\n  pop\n  pop\n  pop\n  jump\t// out\n    /* \"#utility.yul\":7:106   */\ntag_34:\n    /* \"#utility.yul\":59:65   */\n  0x00\n    /* \"#utility.yul\":93:98   */\n  dup2\n    /* \"#utility.yul\":87:99   */\n  mload\n    /* \"#utility.yul\":77:99   */\n  swap1\n  pop\n    /* \"#utility.yul\":7:106   */\n  swap2\n  swap1\n  pop\n  jump\t// out\n    /* \"#utility.yul\":112:292   */\ntag_35:\n    /* \"#utility.yul\":160:237   */\n  0x4e487b7100000000000000000000000000000000000000000000000000000000\n    /* \"#utility.yul\":157:158   */\n  0x00\n    /* \"#utility.yul\":150:238   */\n  mstore\n    /* \"#utility.yul\":257:261   */\n  0x41\n    /* \"#utility.yul\":254:255   */\n  0x04\n    /* \"#utility.yul\":247:262   */\n  mstore\n    /* \"#utility.yul\":281:285   */\n  0x24\n    /* \"#utility.yul\":278:279   */\n  0x00\n    /* \"#utility.yul\":271:286   */\n  revert\n    /* \"#utility.yul\":298:478   */\ntag_36:\n    /* \"#utility.yul\":346:423   */\n  0x4e487b7100000000000000000000000000000000000000000000000000000000\n    /* \"#utility.yul\":343:344   */\n  0x00\n    /* \"#utility.yul\":336:424   */\n  mstore\n    /* \"#utility.yul\":443:447   */\n  0x22\n    /* \"#utility.yul\":440:441   */\n  0x04\n    /* \"#utility.yul\":433:448   */\n  mstore\n    /* \"#utility.yul\":467:471   */\n  0x24\n    /* \"#utility.yul\":464:465   */\n  0x00\n    /* \"#utility.yul\":457:472   */\n  revert\n    /* \"#utility.yul\":484:804   */\ntag_37:\n    /* \"#utility.yul\":528:534   */\n  0x00\n    /* \"#utility.yul\":565:566   */\n  0x02\n    /* \"#utility.yul\":559:563   */\n  dup3\n    /* \"#utility.yul\":555:567   */\n  div\n    /* \"#utility.yul\":545:567   */\n  swap1\n  pop\n    /* \"#utility.yul\":612:613   */\n  0x01\n    /* \"#utility.yul\":606:610   */\n  dup3\n    /* \"#utility.yul\":602:614   */\n  and\n    /* \"#utility.yul\":633:651   */\n  dup1\n    /* \"#utility.yul\":623:704   */\n  tag_67\n  jumpi\n    /* \"#utility.yul\":689:693   */\n  0x7f\n    /* \"#utility.yul\":681:687   */\n  dup3\n    /* \"#utility.yul\":677:694   */\n  and\n    /* \"#utility.yul\":667:694   */\n  swap2\n  pop\n    /* \"#utility.yul\":623:704   */\ntag_67:\n    /* \"#utility.yul\":751:753   */\n  0x20\n    /* \"#utility.yul\":743:749   */\n  dup3\n    /* \"#utility.yul\":740:754   */\n  lt\n    /* \"#utility.yul\":720:738   */\n  dup2\n    /* \"#utility.yul\":717:755   */\n  sub\n    /* \"#utility.yul\":714:798   */\n  tag_68\n  jumpi\n    /* \"#utility.yul\":770:788   */\n  tag_69\n  tag_36\n  jump\t// in\ntag_69:\n    /* \"#utility.yul\":714:798   */\ntag_68:\n    /* \"#utility.yul\":535:804   */\n  pop\n    /* \"#utility.yul\":484:804   */\n  swap2\n  swap1\n  pop\n  jump\t// out\n    /* \"#utility.yul\":810:951   */\ntag_38:\n    /* \"#utility.yul\":859:863   */\n  0x00\n    /* \"#utility.yul\":882:885   */\n  dup2\n    /* \"#utility.yul\":874:885   */\n  swap1\n  pop\n    /* \"#utility.yul\":905:908   */\n  dup2\n    /* \"#utility.yul\":902:903   */\n  0x00\n    /* \"#utility.yul\":895:909   */\n  mstore\n    /* \"#utility.yul\":939:943   */\n  0x20\n    /* \"#utility.yul\":936:937   */\n  0x00\n    /* \"#utility.yul\":926:944   */\n  keccak256\n    /* \"#utility.yul\":918:944   */\n  swap1\n  pop\n    /* \"#utility.yul\":810:951   */\n  swap2\n  swap1\n  pop\n  jump\t// out\n    /* \"#utility.yul\":957:1050   */\ntag_39:\n    /* \"#utility.yul\":994:1000   */\n  0x00\n    /* \"#utility.yul\":1041:1043   */\n  0x20\n    /* \"#utility.yul\":1036:1038   */\n  0x1f\n    /* \"#utility.yul\":1029:1034   */\n  dup4\n    /* \"#utility.yul\":1025:1039   */\n  add\n    /* \"#utility.yul\":1021:1044   */\n  div\n    /* \"#utility.yul\":1011:1044   */\n  swap1\n  pop\n    /* \"#utility.yul\":957:1050   */\n  swap2\n  swap1\n  pop\n  jump\t// out\n    /* \"#utility.yul\":1056:1163   */\ntag_40:\n    /* \"#utility.yul\":1100:1108   */\n  0x00\n    /* \"#utility.yul\":1150:1155   */\n  dup3\n    /* \"#utility.yul\":1144:1148   */\n  dup3\n    /* \"#utility.yul\":1140:1156   */\n  shl\n    /* \"#utility.yul\":1119:1156   */\n  swap1\n  pop\n    /* \"#utility.yul\":1056:1163   */\n  swap3\n  swap2\n  pop\n  pop\n  jump\t// out\n    /* \"#utility.yul\":1169:1562   */\ntag_41:\n    /* \"#utility.yul\":1238:1244   */\n  0x00\n    /* \"#utility.yul\":1288:1289   */\n  0x08\n    /* \"#utility.yul\":1276:1286   */\n  dup4\n    /* \"#utility.yul\":1272:1290   */\n  mul\n    /* \"#utility.yul\":1311:1408   */\n  tag_74\n    /* \"#utility.yul\":1341:1407   */\n  0xffffffffffffffffffffffffffffffffffffffffffffffffffffffffffffffff\n    /* \"#utility.yul\":1330:1339   */\n  dup3\n    /* \"#utility.yul\":1311:1408   */\n  tag_40\n  jump\t// in\ntag_74:\n    /* \"#utility.yul\":1429:1468   */\n  tag_75\n    /* \"#utility.yul\":1459:1467   */\n  dup7\n    /* \"#utility.yul\":1448:1457   */\n  dup4\n    /* \"#utility.yul\":1429:1468   */\n  tag_40\n  jump\t// in\ntag_75:\n    /* \"#utility.yul\":1417:1468   */\n  swap6\n  pop\n    /* \"#utility.yul\":1501:1505   */\n  dup1\n    /* \"#utility.yul\":1497:1506   */\n  not\n    /* \"#utility.yul\":1490:1495   */\n  dup5\n    /* \"#utility.yul\":1486:1507   */\n  and\n    /* \"#utility.yul\":1477:1507   */\n  swap4\n  pop\n    /* \"#utility.yul\":1550:1554   */\n  dup1\n    /* \"#utility.yul\":1540:1548   */\n  dup7\n    /* \"#utility.yul\":1536:1555   */\n  and\n    /* \"#utility.yul\":1529:1534   */\n  dup5\n    /* \"#utility.yul\":1526:1556   */\n  or\n    /* \"#utility.yul\":1516:1556   */\n  swap3\n  pop\n    /* \"#utility.yul\":1245:1562   */\n  pop\n  pop\n    /* \"#utility.yul\":1169:1562   */\n  swap4\n  swap3\n  pop\n  pop\n  pop\n  jump\t// out\n    /* \"#utility.yul\":1568:1645   */\ntag_42:\n    /* \"#utility.yul\":1605:1612   */\n  0x00\n    /* \"#utility.yul\":1634:1639   */\n  dup2\n    /* \"#utility.yul\":1623:1639   */\n  swap1\n  pop\n    /* \"#utility.yul\":1568:1645   */\n  swap2\n  swap1\n  pop\n  jump\t// out\n    /* \"#utility.yul\":1651:1711   */\ntag_43:\n    /* \"#utility.yul\":1679:1682   */\n  0x00\n    /* \"#utility.yul\":1700:1705   */\n  dup2\n    /* \"#utility.yul\":1693:1705   */\n  swap1\n  pop\n    /* \"#utility.yul\":1651:1711   */\n  swap2\n  swap1\n  pop\n  jump\t// out\n    /* \"#utility.yul\":1717:1859   */\ntag_44:\n    /* \"#utility.yul\":1767:1776   */\n  0x00\n    /* \"#utility.yul\":1800:1853   */\n  tag_79\n    /* \"#utility.yul\":1818:1852   */\n  tag_80\n    /* \"#utility.yul\":1827:1851   */\n  tag_81\n    /* \"#utility.yul\":1845:1850   */\n  dup5\n    /* \"#utility.yul\":1827:1851   */\n  tag_42\n  jump\t// in\ntag_81:\n    /* \"#utility.yul\":1818:1852   */\n  tag_43\n  jump\t// in\ntag_80:\n    /* \"#utility.yul\":1800:1853   */\n  tag_42\n  jump\t// in\ntag_79:\n    /* \"#utility.yul\":1787:1853   */\n  swap1\n  pop\n    /* \"#utility.yul\":1717:1859   */\n  swap2\n  swap1\n  pop\n  jump\t// out\n    /* \"#utility.yul\":1865:1940   */\ntag_45:\n    /* \"#utility.yul\":1908:1911   */\n  0x00\n    /* \"#utility.yul\":1929:1934   */\n  dup2\n    /* \"#utility.yul\":1922:1934   */\n  swap1\n  pop\n    /* \"#utility.yul\":1865:1940   */\n  swap2\n  swap1\n  pop\n  jump\t// out\n    /* \"#utility.yul\":1946:2215   */\ntag_46:\n    /* \"#utility.yul\":2056:2095   */\n  tag_84\n    /* \"#utility.yul\":2087:2094   */\n  dup4\n    /* \"#utility.yul\":2056:2095   */\n  tag_44\n  jump\t// in\ntag_84:\n    /* \"#utility.yul\":2117:2208   */\n  tag_85\n    /* \"#utility.yul\":2166:2207   */\n  tag_86\n    /* \"#utility.yul\":2190:2206   */\n  dup3\n    /* \"#utility.yul\":2166:2207   */\n  tag_45\n  jump\t// in\ntag_86:\n    /* \"#utility.yul\":2158:2164   */\n  dup5\n    /* \"#utility.yul\":2151:2155   */\n  dup5\n    /* \"#utility.yul\":2145:2156   */\n  sload\n    /* \"#utility.yul\":2117:2208   */\n  tag_41\n  jump\t// in\ntag_85:\n    /* \"#utility.yul\":2111:2115   */\n  dup3\n    /* \"#utility.yul\":2104:2209   */\n  sstore\n    /* \"#utility.yul\":2022:2215   */\n  pop\n    /* \"#utility.yul\":1946:2215   */\n  pop\n  pop\n  pop\n  jump\t// out\n    /* \"#utility.yul\":2221:2294   */\ntag_47:\n    /* \"#utility.yul\":2266:2269   */\n  0x00\n    /* \"#utility.yul\":2221:2294   */\n  swap1\n  jump\t// out\n    /* \"#utility.yul\":2300:2489   */\ntag_48:\n    /* \"#utility.yul\":2377:2409   */\n  tag_89\n  tag_47\n  jump\t// in\ntag_89:\n    /* \"#utility.yul\":2418:2483   */\n  tag_90\n    /* \"#utility.yul\":2476:2482   */\n  dup2\n    /* \"#utility.yul\":2468:2474   */\n  dup5\n    /* \"#utility.yul\":2462:2466   */\n  dup5\n    /* \"#utility.yul\":2418:2483   */\n  tag_46\n  jump\t// in\ntag_90:\n    /* \"#utility.yul\":2353:2489   */\n  pop\n    /* \"#utility.yul\":2300:2489   */\n  pop\n  pop\n  jump\t// out\n    /* \"#utility.yul\":2495:2681   */\ntag_49:\n    /* \"#utility.yul\":2555:2675   */\ntag_92:\n    /* \"#utility.yul\":2572:2575   */\n  dup2\n    /* \"#utility.yul\":2565:2570   */\n  dup2\n    /* \"#utility.yul\":2562:2576   */\n  lt\n    /* \"#utility.yul\":2555:2675   */\n  iszero\n  tag_94\n  jumpi\n    /* \"#utility.yul\":2626:2665   */\n  tag_95\n    /* \"#utility.yul\":2663:2664   */\n  0x00\n    /* \"#utility.yul\":2656:2661   */\n  dup3\n    /* \"#utility.yul\":2626:2665   */\n  tag_48\n  jump\t// in\ntag_95:\n    /* \"#utility.yul\":2599:2600   */\n  0x01\n    /* \"#utility.yul\":2592:2597   */\n  dup2\n    /* \"#utility.yul\":2588:2601   */\n  add\n    /* \"#utility.yul\":2579:2601   */\n  swap1\n  pop\n    /* \"#utility.yul\":2555:2675   */\n  jump(tag_92)\ntag_94:\n    /* \"#utility.yul\":2495:2681   */\n  pop\n  pop\n  jump\t// out\n    /* \"#utility.yul\":2687:3230   */\ntag_50:\n    /* \"#utility.yul\":2788:2790   */\n  0x1f\n    /* \"#utility.yul\":2783:2786   */\n  dup3\n    /* \"#utility.yul\":2780:2791   */\n  gt\n    /* \"#utility.yul\":2777:3223   */\n  iszero\n  tag_97\n  jumpi\n    /* \"#utility.yul\":2822:2860   */\n  tag_98\n    /* \"#utility.yul\":2854:2859   */\n  dup2\n    /* \"#utility.yul\":2822:2860   */\n  tag_38\n  jump\t// in\ntag_98:\n    /* \"#utility.yul\":2906:2935   */\n  tag_99\n    /* \"#utility.yul\":2924:2934   */\n  dup5\n    /* \"#utility.yul\":2906:2935   */\n  tag_39\n  jump\t// in\ntag_99:\n    /* \"#utility.yul\":2896:2904   */\n  dup2\n    /* \"#utility.yul\":2892:2936   */\n  add\n    /* \"#utility.yul\":3089:3091   */\n  0x20\n    /* \"#utility.yul\":3077:3087   */\n  dup6\n    /* \"#utility.yul\":3074:3092   */\n  lt\n    /* \"#utility.yul\":3071:3120   */\n  iszero\n  tag_100\n  jumpi\n    /* \"#utility.yul\":3110:3118   */\n  dup2\n    /* \"#utility.yul\":3095:3118   */\n  swap1\n  pop\n    /* \"#utility.yul\":3071:3120   */\ntag_100:\n    /* \"#utility.yul\":3133:3213   */\n  tag_101\n    /* \"#utility.yul\":3189:3211   */\n  tag_102\n    /* \"#utility.yul\":3207:3210   */\n  dup6\n    /* \"#utility.yul\":3189:3211   */\n  tag_39\n  jump\t// in\ntag_102:\n    /* \"#utility.yul\":3179:3187   */\n  dup4\n    /* \"#utility.yul\":3175:3212   */\n  add\n    /* \"#utility.yul\":3162:3173   */\n  dup3\n    /* \"#utility.yul\":3133:3213   */\n  tag_49\n  jump\t// in\ntag_101:\n    /* \"#utility.yul\":2792:3223   */\n  pop\n  pop\n    /* \"#utility.yul\":2777:3223   */\ntag_97:\n    /* \"#utility.yul\":2687:3230   */\n  pop\n  pop\n  pop\n  jump\t// out\n    /* \"#utility.yul\":3236:3353   */\ntag_51:\n    /* \"#utility.yul\":3290:3298   */\n  0x00\n    /* \"#utility.yul\":3340:3345   */\n  dup3\n    /* \"#utility.yul\":3334:3338   */\n  dup3\n    /* \"#utility.yul\":3330:3346   */\n  shr\n    /* \"#utility.yul\":3309:3346   */\n  swap1\n  pop\n    /* \"#utility.yul\":3236:3353   */\n  swap3\n  swap2\n  pop\n  pop\n  jump\t// out\n    /* \"#utility.yul\":3359:3528   */\ntag_52:\n    /* \"#utility.yul\":3403:3409   */\n  0x00\n    /* \"#utility.yul\":3436:3487   */\n  tag_105\n    /* \"#utility.yul\":3484:3485   */\n  0x00\n    /* \"#utility.yul\":3480:3486   */\n  not\n    /* \"#utility.yul\":3472:3477   */\n  dup5\n    /* \"#utility.yul\":3469:3470   */\n  0x08\n    /* \"#utility.yul\":3465:3478   */\n  mul\n    /* \"#utility.yul\":3436:3487   */\n  tag_51\n  jump\t// in\ntag_105:\n    /* \"#utility.yul\":3432:3488   */\n  not\n    /* \"#utility.yul\":3517:3521   */\n  dup1\n    /* \"#utility.yul\":3511:3515   */\n  dup4\n    /* \"#utility.yul\":3507:3522   */\n  and\n    /* \"#utility.yul\":3497:3522   */\n  swap2\n  pop\n    /* \"#utility.yul\":3410:3528   */\n  pop\n    /* \"#utility.yul\":3359:3528   */\n  swap3\n  swap2\n  pop\n  pop\n  jump\t// out\n    /* \"#utility.yul\":3533:3828   */\ntag_53:\n    /* \"#utility.yul\":3609:3613   */\n  0x00\n    /* \"#utility.yul\":3755:3784   */\n  tag_107\n    /* \"#utility.yul\":3780:3783   */\n  dup4\n    /* \"#utility.yul\":3774:3778   */\n  dup4\n    /* \"#utility.yul\":3755:3784   */\n  tag_52\n  jump\t// in\ntag_107:\n    /* \"#utility.yul\":3747:3784   */\n  swap2\n  pop\n    /* \"#utility.yul\":3817:3820   */\n  dup3\n    /* \"#utility.yul\":3814:3815   */\n  0x02\n    /* \"#utility.yul\":3810:3821   */\n  mul\n    /* \"#utility.yul\":3804:3808   */\n  dup3\n    /* \"#utility.yul\":3801:3822   */\n  or\n    /* \"#utility.yul\":3793:3822   */\n  swap1\n  pop\n    /* \"#utility.yul\":3533:3828   */\n  swap3\n  swap2\n  pop\n  pop\n  jump\t// out\n    /* \"#utility.yul\":3833:5228   */\ntag_6:\n    /* \"#utility.yul\":3950:3987   */\n  tag_109\n    /* \"#utility.yul\":3983:3986   */\n  dup3\n    /* \"#utility.yul\":3950:3987   */\n  tag_34\n  jump\t// in\ntag_109:\n    /* \"#utility.yul\":4052:4070   */\n  0xffffffffffffffff\n    /* \"#utility.yul\":4044:4050   */\n  dup2\n    /* \"#utility.yul\":4041:4071   */\n  gt\n    /* \"#utility.yul\":4038:4094   */\n  iszero\n  tag_110\n  jumpi\n    /* \"#utility.yul\":4074:4092   */\n  tag_111\n  tag_35\n  jump\t// in\ntag_111:\n    /* \"#utility.yul\":4038:4094   */\ntag_110:\n    /* \"#utility.yul\":4118:4156   */\n  tag_112\n    /* \"#utility.yul\":4150:4154   */\n  dup3\n    /* \"#utility.yul\":4144:4155   */\n  sload\n    /* \"#utility.yul\":4118:4156   */\n  tag_37\n  jump\t// in\ntag_112:\n    /* \"#utility.yul\":4203:4270   */\n  tag_113\n    /* \"#utility.yul\":4263:4269   */\n  dup3\n    /* \"#utility.yul\":4255:4261   */\n  dup3\n    /* \"#utility.yul\":4249:4253   */\n  dup6\n    /* \"#utility.yul\":4203:4270   */\n  tag_50\n  jump\t// in\ntag_113:\n    /* \"#utility.yul\":4297:4298   */\n  0x00\n    /* \"#utility.yul\":4321:4325   */\n  0x20\n    /* \"#utility.yul\":4308:4325   */\n  swap1\n  pop\n    /* \"#utility.yul\":4353:4355   */\n  0x1f\n    /* \"#utility.yul\":4345:4351   */\n  dup4\n    /* \"#utility.yul\":4342:4356   */\n  gt\n    /* \"#utility.yul\":4370:4371   */\n  0x01\n    /* \"#utility.yul\":4365:4983   */\n  dup2\n  eq\n  tag_115\n  jumpi\n    /* \"#utility.yul\":5027:5028   */\n  0x00\n    /* \"#utility.yul\":5044:5050   */\n  dup5\n    /* \"#utility.yul\":5041:5118   */\n  iszero\n  tag_116\n  jumpi\n    /* \"#utility.yul\":5093:5102   */\n  dup3\n    /* \"#utility.yul\":5088:5091   */\n  dup8\n    /* \"#utility.yul\":5084:5103   */\n  add\n    /* \"#utility.yul\":5078:5104   */\n  mload\n    /* \"#utility.yul\":5069:5104   */\n  swap1\n  pop\n    /* \"#utility.yul\":5041:5118   */\ntag_116:\n    /* \"#utility.yul\":5144:5211   */\n  tag_117\n    /* \"#utility.yul\":5204:5210   */\n  dup6\n    /* \"#utility.yul\":5197:5202   */\n  dup3\n    /* \"#utility.yul\":5144:5211   */\n  tag_53\n  jump\t// in\ntag_117:\n    /* \"#utility.yul\":5138:5142   */\n  dup7\n    /* \"#utility.yul\":5131:5212   */\n  sstore\n    /* \"#utility.yul\":5000:5222   */\n  pop\n    /* \"#utility.yul\":4335:5222   */\n  jump(tag_114)\n    /* \"#utility.yul\":4365:4983   */\ntag_115:\n    /* \"#utility.yul\":4417:4421   */\n  0x1f\n    /* \"#utility.yul\":4413:4422   */\n  not\n    /* \"#utility.yul\":4405:4411   */\n  dup5\n    /* \"#utility.yul\":4401:4423   */\n  and\n    /* \"#utility.yul\":4451:4488   */\n  tag_118\n    /* \"#utility.yul\":4483:4487   */\n  dup7\n    /* \"#utility.yul\":4451:4488   */\n  tag_38\n  jump\t// in\ntag_118:\n    /* \"#utility.yul\":4510:4511   */\n  0x00\n    /* \"#utility.yul\":4524:4732   */\ntag_119:\n    /* \"#utility.yul\":4538:4545   */\n  dup3\n    /* \"#utility.yul\":4535:4536   */\n  dup2\n    /* \"#utility.yul\":4532:4546   */\n  lt\n    /* \"#utility.yul\":4524:4732   */\n  iszero\n  tag_121\n  jumpi\n    /* \"#utility.yul\":4617:4626   */\n  dup5\n    /* \"#utility.yul\":4612:4615   */\n  dup10\n    /* \"#utility.yul\":4608:4627   */\n  add\n    /* \"#utility.yul\":4602:4628   */\n  mload\n    /* \"#utility.yul\":4594:4600   */\n  dup3\n    /* \"#utility.yul\":4587:4629   */\n  sstore\n    /* \"#utility.yul\":4668:4669   */\n  0x01\n    /* \"#utility.yul\":4660:4666   */\n  dup3\n    /* \"#utility.yul\":4656:4670   */\n  add\n    /* \"#utility.yul\":4646:4670   */\n  swap2\n  pop\n    /* \"#utility.yul\":4715:4717   */\n  0x20\n    /* \"#utility.yul\":4704:4713   */\n  dup6\n    /* \"#utility.yul\":4700:4718   */\n  add\n    /* \"#utility.yul\":4687:4718   */\n  swap5\n  pop\n    /* \"#utility.yul\":4561:4565   */\n  0x20\n    /* \"#utility.yul\":4558:4559   */\n  dup2\n    /* \"#utility.yul\":4554:4566   */\n  add\n    /* \"#utility.yul\":4549:4566   */\n  swap1\n  pop\n    /* \"#utility.yul\":4524:4732   */\n  jump(tag_119)\ntag_121:\n    /* \"#utility.yul\":4760:4766   */\n  dup7\n    /* \"#utility.yul\":4751:4758   */\n  dup4\n    /* \"#utility.yul\":4748:4767   */\n  lt\n    /* \"#utility.yul\":4745:4924   */\n  iszero\n  tag_122\n  jumpi\n    /* \"#utility.yul\":4818:4827   */\n  dup5\n    /* \"#utility.yul\":4813:4816   */\n  dup10\n    /* \"#utility.yul\":4809:4828   */\n  add\n    /* \"#utility.yul\":4803:4829   */\n  mload\n    /* \"#utility.yul\":4861:4909   */\n  tag_123\n    /* \"#utility.yul\":4903:4907   */\n  0x1f\n    /* \"#utility.yul\":4895:4901   */\n  dup10\n    /* \"#utility.yul\":4891:4908   */\n  and\n    /* \"#utility.yul\":4880:4889   */\n  dup3\n    /* \"#utility.yul\":4861:4909   */\n  tag_52\n  jump\t// in\ntag_123:\n    /* \"#utility.yul\":4853:4859   */\n  dup4\n    /* \"#utility.yul\":4846:4910   */\n  sstore\n    /* \"#utility.yul\":4768:4924   */\n  pop\n    /* \"#utility.yul\":4745:4924   */\ntag_122:\n    /* \"#utility.yul\":4970:4971   */\n  0x01\n    /* \"#utility.yul\":4966:4967   */\n  0x02\n    /* \"#utility.yul\":4958:4964   */\n  dup9\n    /* \"#utility.yul\":4954:4968   */\n  mul\n    /* \"#utility.yul\":4950:4972   */\n  add\n    /* \"#utility.yul\":4944:4948   */\n  dup9\n    /* \"#utility.yul\":4937:4973   */\n  sstore\n    /* \"#utility.yul\":4372:4983   */\n  pop\n  pop\n  pop\n    /* \"#utility.yul\":4335:5222   */\ntag_114:\n  pop\n    /* \"#utility.yul\":3925:5228   */\n  pop\n  pop\n  pop\n    /* \"#utility.yul\":3833:5228   */\n  pop\n  pop\n  jump\t// out\n    /* \"#utility.yul\":5234:5414   */\ntag_54:\n    /* \"#utility.yul\":5282:5359   */\n  0x4e487b7100000000000000000000000000000000000000000000000000000000\n    /* \"#utility.yul\":5279:5280   */\n  0x00\n    /* \"#utility.yul\":5272:5360   */\n  mstore\n    /* \"#utility.yul\":5379:5383   */\n  0x11\n    /* \"#utility.yul\":5376:5377   */\n  0x04\n    /* \"#utility.yul\":5369:5384   */\n  mstore\n    /* \"#utility.yul\":5403:5407   */\n  0x24\n    /* \"#utility.yul\":5400:5401   */\n  0x00\n    /* \"#utility.yul\":5393:5408   */\n  revert\n    /* \"#utility.yul\":5420:5522   */\ntag_55:\n    /* \"#utility.yul\":5462:5470   */\n  0x00\n    /* \"#utility.yul\":5509:5514   */\n  dup2\n    /* \"#utility.yul\":5506:5507   */\n  0x01\n    /* \"#utility.yul\":5502:5515   */\n  shr\n    /* \"#utility.yul\":5481:5515   */\n  swap1\n  pop\n    /* \"#utility.yul\":5420:5522   */\n  swap2\n  swap1\n  pop\n  jump\t// out\n    /* \"#utility.yul\":5528:6376   */\ntag_56:\n    /* \"#utility.yul\":5589:5594   */\n  0x00\n    /* \"#utility.yul\":5596:5600   */\n  dup1\n    /* \"#utility.yul\":5620:5626   */\n  dup3\n    /* \"#utility.yul\":5611:5626   */\n  swap2\n  pop\n    /* \"#utility.yul\":5644:5649   */\n  dup4\n    /* \"#utility.yul\":5635:5649   */\n  swap1\n  pop\n    /* \"#utility.yul\":5658:6370   */\ntag_127:\n    /* \"#utility.yul\":5679:5680   */\n  0x01\n    /* \"#utility.yul\":5669:5677   */\n  dup6\n    /* \"#utility.yul\":5666:5681   */\n  gt\n    /* \"#utility.yul\":5658:6370   */\n  iszero\n  tag_129\n  jumpi\n    /* \"#utility.yul\":5774:5778   */\n  dup1\n    /* \"#utility.yul\":5769:5772   */\n  dup7\n    /* \"#utility.yul\":5765:5779   */\n  div\n    /* \"#utility.yul\":5759:5763   */\n  dup2\n    /* \"#utility.yul\":5756:5780   */\n  gt\n    /* \"#utility.yul\":5753:5803   */\n  iszero\n  tag_130\n  jumpi\n    /* \"#utility.yul\":5783:5801   */\n  tag_131\n  tag_54\n  jump\t// in\ntag_131:\n    /* \"#utility.yul\":5753:5803   */\ntag_130:\n    /* \"#utility.yul\":5833:5834   */\n  0x01\n    /* \"#utility.yul\":5823:5831   */\n  dup6\n    /* \"#utility.yul\":5819:5835   */\n  and\n    /* \"#utility.yul\":5816:6267   */\n  iszero\n  tag_132\n  jumpi\n    /* \"#utility.yul\":6248:6252   */\n  dup1\n    /* \"#utility.yul\":6241:6246   */\n  dup3\n    /* \"#utility.yul\":6237:6253   */\n  mul\n    /* \"#utility.yul\":6228:6253   */\n  swap2\n  pop\n    /* \"#utility.yul\":5816:6267   */\ntag_132:\n    /* \"#utility.yul\":6298:6302   */\n  dup1\n    /* \"#utility.yul\":6292:6296   */\n  dup2\n    /* \"#utility.yul\":6288:6303   */\n  mul\n    /* \"#utility.yul\":6280:6303   */\n  swap1\n  pop\n    /* \"#utility.yul\":6328:6360   */\n  tag_133\n    /* \"#utility.yul\":6351:6359   */\n  dup6\n    /* \"#utility.yul\":6328:6360   */\n  tag_55\n  jump\t// in\ntag_133:\n    /* \"#utility.yul\":6316:6360   */\n  swap5\n  pop\n    /* \"#utility.yul\":5658:6370   */\n  jump(tag_127)\ntag_129:\n    /* \"#utility.yul\":5528:6376   */\n  swap5\n  pop\n  swap5\n  swap3\n  pop\n  pop\n  pop\n  jump\t// out\n    /* \"#utility.yul\":6382:7455   */\ntag_57:\n    /* \"#utility.yul\":6436:6441   */\n  0x00\n    /* \"#utility.yul\":6627:6635   */\n  dup3\n    /* \"#utility.yul\":6617:6657   */\n  tag_135\n  jumpi\n    /* \"#utility.yul\":6648:6649   */\n  0x01\n    /* \"#utility.yul\":6639:6649   */\n  swap1\n  pop\n    /* \"#utility.yul\":6650:6655   */\n  jump(tag_134)\n    /* \"#utility.yul\":6617:6657   */\ntag_135:\n    /* \"#utility.yul\":6676:6680   */\n  dup2\n    /* \"#utility.yul\":6666:6702   */\n  tag_136\n  jumpi\n    /* \"#utility.yul\":6693:6694   */\n  0x00\n    /* \"#utility.yul\":6684:6694   */\n  swap1\n  pop\n    /* \"#utility.yul\":6695:6700   */\n  jump(tag_134)\n    /* \"#utility.yul\":6666:6702   */\ntag_136:\n    /* \"#utility.yul\":6762:6766   */\n  dup2\n    /* \"#utility.yul\":6810:6811   */\n  0x01\n    /* \"#utility.yul\":6805:6832   */\n  dup2\n  eq\n  tag_138\n  jumpi\n    /* \"#utility.yul\":6846:6847   */\n  0x02\n    /* \"#utility.yul\":6841:7032   */\n  dup2\n  eq\n  tag_139\n  jumpi\n    /* \"#utility.yul\":6755:7032   */\n  jump(tag_137)\n    /* \"#utility.yul\":6805:6832   */\ntag_138:\n    /* \"#utility.yul\":6823:6824   */\n  0x01\n    /* \"#utility.yul\":6814:6824   */\n  swap2\n  pop\n    /* \"#utility.yul\":6825:6830   */\n  pop\n  jump(tag_134)\n    /* \"#utility.yul\":6841:7032   */\ntag_139:\n    /* \"#utility.yul\":6886:6889   */\n  0xff\n    /* \"#utility.yul\":6876:6884   */\n  dup5\n    /* \"#utility.yul\":6873:6890   */\n  gt\n    /* \"#utility.yul\":6870:6913   */\n  iszero\n  tag_140\n  jumpi\n    /* \"#utility.yul\":6893:6911   */\n  tag_141\n  tag_54\n  jump\t// in\ntag_141:\n    /* \"#utility.yul\":6870:6913   */\ntag_140:\n    /* \"#utility.yul\":6942:6950   */\n  dup4\n    /* \"#utility.yul\":6939:6940   */\n  0x02\n    /* \"#utility.yul\":6935:6951   */\n  exp\n    /* \"#utility.yul\":6926:6951   */\n  swap2\n  pop\n    /* \"#utility.yul\":6977:6980   */\n  dup5\n    /* \"#utility.yul\":6970:6975   */\n  dup3\n    /* \"#utility.yul\":6967:6981   */\n  gt\n    /* \"#utility.yul\":6964:7004   */\n  iszero\n  tag_142\n  jumpi\n    /* \"#utility.yul\":6984:7002   */\n  tag_143\n  tag_54\n  jump\t// in\ntag_143:\n    /* \"#utility.yul\":6964:7004   */\ntag_142:\n    /* \"#utility.yul\":7017:7022   */\n  pop\n  jump(tag_134)\n    /* \"#utility.yul\":6755:7032   */\ntag_137:\n  pop\n    /* \"#utility.yul\":7141:7143   */\n  0x20\n    /* \"#utility.yul\":7131:7139   */\n  dup4\n    /* \"#utility.yul\":7128:7144   */\n  lt\n    /* \"#utility.yul\":7122:7125   */\n  0x0133\n    /* \"#utility.yul\":7116:7120   */\n  dup4\n    /* \"#utility.yul\":7113:7126   */\n  lt\n    /* \"#utility.yul\":7109:7145   */\n  and\n    /* \"#utility.yul\":7091:7093   */\n  0x4e\n    /* \"#utility.yul\":7081:7089   */\n  dup5\n    /* \"#utility.yul\":7078:7094   */\n  lt\n    /* \"#utility.yul\":7073:7075   */\n  0x0b\n    /* \"#utility.yul\":7067:7071   */\n  dup5\n    /* \"#utility.yul\":7064:7076   */\n  lt\n    /* \"#utility.yul\":7060:7095   */\n  and\n    /* \"#utility.yul\":7044:7155   */\n  or\n    /* \"#utility.yul\":7041:7287   */\n  iszero\n  tag_144\n  jumpi\n    /* \"#utility.yul\":7197:7205   */\n  dup3\n    /* \"#utility.yul\":7191:7195   */\n  dup3\n    /* \"#utility.yul\":7187:7206   */\n  exp\n    /* \"#utility.yul\":7178:7206   */\n  swap1\n  pop\n    /* \"#utility.yul\":7232:7235   */\n  dup4\n    /* \"#utility.yul\":7225:7230   */\n  dup2\n    /* \"#utility.yul\":7222:7236   */\n  gt\n    /* \"#utility.yul\":7219:7259   */\n  iszero\n  tag_145\n  jumpi\n    /* \"#utility.yul\":7239:7257   */\n  tag_146\n  tag_54\n  jump\t// in\ntag_146:\n    /* \"#utility.yul\":7219:7259   */\ntag_145:\n    /* \"#utility.yul\":7272:7277   */\n  jump(tag_134)\n    /* \"#utility.yul\":7041:7287   */\ntag_144:\n    /* \"#utility.yul\":7312:7354   */\n  tag_147\n    /* \"#utility.yul\":7350:7353   */\n  dup5\n    /* \"#utility.yul\":7340:7348   */\n  dup5\n    /* \"#utility.yul\":7334:7338   */\n  dup5\n    /* \"#utility.yul\":7331:7332   */\n  0x01\n    /* \"#utility.yul\":7312:7354   */\n  tag_56\n  jump\t// in\ntag_147:\n    /* \"#utility.yul\":7297:7354   */\n  swap3\n  pop\n  swap1\n  pop\n    /* \"#utility.yul\":7386:7390   */\n  dup2\n    /* \"#utility.yul\":7381:7384   */\n  dup5\n    /* \"#utility.yul\":7377:7391   */\n  div\n    /* \"#utility.yul\":7370:7375   */\n  dup2\n    /* \"#utility.yul\":7367:7392   */\n  gt\n    /* \"#utility.yul\":7364:7415   */\n  iszero\n  tag_148\n  jumpi\n    /* \"#utility.yul\":7395:7413   */\n  tag_149\n  tag_54\n  jump\t// in\ntag_149:\n    /* \"#utility.yul\":7364:7415   */\ntag_148:\n    /* \"#utility.yul\":7444:7448   */\n  dup2\n    /* \"#utility.yul\":7437:7442   */\n  dup2\n    /* \"#utility.yul\":7433:7449   */\n  mul\n    /* \"#utility.yul\":7424:7449   */\n  swap1\n  pop\n    /* \"#utility.yul\":6382:7455   */\ntag_134:\n  swap4\n  swap3\n  pop\n  pop\n  pop\n  jump\t// out\n    /* \"#utility.yul\":7461:7746   */\ntag_11:\n    /* \"#utility.yul\":7521:7526   */\n  0x00\n    /* \"#utility.yul\":7545:7568   */\n  tag_151\n    /* \"#utility.yul\":7563:7567   */\n  dup3\n    /* \"#utility.yul\":7545:7568   */\n  tag_42\n  jump\t// in\ntag_151:\n    /* \"#utility.yul\":7537:7568   */\n  swap2\n  pop\n    /* \"#utility.yul\":7589:7616   */\n  tag_152\n    /* \"#utility.yul\":7607:7615   */\n  dup4\n    /* \"#utility.yul\":7589:7616   */\n  tag_42\n  jump\t// in\ntag_152:\n    /* \"#utility.yul\":7577:7616   */\n  swap3\n  pop\n    /* \"#utility.yul\":7635:7739   */\n  tag_153\n    /* \"#utility.yul\":7672:7738   */\n  0xffffffffffffffffffffffffffffffffffffffffffffffffffffffffffffffff\n    /* \"#utility.yul\":7662:7670   */\n  dup5\n    /* \"#utility.yul\":7656:7660   */\n  dup5\n    /* \"#utility.yul\":7635:7739   */\n  tag_57\n  jump\t// in\ntag_153:\n    /* \"#utility.yul\":7626:7739   */\n  swap1\n  pop\n    /* \"#utility.yul\":7461:7746   */\n  swap3\n  swap2\n  pop\n  pop\n  jump\t// out\n    /* \"#utility.yul\":7752:8162   */\ntag_13:\n    /* \"#utility.yul\":7792:7799   */\n  0x00\n    /* \"#utility.yul\":7815:7835   */\n  tag_155\n    /* \"#utility.yul\":7833:7834   */\n  dup3\n    /* \"#utility.yul\":7815:7835   */\n  tag_42\n  jump\t// in\ntag_155:\n    /* \"#utility.yul\":7810:7835   */\n  swap2\n  pop\n    /* \"#utility.yul\":7849:7869   */\n  tag_156\n    /* \"#utility.yul\":7867:7868   */\n  dup4\n    /* \"#utility.yul\":7849:7869   */\n  tag_42\n  jump\t// in\ntag_156:\n    /* \"#utility.yul\":7844:7869   */\n  swap3\n  pop\n    /* \"#utility.yul\":7904:7905   */\n  dup3\n    /* \"#utility.yul\":7901:7902   */\n  dup3\n    /* \"#utility.yul\":7897:7906   */\n  mul\n    /* \"#utility.yul\":7926:7956   */\n  tag_157\n    /* \"#utility.yul\":7944:7955   */\n  dup2\n    /* \"#utility.yul\":7926:7956   */\n  tag_42\n  jump\t// in\ntag_157:\n    /* \"#utility.yul\":7915:7956   */\n  swap2\n  pop\n    /* \"#utility.yul\":8105:8106   */\n  dup3\n    /* \"#utility.yul\":8096:8103   */\n  dup3\n    /* \"#utility.yul\":8092:8107   */\n  div\n    /* \"#utility.yul\":8089:8090   */\n  dup5\n    /* \"#utility.yul\":8086:8108   */\n  eq\n    /* \"#utility.yul\":8066:8067   */\n  dup4\n    /* \"#utility.yul\":8059:8068   */\n  iszero\n    /* \"#utility.yul\":8039:8122   */\n  or\n    /* \"#utility.yul\":8016:8155   */\n  tag_158\n  jumpi\n    /* \"#utility.yul\":8135:8153   */\n  tag_159\n  tag_54\n  jump\t// in\ntag_159:\n    /* \"#utility.yul\":8016:8155   */\ntag_158:\n    /* \"#utility.yul\":7800:8162   */\n  pop\n    /* \"#utility.yul\":7752:8162   */\n  swap3\n  swap2\n  pop\n  pop\n  jump\t// out\n    /* \"#utility.yul\":8168:8294   */\ntag_58:\n    /* \"#utility.yul\":8205:8212   */\n  0x00\n    /* \"#utility.yul\":8245:8287   */\n  0xffffffffffffffffffffffffffffffffffffffff\n    /* \"#utility.yul\":8238:8243   */\n  dup3\n    /* \"#utility.yul\":8234:8288   */\n  and\n    /* \"#utility.yul\":8223:8288   */\n  swap1\n  pop\n    /* \"#utility.yul\":8168:8294   */\n  swap2\n  swap1\n  pop\n  jump\t// out\n    /* \"#utility.yul\":8300:8396   */\ntag_59:\n    /* \"#utility.yul\":8337:8344   */\n  0x00\n    /* \"#utility.yul\":8366:8390   */\n  tag_162\n    /* \"#utility.yul\":8384:8389   */\n  dup3\n    /* \"#utility.yul\":8366:8390   */\n  tag_58\n  jump\t// in\ntag_162:\n    /* \"#utility.yul\":8355:8390   */\n  swap1\n  pop\n    /* \"#utility.yul\":8300:8396   */\n  swap2\n  swap1\n  pop\n  jump\t// out\n    /* \"#utility.yul\":8402:8520   */\ntag_60:\n    /* \"#utility.yul\":8489:8513   */\n  tag_164\n    /* \"#utility.yul\":8507:8512   */\n  dup2\n    /* \"#utility.yul\":8489:8513   */\n  tag_59\n  jump\t// in\ntag_164:\n    /* \"#utility.yul\":8484:8487   */\n  dup3\n    /* \"#utility.yul\":8477:8514   */\n  mstore\n    /* \"#utility.yul\":8402:8520   */\n  pop\n  pop\n  jump\t// out\n    /* \"#utility.yul\":8526:8748   */\ntag_19:\n    /* \"#utility.yul\":8619:8623   */\n  0x00\n    /* \"#utility.yul\":8657:8659   */\n  0x20\n    /* \"#utility.yul\":8646:8655   */\n  dup3\n    /* \"#utility.yul\":8642:8660   */\n  add\n    /* \"#utility.yul\":8634:8660   */\n  swap1\n  pop\n    /* \"#utility.yul\":8670:8741   */\n  tag_166\n    /* \"#utility.yul\":8738:8739   */\n  0x00\n    /* \"#utility.yul\":8727:8736   */\n  dup4\n    /* \"#utility.yul\":8723:8740   */\n  add\n    /* \"#utility.yul\":8714:8720   */\n  dup5\n    /* \"#utility.yul\":8670:8741   */\n  tag_60\n  jump\t// in\ntag_166:\n    /* \"#utility.yul\":8526:8748   */\n  swap3\n  swap2\n  pop\n  pop\n  jump\t// out\n    /* \"#utility.yul\":8754:8945   */\ntag_25:\n    /* \"#utility.yul\":8794:8797   */\n  0x00\n    /* \"#utility.yul\":8813:8833   */\n  tag_168\n    /* \"#utility.yul\":8831:8832   */\n  dup3\n    /* \"#utility.yul\":8813:8833   */\n  tag_42\n  jump\t// in\ntag_168:\n    /* \"#utility.yul\":8808:8833   */\n  swap2\n  pop\n    /* \"#utility.yul\":8847:8867   */\n  tag_169\n    /* \"#utility.yul\":8865:8866   */\n  dup4\n    /* \"#utility.yul\":8847:8867   */\n  tag_42\n  jump\t// in\ntag_169:\n    /* \"#utility.yul\":8842:8867   */\n  swap3\n  pop\n    /* \"#utility.yul\":8890:8891   */\n  dup3\n    /* \"#utility.yul\":8887:8888   */\n  dup3\n    /* \"#utility.yul\":8883:8892   */\n  add\n    /* \"#utility.yul\":8876:8892   */\n  swap1\n  pop\n    /* \"#utility.yul\":8911:8914   */\n  dup1\n    /* \"#utility.yul\":8908:8909   */\n  dup3\n    /* \"#utility.yul\":8905:8915   */\n  gt\n    /* \"#utility.yul\":8902:8938   */\n  iszero\n  tag_170\n  jumpi\n    /* \"#utility.yul\":8918:8936   */\n  tag_171\n  tag_54\n  jump\t// in\ntag_171:\n    /* \"#utility.yul\":8902:8938   */\ntag_170:\n    /* \"#utility.yul\":8754:8945   */\n  swap3\n  swap2\n  pop\n  pop\n  jump\t// out\n    /* \"#utility.yul\":8951:9069   */\ntag_61:\n    /* \"#utility.yul\":9038:9062   */\n  tag_173\n    /* \"#utility.yul\":9056:9061   */\n  dup2\n    /* \"#utility.yul\":9038:9062   */\n  tag_42\n  jump\t// in\ntag_173:\n    /* \"#utility.yul\":9033:9036   */\n  dup3\n    /* \"#utility.yul\":9026:9063   */\n  mstore\n    /* \"#utility.yul\":8951:9069   */\n  pop\n  pop\n  jump\t// out\n    /* \"#utility.yul\":9075:9517   */\ntag_29:\n    /* \"#utility.yul\":9224:9228   */\n  0x00\n    /* \"#utility.yul\":9262:9264   */\n  0x60\n    /* \"#utility.yul\":9251:9260   */\n  dup3\n    /* \"#utility.yul\":9247:9265   */\n  add\n    /* \"#utility.yul\":9239:9265   */\n  swap1\n  pop\n    /* \"#utility.yul\":9275:9346   */\n  tag_175\n    /* \"#utility.yul\":9343:9344   */\n  0x00\n    /* \"#utility.yul\":9332:9341   */\n  dup4\n    /* \"#utility.yul\":9328:9345   */\n  add\n    /* \"#utility.yul\":9319:9325   */\n  dup7\n    /* \"#utility.yul\":9275:9346   */\n  tag_60\n  jump\t// in\ntag_175:\n    /* \"#utility.yul\":9356:9428   */\n  tag_176\n    /* \"#utility.yul\":9424:9426   */\n  0x20\n    /* \"#utility.yul\":9413:9422   */\n  dup4\n    /* \"#utility.yul\":9409:9427   */\n  add\n    /* \"#utility.yul\":9400:9406   */\n  dup6\n    /* \"#utility.yul\":9356:9428   */\n  tag_61\n  jump\t// in\ntag_176:\n    /* \"#utility.yul\":9438:9510   */\n  tag_177\n    /* \"#utility.yul\":9506:9508   */\n  0x40\n    /* \"#utility.yul\":9495:9504   */\n  dup4\n    /* \"#utility.yul\":9491:9509   */\n  add\n    /* \"#utility.yul\":9482:9488   */\n  dup5\n    /* \"#utility.yul\":9438:9510   */\n  tag_61\n  jump\t// in\ntag_177:\n    /* \"#utility.yul\":9075:9517   */\n  swap5\n  swap4\n  pop\n  pop\n  pop\n  pop\n  jump\t// out\n    /* \"#utility.yul\":9523:9745   */\ntag_33:\n    /* \"#utility.yul\":9616:9620   */\n  0x00\n    /* \"#utility.yul\":9654:9656   */\n  0x20\n    /* \"#utility.yul\":9643:9652   */\n  dup3\n    /* \"#utility.yul\":9639:9657   */\n  add\n    /* \"#utility.yul\":9631:9657   */\n  swap1\n  pop\n    /* \"#utility.yul\":9667:9738   */\n  tag_179\n    /* \"#utility.yul\":9735:9736   */\n  0x00\n    /* \"#utility.yul\":9724:9733   */\n  dup4\n    /* \"#utility.yul\":9720:9737   */\n  add\n    /* \"#utility.yul\":9711:9717   */\n  dup5\n    /* \"#utility.yul\":9667:9738   */\n  tag_61\n  jump\t// in\ntag_179:\n    /* \"#utility.yul\":9523:9745   */\n  swap3\n  swap2\n  pop\n  pop\n  jump\t// out\n    /* \"AstanaIT_University_Assanali.sol\":174:4137  contract University_AstanaIT_Assanali is ERC20 {... */\ntag_15:\n  dataSize(sub_0)\n  dup1\n  dataOffset(sub_0)\n  0x00\n  codecopy\n  0x00\n  return\nstop\n\nsub_0: assembly {\n        /* \"AstanaIT_University_Assanali.sol\":174:4137  contract University_AstanaIT_Assanali is ERC20 {... */\n      mstore(0x40, 0x80)\n      callvalue\n      dup1\n      iszero\n      tag_1\n      jumpi\n      0x00\n      dup1\n      revert\n    tag_1:\n      pop\n      jumpi(tag_2, lt(calldatasize, 0x04))\n      shr(0xe0, calldataload(0x00))\n      dup1\n      0x841b39fc\n      gt\n      tag_19\n      jumpi\n      dup1\n      0xbead3f50\n      gt\n      tag_20\n      jumpi\n      dup1\n      0xbead3f50\n      eq\n      tag_15\n      jumpi\n      dup1\n      0xd45e3f4a\n      eq\n      tag_16\n      jumpi\n      dup1\n      0xdd62ed3e\n      eq\n      tag_17\n      jumpi\n      dup1\n      0xf76f8d78\n      eq\n      tag_18\n      jumpi\n      jump(tag_2)\n    tag_20:\n      dup1\n      0x841b39fc\n      eq\n      tag_11\n      jumpi\n      dup1\n      0x95d89b41\n      eq\n      tag_12\n      jumpi\n      dup1\n      0xa3f4df7e\n      eq\n      tag_13\n      jumpi\n      dup1\n      0xa9059cbb\n      eq\n      tag_14\n      jumpi\n      jump(tag_2)\n    tag_19:\n      dup1\n      0x2e0f2625\n      gt\n      tag_21\n      jumpi\n      dup1\n      0x2e0f2625\n      eq\n      tag_7\n      jumpi\n      dup1\n      0x2ff2e9dc\n      eq\n      tag_8\n      jumpi\n      dup1\n      0x313ce567\n      eq\n      tag_9\n      jumpi\n      dup1\n      0x70a08231\n      eq\n      tag_10\n      jumpi\n      jump(tag_2)\n    tag_21:\n      dup1\n      0x06fdde03\n      eq\n      tag_3\n      jumpi\n      dup1\n      0x095ea7b3\n      eq\n      tag_4\n      jumpi\n      dup1\n      0x18160ddd\n      eq\n      tag_5\n      jumpi\n      dup1\n      0x23b872dd\n      eq\n      tag_6\n      jumpi\n    tag_2:\n      0x00\n      dup1\n      revert\n        /* \"@openzeppelin/contracts/token/ERC20/ERC20.sol\":2074:2163  function name() public view virtual returns (string memory) {... */\n    tag_3:\n      tag_22\n      tag_23\n      jump\t// in\n    tag_22:\n      mload(0x40)\n      tag_24\n      swap2\n      swap1\n      tag_25\n      jump\t// in\n    tag_24:\n      mload(0x40)\n      dup1\n      swap2\n      sub\n      swap1\n      return\n        /* \"@openzeppelin/contracts/token/ERC20/ERC20.sol\":4293:4479  function approve(address spender, uint256 value) public virtual returns (bool) {... */\n    tag_4:\n      tag_26\n      0x04\n      dup1\n      calldatasize\n      sub\n      dup2\n      add\n      swap1\n      tag_27\n      swap2\n      swap1\n      tag_28\n      jump\t// in\n    tag_27:\n      tag_29\n      jump\t// in\n    tag_26:\n      mload(0x40)\n      tag_30\n      swap2\n      swap1\n      tag_31\n      jump\t// in\n    tag_30:\n      mload(0x40)\n      dup1\n      swap2\n      sub\n      swap1\n      return\n        /* \"@openzeppelin/contracts/token/ERC20/ERC20.sol\":3144:3241  function totalSupply() public view virtual returns (uint256) {... */\n    tag_5:\n      tag_32\n      tag_33\n      jump\t// in\n    tag_32:\n      mload(0x40)\n      tag_34\n      swap2\n      swap1\n      tag_35\n      jump\t// in\n    tag_34:\n      mload(0x40)\n      dup1\n      swap2\n      sub\n      swap1\n      return\n        /* \"AstanaIT_University_Assanali.sol\":3826:4134  function transferFrom(address from, address to, uint256 amount) public override returns (bool) {... */\n    tag_6:\n      tag_36\n      0x04\n      dup1\n      calldatasize\n      sub\n      dup2\n      add\n      swap1\n      tag_37\n      swap2\n      swap1\n      tag_38\n      jump\t// in\n    tag_37:\n      tag_39\n      jump\t// in\n    tag_36:\n      mload(0x40)\n      tag_40\n      swap2\n      swap1\n      tag_31\n      jump\t// in\n    tag_40:\n      mload(0x40)\n      dup1\n      swap2\n      sub\n      swap1\n      return\n        /* \"AstanaIT_University_Assanali.sol\":357:392  uint8 public constant DECIMALS = 18 */\n    tag_7:\n      tag_41\n      tag_42\n      jump\t// in\n    tag_41:\n      mload(0x40)\n      tag_43\n      swap2\n      swap1\n      tag_44\n      jump\t// in\n    tag_43:\n      mload(0x40)\n      dup1\n      swap2\n      sub\n      swap1\n      return\n        /* \"AstanaIT_University_Assanali.sol\":399:470  uint256 public constant INITIAL_SUPPLY = 2000 * (10**uint256(DECIMALS)) */\n    tag_8:\n      tag_45\n      tag_46\n      jump\t// in\n    tag_45:\n      mload(0x40)\n      tag_47\n      swap2\n      swap1\n      tag_35\n      jump\t// in\n    tag_47:\n      mload(0x40)\n      dup1\n      swap2\n      sub\n      swap1\n      return\n        /* \"@openzeppelin/contracts/token/ERC20/ERC20.sol\":3002:3084  function decimals() public view virtual returns (uint8) {... */\n    tag_9:\n      tag_48\n      tag_49\n      jump\t// in\n    tag_48:\n      mload(0x40)\n      tag_50\n      swap2\n      swap1\n      tag_44\n      jump\t// in\n    tag_50:\n      mload(0x40)\n      dup1\n      swap2\n      sub\n      swap1\n      return\n        /* \"@openzeppelin/contracts/token/ERC20/ERC20.sol\":3299:3415  function balanceOf(address account) public view virtual returns (uint256) {... */\n    tag_10:\n      tag_51\n      0x04\n      dup1\n      calldatasize\n      sub\n      dup2\n      add\n      swap1\n      tag_52\n      swap2\n      swap1\n      tag_53\n      jump\t// in\n    tag_52:\n      tag_54\n      jump\t// in\n    tag_51:\n      mload(0x40)\n      tag_55\n      swap2\n      swap1\n      tag_35\n      jump\t// in\n    tag_55:\n      mload(0x40)\n      dup1\n      swap2\n      sub\n      swap1\n      return\n        /* \"AstanaIT_University_Assanali.sol\":2669:2774  function getTransactionReceiver() external view returns (address) {... */\n    tag_11:\n      tag_56\n      tag_57\n      jump\t// in\n    tag_56:\n      mload(0x40)\n      tag_58\n      swap2\n      swap1\n      tag_59\n      jump\t// in\n    tag_58:\n      mload(0x40)\n      dup1\n      swap2\n      sub\n      swap1\n      return\n        /* \"@openzeppelin/contracts/token/ERC20/ERC20.sol\":2276:2369  function symbol() public view virtual returns (string memory) {... */\n    tag_12:\n      tag_60\n      tag_61\n      jump\t// in\n    tag_60:\n      mload(0x40)\n      tag_62\n      swap2\n      swap1\n      tag_25\n      jump\t// in\n    tag_62:\n      mload(0x40)\n      dup1\n      swap2\n      sub\n      swap1\n      return\n        /* \"AstanaIT_University_Assanali.sol\":290:350  string public constant NAME = \"University_AstanaIT_Assanali\" */\n    tag_13:\n      tag_63\n      tag_64\n      jump\t// in\n    tag_63:\n      mload(0x40)\n      tag_65\n      swap2\n      swap1\n      tag_25\n      jump\t// in\n    tag_65:\n      mload(0x40)\n      dup1\n      swap2\n      sub\n      swap1\n      return\n        /* \"AstanaIT_University_Assanali.sol\":3455:3743  function transfer(address to, uint256 amount) public override returns (bool) {... */\n    tag_14:\n      tag_66\n      0x04\n      dup1\n      calldatasize\n      sub\n      dup2\n      add\n      swap1\n      tag_67\n      swap2\n      swap1\n      tag_28\n      jump\t// in\n    tag_67:\n      tag_68\n      jump\t// in\n    tag_66:\n      mload(0x40)\n      tag_69\n      swap2\n      swap1\n      tag_31\n      jump\t// in\n    tag_69:\n      mload(0x40)\n      dup1\n      swap2\n      sub\n      swap1\n      return\n        /* \"AstanaIT_University_Assanali.sol\":2490:2592  function getTransactionSender() external view returns (address) {... */\n    tag_15:\n      tag_70\n      tag_71\n      jump\t// in\n    tag_70:\n      mload(0x40)\n      tag_72\n      swap2\n      swap1\n      tag_59\n      jump\t// in\n    tag_72:\n      mload(0x40)\n      dup1\n      swap2\n      sub\n      swap1\n      return\n        /* \"AstanaIT_University_Assanali.sol\":2155:2415  function getLatestTransactionTimestamp() external view returns (string memory) {... */\n    tag_16:\n      tag_73\n      tag_74\n      jump\t// in\n    tag_73:\n      mload(0x40)\n      tag_75\n      swap2\n      swap1\n      tag_25\n      jump\t// in\n    tag_75:\n      mload(0x40)\n      dup1\n      swap2\n      sub\n      swap1\n      return\n        /* \"@openzeppelin/contracts/token/ERC20/ERC20.sol\":3846:3986  function allowance(address owner, address spender) public view virtual returns (uint256) {... */\n    tag_17:\n      tag_76\n      0x04\n      dup1\n      calldatasize\n      sub\n      dup2\n      add\n      swap1\n      tag_77\n      swap2\n      swap1\n      tag_78\n      jump\t// in\n    tag_77:\n      tag_79\n      jump\t// in\n    tag_76:\n      mload(0x40)\n      tag_80\n      swap2\n      swap1\n      tag_35\n      jump\t// in\n    tag_80:\n      mload(0x40)\n      dup1\n      swap2\n      sub\n      swap1\n      return\n        /* \"AstanaIT_University_Assanali.sol\":246:283  string public constant SYMBOL = \"UAA\" */\n    tag_18:\n      tag_81\n      tag_82\n      jump\t// in\n    tag_81:\n      mload(0x40)\n      tag_83\n      swap2\n      swap1\n      tag_25\n      jump\t// in\n    tag_83:\n      mload(0x40)\n      dup1\n      swap2\n      sub\n      swap1\n      return\n        /* \"@openzeppelin/contracts/token/ERC20/ERC20.sol\":2074:2163  function name() public view virtual returns (string memory) {... */\n    tag_23:\n        /* \"@openzeppelin/contracts/token/ERC20/ERC20.sol\":2119:2132  string memory */\n      0x60\n        /* \"@openzeppelin/contracts/token/ERC20/ERC20.sol\":2151:2156  _name */\n      0x03\n        /* \"@openzeppelin/contracts/token/ERC20/ERC20.sol\":2144:2156  return _name */\n      dup1\n      sload\n      tag_85\n      swap1\n      tag_86\n      jump\t// in\n    tag_85:\n      dup1\n      0x1f\n      add\n      0x20\n      dup1\n      swap2\n      div\n      mul\n      0x20\n      add\n      mload(0x40)\n      swap1\n      dup2\n      add\n      0x40\n      mstore\n      dup1\n      swap3\n      swap2\n      swap1\n      dup2\n      dup2\n      mstore\n      0x20\n      add\n      dup3\n      dup1\n      sload\n      tag_87\n      swap1\n      tag_86\n      jump\t// in\n    tag_87:\n      dup1\n      iszero\n      tag_88\n      jumpi\n      dup1\n      0x1f\n      lt\n      tag_89\n      jumpi\n      0x0100\n      dup1\n      dup4\n      sload\n      div\n      mul\n      dup4\n      mstore\n      swap2\n      0x20\n      add\n      swap2\n      jump(tag_88)\n    tag_89:\n      dup3\n      add\n      swap2\n      swap1\n      0x00\n      mstore\n      keccak256(0x00, 0x20)\n      swap1\n    tag_90:\n      dup2\n      sload\n      dup2\n      mstore\n      swap1\n      0x01\n      add\n      swap1\n      0x20\n      add\n      dup1\n      dup4\n      gt\n      tag_90\n      jumpi\n      dup3\n      swap1\n      sub\n      0x1f\n      and\n      dup3\n      add\n      swap2\n    tag_88:\n      pop\n      pop\n      pop\n      pop\n      pop\n      swap1\n      pop\n        /* \"@openzeppelin/contracts/token/ERC20/ERC20.sol\":2074:2163  function name() public view virtual returns (string memory) {... */\n      swap1\n      jump\t// out\n        /* \"@openzeppelin/contracts/token/ERC20/ERC20.sol\":4293:4479  function approve(address spender, uint256 value) public virtual returns (bool) {... */\n    tag_29:\n        /* \"@openzeppelin/contracts/token/ERC20/ERC20.sol\":4366:4370  bool */\n      0x00\n        /* \"@openzeppelin/contracts/token/ERC20/ERC20.sol\":4382:4395  address owner */\n      dup1\n        /* \"@openzeppelin/contracts/token/ERC20/ERC20.sol\":4398:4410  _msgSender() */\n      tag_92\n        /* \"@openzeppelin/contracts/token/ERC20/ERC20.sol\":4398:4408  _msgSender */\n      tag_93\n        /* \"@openzeppelin/contracts/token/ERC20/ERC20.sol\":4398:4410  _msgSender() */\n      jump\t// in\n    tag_92:\n        /* \"@openzeppelin/contracts/token/ERC20/ERC20.sol\":4382:4410  address owner = _msgSender() */\n      swap1\n      pop\n        /* \"@openzeppelin/contracts/token/ERC20/ERC20.sol\":4420:4451  _approve(owner, spender, value) */\n      tag_94\n        /* \"@openzeppelin/contracts/token/ERC20/ERC20.sol\":4429:4434  owner */\n      dup2\n        /* \"@openzeppelin/contracts/token/ERC20/ERC20.sol\":4436:4443  spender */\n      dup6\n        /* \"@openzeppelin/contracts/token/ERC20/ERC20.sol\":4445:4450  value */\n      dup6\n        /* \"@openzeppelin/contracts/token/ERC20/ERC20.sol\":4420:4428  _approve */\n      tag_95\n        /* \"@openzeppelin/contracts/token/ERC20/ERC20.sol\":4420:4451  _approve(owner, spender, value) */\n      jump\t// in\n    tag_94:\n        /* \"@openzeppelin/contracts/token/ERC20/ERC20.sol\":4468:4472  true */\n      0x01\n        /* \"@openzeppelin/contracts/token/ERC20/ERC20.sol\":4461:4472  return true */\n      swap2\n      pop\n      pop\n        /* \"@openzeppelin/contracts/token/ERC20/ERC20.sol\":4293:4479  function approve(address spender, uint256 value) public virtual returns (bool) {... */\n      swap3\n      swap2\n      pop\n      pop\n      jump\t// out\n        /* \"@openzeppelin/contracts/token/ERC20/ERC20.sol\":3144:3241  function totalSupply() public view virtual returns (uint256) {... */\n    tag_33:\n        /* \"@openzeppelin/contracts/token/ERC20/ERC20.sol\":3196:3203  uint256 */\n      0x00\n        /* \"@openzeppelin/contracts/token/ERC20/ERC20.sol\":3222:3234  _totalSupply */\n      sload(0x02)\n        /* \"@openzeppelin/contracts/token/ERC20/ERC20.sol\":3215:3234  return _totalSupply */\n      swap1\n      pop\n        /* \"@openzeppelin/contracts/token/ERC20/ERC20.sol\":3144:3241  function totalSupply() public view virtual returns (uint256) {... */\n      swap1\n      jump\t// out\n        /* \"AstanaIT_University_Assanali.sol\":3826:4134  function transferFrom(address from, address to, uint256 amount) public override returns (bool) {... */\n    tag_39:\n        /* \"AstanaIT_University_Assanali.sol\":3915:3919  bool */\n      0x00\n        /* \"AstanaIT_University_Assanali.sol\":3932:3944  bool success */\n      dup1\n        /* \"AstanaIT_University_Assanali.sol\":3947:3983  super.transferFrom(from, to, amount) */\n      tag_98\n        /* \"AstanaIT_University_Assanali.sol\":3966:3970  from */\n      dup6\n        /* \"AstanaIT_University_Assanali.sol\":3972:3974  to */\n      dup6\n        /* \"AstanaIT_University_Assanali.sol\":3976:3982  amount */\n      dup6\n        /* \"AstanaIT_University_Assanali.sol\":3947:3965  super.transferFrom */\n      tag_99\n        /* \"AstanaIT_University_Assanali.sol\":3947:3983  super.transferFrom(from, to, amount) */\n      jump\t// in\n    tag_98:\n        /* \"AstanaIT_University_Assanali.sol\":3932:3983  bool success = super.transferFrom(from, to, amount) */\n      swap1\n      pop\n        /* \"AstanaIT_University_Assanali.sol\":3998:4005  success */\n      dup1\n        /* \"AstanaIT_University_Assanali.sol\":3994:4102  if (success) {... */\n      iszero\n      tag_100\n      jumpi\n        /* \"AstanaIT_University_Assanali.sol\":4027:4090  LatestTransactionInfo(_uintToString(block.timestamp), from, to) */\n      0x360b0720d9fa9b8bac8c66aee32c6d152199e1fcdde1447d98bde22348f201bd\n        /* \"AstanaIT_University_Assanali.sol\":4049:4079  _uintToString(block.timestamp) */\n      tag_101\n        /* \"AstanaIT_University_Assanali.sol\":4063:4078  block.timestamp */\n      timestamp\n        /* \"AstanaIT_University_Assanali.sol\":4049:4062  _uintToString */\n      tag_102\n        /* \"AstanaIT_University_Assanali.sol\":4049:4079  _uintToString(block.timestamp) */\n      jump\t// in\n    tag_101:\n        /* \"AstanaIT_University_Assanali.sol\":4081:4085  from */\n      dup7\n        /* \"AstanaIT_University_Assanali.sol\":4087:4089  to */\n      dup7\n        /* \"AstanaIT_University_Assanali.sol\":4027:4090  LatestTransactionInfo(_uintToString(block.timestamp), from, to) */\n      mload(0x40)\n      tag_103\n      swap4\n      swap3\n      swap2\n      swap1\n      tag_104\n      jump\t// in\n    tag_103:\n      mload(0x40)\n      dup1\n      swap2\n      sub\n      swap1\n      log1\n        /* \"AstanaIT_University_Assanali.sol\":3994:4102  if (success) {... */\n    tag_100:\n        /* \"AstanaIT_University_Assanali.sol\":4119:4126  success */\n      dup1\n        /* \"AstanaIT_University_Assanali.sol\":4112:4126  return success */\n      swap2\n      pop\n      pop\n        /* \"AstanaIT_University_Assanali.sol\":3826:4134  function transferFrom(address from, address to, uint256 amount) public override returns (bool) {... */\n      swap4\n      swap3\n      pop\n      pop\n      pop\n      jump\t// out\n        /* \"AstanaIT_University_Assanali.sol\":357:392  uint8 public constant DECIMALS = 18 */\n    tag_42:\n        /* \"AstanaIT_University_Assanali.sol\":390:392  18 */\n      0x12\n        /* \"AstanaIT_University_Assanali.sol\":357:392  uint8 public constant DECIMALS = 18 */\n      dup2\n      jump\t// out\n        /* \"AstanaIT_University_Assanali.sol\":399:470  uint256 public constant INITIAL_SUPPLY = 2000 * (10**uint256(DECIMALS)) */\n    tag_46:\n        /* \"AstanaIT_University_Assanali.sol\":390:392  18 */\n      0x12\n        /* \"AstanaIT_University_Assanali.sol\":452:469  uint256(DECIMALS) */\n      0xff\n      and\n        /* \"AstanaIT_University_Assanali.sol\":448:450  10 */\n      0x0a\n        /* \"AstanaIT_University_Assanali.sol\":448:469  10**uint256(DECIMALS) */\n      tag_105\n      swap2\n      swap1\n      tag_106\n      jump\t// in\n    tag_105:\n        /* \"AstanaIT_University_Assanali.sol\":440:444  2000 */\n      0x07d0\n        /* \"AstanaIT_University_Assanali.sol\":440:470  2000 * (10**uint256(DECIMALS)) */\n      tag_107\n      swap2\n      swap1\n      tag_108\n      jump\t// in\n    tag_107:\n        /* \"AstanaIT_University_Assanali.sol\":399:470  uint256 public constant INITIAL_SUPPLY = 2000 * (10**uint256(DECIMALS)) */\n      dup2\n      jump\t// out\n        /* \"@openzeppelin/contracts/token/ERC20/ERC20.sol\":3002:3084  function decimals() public view virtual returns (uint8) {... */\n    tag_49:\n        /* \"@openzeppelin/contracts/token/ERC20/ERC20.sol\":3051:3056  uint8 */\n      0x00\n        /* \"@openzeppelin/contracts/token/ERC20/ERC20.sol\":3075:3077  18 */\n      0x12\n        /* \"@openzeppelin/contracts/token/ERC20/ERC20.sol\":3068:3077  return 18 */\n      swap1\n      pop\n        /* \"@openzeppelin/contracts/token/ERC20/ERC20.sol\":3002:3084  function decimals() public view virtual returns (uint8) {... */\n      swap1\n      jump\t// out\n        /* \"@openzeppelin/contracts/token/ERC20/ERC20.sol\":3299:3415  function balanceOf(address account) public view virtual returns (uint256) {... */\n    tag_54:\n        /* \"@openzeppelin/contracts/token/ERC20/ERC20.sol\":3364:3371  uint256 */\n      0x00\n        /* \"@openzeppelin/contracts/token/ERC20/ERC20.sol\":3390:3399  _balances */\n      dup1\n        /* \"@openzeppelin/contracts/token/ERC20/ERC20.sol\":3390:3408  _balances[account] */\n      0x00\n        /* \"@openzeppelin/contracts/token/ERC20/ERC20.sol\":3400:3407  account */\n      dup4\n        /* \"@openzeppelin/contracts/token/ERC20/ERC20.sol\":3390:3408  _balances[account] */\n      0xffffffffffffffffffffffffffffffffffffffff\n      and\n      0xffffffffffffffffffffffffffffffffffffffff\n      and\n      dup2\n      mstore\n      0x20\n      add\n      swap1\n      dup2\n      mstore\n      0x20\n      add\n      0x00\n      keccak256\n      sload\n        /* \"@openzeppelin/contracts/token/ERC20/ERC20.sol\":3383:3408  return _balances[account] */\n      swap1\n      pop\n        /* \"@openzeppelin/contracts/token/ERC20/ERC20.sol\":3299:3415  function balanceOf(address account) public view virtual returns (uint256) {... */\n      swap2\n      swap1\n      pop\n      jump\t// out\n        /* \"AstanaIT_University_Assanali.sol\":2669:2774  function getTransactionReceiver() external view returns (address) {... */\n    tag_57:\n        /* \"AstanaIT_University_Assanali.sol\":2726:2733  address */\n      0x00\n        /* \"AstanaIT_University_Assanali.sol\":2761:2765  this */\n      address\n        /* \"AstanaIT_University_Assanali.sol\":2746:2766  return address(this) */\n      swap1\n      pop\n        /* \"AstanaIT_University_Assanali.sol\":2669:2774  function getTransactionReceiver() external view returns (address) {... */\n      swap1\n      jump\t// out\n        /* \"@openzeppelin/contracts/token/ERC20/ERC20.sol\":2276:2369  function symbol() public view virtual returns (string memory) {... */\n    tag_61:\n        /* \"@openzeppelin/contracts/token/ERC20/ERC20.sol\":2323:2336  string memory */\n      0x60\n        /* \"@openzeppelin/contracts/token/ERC20/ERC20.sol\":2355:2362  _symbol */\n      0x04\n        /* \"@openzeppelin/contracts/token/ERC20/ERC20.sol\":2348:2362  return _symbol */\n      dup1\n      sload\n      tag_113\n      swap1\n      tag_86\n      jump\t// in\n    tag_113:\n      dup1\n      0x1f\n      add\n      0x20\n      dup1\n      swap2\n      div\n      mul\n      0x20\n      add\n      mload(0x40)\n      swap1\n      dup2\n      add\n      0x40\n      mstore\n      dup1\n      swap3\n      swap2\n      swap1\n      dup2\n      dup2\n      mstore\n      0x20\n      add\n      dup3\n      dup1\n      sload\n      tag_114\n      swap1\n      tag_86\n      jump\t// in\n    tag_114:\n      dup1\n      iszero\n      tag_115\n      jumpi\n      dup1\n      0x1f\n      lt\n      tag_116\n      jumpi\n      0x0100\n      dup1\n      dup4\n      sload\n      div\n      mul\n      dup4\n      mstore\n      swap2\n      0x20\n      add\n      swap2\n      jump(tag_115)\n    tag_116:\n      dup3\n      add\n      swap2\n      swap1\n      0x00\n      mstore\n      keccak256(0x00, 0x20)\n      swap1\n    tag_117:\n      dup2\n      sload\n      dup2\n      mstore\n      swap1\n      0x01\n      add\n      swap1\n      0x20\n      add\n      dup1\n      dup4\n      gt\n      tag_117\n      jumpi\n      dup3\n      swap1\n      sub\n      0x1f\n      and\n      dup3\n      add\n      swap2\n    tag_115:\n      pop\n      pop\n      pop\n      pop\n      pop\n      swap1\n      pop\n        /* \"@openzeppelin/contracts/token/ERC20/ERC20.sol\":2276:2369  function symbol() public view virtual returns (string memory) {... */\n      swap1\n      jump\t// out\n        /* \"AstanaIT_University_Assanali.sol\":290:350  string public constant NAME = \"University_AstanaIT_Assanali\" */\n    tag_64:\n      mload(0x40)\n      dup1\n      0x40\n      add\n      0x40\n      mstore\n      dup1\n      0x1c\n      dup2\n      mstore\n      0x20\n      add\n      0x556e69766572736974795f417374616e6149545f417373616e616c6900000000\n      dup2\n      mstore\n      pop\n      dup2\n      jump\t// out\n        /* \"AstanaIT_University_Assanali.sol\":3455:3743  function transfer(address to, uint256 amount) public override returns (bool) {... */\n    tag_68:\n        /* \"AstanaIT_University_Assanali.sol\":3526:3530  bool */\n      0x00\n        /* \"AstanaIT_University_Assanali.sol\":3543:3555  bool success */\n      dup1\n        /* \"AstanaIT_University_Assanali.sol\":3558:3584  super.transfer(to, amount) */\n      tag_119\n        /* \"AstanaIT_University_Assanali.sol\":3573:3575  to */\n      dup5\n        /* \"AstanaIT_University_Assanali.sol\":3577:3583  amount */\n      dup5\n        /* \"AstanaIT_University_Assanali.sol\":3558:3572  super.transfer */\n      tag_120\n        /* \"AstanaIT_University_Assanali.sol\":3558:3584  super.transfer(to, amount) */\n      jump\t// in\n    tag_119:\n        /* \"AstanaIT_University_Assanali.sol\":3543:3584  bool success = super.transfer(to, amount) */\n      swap1\n      pop\n        /* \"AstanaIT_University_Assanali.sol\":3599:3606  success */\n      dup1\n        /* \"AstanaIT_University_Assanali.sol\":3595:3711  if (success) {... */\n      iszero\n      tag_121\n      jumpi\n        /* \"AstanaIT_University_Assanali.sol\":3628:3699  LatestTransactionInfo(_uintToString(block.timestamp), _msgSender(), to) */\n      0x360b0720d9fa9b8bac8c66aee32c6d152199e1fcdde1447d98bde22348f201bd\n        /* \"AstanaIT_University_Assanali.sol\":3650:3680  _uintToString(block.timestamp) */\n      tag_122\n        /* \"AstanaIT_University_Assanali.sol\":3664:3679  block.timestamp */\n      timestamp\n        /* \"AstanaIT_University_Assanali.sol\":3650:3663  _uintToString */\n      tag_102\n        /* \"AstanaIT_University_Assanali.sol\":3650:3680  _uintToString(block.timestamp) */\n      jump\t// in\n    tag_122:\n        /* \"AstanaIT_University_Assanali.sol\":3682:3694  _msgSender() */\n      tag_123\n        /* \"AstanaIT_University_Assanali.sol\":3682:3692  _msgSender */\n      tag_93\n        /* \"AstanaIT_University_Assanali.sol\":3682:3694  _msgSender() */\n      jump\t// in\n    tag_123:\n        /* \"AstanaIT_University_Assanali.sol\":3696:3698  to */\n      dup7\n        /* \"AstanaIT_University_Assanali.sol\":3628:3699  LatestTransactionInfo(_uintToString(block.timestamp), _msgSender(), to) */\n      mload(0x40)\n      tag_124\n      swap4\n      swap3\n      swap2\n      swap1\n      tag_104\n      jump\t// in\n    tag_124:\n      mload(0x40)\n      dup1\n      swap2\n      sub\n      swap1\n      log1\n        /* \"AstanaIT_University_Assanali.sol\":3595:3711  if (success) {... */\n    tag_121:\n        /* \"AstanaIT_University_Assanali.sol\":3728:3735  success */\n      dup1\n        /* \"AstanaIT_University_Assanali.sol\":3721:3735  return success */\n      swap2\n      pop\n      pop\n        /* \"AstanaIT_University_Assanali.sol\":3455:3743  function transfer(address to, uint256 amount) public override returns (bool) {... */\n      swap3\n      swap2\n      pop\n      pop\n      jump\t// out\n        /* \"AstanaIT_University_Assanali.sol\":2490:2592  function getTransactionSender() external view returns (address) {... */\n    tag_71:\n        /* \"AstanaIT_University_Assanali.sol\":2545:2552  address */\n      0x00\n        /* \"AstanaIT_University_Assanali.sol\":2572:2584  _msgSender() */\n      tag_126\n        /* \"AstanaIT_University_Assanali.sol\":2572:2582  _msgSender */\n      tag_93\n        /* \"AstanaIT_University_Assanali.sol\":2572:2584  _msgSender() */\n      jump\t// in\n    tag_126:\n        /* \"AstanaIT_University_Assanali.sol\":2565:2584  return _msgSender() */\n      swap1\n      pop\n        /* \"AstanaIT_University_Assanali.sol\":2490:2592  function getTransactionSender() external view returns (address) {... */\n      swap1\n      jump\t// out\n        /* \"AstanaIT_University_Assanali.sol\":2155:2415  function getLatestTransactionTimestamp() external view returns (string memory) {... */\n    tag_74:\n        /* \"AstanaIT_University_Assanali.sol\":2219:2232  string memory */\n      0x60\n        /* \"AstanaIT_University_Assanali.sol\":2268:2269  0 */\n      0x00\n        /* \"AstanaIT_University_Assanali.sol\":2253:2265  block.number */\n      number\n        /* \"AstanaIT_University_Assanali.sol\":2253:2269  block.number > 0 */\n      gt\n        /* \"AstanaIT_University_Assanali.sol\":2245:2307  require(block.number > 0, \"No transactions have occurred yet\") */\n      tag_128\n      jumpi\n      mload(0x40)\n      0x08c379a000000000000000000000000000000000000000000000000000000000\n      dup2\n      mstore\n      0x04\n      add\n      tag_129\n      swap1\n      tag_130\n      jump\t// in\n    tag_129:\n      mload(0x40)\n      dup1\n      swap2\n      sub\n      swap1\n      revert\n    tag_128:\n        /* \"AstanaIT_University_Assanali.sol\":2318:2340  uint256 blockTimestamp */\n      0x00\n        /* \"AstanaIT_University_Assanali.sol\":2343:2358  block.timestamp */\n      timestamp\n        /* \"AstanaIT_University_Assanali.sol\":2318:2358  uint256 blockTimestamp = block.timestamp */\n      swap1\n      pop\n        /* \"AstanaIT_University_Assanali.sol\":2376:2407  timestampToDate(blockTimestamp) */\n      tag_131\n        /* \"AstanaIT_University_Assanali.sol\":2392:2406  blockTimestamp */\n      dup2\n        /* \"AstanaIT_University_Assanali.sol\":2376:2391  timestampToDate */\n      tag_132\n        /* \"AstanaIT_University_Assanali.sol\":2376:2407  timestampToDate(blockTimestamp) */\n      jump\t// in\n    tag_131:\n        /* \"AstanaIT_University_Assanali.sol\":2369:2407  return timestampToDate(blockTimestamp) */\n      swap2\n      pop\n      pop\n        /* \"AstanaIT_University_Assanali.sol\":2155:2415  function getLatestTransactionTimestamp() external view returns (string memory) {... */\n      swap1\n      jump\t// out\n        /* \"@openzeppelin/contracts/token/ERC20/ERC20.sol\":3846:3986  function allowance(address owner, address spender) public view virtual returns (uint256) {... */\n    tag_79:\n        /* \"@openzeppelin/contracts/token/ERC20/ERC20.sol\":3926:3933  uint256 */\n      0x00\n        /* \"@openzeppelin/contracts/token/ERC20/ERC20.sol\":3952:3963  _allowances */\n      0x01\n        /* \"@openzeppelin/contracts/token/ERC20/ERC20.sol\":3952:3970  _allowances[owner] */\n      0x00\n        /* \"@openzeppelin/contracts/token/ERC20/ERC20.sol\":3964:3969  owner */\n      dup5\n        /* \"@openzeppelin/contracts/token/ERC20/ERC20.sol\":3952:3970  _allowances[owner] */\n      0xffffffffffffffffffffffffffffffffffffffff\n      and\n      0xffffffffffffffffffffffffffffffffffffffff\n      and\n      dup2\n      mstore\n      0x20\n      add\n      swap1\n      dup2\n      mstore\n      0x20\n      add\n      0x00\n      keccak256\n        /* \"@openzeppelin/contracts/token/ERC20/ERC20.sol\":3952:3979  _allowances[owner][spender] */\n      0x00\n        /* \"@openzeppelin/contracts/token/ERC20/ERC20.sol\":3971:3978  spender */\n      dup4\n        /* \"@openzeppelin/contracts/token/ERC20/ERC20.sol\":3952:3979  _allowances[owner][spender] */\n      0xffffffffffffffffffffffffffffffffffffffff\n      and\n      0xffffffffffffffffffffffffffffffffffffffff\n      and\n      dup2\n      mstore\n      0x20\n      add\n      swap1\n      dup2\n      mstore\n      0x20\n      add\n      0x00\n      keccak256\n      sload\n        /* \"@openzeppelin/contracts/token/ERC20/ERC20.sol\":3945:3979  return _allowances[owner][spender] */\n      swap1\n      pop\n        /* \"@openzeppelin/contracts/token/ERC20/ERC20.sol\":3846:3986  function allowance(address owner, address spender) public view virtual returns (uint256) {... */\n      swap3\n      swap2\n      pop\n      pop\n      jump\t// out\n        /* \"AstanaIT_University_Assanali.sol\":246:283  string public constant SYMBOL = \"UAA\" */\n    tag_82:\n      mload(0x40)\n      dup1\n      0x40\n      add\n      0x40\n      mstore\n      dup1\n      0x03\n      dup2\n      mstore\n      0x20\n      add\n      0x5541410000000000000000000000000000000000000000000000000000000000\n      dup2\n      mstore\n      pop\n      dup2\n      jump\t// out\n        /* \"@openzeppelin/contracts/utils/Context.sol\":656:752  function _msgSender() internal view virtual returns (address) {... */\n    tag_93:\n        /* \"@openzeppelin/contracts/utils/Context.sol\":709:716  address */\n      0x00\n        /* \"@openzeppelin/contracts/utils/Context.sol\":735:745  msg.sender */\n      caller\n        /* \"@openzeppelin/contracts/utils/Context.sol\":728:745  return msg.sender */\n      swap1\n      pop\n        /* \"@openzeppelin/contracts/utils/Context.sol\":656:752  function _msgSender() internal view virtual returns (address) {... */\n      swap1\n      jump\t// out\n        /* \"@openzeppelin/contracts/token/ERC20/ERC20.sol\":8989:9117  function _approve(address owner, address spender, uint256 value) internal {... */\n    tag_95:\n        /* \"@openzeppelin/contracts/token/ERC20/ERC20.sol\":9073:9110  _approve(owner, spender, value, true) */\n      tag_136\n        /* \"@openzeppelin/contracts/token/ERC20/ERC20.sol\":9082:9087  owner */\n      dup4\n        /* \"@openzeppelin/contracts/token/ERC20/ERC20.sol\":9089:9096  spender */\n      dup4\n        /* \"@openzeppelin/contracts/token/ERC20/ERC20.sol\":9098:9103  value */\n      dup4\n        /* \"@openzeppelin/contracts/token/ERC20/ERC20.sol\":9105:9109  true */\n      0x01\n        /* \"@openzeppelin/contracts/token/ERC20/ERC20.sol\":9073:9081  _approve */\n      tag_137\n        /* \"@openzeppelin/contracts/token/ERC20/ERC20.sol\":9073:9110  _approve(owner, spender, value, true) */\n      jump\t// in\n    tag_136:\n        /* \"@openzeppelin/contracts/token/ERC20/ERC20.sol\":8989:9117  function _approve(address owner, address spender, uint256 value) internal {... */\n      pop\n      pop\n      pop\n      jump\t// out\n        /* \"@openzeppelin/contracts/token/ERC20/ERC20.sol\":5039:5283  function transferFrom(address from, address to, uint256 value) public virtual returns (bool) {... */\n    tag_99:\n        /* \"@openzeppelin/contracts/token/ERC20/ERC20.sol\":5126:5130  bool */\n      0x00\n        /* \"@openzeppelin/contracts/token/ERC20/ERC20.sol\":5142:5157  address spender */\n      dup1\n        /* \"@openzeppelin/contracts/token/ERC20/ERC20.sol\":5160:5172  _msgSender() */\n      tag_139\n        /* \"@openzeppelin/contracts/token/ERC20/ERC20.sol\":5160:5170  _msgSender */\n      tag_93\n        /* \"@openzeppelin/contracts/token/ERC20/ERC20.sol\":5160:5172  _msgSender() */\n      jump\t// in\n    tag_139:\n        /* \"@openzeppelin/contracts/token/ERC20/ERC20.sol\":5142:5172  address spender = _msgSender() */\n      swap1\n      pop\n        /* \"@openzeppelin/contracts/token/ERC20/ERC20.sol\":5182:5219  _spendAllowance(from, spender, value) */\n      tag_140\n        /* \"@openzeppelin/contracts/token/ERC20/ERC20.sol\":5198:5202  from */\n      dup6\n        /* \"@openzeppelin/contracts/token/ERC20/ERC20.sol\":5204:5211  spender */\n      dup3\n        /* \"@openzeppelin/contracts/token/ERC20/ERC20.sol\":5213:5218  value */\n      dup6\n        /* \"@openzeppelin/contracts/token/ERC20/ERC20.sol\":5182:5197  _spendAllowance */\n      tag_141\n        /* \"@openzeppelin/contracts/token/ERC20/ERC20.sol\":5182:5219  _spendAllowance(from, spender, value) */\n      jump\t// in\n    tag_140:\n        /* \"@openzeppelin/contracts/token/ERC20/ERC20.sol\":5229:5255  _transfer(from, to, value) */\n      tag_142\n        /* \"@openzeppelin/contracts/token/ERC20/ERC20.sol\":5239:5243  from */\n      dup6\n        /* \"@openzeppelin/contracts/token/ERC20/ERC20.sol\":5245:5247  to */\n      dup6\n        /* \"@openzeppelin/contracts/token/ERC20/ERC20.sol\":5249:5254  value */\n      dup6\n        /* \"@openzeppelin/contracts/token/ERC20/ERC20.sol\":5229:5238  _transfer */\n      tag_143\n        /* \"@openzeppelin/contracts/token/ERC20/ERC20.sol\":5229:5255  _transfer(from, to, value) */\n      jump\t// in\n    tag_142:\n        /* \"@openzeppelin/contracts/token/ERC20/ERC20.sol\":5272:5276  true */\n      0x01\n        /* \"@openzeppelin/contracts/token/ERC20/ERC20.sol\":5265:5276  return true */\n      swap2\n      pop\n      pop\n        /* \"@openzeppelin/contracts/token/ERC20/ERC20.sol\":5039:5283  function transferFrom(address from, address to, uint256 value) public virtual returns (bool) {... */\n      swap4\n      swap3\n      pop\n      pop\n      pop\n      jump\t// out\n        /* \"AstanaIT_University_Assanali.sol\":2839:3376  function _uintToString(uint256 value) internal pure returns (string memory) {... */\n    tag_102:\n        /* \"AstanaIT_University_Assanali.sol\":2900:2913  string memory */\n      0x60\n        /* \"AstanaIT_University_Assanali.sol\":2939:2940  0 */\n      0x00\n        /* \"AstanaIT_University_Assanali.sol\":2930:2935  value */\n      dup3\n        /* \"AstanaIT_University_Assanali.sol\":2930:2940  value == 0 */\n      sub\n        /* \"AstanaIT_University_Assanali.sol\":2926:2979  if (value == 0) {... */\n      tag_145\n      jumpi\n        /* \"AstanaIT_University_Assanali.sol\":2957:2967  return \"0\" */\n      mload(0x40)\n      dup1\n      0x40\n      add\n      0x40\n      mstore\n      dup1\n      0x01\n      dup2\n      mstore\n      0x20\n      add\n      0x3000000000000000000000000000000000000000000000000000000000000000\n      dup2\n      mstore\n      pop\n      swap1\n      pop\n      jump(tag_144)\n        /* \"AstanaIT_University_Assanali.sol\":2926:2979  if (value == 0) {... */\n    tag_145:\n        /* \"AstanaIT_University_Assanali.sol\":2989:3001  uint256 temp */\n      0x00\n        /* \"AstanaIT_University_Assanali.sol\":3004:3009  value */\n      dup3\n        /* \"AstanaIT_University_Assanali.sol\":2989:3009  uint256 temp = value */\n      swap1\n      pop\n        /* \"AstanaIT_University_Assanali.sol\":3020:3034  uint256 digits */\n      0x00\n        /* \"AstanaIT_University_Assanali.sol\":3045:3123  while (temp != 0) {... */\n    tag_146:\n        /* \"AstanaIT_University_Assanali.sol\":3060:3061  0 */\n      0x00\n        /* \"AstanaIT_University_Assanali.sol\":3052:3056  temp */\n      dup3\n        /* \"AstanaIT_University_Assanali.sol\":3052:3061  temp != 0 */\n      eq\n        /* \"AstanaIT_University_Assanali.sol\":3045:3123  while (temp != 0) {... */\n      tag_147\n      jumpi\n        /* \"AstanaIT_University_Assanali.sol\":3078:3086  digits++ */\n      dup1\n      dup1\n      tag_148\n      swap1\n      tag_149\n      jump\t// in\n    tag_148:\n      swap2\n      pop\n      pop\n        /* \"AstanaIT_University_Assanali.sol\":3109:3111  10 */\n      0x0a\n        /* \"AstanaIT_University_Assanali.sol\":3101:3111  temp /= 10 */\n      dup3\n      tag_150\n      swap2\n      swap1\n      tag_151\n      jump\t// in\n    tag_150:\n      swap2\n      pop\n        /* \"AstanaIT_University_Assanali.sol\":3045:3123  while (temp != 0) {... */\n      jump(tag_146)\n    tag_147:\n        /* \"AstanaIT_University_Assanali.sol\":3133:3152  bytes memory buffer */\n      0x00\n        /* \"AstanaIT_University_Assanali.sol\":3165:3171  digits */\n      dup2\n        /* \"AstanaIT_University_Assanali.sol\":3155:3172  new bytes(digits) */\n      0xffffffffffffffff\n      dup2\n      gt\n      iszero\n      tag_152\n      jumpi\n      tag_153\n      tag_154\n      jump\t// in\n    tag_153:\n    tag_152:\n      mload(0x40)\n      swap1\n      dup1\n      dup3\n      mstore\n      dup1\n      0x1f\n      add\n      not(0x1f)\n      and\n      0x20\n      add\n      dup3\n      add\n      0x40\n      mstore\n      dup1\n      iszero\n      tag_155\n      jumpi\n      dup2\n      0x20\n      add\n      0x01\n      dup3\n      mul\n      dup1\n      calldatasize\n      dup4\n      calldatacopy\n      dup1\n      dup3\n      add\n      swap2\n      pop\n      pop\n      swap1\n      pop\n    tag_155:\n      pop\n        /* \"AstanaIT_University_Assanali.sol\":3133:3172  bytes memory buffer = new bytes(digits) */\n      swap1\n      pop\n        /* \"AstanaIT_University_Assanali.sol\":3183:3337  while (value != 0) {... */\n    tag_156:\n        /* \"AstanaIT_University_Assanali.sol\":3199:3200  0 */\n      0x00\n        /* \"AstanaIT_University_Assanali.sol\":3190:3195  value */\n      dup6\n        /* \"AstanaIT_University_Assanali.sol\":3190:3200  value != 0 */\n      eq\n        /* \"AstanaIT_University_Assanali.sol\":3183:3337  while (value != 0) {... */\n      tag_157\n      jumpi\n        /* \"AstanaIT_University_Assanali.sol\":3227:3228  1 */\n      0x01\n        /* \"AstanaIT_University_Assanali.sol\":3217:3228  digits -= 1 */\n      dup3\n      tag_158\n      swap2\n      swap1\n      tag_159\n      jump\t// in\n    tag_158:\n      swap2\n      pop\n        /* \"AstanaIT_University_Assanali.sol\":3294:3296  10 */\n      0x0a\n        /* \"AstanaIT_University_Assanali.sol\":3286:3291  value */\n      dup6\n        /* \"AstanaIT_University_Assanali.sol\":3286:3296  value % 10 */\n      tag_160\n      swap2\n      swap1\n      tag_161\n      jump\t// in\n    tag_160:\n        /* \"AstanaIT_University_Assanali.sol\":3273:3275  48 */\n      0x30\n        /* \"AstanaIT_University_Assanali.sol\":3273:3297  48 + uint256(value % 10) */\n      tag_162\n      swap2\n      swap1\n      tag_163\n      jump\t// in\n    tag_162:\n        /* \"AstanaIT_University_Assanali.sol\":3260:3299  bytes1(uint8(48 + uint256(value % 10))) */\n      0xf8\n      shl\n        /* \"AstanaIT_University_Assanali.sol\":3243:3249  buffer */\n      dup2\n        /* \"AstanaIT_University_Assanali.sol\":3250:3256  digits */\n      dup4\n        /* \"AstanaIT_University_Assanali.sol\":3243:3257  buffer[digits] */\n      dup2\n      mload\n      dup2\n      lt\n      tag_164\n      jumpi\n      tag_165\n      tag_166\n      jump\t// in\n    tag_165:\n    tag_164:\n      0x20\n      add\n      add\n        /* \"AstanaIT_University_Assanali.sol\":3243:3299  buffer[digits] = bytes1(uint8(48 + uint256(value % 10))) */\n      swap1\n      not(0xffffffffffffffffffffffffffffffffffffffffffffffffffffffffffffff)\n      and\n      swap1\n      dup2\n      0x00\n      byte\n      swap1\n      mstore8\n      pop\n        /* \"AstanaIT_University_Assanali.sol\":3323:3325  10 */\n      0x0a\n        /* \"AstanaIT_University_Assanali.sol\":3314:3325  value /= 10 */\n      dup6\n      tag_167\n      swap2\n      swap1\n      tag_151\n      jump\t// in\n    tag_167:\n      swap5\n      pop\n        /* \"AstanaIT_University_Assanali.sol\":3183:3337  while (value != 0) {... */\n      jump(tag_156)\n    tag_157:\n        /* \"AstanaIT_University_Assanali.sol\":3361:3367  buffer */\n      dup1\n        /* \"AstanaIT_University_Assanali.sol\":3347:3368  return string(buffer) */\n      swap4\n      pop\n      pop\n      pop\n      pop\n        /* \"AstanaIT_University_Assanali.sol\":2839:3376  function _uintToString(uint256 value) internal pure returns (string memory) {... */\n    tag_144:\n      swap2\n      swap1\n      pop\n      jump\t// out\n        /* \"@openzeppelin/contracts/token/ERC20/ERC20.sol\":3610:3788  function transfer(address to, uint256 value) public virtual returns (bool) {... */\n    tag_120:\n        /* \"@openzeppelin/contracts/token/ERC20/ERC20.sol\":3679:3683  bool */\n      0x00\n        /* \"@openzeppelin/contracts/token/ERC20/ERC20.sol\":3695:3708  address owner */\n      dup1\n        /* \"@openzeppelin/contracts/token/ERC20/ERC20.sol\":3711:3723  _msgSender() */\n      tag_169\n        /* \"@openzeppelin/contracts/token/ERC20/ERC20.sol\":3711:3721  _msgSender */\n      tag_93\n        /* \"@openzeppelin/contracts/token/ERC20/ERC20.sol\":3711:3723  _msgSender() */\n      jump\t// in\n    tag_169:\n        /* \"@openzeppelin/contracts/token/ERC20/ERC20.sol\":3695:3723  address owner = _msgSender() */\n      swap1\n      pop\n        /* \"@openzeppelin/contracts/token/ERC20/ERC20.sol\":3733:3760  _transfer(owner, to, value) */\n      tag_170\n        /* \"@openzeppelin/contracts/token/ERC20/ERC20.sol\":3743:3748  owner */\n      dup2\n        /* \"@openzeppelin/contracts/token/ERC20/ERC20.sol\":3750:3752  to */\n      dup6\n        /* \"@openzeppelin/contracts/token/ERC20/ERC20.sol\":3754:3759  value */\n      dup6\n        /* \"@openzeppelin/contracts/token/ERC20/ERC20.sol\":3733:3742  _transfer */\n      tag_143\n        /* \"@openzeppelin/contracts/token/ERC20/ERC20.sol\":3733:3760  _transfer(owner, to, value) */\n      jump\t// in\n    tag_170:\n        /* \"@openzeppelin/contracts/token/ERC20/ERC20.sol\":3777:3781  true */\n      0x01\n        /* \"@openzeppelin/contracts/token/ERC20/ERC20.sol\":3770:3781  return true */\n      swap2\n      pop\n      pop\n        /* \"@openzeppelin/contracts/token/ERC20/ERC20.sol\":3610:3788  function transfer(address to, uint256 value) public virtual returns (bool) {... */\n      swap3\n      swap2\n      pop\n      pop\n      jump\t// out\n        /* \"AstanaIT_University_Assanali.sol\":696:2070  function timestampToDate(uint256 timestamp) internal pure returns (string memory) {... */\n    tag_132:\n        /* \"AstanaIT_University_Assanali.sol\":763:776  string memory */\n      0x60\n        /* \"AstanaIT_University_Assanali.sol\":894:915  uint256 secondsInYear */\n      0x00\n        /* \"AstanaIT_University_Assanali.sol\":918:926  31536000 */\n      0x01e13380\n        /* \"AstanaIT_University_Assanali.sol\":894:926  uint256 secondsInYear = 31536000 */\n      swap1\n      pop\n        /* \"AstanaIT_University_Assanali.sol\":954:966  uint256 year */\n      0x00\n        /* \"AstanaIT_University_Assanali.sol\":997:1001  1970 */\n      0x07b2\n        /* \"AstanaIT_University_Assanali.sol\":981:994  secondsInYear */\n      dup3\n        /* \"AstanaIT_University_Assanali.sol\":969:978  timestamp */\n      dup6\n        /* \"AstanaIT_University_Assanali.sol\":969:994  timestamp / secondsInYear */\n      tag_172\n      swap2\n      swap1\n      tag_151\n      jump\t// in\n    tag_172:\n        /* \"AstanaIT_University_Assanali.sol\":969:1001  timestamp / secondsInYear + 1970 */\n      tag_173\n      swap2\n      swap1\n      tag_163\n      jump\t// in\n    tag_173:\n        /* \"AstanaIT_University_Assanali.sol\":954:1001  uint256 year = timestamp / secondsInYear + 1970 */\n      swap1\n      pop\n        /* \"AstanaIT_University_Assanali.sol\":1034:1056  uint256 secondsInMonth */\n      0x00\n        /* \"AstanaIT_University_Assanali.sol\":1059:1066  2629746 */\n      0x282072\n        /* \"AstanaIT_University_Assanali.sol\":1034:1066  uint256 secondsInMonth = 2629746 */\n      swap1\n      pop\n        /* \"AstanaIT_University_Assanali.sol\":1103:1116  uint256 month */\n      0x00\n        /* \"AstanaIT_University_Assanali.sol\":1166:1167  1 */\n      0x01\n        /* \"AstanaIT_University_Assanali.sol\":1149:1163  secondsInMonth */\n      dup3\n        /* \"AstanaIT_University_Assanali.sol\":1132:1145  secondsInYear */\n      dup6\n        /* \"AstanaIT_University_Assanali.sol\":1120:1129  timestamp */\n      dup9\n        /* \"AstanaIT_University_Assanali.sol\":1120:1145  timestamp % secondsInYear */\n      tag_174\n      swap2\n      swap1\n      tag_161\n      jump\t// in\n    tag_174:\n        /* \"AstanaIT_University_Assanali.sol\":1119:1163  (timestamp % secondsInYear) / secondsInMonth */\n      tag_175\n      swap2\n      swap1\n      tag_151\n      jump\t// in\n    tag_175:\n        /* \"AstanaIT_University_Assanali.sol\":1119:1167  (timestamp % secondsInYear) / secondsInMonth + 1 */\n      tag_176\n      swap2\n      swap1\n      tag_163\n      jump\t// in\n    tag_176:\n        /* \"AstanaIT_University_Assanali.sol\":1103:1167  uint256 month = (timestamp % secondsInYear) / secondsInMonth + 1 */\n      swap1\n      pop\n        /* \"AstanaIT_University_Assanali.sol\":1198:1218  uint256 secondsInDay */\n      0x00\n        /* \"AstanaIT_University_Assanali.sol\":1221:1226  86400 */\n      0x015180\n        /* \"AstanaIT_University_Assanali.sol\":1198:1226  uint256 secondsInDay = 86400 */\n      swap1\n      pop\n        /* \"AstanaIT_University_Assanali.sol\":1253:1264  uint256 day */\n      0x00\n        /* \"AstanaIT_University_Assanali.sol\":1313:1314  1 */\n      0x01\n        /* \"AstanaIT_University_Assanali.sol\":1298:1310  secondsInDay */\n      dup3\n        /* \"AstanaIT_University_Assanali.sol\":1280:1294  secondsInMonth */\n      dup6\n        /* \"AstanaIT_University_Assanali.sol\":1268:1277  timestamp */\n      dup11\n        /* \"AstanaIT_University_Assanali.sol\":1268:1294  timestamp % secondsInMonth */\n      tag_177\n      swap2\n      swap1\n      tag_161\n      jump\t// in\n    tag_177:\n        /* \"AstanaIT_University_Assanali.sol\":1267:1310  (timestamp % secondsInMonth) / secondsInDay */\n      tag_178\n      swap2\n      swap1\n      tag_151\n      jump\t// in\n    tag_178:\n        /* \"AstanaIT_University_Assanali.sol\":1267:1314  (timestamp % secondsInMonth) / secondsInDay + 1 */\n      tag_179\n      swap2\n      swap1\n      tag_163\n      jump\t// in\n    tag_179:\n        /* \"AstanaIT_University_Assanali.sol\":1253:1314  uint256 day = (timestamp % secondsInMonth) / secondsInDay + 1 */\n      swap1\n      pop\n        /* \"AstanaIT_University_Assanali.sol\":1346:1367  uint256 secondsInHour */\n      0x00\n        /* \"AstanaIT_University_Assanali.sol\":1370:1374  3600 */\n      0x0e10\n        /* \"AstanaIT_University_Assanali.sol\":1346:1374  uint256 secondsInHour = 3600 */\n      swap1\n      pop\n        /* \"AstanaIT_University_Assanali.sol\":1403:1415  uint256 hour */\n      0x00\n        /* \"AstanaIT_University_Assanali.sol\":1447:1460  secondsInHour */\n      dup2\n        /* \"AstanaIT_University_Assanali.sol\":1431:1443  secondsInDay */\n      dup5\n        /* \"AstanaIT_University_Assanali.sol\":1419:1428  timestamp */\n      dup12\n        /* \"AstanaIT_University_Assanali.sol\":1419:1443  timestamp % secondsInDay */\n      tag_180\n      swap2\n      swap1\n      tag_161\n      jump\t// in\n    tag_180:\n        /* \"AstanaIT_University_Assanali.sol\":1418:1460  (timestamp % secondsInDay) / secondsInHour */\n      tag_181\n      swap2\n      swap1\n      tag_151\n      jump\t// in\n    tag_181:\n        /* \"AstanaIT_University_Assanali.sol\":1403:1460  uint256 hour = (timestamp % secondsInDay) / secondsInHour */\n      swap1\n      pop\n        /* \"AstanaIT_University_Assanali.sol\":1494:1517  uint256 secondsInMinute */\n      0x00\n        /* \"AstanaIT_University_Assanali.sol\":1520:1522  60 */\n      0x3c\n        /* \"AstanaIT_University_Assanali.sol\":1494:1522  uint256 secondsInMinute = 60 */\n      swap1\n      pop\n        /* \"AstanaIT_University_Assanali.sol\":1552:1566  uint256 minute */\n      0x00\n        /* \"AstanaIT_University_Assanali.sol\":1599:1614  secondsInMinute */\n      dup2\n        /* \"AstanaIT_University_Assanali.sol\":1582:1595  secondsInHour */\n      dup5\n        /* \"AstanaIT_University_Assanali.sol\":1570:1579  timestamp */\n      dup14\n        /* \"AstanaIT_University_Assanali.sol\":1570:1595  timestamp % secondsInHour */\n      tag_182\n      swap2\n      swap1\n      tag_161\n      jump\t// in\n    tag_182:\n        /* \"AstanaIT_University_Assanali.sol\":1569:1614  (timestamp % secondsInHour) / secondsInMinute */\n      tag_183\n      swap2\n      swap1\n      tag_151\n      jump\t// in\n    tag_183:\n        /* \"AstanaIT_University_Assanali.sol\":1552:1614  uint256 minute = (timestamp % secondsInHour) / secondsInMinute */\n      swap1\n      pop\n        /* \"AstanaIT_University_Assanali.sol\":1648:1662  uint256 second */\n      0x00\n        /* \"AstanaIT_University_Assanali.sol\":1677:1692  secondsInMinute */\n      dup3\n        /* \"AstanaIT_University_Assanali.sol\":1665:1674  timestamp */\n      dup14\n        /* \"AstanaIT_University_Assanali.sol\":1665:1692  timestamp % secondsInMinute */\n      tag_184\n      swap2\n      swap1\n      tag_161\n      jump\t// in\n    tag_184:\n        /* \"AstanaIT_University_Assanali.sol\":1648:1692  uint256 second = timestamp % secondsInMinute */\n      swap1\n      pop\n        /* \"AstanaIT_University_Assanali.sol\":1761:1789  string memory dateTimeString */\n      0x00\n        /* \"AstanaIT_University_Assanali.sol\":1826:1845  _uintToString(year) */\n      tag_185\n        /* \"AstanaIT_University_Assanali.sol\":1840:1844  year */\n      dup12\n        /* \"AstanaIT_University_Assanali.sol\":1826:1839  _uintToString */\n      tag_102\n        /* \"AstanaIT_University_Assanali.sol\":1826:1845  _uintToString(year) */\n      jump\t// in\n    tag_185:\n        /* \"AstanaIT_University_Assanali.sol\":1861:1881  _uintToString(month) */\n      tag_186\n        /* \"AstanaIT_University_Assanali.sol\":1875:1880  month */\n      dup11\n        /* \"AstanaIT_University_Assanali.sol\":1861:1874  _uintToString */\n      tag_102\n        /* \"AstanaIT_University_Assanali.sol\":1861:1881  _uintToString(month) */\n      jump\t// in\n    tag_186:\n        /* \"AstanaIT_University_Assanali.sol\":1897:1915  _uintToString(day) */\n      tag_187\n        /* \"AstanaIT_University_Assanali.sol\":1911:1914  day */\n      dup10\n        /* \"AstanaIT_University_Assanali.sol\":1897:1910  _uintToString */\n      tag_102\n        /* \"AstanaIT_University_Assanali.sol\":1897:1915  _uintToString(day) */\n      jump\t// in\n    tag_187:\n        /* \"AstanaIT_University_Assanali.sol\":1931:1950  _uintToString(hour) */\n      tag_188\n        /* \"AstanaIT_University_Assanali.sol\":1945:1949  hour */\n      dup9\n        /* \"AstanaIT_University_Assanali.sol\":1931:1944  _uintToString */\n      tag_102\n        /* \"AstanaIT_University_Assanali.sol\":1931:1950  _uintToString(hour) */\n      jump\t// in\n    tag_188:\n        /* \"AstanaIT_University_Assanali.sol\":1966:1987  _uintToString(minute) */\n      tag_189\n        /* \"AstanaIT_University_Assanali.sol\":1980:1986  minute */\n      dup8\n        /* \"AstanaIT_University_Assanali.sol\":1966:1979  _uintToString */\n      tag_102\n        /* \"AstanaIT_University_Assanali.sol\":1966:1987  _uintToString(minute) */\n      jump\t// in\n    tag_189:\n        /* \"AstanaIT_University_Assanali.sol\":2003:2024  _uintToString(second) */\n      tag_190\n        /* \"AstanaIT_University_Assanali.sol\":2017:2023  second */\n      dup8\n        /* \"AstanaIT_University_Assanali.sol\":2003:2016  _uintToString */\n      tag_102\n        /* \"AstanaIT_University_Assanali.sol\":2003:2024  _uintToString(second) */\n      jump\t// in\n    tag_190:\n        /* \"AstanaIT_University_Assanali.sol\":1799:2031  abi.encodePacked(... */\n      add(0x20, mload(0x40))\n      tag_191\n      swap7\n      swap6\n      swap5\n      swap4\n      swap3\n      swap2\n      swap1\n      tag_192\n      jump\t// in\n    tag_191:\n      mload(0x40)\n      0x20\n      dup2\n      dup4\n      sub\n      sub\n      dup2\n      mstore\n      swap1\n      0x40\n      mstore\n        /* \"AstanaIT_University_Assanali.sol\":1761:2032  string memory dateTimeString = string(abi.encodePacked(... */\n      swap1\n      pop\n        /* \"AstanaIT_University_Assanali.sol\":2048:2062  dateTimeString */\n      dup1\n        /* \"AstanaIT_University_Assanali.sol\":2041:2062  return dateTimeString */\n      swap13\n      pop\n      pop\n      pop\n      pop\n      pop\n      pop\n      pop\n      pop\n      pop\n      pop\n      pop\n      pop\n      pop\n        /* \"AstanaIT_University_Assanali.sol\":696:2070  function timestampToDate(uint256 timestamp) internal pure returns (string memory) {... */\n      swap2\n      swap1\n      pop\n      jump\t// out\n        /* \"@openzeppelin/contracts/token/ERC20/ERC20.sol\":9949:10381  function _approve(address owner, address spender, uint256 value, bool emitEvent) internal virtual {... */\n    tag_137:\n        /* \"@openzeppelin/contracts/token/ERC20/ERC20.sol\":10078:10079  0 */\n      0x00\n        /* \"@openzeppelin/contracts/token/ERC20/ERC20.sol\":10061:10080  owner == address(0) */\n      0xffffffffffffffffffffffffffffffffffffffff\n      and\n        /* \"@openzeppelin/contracts/token/ERC20/ERC20.sol\":10061:10066  owner */\n      dup5\n        /* \"@openzeppelin/contracts/token/ERC20/ERC20.sol\":10061:10080  owner == address(0) */\n      0xffffffffffffffffffffffffffffffffffffffff\n      and\n      sub\n        /* \"@openzeppelin/contracts/token/ERC20/ERC20.sol\":10057:10146  if (owner == address(0)) {... */\n      tag_194\n      jumpi\n        /* \"@openzeppelin/contracts/token/ERC20/ERC20.sol\":10132:10133  0 */\n      0x00\n        /* \"@openzeppelin/contracts/token/ERC20/ERC20.sol\":10103:10135  ERC20InvalidApprover(address(0)) */\n      mload(0x40)\n      0xe602df0500000000000000000000000000000000000000000000000000000000\n      dup2\n      mstore\n      0x04\n      add\n      tag_195\n      swap2\n      swap1\n      tag_59\n      jump\t// in\n    tag_195:\n      mload(0x40)\n      dup1\n      swap2\n      sub\n      swap1\n      revert\n        /* \"@openzeppelin/contracts/token/ERC20/ERC20.sol\":10057:10146  if (owner == address(0)) {... */\n    tag_194:\n        /* \"@openzeppelin/contracts/token/ERC20/ERC20.sol\":10178:10179  0 */\n      0x00\n        /* \"@openzeppelin/contracts/token/ERC20/ERC20.sol\":10159:10180  spender == address(0) */\n      0xffffffffffffffffffffffffffffffffffffffff\n      and\n        /* \"@openzeppelin/contracts/token/ERC20/ERC20.sol\":10159:10166  spender */\n      dup4\n        /* \"@openzeppelin/contracts/token/ERC20/ERC20.sol\":10159:10180  spender == address(0) */\n      0xffffffffffffffffffffffffffffffffffffffff\n      and\n      sub\n        /* \"@openzeppelin/contracts/token/ERC20/ERC20.sol\":10155:10245  if (spender == address(0)) {... */\n      tag_196\n      jumpi\n        /* \"@openzeppelin/contracts/token/ERC20/ERC20.sol\":10231:10232  0 */\n      0x00\n        /* \"@openzeppelin/contracts/token/ERC20/ERC20.sol\":10203:10234  ERC20InvalidSpender(address(0)) */\n      mload(0x40)\n      0x94280d6200000000000000000000000000000000000000000000000000000000\n      dup2\n      mstore\n      0x04\n      add\n      tag_197\n      swap2\n      swap1\n      tag_59\n      jump\t// in\n    tag_197:\n      mload(0x40)\n      dup1\n      swap2\n      sub\n      swap1\n      revert\n        /* \"@openzeppelin/contracts/token/ERC20/ERC20.sol\":10155:10245  if (spender == address(0)) {... */\n    tag_196:\n        /* \"@openzeppelin/contracts/token/ERC20/ERC20.sol\":10284:10289  value */\n      dup2\n        /* \"@openzeppelin/contracts/token/ERC20/ERC20.sol\":10254:10265  _allowances */\n      0x01\n        /* \"@openzeppelin/contracts/token/ERC20/ERC20.sol\":10254:10272  _allowances[owner] */\n      0x00\n        /* \"@openzeppelin/contracts/token/ERC20/ERC20.sol\":10266:10271  owner */\n      dup7\n        /* \"@openzeppelin/contracts/token/ERC20/ERC20.sol\":10254:10272  _allowances[owner] */\n      0xffffffffffffffffffffffffffffffffffffffff\n      and\n      0xffffffffffffffffffffffffffffffffffffffff\n      and\n      dup2\n      mstore\n      0x20\n      add\n      swap1\n      dup2\n      mstore\n      0x20\n      add\n      0x00\n      keccak256\n        /* \"@openzeppelin/contracts/token/ERC20/ERC20.sol\":10254:10281  _allowances[owner][spender] */\n      0x00\n        /* \"@openzeppelin/contracts/token/ERC20/ERC20.sol\":10273:10280  spender */\n      dup6\n        /* \"@openzeppelin/contracts/token/ERC20/ERC20.sol\":10254:10281  _allowances[owner][spender] */\n      0xffffffffffffffffffffffffffffffffffffffff\n      and\n      0xffffffffffffffffffffffffffffffffffffffff\n      and\n      dup2\n      mstore\n      0x20\n      add\n      swap1\n      dup2\n      mstore\n      0x20\n      add\n      0x00\n      keccak256\n        /* \"@openzeppelin/contracts/token/ERC20/ERC20.sol\":10254:10289  _allowances[owner][spender] = value */\n      dup2\n      swap1\n      sstore\n      pop\n        /* \"@openzeppelin/contracts/token/ERC20/ERC20.sol\":10303:10312  emitEvent */\n      dup1\n        /* \"@openzeppelin/contracts/token/ERC20/ERC20.sol\":10299:10375  if (emitEvent) {... */\n      iszero\n      tag_198\n      jumpi\n        /* \"@openzeppelin/contracts/token/ERC20/ERC20.sol\":10349:10356  spender */\n      dup3\n        /* \"@openzeppelin/contracts/token/ERC20/ERC20.sol\":10333:10364  Approval(owner, spender, value) */\n      0xffffffffffffffffffffffffffffffffffffffff\n      and\n        /* \"@openzeppelin/contracts/token/ERC20/ERC20.sol\":10342:10347  owner */\n      dup5\n        /* \"@openzeppelin/contracts/token/ERC20/ERC20.sol\":10333:10364  Approval(owner, spender, value) */\n      0xffffffffffffffffffffffffffffffffffffffff\n      and\n      0x8c5be1e5ebec7d5bd14f71427d1e84f3dd0314c0f7b2291e5b200ac8c7c3b925\n        /* \"@openzeppelin/contracts/token/ERC20/ERC20.sol\":10358:10363  value */\n      dup5\n        /* \"@openzeppelin/contracts/token/ERC20/ERC20.sol\":10333:10364  Approval(owner, spender, value) */\n      mload(0x40)\n      tag_199\n      swap2\n      swap1\n      tag_35\n      jump\t// in\n    tag_199:\n      mload(0x40)\n      dup1\n      swap2\n      sub\n      swap1\n      log3\n        /* \"@openzeppelin/contracts/token/ERC20/ERC20.sol\":10299:10375  if (emitEvent) {... */\n    tag_198:\n        /* \"@openzeppelin/contracts/token/ERC20/ERC20.sol\":9949:10381  function _approve(address owner, address spender, uint256 value, bool emitEvent) internal virtual {... */\n      pop\n      pop\n      pop\n      pop\n      jump\t// out\n        /* \"@openzeppelin/contracts/token/ERC20/ERC20.sol\":10663:11140  function _spendAllowance(address owner, address spender, uint256 value) internal virtual {... */\n    tag_141:\n        /* \"@openzeppelin/contracts/token/ERC20/ERC20.sol\":10762:10786  uint256 currentAllowance */\n      0x00\n        /* \"@openzeppelin/contracts/token/ERC20/ERC20.sol\":10789:10814  allowance(owner, spender) */\n      tag_201\n        /* \"@openzeppelin/contracts/token/ERC20/ERC20.sol\":10799:10804  owner */\n      dup5\n        /* \"@openzeppelin/contracts/token/ERC20/ERC20.sol\":10806:10813  spender */\n      dup5\n        /* \"@openzeppelin/contracts/token/ERC20/ERC20.sol\":10789:10798  allowance */\n      tag_79\n        /* \"@openzeppelin/contracts/token/ERC20/ERC20.sol\":10789:10814  allowance(owner, spender) */\n      jump\t// in\n    tag_201:\n        /* \"@openzeppelin/contracts/token/ERC20/ERC20.sol\":10762:10814  uint256 currentAllowance = allowance(owner, spender) */\n      swap1\n      pop\n        /* \"@openzeppelin/contracts/token/ERC20/ERC20.sol\":10848:10865  type(uint256).max */\n      0xffffffffffffffffffffffffffffffffffffffffffffffffffffffffffffffff\n        /* \"@openzeppelin/contracts/token/ERC20/ERC20.sol\":10828:10844  currentAllowance */\n      dup2\n        /* \"@openzeppelin/contracts/token/ERC20/ERC20.sol\":10828:10865  currentAllowance != type(uint256).max */\n      eq\n        /* \"@openzeppelin/contracts/token/ERC20/ERC20.sol\":10824:11134  if (currentAllowance != type(uint256).max) {... */\n      tag_202\n      jumpi\n        /* \"@openzeppelin/contracts/token/ERC20/ERC20.sol\":10904:10909  value */\n      dup2\n        /* \"@openzeppelin/contracts/token/ERC20/ERC20.sol\":10885:10901  currentAllowance */\n      dup2\n        /* \"@openzeppelin/contracts/token/ERC20/ERC20.sol\":10885:10909  currentAllowance < value */\n      lt\n        /* \"@openzeppelin/contracts/token/ERC20/ERC20.sol\":10881:11011  if (currentAllowance < value) {... */\n      iszero\n      tag_203\n      jumpi\n        /* \"@openzeppelin/contracts/token/ERC20/ERC20.sol\":10963:10970  spender */\n      dup3\n        /* \"@openzeppelin/contracts/token/ERC20/ERC20.sol\":10972:10988  currentAllowance */\n      dup2\n        /* \"@openzeppelin/contracts/token/ERC20/ERC20.sol\":10990:10995  value */\n      dup4\n        /* \"@openzeppelin/contracts/token/ERC20/ERC20.sol\":10936:10996  ERC20InsufficientAllowance(spender, currentAllowance, value) */\n      mload(0x40)\n      0xfb8f41b200000000000000000000000000000000000000000000000000000000\n      dup2\n      mstore\n      0x04\n      add\n      tag_204\n      swap4\n      swap3\n      swap2\n      swap1\n      tag_205\n      jump\t// in\n    tag_204:\n      mload(0x40)\n      dup1\n      swap2\n      sub\n      swap1\n      revert\n        /* \"@openzeppelin/contracts/token/ERC20/ERC20.sol\":10881:11011  if (currentAllowance < value) {... */\n    tag_203:\n        /* \"@openzeppelin/contracts/token/ERC20/ERC20.sol\":11052:11109  _approve(owner, spender, currentAllowance - value, false) */\n      tag_206\n        /* \"@openzeppelin/contracts/token/ERC20/ERC20.sol\":11061:11066  owner */\n      dup5\n        /* \"@openzeppelin/contracts/token/ERC20/ERC20.sol\":11068:11075  spender */\n      dup5\n        /* \"@openzeppelin/contracts/token/ERC20/ERC20.sol\":11096:11101  value */\n      dup5\n        /* \"@openzeppelin/contracts/token/ERC20/ERC20.sol\":11077:11093  currentAllowance */\n      dup5\n        /* \"@openzeppelin/contracts/token/ERC20/ERC20.sol\":11077:11101  currentAllowance - value */\n      sub\n        /* \"@openzeppelin/contracts/token/ERC20/ERC20.sol\":11103:11108  false */\n      0x00\n        /* \"@openzeppelin/contracts/token/ERC20/ERC20.sol\":11052:11060  _approve */\n      tag_137\n        /* \"@openzeppelin/contracts/token/ERC20/ERC20.sol\":11052:11109  _approve(owner, spender, currentAllowance - value, false) */\n      jump\t// in\n    tag_206:\n        /* \"@openzeppelin/contracts/token/ERC20/ERC20.sol\":10824:11134  if (currentAllowance != type(uint256).max) {... */\n    tag_202:\n        /* \"@openzeppelin/contracts/token/ERC20/ERC20.sol\":10752:11140  {... */\n      pop\n        /* \"@openzeppelin/contracts/token/ERC20/ERC20.sol\":10663:11140  function _spendAllowance(address owner, address spender, uint256 value) internal virtual {... */\n      pop\n      pop\n      pop\n      jump\t// out\n        /* \"@openzeppelin/contracts/token/ERC20/ERC20.sol\":5656:5956  function _transfer(address from, address to, uint256 value) internal {... */\n    tag_143:\n        /* \"@openzeppelin/contracts/token/ERC20/ERC20.sol\":5755:5756  0 */\n      0x00\n        /* \"@openzeppelin/contracts/token/ERC20/ERC20.sol\":5739:5757  from == address(0) */\n      0xffffffffffffffffffffffffffffffffffffffff\n      and\n        /* \"@openzeppelin/contracts/token/ERC20/ERC20.sol\":5739:5743  from */\n      dup4\n        /* \"@openzeppelin/contracts/token/ERC20/ERC20.sol\":5739:5757  from == address(0) */\n      0xffffffffffffffffffffffffffffffffffffffff\n      and\n      sub\n        /* \"@openzeppelin/contracts/token/ERC20/ERC20.sol\":5735:5821  if (from == address(0)) {... */\n      tag_208\n      jumpi\n        /* \"@openzeppelin/contracts/token/ERC20/ERC20.sol\":5807:5808  0 */\n      0x00\n        /* \"@openzeppelin/contracts/token/ERC20/ERC20.sol\":5780:5810  ERC20InvalidSender(address(0)) */\n      mload(0x40)\n      0x96c6fd1e00000000000000000000000000000000000000000000000000000000\n      dup2\n      mstore\n      0x04\n      add\n      tag_209\n      swap2\n      swap1\n      tag_59\n      jump\t// in\n    tag_209:\n      mload(0x40)\n      dup1\n      swap2\n      sub\n      swap1\n      revert\n        /* \"@openzeppelin/contracts/token/ERC20/ERC20.sol\":5735:5821  if (from == address(0)) {... */\n    tag_208:\n        /* \"@openzeppelin/contracts/token/ERC20/ERC20.sol\":5848:5849  0 */\n      0x00\n        /* \"@openzeppelin/contracts/token/ERC20/ERC20.sol\":5834:5850  to == address(0) */\n      0xffffffffffffffffffffffffffffffffffffffff\n      and\n        /* \"@openzeppelin/contracts/token/ERC20/ERC20.sol\":5834:5836  to */\n      dup3\n        /* \"@openzeppelin/contracts/token/ERC20/ERC20.sol\":5834:5850  to == address(0) */\n      0xffffffffffffffffffffffffffffffffffffffff\n      and\n      sub\n        /* \"@openzeppelin/contracts/token/ERC20/ERC20.sol\":5830:5916  if (to == address(0)) {... */\n      tag_210\n      jumpi\n        /* \"@openzeppelin/contracts/token/ERC20/ERC20.sol\":5902:5903  0 */\n      0x00\n        /* \"@openzeppelin/contracts/token/ERC20/ERC20.sol\":5873:5905  ERC20InvalidReceiver(address(0)) */\n      mload(0x40)\n      0xec442f0500000000000000000000000000000000000000000000000000000000\n      dup2\n      mstore\n      0x04\n      add\n      tag_211\n      swap2\n      swap1\n      tag_59\n      jump\t// in\n    tag_211:\n      mload(0x40)\n      dup1\n      swap2\n      sub\n      swap1\n      revert\n        /* \"@openzeppelin/contracts/token/ERC20/ERC20.sol\":5830:5916  if (to == address(0)) {... */\n    tag_210:\n        /* \"@openzeppelin/contracts/token/ERC20/ERC20.sol\":5925:5949  _update(from, to, value) */\n      tag_212\n        /* \"@openzeppelin/contracts/token/ERC20/ERC20.sol\":5933:5937  from */\n      dup4\n        /* \"@openzeppelin/contracts/token/ERC20/ERC20.sol\":5939:5941  to */\n      dup4\n        /* \"@openzeppelin/contracts/token/ERC20/ERC20.sol\":5943:5948  value */\n      dup4\n        /* \"@openzeppelin/contracts/token/ERC20/ERC20.sol\":5925:5932  _update */\n      tag_213\n        /* \"@openzeppelin/contracts/token/ERC20/ERC20.sol\":5925:5949  _update(from, to, value) */\n      jump\t// in\n    tag_212:\n        /* \"@openzeppelin/contracts/token/ERC20/ERC20.sol\":5656:5956  function _transfer(address from, address to, uint256 value) internal {... */\n      pop\n      pop\n      pop\n      jump\t// out\n        /* \"@openzeppelin/contracts/token/ERC20/ERC20.sol\":6271:7378  function _update(address from, address to, uint256 value) internal virtual {... */\n    tag_213:\n        /* \"@openzeppelin/contracts/token/ERC20/ERC20.sol\":6376:6377  0 */\n      0x00\n        /* \"@openzeppelin/contracts/token/ERC20/ERC20.sol\":6360:6378  from == address(0) */\n      0xffffffffffffffffffffffffffffffffffffffff\n      and\n        /* \"@openzeppelin/contracts/token/ERC20/ERC20.sol\":6360:6364  from */\n      dup4\n        /* \"@openzeppelin/contracts/token/ERC20/ERC20.sol\":6360:6378  from == address(0) */\n      0xffffffffffffffffffffffffffffffffffffffff\n      and\n      sub\n        /* \"@openzeppelin/contracts/token/ERC20/ERC20.sol\":6356:6896  if (from == address(0)) {... */\n      tag_215\n      jumpi\n        /* \"@openzeppelin/contracts/token/ERC20/ERC20.sol\":6512:6517  value */\n      dup1\n        /* \"@openzeppelin/contracts/token/ERC20/ERC20.sol\":6496:6508  _totalSupply */\n      0x02\n      0x00\n        /* \"@openzeppelin/contracts/token/ERC20/ERC20.sol\":6496:6517  _totalSupply += value */\n      dup3\n      dup3\n      sload\n      tag_216\n      swap2\n      swap1\n      tag_163\n      jump\t// in\n    tag_216:\n      swap3\n      pop\n      pop\n      dup2\n      swap1\n      sstore\n      pop\n        /* \"@openzeppelin/contracts/token/ERC20/ERC20.sol\":6356:6896  if (from == address(0)) {... */\n      jump(tag_217)\n    tag_215:\n        /* \"@openzeppelin/contracts/token/ERC20/ERC20.sol\":6548:6567  uint256 fromBalance */\n      0x00\n        /* \"@openzeppelin/contracts/token/ERC20/ERC20.sol\":6570:6579  _balances */\n      dup1\n        /* \"@openzeppelin/contracts/token/ERC20/ERC20.sol\":6570:6585  _balances[from] */\n      0x00\n        /* \"@openzeppelin/contracts/token/ERC20/ERC20.sol\":6580:6584  from */\n      dup6\n        /* \"@openzeppelin/contracts/token/ERC20/ERC20.sol\":6570:6585  _balances[from] */\n      0xffffffffffffffffffffffffffffffffffffffff\n      and\n      0xffffffffffffffffffffffffffffffffffffffff\n      and\n      dup2\n      mstore\n      0x20\n      add\n      swap1\n      dup2\n      mstore\n      0x20\n      add\n      0x00\n      keccak256\n      sload\n        /* \"@openzeppelin/contracts/token/ERC20/ERC20.sol\":6548:6585  uint256 fromBalance = _balances[from] */\n      swap1\n      pop\n        /* \"@openzeppelin/contracts/token/ERC20/ERC20.sol\":6617:6622  value */\n      dup2\n        /* \"@openzeppelin/contracts/token/ERC20/ERC20.sol\":6603:6614  fromBalance */\n      dup2\n        /* \"@openzeppelin/contracts/token/ERC20/ERC20.sol\":6603:6622  fromBalance < value */\n      lt\n        /* \"@openzeppelin/contracts/token/ERC20/ERC20.sol\":6599:6714  if (fromBalance < value) {... */\n      iszero\n      tag_218\n      jumpi\n        /* \"@openzeppelin/contracts/token/ERC20/ERC20.sol\":6674:6678  from */\n      dup4\n        /* \"@openzeppelin/contracts/token/ERC20/ERC20.sol\":6680:6691  fromBalance */\n      dup2\n        /* \"@openzeppelin/contracts/token/ERC20/ERC20.sol\":6693:6698  value */\n      dup4\n        /* \"@openzeppelin/contracts/token/ERC20/ERC20.sol\":6649:6699  ERC20InsufficientBalance(from, fromBalance, value) */\n      mload(0x40)\n      0xe450d38c00000000000000000000000000000000000000000000000000000000\n      dup2\n      mstore\n      0x04\n      add\n      tag_219\n      swap4\n      swap3\n      swap2\n      swap1\n      tag_205\n      jump\t// in\n    tag_219:\n      mload(0x40)\n      dup1\n      swap2\n      sub\n      swap1\n      revert\n        /* \"@openzeppelin/contracts/token/ERC20/ERC20.sol\":6599:6714  if (fromBalance < value) {... */\n    tag_218:\n        /* \"@openzeppelin/contracts/token/ERC20/ERC20.sol\":6866:6871  value */\n      dup2\n        /* \"@openzeppelin/contracts/token/ERC20/ERC20.sol\":6852:6863  fromBalance */\n      dup2\n        /* \"@openzeppelin/contracts/token/ERC20/ERC20.sol\":6852:6871  fromBalance - value */\n      sub\n        /* \"@openzeppelin/contracts/token/ERC20/ERC20.sol\":6834:6843  _balances */\n      0x00\n        /* \"@openzeppelin/contracts/token/ERC20/ERC20.sol\":6834:6849  _balances[from] */\n      dup1\n        /* \"@openzeppelin/contracts/token/ERC20/ERC20.sol\":6844:6848  from */\n      dup7\n        /* \"@openzeppelin/contracts/token/ERC20/ERC20.sol\":6834:6849  _balances[from] */\n      0xffffffffffffffffffffffffffffffffffffffff\n      and\n      0xffffffffffffffffffffffffffffffffffffffff\n      and\n      dup2\n      mstore\n      0x20\n      add\n      swap1\n      dup2\n      mstore\n      0x20\n      add\n      0x00\n      keccak256\n        /* \"@openzeppelin/contracts/token/ERC20/ERC20.sol\":6834:6871  _balances[from] = fromBalance - value */\n      dup2\n      swap1\n      sstore\n      pop\n        /* \"@openzeppelin/contracts/token/ERC20/ERC20.sol\":6534:6896  {... */\n      pop\n        /* \"@openzeppelin/contracts/token/ERC20/ERC20.sol\":6356:6896  if (from == address(0)) {... */\n    tag_217:\n        /* \"@openzeppelin/contracts/token/ERC20/ERC20.sol\":6924:6925  0 */\n      0x00\n        /* \"@openzeppelin/contracts/token/ERC20/ERC20.sol\":6910:6926  to == address(0) */\n      0xffffffffffffffffffffffffffffffffffffffff\n      and\n        /* \"@openzeppelin/contracts/token/ERC20/ERC20.sol\":6910:6912  to */\n      dup3\n        /* \"@openzeppelin/contracts/token/ERC20/ERC20.sol\":6910:6926  to == address(0) */\n      0xffffffffffffffffffffffffffffffffffffffff\n      and\n      sub\n        /* \"@openzeppelin/contracts/token/ERC20/ERC20.sol\":6906:7331  if (to == address(0)) {... */\n      tag_220\n      jumpi\n        /* \"@openzeppelin/contracts/token/ERC20/ERC20.sol\":7089:7094  value */\n      dup1\n        /* \"@openzeppelin/contracts/token/ERC20/ERC20.sol\":7073:7085  _totalSupply */\n      0x02\n      0x00\n        /* \"@openzeppelin/contracts/token/ERC20/ERC20.sol\":7073:7094  _totalSupply -= value */\n      dup3\n      dup3\n      sload\n      sub\n      swap3\n      pop\n      pop\n      dup2\n      swap1\n      sstore\n      pop\n        /* \"@openzeppelin/contracts/token/ERC20/ERC20.sol\":6906:7331  if (to == address(0)) {... */\n      jump(tag_221)\n    tag_220:\n        /* \"@openzeppelin/contracts/token/ERC20/ERC20.sol\":7301:7306  value */\n      dup1\n        /* \"@openzeppelin/contracts/token/ERC20/ERC20.sol\":7284:7293  _balances */\n      0x00\n        /* \"@openzeppelin/contracts/token/ERC20/ERC20.sol\":7284:7297  _balances[to] */\n      dup1\n        /* \"@openzeppelin/contracts/token/ERC20/ERC20.sol\":7294:7296  to */\n      dup5\n        /* \"@openzeppelin/contracts/token/ERC20/ERC20.sol\":7284:7297  _balances[to] */\n      0xffffffffffffffffffffffffffffffffffffffff\n      and\n      0xffffffffffffffffffffffffffffffffffffffff\n      and\n      dup2\n      mstore\n      0x20\n      add\n      swap1\n      dup2\n      mstore\n      0x20\n      add\n      0x00\n      keccak256\n      0x00\n        /* \"@openzeppelin/contracts/token/ERC20/ERC20.sol\":7284:7306  _balances[to] += value */\n      dup3\n      dup3\n      sload\n      add\n      swap3\n      pop\n      pop\n      dup2\n      swap1\n      sstore\n      pop\n        /* \"@openzeppelin/contracts/token/ERC20/ERC20.sol\":6906:7331  if (to == address(0)) {... */\n    tag_221:\n        /* \"@openzeppelin/contracts/token/ERC20/ERC20.sol\":7361:7363  to */\n      dup2\n        /* \"@openzeppelin/contracts/token/ERC20/ERC20.sol\":7346:7371  Transfer(from, to, value) */\n      0xffffffffffffffffffffffffffffffffffffffff\n      and\n        /* \"@openzeppelin/contracts/token/ERC20/ERC20.sol\":7355:7359  from */\n      dup4\n        /* \"@openzeppelin/contracts/token/ERC20/ERC20.sol\":7346:7371  Transfer(from, to, value) */\n      0xffffffffffffffffffffffffffffffffffffffff\n      and\n      0xddf252ad1be2c89b69c2b068fc378daa952ba7f163c4a11628f55a4df523b3ef\n        /* \"@openzeppelin/contracts/token/ERC20/ERC20.sol\":7365:7370  value */\n      dup4\n        /* \"@openzeppelin/contracts/token/ERC20/ERC20.sol\":7346:7371  Transfer(from, to, value) */\n      mload(0x40)\n      tag_222\n      swap2\n      swap1\n      tag_35\n      jump\t// in\n    tag_222:\n      mload(0x40)\n      dup1\n      swap2\n      sub\n      swap1\n      log3\n        /* \"@openzeppelin/contracts/token/ERC20/ERC20.sol\":6271:7378  function _update(address from, address to, uint256 value) internal virtual {... */\n      pop\n      pop\n      pop\n      jump\t// out\n        /* \"#utility.yul\":7:106   */\n    tag_223:\n        /* \"#utility.yul\":59:65   */\n      0x00\n        /* \"#utility.yul\":93:98   */\n      dup2\n        /* \"#utility.yul\":87:99   */\n      mload\n        /* \"#utility.yul\":77:99   */\n      swap1\n      pop\n        /* \"#utility.yul\":7:106   */\n      swap2\n      swap1\n      pop\n      jump\t// out\n        /* \"#utility.yul\":112:281   */\n    tag_224:\n        /* \"#utility.yul\":196:207   */\n      0x00\n        /* \"#utility.yul\":230:236   */\n      dup3\n        /* \"#utility.yul\":225:228   */\n      dup3\n        /* \"#utility.yul\":218:237   */\n      mstore\n        /* \"#utility.yul\":270:274   */\n      0x20\n        /* \"#utility.yul\":265:268   */\n      dup3\n        /* \"#utility.yul\":261:275   */\n      add\n        /* \"#utility.yul\":246:275   */\n      swap1\n      pop\n        /* \"#utility.yul\":112:281   */\n      swap3\n      swap2\n      pop\n      pop\n      jump\t// out\n        /* \"#utility.yul\":287:533   */\n    tag_225:\n        /* \"#utility.yul\":368:369   */\n      0x00\n        /* \"#utility.yul\":378:491   */\n    tag_264:\n        /* \"#utility.yul\":392:398   */\n      dup4\n        /* \"#utility.yul\":389:390   */\n      dup2\n        /* \"#utility.yul\":386:399   */\n      lt\n        /* \"#utility.yul\":378:491   */\n      iszero\n      tag_266\n      jumpi\n        /* \"#utility.yul\":477:478   */\n      dup1\n        /* \"#utility.yul\":472:475   */\n      dup3\n        /* \"#utility.yul\":468:479   */\n      add\n        /* \"#utility.yul\":462:480   */\n      mload\n        /* \"#utility.yul\":458:459   */\n      dup2\n        /* \"#utility.yul\":453:456   */\n      dup5\n        /* \"#utility.yul\":449:460   */\n      add\n        /* \"#utility.yul\":442:481   */\n      mstore\n        /* \"#utility.yul\":414:416   */\n      0x20\n        /* \"#utility.yul\":411:412   */\n      dup2\n        /* \"#utility.yul\":407:417   */\n      add\n        /* \"#utility.yul\":402:417   */\n      swap1\n      pop\n        /* \"#utility.yul\":378:491   */\n      jump(tag_264)\n    tag_266:\n        /* \"#utility.yul\":525:526   */\n      0x00\n        /* \"#utility.yul\":516:522   */\n      dup5\n        /* \"#utility.yul\":511:514   */\n      dup5\n        /* \"#utility.yul\":507:523   */\n      add\n        /* \"#utility.yul\":500:527   */\n      mstore\n        /* \"#utility.yul\":349:533   */\n      pop\n        /* \"#utility.yul\":287:533   */\n      pop\n      pop\n      pop\n      jump\t// out\n        /* \"#utility.yul\":539:641   */\n    tag_226:\n        /* \"#utility.yul\":580:586   */\n      0x00\n        /* \"#utility.yul\":631:633   */\n      0x1f\n        /* \"#utility.yul\":627:634   */\n      not\n        /* \"#utility.yul\":622:624   */\n      0x1f\n        /* \"#utility.yul\":615:620   */\n      dup4\n        /* \"#utility.yul\":611:625   */\n      add\n        /* \"#utility.yul\":607:635   */\n      and\n        /* \"#utility.yul\":597:635   */\n      swap1\n      pop\n        /* \"#utility.yul\":539:641   */\n      swap2\n      swap1\n      pop\n      jump\t// out\n        /* \"#utility.yul\":647:1024   */\n    tag_227:\n        /* \"#utility.yul\":735:738   */\n      0x00\n        /* \"#utility.yul\":763:802   */\n      tag_269\n        /* \"#utility.yul\":796:801   */\n      dup3\n        /* \"#utility.yul\":763:802   */\n      tag_223\n      jump\t// in\n    tag_269:\n        /* \"#utility.yul\":818:889   */\n      tag_270\n        /* \"#utility.yul\":882:888   */\n      dup2\n        /* \"#utility.yul\":877:880   */\n      dup6\n        /* \"#utility.yul\":818:889   */\n      tag_224\n      jump\t// in\n    tag_270:\n        /* \"#utility.yul\":811:889   */\n      swap4\n      pop\n        /* \"#utility.yul\":898:963   */\n      tag_271\n        /* \"#utility.yul\":956:962   */\n      dup2\n        /* \"#utility.yul\":951:954   */\n      dup6\n        /* \"#utility.yul\":944:948   */\n      0x20\n        /* \"#utility.yul\":937:942   */\n      dup7\n        /* \"#utility.yul\":933:949   */\n      add\n        /* \"#utility.yul\":898:963   */\n      tag_225\n      jump\t// in\n    tag_271:\n        /* \"#utility.yul\":988:1017   */\n      tag_272\n        /* \"#utility.yul\":1010:1016   */\n      dup2\n        /* \"#utility.yul\":988:1017   */\n      tag_226\n      jump\t// in\n    tag_272:\n        /* \"#utility.yul\":983:986   */\n      dup5\n        /* \"#utility.yul\":979:1018   */\n      add\n        /* \"#utility.yul\":972:1018   */\n      swap2\n      pop\n        /* \"#utility.yul\":739:1024   */\n      pop\n        /* \"#utility.yul\":647:1024   */\n      swap3\n      swap2\n      pop\n      pop\n      jump\t// out\n        /* \"#utility.yul\":1030:1343   */\n    tag_25:\n        /* \"#utility.yul\":1143:1147   */\n      0x00\n        /* \"#utility.yul\":1181:1183   */\n      0x20\n        /* \"#utility.yul\":1170:1179   */\n      dup3\n        /* \"#utility.yul\":1166:1184   */\n      add\n        /* \"#utility.yul\":1158:1184   */\n      swap1\n      pop\n        /* \"#utility.yul\":1230:1239   */\n      dup2\n        /* \"#utility.yul\":1224:1228   */\n      dup2\n        /* \"#utility.yul\":1220:1240   */\n      sub\n        /* \"#utility.yul\":1216:1217   */\n      0x00\n        /* \"#utility.yul\":1205:1214   */\n      dup4\n        /* \"#utility.yul\":1201:1218   */\n      add\n        /* \"#utility.yul\":1194:1241   */\n      mstore\n        /* \"#utility.yul\":1258:1336   */\n      tag_274\n        /* \"#utility.yul\":1331:1335   */\n      dup2\n        /* \"#utility.yul\":1322:1328   */\n      dup5\n        /* \"#utility.yul\":1258:1336   */\n      tag_227\n      jump\t// in\n    tag_274:\n        /* \"#utility.yul\":1250:1336   */\n      swap1\n      pop\n        /* \"#utility.yul\":1030:1343   */\n      swap3\n      swap2\n      pop\n      pop\n      jump\t// out\n        /* \"#utility.yul\":1430:1547   */\n    tag_229:\n        /* \"#utility.yul\":1539:1540   */\n      0x00\n        /* \"#utility.yul\":1536:1537   */\n      dup1\n        /* \"#utility.yul\":1529:1541   */\n      revert\n        /* \"#utility.yul\":1676:1802   */\n    tag_231:\n        /* \"#utility.yul\":1713:1720   */\n      0x00\n        /* \"#utility.yul\":1753:1795   */\n      0xffffffffffffffffffffffffffffffffffffffff\n        /* \"#utility.yul\":1746:1751   */\n      dup3\n        /* \"#utility.yul\":1742:1796   */\n      and\n        /* \"#utility.yul\":1731:1796   */\n      swap1\n      pop\n        /* \"#utility.yul\":1676:1802   */\n      swap2\n      swap1\n      pop\n      jump\t// out\n        /* \"#utility.yul\":1808:1904   */\n    tag_232:\n        /* \"#utility.yul\":1845:1852   */\n      0x00\n        /* \"#utility.yul\":1874:1898   */\n      tag_280\n        /* \"#utility.yul\":1892:1897   */\n      dup3\n        /* \"#utility.yul\":1874:1898   */\n      tag_231\n      jump\t// in\n    tag_280:\n        /* \"#utility.yul\":1863:1898   */\n      swap1\n      pop\n        /* \"#utility.yul\":1808:1904   */\n      swap2\n      swap1\n      pop\n      jump\t// out\n        /* \"#utility.yul\":1910:2032   */\n    tag_233:\n        /* \"#utility.yul\":1983:2007   */\n      tag_282\n        /* \"#utility.yul\":2001:2006   */\n      dup2\n        /* \"#utility.yul\":1983:2007   */\n      tag_232\n      jump\t// in\n    tag_282:\n        /* \"#utility.yul\":1976:1981   */\n      dup2\n        /* \"#utility.yul\":1973:2008   */\n      eq\n        /* \"#utility.yul\":1963:2026   */\n      tag_283\n      jumpi\n        /* \"#utility.yul\":2022:2023   */\n      0x00\n        /* \"#utility.yul\":2019:2020   */\n      dup1\n        /* \"#utility.yul\":2012:2024   */\n      revert\n        /* \"#utility.yul\":1963:2026   */\n    tag_283:\n        /* \"#utility.yul\":1910:2032   */\n      pop\n      jump\t// out\n        /* \"#utility.yul\":2038:2177   */\n    tag_234:\n        /* \"#utility.yul\":2084:2089   */\n      0x00\n        /* \"#utility.yul\":2122:2128   */\n      dup2\n        /* \"#utility.yul\":2109:2129   */\n      calldataload\n        /* \"#utility.yul\":2100:2129   */\n      swap1\n      pop\n        /* \"#utility.yul\":2138:2171   */\n      tag_285\n        /* \"#utility.yul\":2165:2170   */\n      dup2\n        /* \"#utility.yul\":2138:2171   */\n      tag_233\n      jump\t// in\n    tag_285:\n        /* \"#utility.yul\":2038:2177   */\n      swap3\n      swap2\n      pop\n      pop\n      jump\t// out\n        /* \"#utility.yul\":2183:2260   */\n    tag_235:\n        /* \"#utility.yul\":2220:2227   */\n      0x00\n        /* \"#utility.yul\":2249:2254   */\n      dup2\n        /* \"#utility.yul\":2238:2254   */\n      swap1\n      pop\n        /* \"#utility.yul\":2183:2260   */\n      swap2\n      swap1\n      pop\n      jump\t// out\n        /* \"#utility.yul\":2266:2388   */\n    tag_236:\n        /* \"#utility.yul\":2339:2363   */\n      tag_288\n        /* \"#utility.yul\":2357:2362   */\n      dup2\n        /* \"#utility.yul\":2339:2363   */\n      tag_235\n      jump\t// in\n    tag_288:\n        /* \"#utility.yul\":2332:2337   */\n      dup2\n        /* \"#utility.yul\":2329:2364   */\n      eq\n        /* \"#utility.yul\":2319:2382   */\n      tag_289\n      jumpi\n        /* \"#utility.yul\":2378:2379   */\n      0x00\n        /* \"#utility.yul\":2375:2376   */\n      dup1\n        /* \"#utility.yul\":2368:2380   */\n      revert\n        /* \"#utility.yul\":2319:2382   */\n    tag_289:\n        /* \"#utility.yul\":2266:2388   */\n      pop\n      jump\t// out\n        /* \"#utility.yul\":2394:2533   */\n    tag_237:\n        /* \"#utility.yul\":2440:2445   */\n      0x00\n        /* \"#utility.yul\":2478:2484   */\n      dup2\n        /* \"#utility.yul\":2465:2485   */\n      calldataload\n        /* \"#utility.yul\":2456:2485   */\n      swap1\n      pop\n        /* \"#utility.yul\":2494:2527   */\n      tag_291\n        /* \"#utility.yul\":2521:2526   */\n      dup2\n        /* \"#utility.yul\":2494:2527   */\n      tag_236\n      jump\t// in\n    tag_291:\n        /* \"#utility.yul\":2394:2533   */\n      swap3\n      swap2\n      pop\n      pop\n      jump\t// out\n        /* \"#utility.yul\":2539:3013   */\n    tag_28:\n        /* \"#utility.yul\":2607:2613   */\n      0x00\n        /* \"#utility.yul\":2615:2621   */\n      dup1\n        /* \"#utility.yul\":2664:2666   */\n      0x40\n        /* \"#utility.yul\":2652:2661   */\n      dup4\n        /* \"#utility.yul\":2643:2650   */\n      dup6\n        /* \"#utility.yul\":2639:2662   */\n      sub\n        /* \"#utility.yul\":2635:2667   */\n      slt\n        /* \"#utility.yul\":2632:2751   */\n      iszero\n      tag_293\n      jumpi\n        /* \"#utility.yul\":2670:2749   */\n      tag_294\n      tag_229\n      jump\t// in\n    tag_294:\n        /* \"#utility.yul\":2632:2751   */\n    tag_293:\n        /* \"#utility.yul\":2790:2791   */\n      0x00\n        /* \"#utility.yul\":2815:2868   */\n      tag_295\n        /* \"#utility.yul\":2860:2867   */\n      dup6\n        /* \"#utility.yul\":2851:2857   */\n      dup3\n        /* \"#utility.yul\":2840:2849   */\n      dup7\n        /* \"#utility.yul\":2836:2858   */\n      add\n        /* \"#utility.yul\":2815:2868   */\n      tag_234\n      jump\t// in\n    tag_295:\n        /* \"#utility.yul\":2805:2868   */\n      swap3\n      pop\n        /* \"#utility.yul\":2761:2878   */\n      pop\n        /* \"#utility.yul\":2917:2919   */\n      0x20\n        /* \"#utility.yul\":2943:2996   */\n      tag_296\n        /* \"#utility.yul\":2988:2995   */\n      dup6\n        /* \"#utility.yul\":2979:2985   */\n      dup3\n        /* \"#utility.yul\":2968:2977   */\n      dup7\n        /* \"#utility.yul\":2964:2986   */\n      add\n        /* \"#utility.yul\":2943:2996   */\n      tag_237\n      jump\t// in\n    tag_296:\n        /* \"#utility.yul\":2933:2996   */\n      swap2\n      pop\n        /* \"#utility.yul\":2888:3006   */\n      pop\n        /* \"#utility.yul\":2539:3013   */\n      swap3\n      pop\n      swap3\n      swap1\n      pop\n      jump\t// out\n        /* \"#utility.yul\":3019:3109   */\n    tag_238:\n        /* \"#utility.yul\":3053:3060   */\n      0x00\n        /* \"#utility.yul\":3096:3101   */\n      dup2\n        /* \"#utility.yul\":3089:3102   */\n      iszero\n        /* \"#utility.yul\":3082:3103   */\n      iszero\n        /* \"#utility.yul\":3071:3103   */\n      swap1\n      pop\n        /* \"#utility.yul\":3019:3109   */\n      swap2\n      swap1\n      pop\n      jump\t// out\n        /* \"#utility.yul\":3115:3224   */\n    tag_239:\n        /* \"#utility.yul\":3196:3217   */\n      tag_299\n        /* \"#utility.yul\":3211:3216   */\n      dup2\n        /* \"#utility.yul\":3196:3217   */\n      tag_238\n      jump\t// in\n    tag_299:\n        /* \"#utility.yul\":3191:3194   */\n      dup3\n        /* \"#utility.yul\":3184:3218   */\n      mstore\n        /* \"#utility.yul\":3115:3224   */\n      pop\n      pop\n      jump\t// out\n        /* \"#utility.yul\":3230:3440   */\n    tag_31:\n        /* \"#utility.yul\":3317:3321   */\n      0x00\n        /* \"#utility.yul\":3355:3357   */\n      0x20\n        /* \"#utility.yul\":3344:3353   */\n      dup3\n        /* \"#utility.yul\":3340:3358   */\n      add\n        /* \"#utility.yul\":3332:3358   */\n      swap1\n      pop\n        /* \"#utility.yul\":3368:3433   */\n      tag_301\n        /* \"#utility.yul\":3430:3431   */\n      0x00\n        /* \"#utility.yul\":3419:3428   */\n      dup4\n        /* \"#utility.yul\":3415:3432   */\n      add\n        /* \"#utility.yul\":3406:3412   */\n      dup5\n        /* \"#utility.yul\":3368:3433   */\n      tag_239\n      jump\t// in\n    tag_301:\n        /* \"#utility.yul\":3230:3440   */\n      swap3\n      swap2\n      pop\n      pop\n      jump\t// out\n        /* \"#utility.yul\":3446:3564   */\n    tag_240:\n        /* \"#utility.yul\":3533:3557   */\n      tag_303\n        /* \"#utility.yul\":3551:3556   */\n      dup2\n        /* \"#utility.yul\":3533:3557   */\n      tag_235\n      jump\t// in\n    tag_303:\n        /* \"#utility.yul\":3528:3531   */\n      dup3\n        /* \"#utility.yul\":3521:3558   */\n      mstore\n        /* \"#utility.yul\":3446:3564   */\n      pop\n      pop\n      jump\t// out\n        /* \"#utility.yul\":3570:3792   */\n    tag_35:\n        /* \"#utility.yul\":3663:3667   */\n      0x00\n        /* \"#utility.yul\":3701:3703   */\n      0x20\n        /* \"#utility.yul\":3690:3699   */\n      dup3\n        /* \"#utility.yul\":3686:3704   */\n      add\n        /* \"#utility.yul\":3678:3704   */\n      swap1\n      pop\n        /* \"#utility.yul\":3714:3785   */\n      tag_305\n        /* \"#utility.yul\":3782:3783   */\n      0x00\n        /* \"#utility.yul\":3771:3780   */\n      dup4\n        /* \"#utility.yul\":3767:3784   */\n      add\n        /* \"#utility.yul\":3758:3764   */\n      dup5\n        /* \"#utility.yul\":3714:3785   */\n      tag_240\n      jump\t// in\n    tag_305:\n        /* \"#utility.yul\":3570:3792   */\n      swap3\n      swap2\n      pop\n      pop\n      jump\t// out\n        /* \"#utility.yul\":3798:4417   */\n    tag_38:\n        /* \"#utility.yul\":3875:3881   */\n      0x00\n        /* \"#utility.yul\":3883:3889   */\n      dup1\n        /* \"#utility.yul\":3891:3897   */\n      0x00\n        /* \"#utility.yul\":3940:3942   */\n      0x60\n        /* \"#utility.yul\":3928:3937   */\n      dup5\n        /* \"#utility.yul\":3919:3926   */\n      dup7\n        /* \"#utility.yul\":3915:3938   */\n      sub\n        /* \"#utility.yul\":3911:3943   */\n      slt\n        /* \"#utility.yul\":3908:4027   */\n      iszero\n      tag_307\n      jumpi\n        /* \"#utility.yul\":3946:4025   */\n      tag_308\n      tag_229\n      jump\t// in\n    tag_308:\n        /* \"#utility.yul\":3908:4027   */\n    tag_307:\n        /* \"#utility.yul\":4066:4067   */\n      0x00\n        /* \"#utility.yul\":4091:4144   */\n      tag_309\n        /* \"#utility.yul\":4136:4143   */\n      dup7\n        /* \"#utility.yul\":4127:4133   */\n      dup3\n        /* \"#utility.yul\":4116:4125   */\n      dup8\n        /* \"#utility.yul\":4112:4134   */\n      add\n        /* \"#utility.yul\":4091:4144   */\n      tag_234\n      jump\t// in\n    tag_309:\n        /* \"#utility.yul\":4081:4144   */\n      swap4\n      pop\n        /* \"#utility.yul\":4037:4154   */\n      pop\n        /* \"#utility.yul\":4193:4195   */\n      0x20\n        /* \"#utility.yul\":4219:4272   */\n      tag_310\n        /* \"#utility.yul\":4264:4271   */\n      dup7\n        /* \"#utility.yul\":4255:4261   */\n      dup3\n        /* \"#utility.yul\":4244:4253   */\n      dup8\n        /* \"#utility.yul\":4240:4262   */\n      add\n        /* \"#utility.yul\":4219:4272   */\n      tag_234\n      jump\t// in\n    tag_310:\n        /* \"#utility.yul\":4209:4272   */\n      swap3\n      pop\n        /* \"#utility.yul\":4164:4282   */\n      pop\n        /* \"#utility.yul\":4321:4323   */\n      0x40\n        /* \"#utility.yul\":4347:4400   */\n      tag_311\n        /* \"#utility.yul\":4392:4399   */\n      dup7\n        /* \"#utility.yul\":4383:4389   */\n      dup3\n        /* \"#utility.yul\":4372:4381   */\n      dup8\n        /* \"#utility.yul\":4368:4390   */\n      add\n        /* \"#utility.yul\":4347:4400   */\n      tag_237\n      jump\t// in\n    tag_311:\n        /* \"#utility.yul\":4337:4400   */\n      swap2\n      pop\n        /* \"#utility.yul\":4292:4410   */\n      pop\n        /* \"#utility.yul\":3798:4417   */\n      swap3\n      pop\n      swap3\n      pop\n      swap3\n      jump\t// out\n        /* \"#utility.yul\":4423:4509   */\n    tag_241:\n        /* \"#utility.yul\":4458:4465   */\n      0x00\n        /* \"#utility.yul\":4498:4502   */\n      0xff\n        /* \"#utility.yul\":4491:4496   */\n      dup3\n        /* \"#utility.yul\":4487:4503   */\n      and\n        /* \"#utility.yul\":4476:4503   */\n      swap1\n      pop\n        /* \"#utility.yul\":4423:4509   */\n      swap2\n      swap1\n      pop\n      jump\t// out\n        /* \"#utility.yul\":4515:4627   */\n    tag_242:\n        /* \"#utility.yul\":4598:4620   */\n      tag_314\n        /* \"#utility.yul\":4614:4619   */\n      dup2\n        /* \"#utility.yul\":4598:4620   */\n      tag_241\n      jump\t// in\n    tag_314:\n        /* \"#utility.yul\":4593:4596   */\n      dup3\n        /* \"#utility.yul\":4586:4621   */\n      mstore\n        /* \"#utility.yul\":4515:4627   */\n      pop\n      pop\n      jump\t// out\n        /* \"#utility.yul\":4633:4847   */\n    tag_44:\n        /* \"#utility.yul\":4722:4726   */\n      0x00\n        /* \"#utility.yul\":4760:4762   */\n      0x20\n        /* \"#utility.yul\":4749:4758   */\n      dup3\n        /* \"#utility.yul\":4745:4763   */\n      add\n        /* \"#utility.yul\":4737:4763   */\n      swap1\n      pop\n        /* \"#utility.yul\":4773:4840   */\n      tag_316\n        /* \"#utility.yul\":4837:4838   */\n      0x00\n        /* \"#utility.yul\":4826:4835   */\n      dup4\n        /* \"#utility.yul\":4822:4839   */\n      add\n        /* \"#utility.yul\":4813:4819   */\n      dup5\n        /* \"#utility.yul\":4773:4840   */\n      tag_242\n      jump\t// in\n    tag_316:\n        /* \"#utility.yul\":4633:4847   */\n      swap3\n      swap2\n      pop\n      pop\n      jump\t// out\n        /* \"#utility.yul\":4853:5182   */\n    tag_53:\n        /* \"#utility.yul\":4912:4918   */\n      0x00\n        /* \"#utility.yul\":4961:4963   */\n      0x20\n        /* \"#utility.yul\":4949:4958   */\n      dup3\n        /* \"#utility.yul\":4940:4947   */\n      dup5\n        /* \"#utility.yul\":4936:4959   */\n      sub\n        /* \"#utility.yul\":4932:4964   */\n      slt\n        /* \"#utility.yul\":4929:5048   */\n      iszero\n      tag_318\n      jumpi\n        /* \"#utility.yul\":4967:5046   */\n      tag_319\n      tag_229\n      jump\t// in\n    tag_319:\n        /* \"#utility.yul\":4929:5048   */\n    tag_318:\n        /* \"#utility.yul\":5087:5088   */\n      0x00\n        /* \"#utility.yul\":5112:5165   */\n      tag_320\n        /* \"#utility.yul\":5157:5164   */\n      dup5\n        /* \"#utility.yul\":5148:5154   */\n      dup3\n        /* \"#utility.yul\":5137:5146   */\n      dup6\n        /* \"#utility.yul\":5133:5155   */\n      add\n        /* \"#utility.yul\":5112:5165   */\n      tag_234\n      jump\t// in\n    tag_320:\n        /* \"#utility.yul\":5102:5165   */\n      swap2\n      pop\n        /* \"#utility.yul\":5058:5175   */\n      pop\n        /* \"#utility.yul\":4853:5182   */\n      swap3\n      swap2\n      pop\n      pop\n      jump\t// out\n        /* \"#utility.yul\":5188:5306   */\n    tag_243:\n        /* \"#utility.yul\":5275:5299   */\n      tag_322\n        /* \"#utility.yul\":5293:5298   */\n      dup2\n        /* \"#utility.yul\":5275:5299   */\n      tag_232\n      jump\t// in\n    tag_322:\n        /* \"#utility.yul\":5270:5273   */\n      dup3\n        /* \"#utility.yul\":5263:5300   */\n      mstore\n        /* \"#utility.yul\":5188:5306   */\n      pop\n      pop\n      jump\t// out\n        /* \"#utility.yul\":5312:5534   */\n    tag_59:\n        /* \"#utility.yul\":5405:5409   */\n      0x00\n        /* \"#utility.yul\":5443:5445   */\n      0x20\n        /* \"#utility.yul\":5432:5441   */\n      dup3\n        /* \"#utility.yul\":5428:5446   */\n      add\n        /* \"#utility.yul\":5420:5446   */\n      swap1\n      pop\n        /* \"#utility.yul\":5456:5527   */\n      tag_324\n        /* \"#utility.yul\":5524:5525   */\n      0x00\n        /* \"#utility.yul\":5513:5522   */\n      dup4\n        /* \"#utility.yul\":5509:5526   */\n      add\n        /* \"#utility.yul\":5500:5506   */\n      dup5\n        /* \"#utility.yul\":5456:5527   */\n      tag_243\n      jump\t// in\n    tag_324:\n        /* \"#utility.yul\":5312:5534   */\n      swap3\n      swap2\n      pop\n      pop\n      jump\t// out\n        /* \"#utility.yul\":5540:6014   */\n    tag_78:\n        /* \"#utility.yul\":5608:5614   */\n      0x00\n        /* \"#utility.yul\":5616:5622   */\n      dup1\n        /* \"#utility.yul\":5665:5667   */\n      0x40\n        /* \"#utility.yul\":5653:5662   */\n      dup4\n        /* \"#utility.yul\":5644:5651   */\n      dup6\n        /* \"#utility.yul\":5640:5663   */\n      sub\n        /* \"#utility.yul\":5636:5668   */\n      slt\n        /* \"#utility.yul\":5633:5752   */\n      iszero\n      tag_326\n      jumpi\n        /* \"#utility.yul\":5671:5750   */\n      tag_327\n      tag_229\n      jump\t// in\n    tag_327:\n        /* \"#utility.yul\":5633:5752   */\n    tag_326:\n        /* \"#utility.yul\":5791:5792   */\n      0x00\n        /* \"#utility.yul\":5816:5869   */\n      tag_328\n        /* \"#utility.yul\":5861:5868   */\n      dup6\n        /* \"#utility.yul\":5852:5858   */\n      dup3\n        /* \"#utility.yul\":5841:5850   */\n      dup7\n        /* \"#utility.yul\":5837:5859   */\n      add\n        /* \"#utility.yul\":5816:5869   */\n      tag_234\n      jump\t// in\n    tag_328:\n        /* \"#utility.yul\":5806:5869   */\n      swap3\n      pop\n        /* \"#utility.yul\":5762:5879   */\n      pop\n        /* \"#utility.yul\":5918:5920   */\n      0x20\n        /* \"#utility.yul\":5944:5997   */\n      tag_329\n        /* \"#utility.yul\":5989:5996   */\n      dup6\n        /* \"#utility.yul\":5980:5986   */\n      dup3\n        /* \"#utility.yul\":5969:5978   */\n      dup7\n        /* \"#utility.yul\":5965:5987   */\n      add\n        /* \"#utility.yul\":5944:5997   */\n      tag_234\n      jump\t// in\n    tag_329:\n        /* \"#utility.yul\":5934:5997   */\n      swap2\n      pop\n        /* \"#utility.yul\":5889:6007   */\n      pop\n        /* \"#utility.yul\":5540:6014   */\n      swap3\n      pop\n      swap3\n      swap1\n      pop\n      jump\t// out\n        /* \"#utility.yul\":6020:6200   */\n    tag_244:\n        /* \"#utility.yul\":6068:6145   */\n      0x4e487b7100000000000000000000000000000000000000000000000000000000\n        /* \"#utility.yul\":6065:6066   */\n      0x00\n        /* \"#utility.yul\":6058:6146   */\n      mstore\n        /* \"#utility.yul\":6165:6169   */\n      0x22\n        /* \"#utility.yul\":6162:6163   */\n      0x04\n        /* \"#utility.yul\":6155:6170   */\n      mstore\n        /* \"#utility.yul\":6189:6193   */\n      0x24\n        /* \"#utility.yul\":6186:6187   */\n      0x00\n        /* \"#utility.yul\":6179:6194   */\n      revert\n        /* \"#utility.yul\":6206:6526   */\n    tag_86:\n        /* \"#utility.yul\":6250:6256   */\n      0x00\n        /* \"#utility.yul\":6287:6288   */\n      0x02\n        /* \"#utility.yul\":6281:6285   */\n      dup3\n        /* \"#utility.yul\":6277:6289   */\n      div\n        /* \"#utility.yul\":6267:6289   */\n      swap1\n      pop\n        /* \"#utility.yul\":6334:6335   */\n      0x01\n        /* \"#utility.yul\":6328:6332   */\n      dup3\n        /* \"#utility.yul\":6324:6336   */\n      and\n        /* \"#utility.yul\":6355:6373   */\n      dup1\n        /* \"#utility.yul\":6345:6426   */\n      tag_332\n      jumpi\n        /* \"#utility.yul\":6411:6415   */\n      0x7f\n        /* \"#utility.yul\":6403:6409   */\n      dup3\n        /* \"#utility.yul\":6399:6416   */\n      and\n        /* \"#utility.yul\":6389:6416   */\n      swap2\n      pop\n        /* \"#utility.yul\":6345:6426   */\n    tag_332:\n        /* \"#utility.yul\":6473:6475   */\n      0x20\n        /* \"#utility.yul\":6465:6471   */\n      dup3\n        /* \"#utility.yul\":6462:6476   */\n      lt\n        /* \"#utility.yul\":6442:6460   */\n      dup2\n        /* \"#utility.yul\":6439:6477   */\n      sub\n        /* \"#utility.yul\":6436:6520   */\n      tag_333\n      jumpi\n        /* \"#utility.yul\":6492:6510   */\n      tag_334\n      tag_244\n      jump\t// in\n    tag_334:\n        /* \"#utility.yul\":6436:6520   */\n    tag_333:\n        /* \"#utility.yul\":6257:6526   */\n      pop\n        /* \"#utility.yul\":6206:6526   */\n      swap2\n      swap1\n      pop\n      jump\t// out\n        /* \"#utility.yul\":6532:7065   */\n    tag_104:\n        /* \"#utility.yul\":6701:6705   */\n      0x00\n        /* \"#utility.yul\":6739:6741   */\n      0x60\n        /* \"#utility.yul\":6728:6737   */\n      dup3\n        /* \"#utility.yul\":6724:6742   */\n      add\n        /* \"#utility.yul\":6716:6742   */\n      swap1\n      pop\n        /* \"#utility.yul\":6788:6797   */\n      dup2\n        /* \"#utility.yul\":6782:6786   */\n      dup2\n        /* \"#utility.yul\":6778:6798   */\n      sub\n        /* \"#utility.yul\":6774:6775   */\n      0x00\n        /* \"#utility.yul\":6763:6772   */\n      dup4\n        /* \"#utility.yul\":6759:6776   */\n      add\n        /* \"#utility.yul\":6752:6799   */\n      mstore\n        /* \"#utility.yul\":6816:6894   */\n      tag_336\n        /* \"#utility.yul\":6889:6893   */\n      dup2\n        /* \"#utility.yul\":6880:6886   */\n      dup7\n        /* \"#utility.yul\":6816:6894   */\n      tag_227\n      jump\t// in\n    tag_336:\n        /* \"#utility.yul\":6808:6894   */\n      swap1\n      pop\n        /* \"#utility.yul\":6904:6976   */\n      tag_337\n        /* \"#utility.yul\":6972:6974   */\n      0x20\n        /* \"#utility.yul\":6961:6970   */\n      dup4\n        /* \"#utility.yul\":6957:6975   */\n      add\n        /* \"#utility.yul\":6948:6954   */\n      dup6\n        /* \"#utility.yul\":6904:6976   */\n      tag_243\n      jump\t// in\n    tag_337:\n        /* \"#utility.yul\":6986:7058   */\n      tag_338\n        /* \"#utility.yul\":7054:7056   */\n      0x40\n        /* \"#utility.yul\":7043:7052   */\n      dup4\n        /* \"#utility.yul\":7039:7057   */\n      add\n        /* \"#utility.yul\":7030:7036   */\n      dup5\n        /* \"#utility.yul\":6986:7058   */\n      tag_243\n      jump\t// in\n    tag_338:\n        /* \"#utility.yul\":6532:7065   */\n      swap5\n      swap4\n      pop\n      pop\n      pop\n      pop\n      jump\t// out\n        /* \"#utility.yul\":7071:7251   */\n    tag_245:\n        /* \"#utility.yul\":7119:7196   */\n      0x4e487b7100000000000000000000000000000000000000000000000000000000\n        /* \"#utility.yul\":7116:7117   */\n      0x00\n        /* \"#utility.yul\":7109:7197   */\n      mstore\n        /* \"#utility.yul\":7216:7220   */\n      0x11\n        /* \"#utility.yul\":7213:7214   */\n      0x04\n        /* \"#utility.yul\":7206:7221   */\n      mstore\n        /* \"#utility.yul\":7240:7244   */\n      0x24\n        /* \"#utility.yul\":7237:7238   */\n      0x00\n        /* \"#utility.yul\":7230:7245   */\n      revert\n        /* \"#utility.yul\":7257:7359   */\n    tag_246:\n        /* \"#utility.yul\":7299:7307   */\n      0x00\n        /* \"#utility.yul\":7346:7351   */\n      dup2\n        /* \"#utility.yul\":7343:7344   */\n      0x01\n        /* \"#utility.yul\":7339:7352   */\n      shr\n        /* \"#utility.yul\":7318:7352   */\n      swap1\n      pop\n        /* \"#utility.yul\":7257:7359   */\n      swap2\n      swap1\n      pop\n      jump\t// out\n        /* \"#utility.yul\":7365:8213   */\n    tag_247:\n        /* \"#utility.yul\":7426:7431   */\n      0x00\n        /* \"#utility.yul\":7433:7437   */\n      dup1\n        /* \"#utility.yul\":7457:7463   */\n      dup3\n        /* \"#utility.yul\":7448:7463   */\n      swap2\n      pop\n        /* \"#utility.yul\":7481:7486   */\n      dup4\n        /* \"#utility.yul\":7472:7486   */\n      swap1\n      pop\n        /* \"#utility.yul\":7495:8207   */\n    tag_342:\n        /* \"#utility.yul\":7516:7517   */\n      0x01\n        /* \"#utility.yul\":7506:7514   */\n      dup6\n        /* \"#utility.yul\":7503:7518   */\n      gt\n        /* \"#utility.yul\":7495:8207   */\n      iszero\n      tag_344\n      jumpi\n        /* \"#utility.yul\":7611:7615   */\n      dup1\n        /* \"#utility.yul\":7606:7609   */\n      dup7\n        /* \"#utility.yul\":7602:7616   */\n      div\n        /* \"#utility.yul\":7596:7600   */\n      dup2\n        /* \"#utility.yul\":7593:7617   */\n      gt\n        /* \"#utility.yul\":7590:7640   */\n      iszero\n      tag_345\n      jumpi\n        /* \"#utility.yul\":7620:7638   */\n      tag_346\n      tag_245\n      jump\t// in\n    tag_346:\n        /* \"#utility.yul\":7590:7640   */\n    tag_345:\n        /* \"#utility.yul\":7670:7671   */\n      0x01\n        /* \"#utility.yul\":7660:7668   */\n      dup6\n        /* \"#utility.yul\":7656:7672   */\n      and\n        /* \"#utility.yul\":7653:8104   */\n      iszero\n      tag_347\n      jumpi\n        /* \"#utility.yul\":8085:8089   */\n      dup1\n        /* \"#utility.yul\":8078:8083   */\n      dup3\n        /* \"#utility.yul\":8074:8090   */\n      mul\n        /* \"#utility.yul\":8065:8090   */\n      swap2\n      pop\n        /* \"#utility.yul\":7653:8104   */\n    tag_347:\n        /* \"#utility.yul\":8135:8139   */\n      dup1\n        /* \"#utility.yul\":8129:8133   */\n      dup2\n        /* \"#utility.yul\":8125:8140   */\n      mul\n        /* \"#utility.yul\":8117:8140   */\n      swap1\n      pop\n        /* \"#utility.yul\":8165:8197   */\n      tag_348\n        /* \"#utility.yul\":8188:8196   */\n      dup6\n        /* \"#utility.yul\":8165:8197   */\n      tag_246\n      jump\t// in\n    tag_348:\n        /* \"#utility.yul\":8153:8197   */\n      swap5\n      pop\n        /* \"#utility.yul\":7495:8207   */\n      jump(tag_342)\n    tag_344:\n        /* \"#utility.yul\":7365:8213   */\n      swap5\n      pop\n      swap5\n      swap3\n      pop\n      pop\n      pop\n      jump\t// out\n        /* \"#utility.yul\":8219:9292   */\n    tag_248:\n        /* \"#utility.yul\":8273:8278   */\n      0x00\n        /* \"#utility.yul\":8464:8472   */\n      dup3\n        /* \"#utility.yul\":8454:8494   */\n      tag_350\n      jumpi\n        /* \"#utility.yul\":8485:8486   */\n      0x01\n        /* \"#utility.yul\":8476:8486   */\n      swap1\n      pop\n        /* \"#utility.yul\":8487:8492   */\n      jump(tag_349)\n        /* \"#utility.yul\":8454:8494   */\n    tag_350:\n        /* \"#utility.yul\":8513:8517   */\n      dup2\n        /* \"#utility.yul\":8503:8539   */\n      tag_351\n      jumpi\n        /* \"#utility.yul\":8530:8531   */\n      0x00\n        /* \"#utility.yul\":8521:8531   */\n      swap1\n      pop\n        /* \"#utility.yul\":8532:8537   */\n      jump(tag_349)\n        /* \"#utility.yul\":8503:8539   */\n    tag_351:\n        /* \"#utility.yul\":8599:8603   */\n      dup2\n        /* \"#utility.yul\":8647:8648   */\n      0x01\n        /* \"#utility.yul\":8642:8669   */\n      dup2\n      eq\n      tag_353\n      jumpi\n        /* \"#utility.yul\":8683:8684   */\n      0x02\n        /* \"#utility.yul\":8678:8869   */\n      dup2\n      eq\n      tag_354\n      jumpi\n        /* \"#utility.yul\":8592:8869   */\n      jump(tag_352)\n        /* \"#utility.yul\":8642:8669   */\n    tag_353:\n        /* \"#utility.yul\":8660:8661   */\n      0x01\n        /* \"#utility.yul\":8651:8661   */\n      swap2\n      pop\n        /* \"#utility.yul\":8662:8667   */\n      pop\n      jump(tag_349)\n        /* \"#utility.yul\":8678:8869   */\n    tag_354:\n        /* \"#utility.yul\":8723:8726   */\n      0xff\n        /* \"#utility.yul\":8713:8721   */\n      dup5\n        /* \"#utility.yul\":8710:8727   */\n      gt\n        /* \"#utility.yul\":8707:8750   */\n      iszero\n      tag_355\n      jumpi\n        /* \"#utility.yul\":8730:8748   */\n      tag_356\n      tag_245\n      jump\t// in\n    tag_356:\n        /* \"#utility.yul\":8707:8750   */\n    tag_355:\n        /* \"#utility.yul\":8779:8787   */\n      dup4\n        /* \"#utility.yul\":8776:8777   */\n      0x02\n        /* \"#utility.yul\":8772:8788   */\n      exp\n        /* \"#utility.yul\":8763:8788   */\n      swap2\n      pop\n        /* \"#utility.yul\":8814:8817   */\n      dup5\n        /* \"#utility.yul\":8807:8812   */\n      dup3\n        /* \"#utility.yul\":8804:8818   */\n      gt\n        /* \"#utility.yul\":8801:8841   */\n      iszero\n      tag_357\n      jumpi\n        /* \"#utility.yul\":8821:8839   */\n      tag_358\n      tag_245\n      jump\t// in\n    tag_358:\n        /* \"#utility.yul\":8801:8841   */\n    tag_357:\n        /* \"#utility.yul\":8854:8859   */\n      pop\n      jump(tag_349)\n        /* \"#utility.yul\":8592:8869   */\n    tag_352:\n      pop\n        /* \"#utility.yul\":8978:8980   */\n      0x20\n        /* \"#utility.yul\":8968:8976   */\n      dup4\n        /* \"#utility.yul\":8965:8981   */\n      lt\n        /* \"#utility.yul\":8959:8962   */\n      0x0133\n        /* \"#utility.yul\":8953:8957   */\n      dup4\n        /* \"#utility.yul\":8950:8963   */\n      lt\n        /* \"#utility.yul\":8946:8982   */\n      and\n        /* \"#utility.yul\":8928:8930   */\n      0x4e\n        /* \"#utility.yul\":8918:8926   */\n      dup5\n        /* \"#utility.yul\":8915:8931   */\n      lt\n        /* \"#utility.yul\":8910:8912   */\n      0x0b\n        /* \"#utility.yul\":8904:8908   */\n      dup5\n        /* \"#utility.yul\":8901:8913   */\n      lt\n        /* \"#utility.yul\":8897:8932   */\n      and\n        /* \"#utility.yul\":8881:8992   */\n      or\n        /* \"#utility.yul\":8878:9124   */\n      iszero\n      tag_359\n      jumpi\n        /* \"#utility.yul\":9034:9042   */\n      dup3\n        /* \"#utility.yul\":9028:9032   */\n      dup3\n        /* \"#utility.yul\":9024:9043   */\n      exp\n        /* \"#utility.yul\":9015:9043   */\n      swap1\n      pop\n        /* \"#utility.yul\":9069:9072   */\n      dup4\n        /* \"#utility.yul\":9062:9067   */\n      dup2\n        /* \"#utility.yul\":9059:9073   */\n      gt\n        /* \"#utility.yul\":9056:9096   */\n      iszero\n      tag_360\n      jumpi\n        /* \"#utility.yul\":9076:9094   */\n      tag_361\n      tag_245\n      jump\t// in\n    tag_361:\n        /* \"#utility.yul\":9056:9096   */\n    tag_360:\n        /* \"#utility.yul\":9109:9114   */\n      jump(tag_349)\n        /* \"#utility.yul\":8878:9124   */\n    tag_359:\n        /* \"#utility.yul\":9149:9191   */\n      tag_362\n        /* \"#utility.yul\":9187:9190   */\n      dup5\n        /* \"#utility.yul\":9177:9185   */\n      dup5\n        /* \"#utility.yul\":9171:9175   */\n      dup5\n        /* \"#utility.yul\":9168:9169   */\n      0x01\n        /* \"#utility.yul\":9149:9191   */\n      tag_247\n      jump\t// in\n    tag_362:\n        /* \"#utility.yul\":9134:9191   */\n      swap3\n      pop\n      swap1\n      pop\n        /* \"#utility.yul\":9223:9227   */\n      dup2\n        /* \"#utility.yul\":9218:9221   */\n      dup5\n        /* \"#utility.yul\":9214:9228   */\n      div\n        /* \"#utility.yul\":9207:9212   */\n      dup2\n        /* \"#utility.yul\":9204:9229   */\n      gt\n        /* \"#utility.yul\":9201:9252   */\n      iszero\n      tag_363\n      jumpi\n        /* \"#utility.yul\":9232:9250   */\n      tag_364\n      tag_245\n      jump\t// in\n    tag_364:\n        /* \"#utility.yul\":9201:9252   */\n    tag_363:\n        /* \"#utility.yul\":9281:9285   */\n      dup2\n        /* \"#utility.yul\":9274:9279   */\n      dup2\n        /* \"#utility.yul\":9270:9286   */\n      mul\n        /* \"#utility.yul\":9261:9286   */\n      swap1\n      pop\n        /* \"#utility.yul\":8219:9292   */\n    tag_349:\n      swap4\n      swap3\n      pop\n      pop\n      pop\n      jump\t// out\n        /* \"#utility.yul\":9298:9583   */\n    tag_106:\n        /* \"#utility.yul\":9358:9363   */\n      0x00\n        /* \"#utility.yul\":9382:9405   */\n      tag_366\n        /* \"#utility.yul\":9400:9404   */\n      dup3\n        /* \"#utility.yul\":9382:9405   */\n      tag_235\n      jump\t// in\n    tag_366:\n        /* \"#utility.yul\":9374:9405   */\n      swap2\n      pop\n        /* \"#utility.yul\":9426:9453   */\n      tag_367\n        /* \"#utility.yul\":9444:9452   */\n      dup4\n        /* \"#utility.yul\":9426:9453   */\n      tag_235\n      jump\t// in\n    tag_367:\n        /* \"#utility.yul\":9414:9453   */\n      swap3\n      pop\n        /* \"#utility.yul\":9472:9576   */\n      tag_368\n        /* \"#utility.yul\":9509:9575   */\n      0xffffffffffffffffffffffffffffffffffffffffffffffffffffffffffffffff\n        /* \"#utility.yul\":9499:9507   */\n      dup5\n        /* \"#utility.yul\":9493:9497   */\n      dup5\n        /* \"#utility.yul\":9472:9576   */\n      tag_248\n      jump\t// in\n    tag_368:\n        /* \"#utility.yul\":9463:9576   */\n      swap1\n      pop\n        /* \"#utility.yul\":9298:9583   */\n      swap3\n      swap2\n      pop\n      pop\n      jump\t// out\n        /* \"#utility.yul\":9589:9999   */\n    tag_108:\n        /* \"#utility.yul\":9629:9636   */\n      0x00\n        /* \"#utility.yul\":9652:9672   */\n      tag_370\n        /* \"#utility.yul\":9670:9671   */\n      dup3\n        /* \"#utility.yul\":9652:9672   */\n      tag_235\n      jump\t// in\n    tag_370:\n        /* \"#utility.yul\":9647:9672   */\n      swap2\n      pop\n        /* \"#utility.yul\":9686:9706   */\n      tag_371\n        /* \"#utility.yul\":9704:9705   */\n      dup4\n        /* \"#utility.yul\":9686:9706   */\n      tag_235\n      jump\t// in\n    tag_371:\n        /* \"#utility.yul\":9681:9706   */\n      swap3\n      pop\n        /* \"#utility.yul\":9741:9742   */\n      dup3\n        /* \"#utility.yul\":9738:9739   */\n      dup3\n        /* \"#utility.yul\":9734:9743   */\n      mul\n        /* \"#utility.yul\":9763:9793   */\n      tag_372\n        /* \"#utility.yul\":9781:9792   */\n      dup2\n        /* \"#utility.yul\":9763:9793   */\n      tag_235\n      jump\t// in\n    tag_372:\n        /* \"#utility.yul\":9752:9793   */\n      swap2\n      pop\n        /* \"#utility.yul\":9942:9943   */\n      dup3\n        /* \"#utility.yul\":9933:9940   */\n      dup3\n        /* \"#utility.yul\":9929:9944   */\n      div\n        /* \"#utility.yul\":9926:9927   */\n      dup5\n        /* \"#utility.yul\":9923:9945   */\n      eq\n        /* \"#utility.yul\":9903:9904   */\n      dup4\n        /* \"#utility.yul\":9896:9905   */\n      iszero\n        /* \"#utility.yul\":9876:9959   */\n      or\n        /* \"#utility.yul\":9853:9992   */\n      tag_373\n      jumpi\n        /* \"#utility.yul\":9972:9990   */\n      tag_374\n      tag_245\n      jump\t// in\n    tag_374:\n        /* \"#utility.yul\":9853:9992   */\n    tag_373:\n        /* \"#utility.yul\":9637:9999   */\n      pop\n        /* \"#utility.yul\":9589:9999   */\n      swap3\n      swap2\n      pop\n      pop\n      jump\t// out\n        /* \"#utility.yul\":10005:10225   */\n    tag_249:\n        /* \"#utility.yul\":10145:10179   */\n      0x4e6f207472616e73616374696f6e732068617665206f63637572726564207965\n        /* \"#utility.yul\":10141:10142   */\n      0x00\n        /* \"#utility.yul\":10133:10139   */\n      dup3\n        /* \"#utility.yul\":10129:10143   */\n      add\n        /* \"#utility.yul\":10122:10180   */\n      mstore\n        /* \"#utility.yul\":10214:10217   */\n      0x7400000000000000000000000000000000000000000000000000000000000000\n        /* \"#utility.yul\":10209:10211   */\n      0x20\n        /* \"#utility.yul\":10201:10207   */\n      dup3\n        /* \"#utility.yul\":10197:10212   */\n      add\n        /* \"#utility.yul\":10190:10218   */\n      mstore\n        /* \"#utility.yul\":10005:10225   */\n      pop\n      jump\t// out\n        /* \"#utility.yul\":10231:10597   */\n    tag_250:\n        /* \"#utility.yul\":10373:10376   */\n      0x00\n        /* \"#utility.yul\":10394:10461   */\n      tag_377\n        /* \"#utility.yul\":10458:10460   */\n      0x21\n        /* \"#utility.yul\":10453:10456   */\n      dup4\n        /* \"#utility.yul\":10394:10461   */\n      tag_224\n      jump\t// in\n    tag_377:\n        /* \"#utility.yul\":10387:10461   */\n      swap2\n      pop\n        /* \"#utility.yul\":10470:10563   */\n      tag_378\n        /* \"#utility.yul\":10559:10562   */\n      dup3\n        /* \"#utility.yul\":10470:10563   */\n      tag_249\n      jump\t// in\n    tag_378:\n        /* \"#utility.yul\":10588:10590   */\n      0x40\n        /* \"#utility.yul\":10583:10586   */\n      dup3\n        /* \"#utility.yul\":10579:10591   */\n      add\n        /* \"#utility.yul\":10572:10591   */\n      swap1\n      pop\n        /* \"#utility.yul\":10231:10597   */\n      swap2\n      swap1\n      pop\n      jump\t// out\n        /* \"#utility.yul\":10603:11022   */\n    tag_130:\n        /* \"#utility.yul\":10769:10773   */\n      0x00\n        /* \"#utility.yul\":10807:10809   */\n      0x20\n        /* \"#utility.yul\":10796:10805   */\n      dup3\n        /* \"#utility.yul\":10792:10810   */\n      add\n        /* \"#utility.yul\":10784:10810   */\n      swap1\n      pop\n        /* \"#utility.yul\":10856:10865   */\n      dup2\n        /* \"#utility.yul\":10850:10854   */\n      dup2\n        /* \"#utility.yul\":10846:10866   */\n      sub\n        /* \"#utility.yul\":10842:10843   */\n      0x00\n        /* \"#utility.yul\":10831:10840   */\n      dup4\n        /* \"#utility.yul\":10827:10844   */\n      add\n        /* \"#utility.yul\":10820:10867   */\n      mstore\n        /* \"#utility.yul\":10884:11015   */\n      tag_380\n        /* \"#utility.yul\":11010:11014   */\n      dup2\n        /* \"#utility.yul\":10884:11015   */\n      tag_250\n      jump\t// in\n    tag_380:\n        /* \"#utility.yul\":10876:11015   */\n      swap1\n      pop\n        /* \"#utility.yul\":10603:11022   */\n      swap2\n      swap1\n      pop\n      jump\t// out\n        /* \"#utility.yul\":11028:11261   */\n    tag_149:\n        /* \"#utility.yul\":11067:11070   */\n      0x00\n        /* \"#utility.yul\":11090:11114   */\n      tag_382\n        /* \"#utility.yul\":11108:11113   */\n      dup3\n        /* \"#utility.yul\":11090:11114   */\n      tag_235\n      jump\t// in\n    tag_382:\n        /* \"#utility.yul\":11081:11114   */\n      swap2\n      pop\n        /* \"#utility.yul\":11136:11202   */\n      0xffffffffffffffffffffffffffffffffffffffffffffffffffffffffffffffff\n        /* \"#utility.yul\":11129:11134   */\n      dup3\n        /* \"#utility.yul\":11126:11203   */\n      sub\n        /* \"#utility.yul\":11123:11226   */\n      tag_383\n      jumpi\n        /* \"#utility.yul\":11206:11224   */\n      tag_384\n      tag_245\n      jump\t// in\n    tag_384:\n        /* \"#utility.yul\":11123:11226   */\n    tag_383:\n        /* \"#utility.yul\":11253:11254   */\n      0x01\n        /* \"#utility.yul\":11246:11251   */\n      dup3\n        /* \"#utility.yul\":11242:11255   */\n      add\n        /* \"#utility.yul\":11235:11255   */\n      swap1\n      pop\n        /* \"#utility.yul\":11028:11261   */\n      swap2\n      swap1\n      pop\n      jump\t// out\n        /* \"#utility.yul\":11267:11447   */\n    tag_251:\n        /* \"#utility.yul\":11315:11392   */\n      0x4e487b7100000000000000000000000000000000000000000000000000000000\n        /* \"#utility.yul\":11312:11313   */\n      0x00\n        /* \"#utility.yul\":11305:11393   */\n      mstore\n        /* \"#utility.yul\":11412:11416   */\n      0x12\n        /* \"#utility.yul\":11409:11410   */\n      0x04\n        /* \"#utility.yul\":11402:11417   */\n      mstore\n        /* \"#utility.yul\":11436:11440   */\n      0x24\n        /* \"#utility.yul\":11433:11434   */\n      0x00\n        /* \"#utility.yul\":11426:11441   */\n      revert\n        /* \"#utility.yul\":11453:11638   */\n    tag_151:\n        /* \"#utility.yul\":11493:11494   */\n      0x00\n        /* \"#utility.yul\":11510:11530   */\n      tag_387\n        /* \"#utility.yul\":11528:11529   */\n      dup3\n        /* \"#utility.yul\":11510:11530   */\n      tag_235\n      jump\t// in\n    tag_387:\n        /* \"#utility.yul\":11505:11530   */\n      swap2\n      pop\n        /* \"#utility.yul\":11544:11564   */\n      tag_388\n        /* \"#utility.yul\":11562:11563   */\n      dup4\n        /* \"#utility.yul\":11544:11564   */\n      tag_235\n      jump\t// in\n    tag_388:\n        /* \"#utility.yul\":11539:11564   */\n      swap3\n      pop\n        /* \"#utility.yul\":11583:11584   */\n      dup3\n        /* \"#utility.yul\":11573:11608   */\n      tag_389\n      jumpi\n        /* \"#utility.yul\":11588:11606   */\n      tag_390\n      tag_251\n      jump\t// in\n    tag_390:\n        /* \"#utility.yul\":11573:11608   */\n    tag_389:\n        /* \"#utility.yul\":11630:11631   */\n      dup3\n        /* \"#utility.yul\":11627:11628   */\n      dup3\n        /* \"#utility.yul\":11623:11632   */\n      div\n        /* \"#utility.yul\":11618:11632   */\n      swap1\n      pop\n        /* \"#utility.yul\":11453:11638   */\n      swap3\n      swap2\n      pop\n      pop\n      jump\t// out\n        /* \"#utility.yul\":11644:11824   */\n    tag_154:\n        /* \"#utility.yul\":11692:11769   */\n      0x4e487b7100000000000000000000000000000000000000000000000000000000\n        /* \"#utility.yul\":11689:11690   */\n      0x00\n        /* \"#utility.yul\":11682:11770   */\n      mstore\n        /* \"#utility.yul\":11789:11793   */\n      0x41\n        /* \"#utility.yul\":11786:11787   */\n      0x04\n        /* \"#utility.yul\":11779:11794   */\n      mstore\n        /* \"#utility.yul\":11813:11817   */\n      0x24\n        /* \"#utility.yul\":11810:11811   */\n      0x00\n        /* \"#utility.yul\":11803:11818   */\n      revert\n        /* \"#utility.yul\":11830:12024   */\n    tag_159:\n        /* \"#utility.yul\":11870:11874   */\n      0x00\n        /* \"#utility.yul\":11890:11910   */\n      tag_393\n        /* \"#utility.yul\":11908:11909   */\n      dup3\n        /* \"#utility.yul\":11890:11910   */\n      tag_235\n      jump\t// in\n    tag_393:\n        /* \"#utility.yul\":11885:11910   */\n      swap2\n      pop\n        /* \"#utility.yul\":11924:11944   */\n      tag_394\n        /* \"#utility.yul\":11942:11943   */\n      dup4\n        /* \"#utility.yul\":11924:11944   */\n      tag_235\n      jump\t// in\n    tag_394:\n        /* \"#utility.yul\":11919:11944   */\n      swap3\n      pop\n        /* \"#utility.yul\":11968:11969   */\n      dup3\n        /* \"#utility.yul\":11965:11966   */\n      dup3\n        /* \"#utility.yul\":11961:11970   */\n      sub\n        /* \"#utility.yul\":11953:11970   */\n      swap1\n      pop\n        /* \"#utility.yul\":11992:11993   */\n      dup2\n        /* \"#utility.yul\":11986:11990   */\n      dup2\n        /* \"#utility.yul\":11983:11994   */\n      gt\n        /* \"#utility.yul\":11980:12017   */\n      iszero\n      tag_395\n      jumpi\n        /* \"#utility.yul\":11997:12015   */\n      tag_396\n      tag_245\n      jump\t// in\n    tag_396:\n        /* \"#utility.yul\":11980:12017   */\n    tag_395:\n        /* \"#utility.yul\":11830:12024   */\n      swap3\n      swap2\n      pop\n      pop\n      jump\t// out\n        /* \"#utility.yul\":12030:12206   */\n    tag_161:\n        /* \"#utility.yul\":12062:12063   */\n      0x00\n        /* \"#utility.yul\":12079:12099   */\n      tag_398\n        /* \"#utility.yul\":12097:12098   */\n      dup3\n        /* \"#utility.yul\":12079:12099   */\n      tag_235\n      jump\t// in\n    tag_398:\n        /* \"#utility.yul\":12074:12099   */\n      swap2\n      pop\n        /* \"#utility.yul\":12113:12133   */\n      tag_399\n        /* \"#utility.yul\":12131:12132   */\n      dup4\n        /* \"#utility.yul\":12113:12133   */\n      tag_235\n      jump\t// in\n    tag_399:\n        /* \"#utility.yul\":12108:12133   */\n      swap3\n      pop\n        /* \"#utility.yul\":12152:12153   */\n      dup3\n        /* \"#utility.yul\":12142:12177   */\n      tag_400\n      jumpi\n        /* \"#utility.yul\":12157:12175   */\n      tag_401\n      tag_251\n      jump\t// in\n    tag_401:\n        /* \"#utility.yul\":12142:12177   */\n    tag_400:\n        /* \"#utility.yul\":12198:12199   */\n      dup3\n        /* \"#utility.yul\":12195:12196   */\n      dup3\n        /* \"#utility.yul\":12191:12200   */\n      mod\n        /* \"#utility.yul\":12186:12200   */\n      swap1\n      pop\n        /* \"#utility.yul\":12030:12206   */\n      swap3\n      swap2\n      pop\n      pop\n      jump\t// out\n        /* \"#utility.yul\":12212:12403   */\n    tag_163:\n        /* \"#utility.yul\":12252:12255   */\n      0x00\n        /* \"#utility.yul\":12271:12291   */\n      tag_403\n        /* \"#utility.yul\":12289:12290   */\n      dup3\n        /* \"#utility.yul\":12271:12291   */\n      tag_235\n      jump\t// in\n    tag_403:\n        /* \"#utility.yul\":12266:12291   */\n      swap2\n      pop\n        /* \"#utility.yul\":12305:12325   */\n      tag_404\n        /* \"#utility.yul\":12323:12324   */\n      dup4\n        /* \"#utility.yul\":12305:12325   */\n      tag_235\n      jump\t// in\n    tag_404:\n        /* \"#utility.yul\":12300:12325   */\n      swap3\n      pop\n        /* \"#utility.yul\":12348:12349   */\n      dup3\n        /* \"#utility.yul\":12345:12346   */\n      dup3\n        /* \"#utility.yul\":12341:12350   */\n      add\n        /* \"#utility.yul\":12334:12350   */\n      swap1\n      pop\n        /* \"#utility.yul\":12369:12372   */\n      dup1\n        /* \"#utility.yul\":12366:12367   */\n      dup3\n        /* \"#utility.yul\":12363:12373   */\n      gt\n        /* \"#utility.yul\":12360:12396   */\n      iszero\n      tag_405\n      jumpi\n        /* \"#utility.yul\":12376:12394   */\n      tag_406\n      tag_245\n      jump\t// in\n    tag_406:\n        /* \"#utility.yul\":12360:12396   */\n    tag_405:\n        /* \"#utility.yul\":12212:12403   */\n      swap3\n      swap2\n      pop\n      pop\n      jump\t// out\n        /* \"#utility.yul\":12409:12589   */\n    tag_166:\n        /* \"#utility.yul\":12457:12534   */\n      0x4e487b7100000000000000000000000000000000000000000000000000000000\n        /* \"#utility.yul\":12454:12455   */\n      0x00\n        /* \"#utility.yul\":12447:12535   */\n      mstore\n        /* \"#utility.yul\":12554:12558   */\n      0x32\n        /* \"#utility.yul\":12551:12552   */\n      0x04\n        /* \"#utility.yul\":12544:12559   */\n      mstore\n        /* \"#utility.yul\":12578:12582   */\n      0x24\n        /* \"#utility.yul\":12575:12576   */\n      0x00\n        /* \"#utility.yul\":12568:12583   */\n      revert\n        /* \"#utility.yul\":12595:12743   */\n    tag_252:\n        /* \"#utility.yul\":12697:12708   */\n      0x00\n        /* \"#utility.yul\":12734:12737   */\n      dup2\n        /* \"#utility.yul\":12719:12737   */\n      swap1\n      pop\n        /* \"#utility.yul\":12595:12743   */\n      swap3\n      swap2\n      pop\n      pop\n      jump\t// out\n        /* \"#utility.yul\":12749:13139   */\n    tag_253:\n        /* \"#utility.yul\":12855:12858   */\n      0x00\n        /* \"#utility.yul\":12883:12922   */\n      tag_410\n        /* \"#utility.yul\":12916:12921   */\n      dup3\n        /* \"#utility.yul\":12883:12922   */\n      tag_223\n      jump\t// in\n    tag_410:\n        /* \"#utility.yul\":12938:13027   */\n      tag_411\n        /* \"#utility.yul\":13020:13026   */\n      dup2\n        /* \"#utility.yul\":13015:13018   */\n      dup6\n        /* \"#utility.yul\":12938:13027   */\n      tag_252\n      jump\t// in\n    tag_411:\n        /* \"#utility.yul\":12931:13027   */\n      swap4\n      pop\n        /* \"#utility.yul\":13036:13101   */\n      tag_412\n        /* \"#utility.yul\":13094:13100   */\n      dup2\n        /* \"#utility.yul\":13089:13092   */\n      dup6\n        /* \"#utility.yul\":13082:13086   */\n      0x20\n        /* \"#utility.yul\":13075:13080   */\n      dup7\n        /* \"#utility.yul\":13071:13087   */\n      add\n        /* \"#utility.yul\":13036:13101   */\n      tag_225\n      jump\t// in\n    tag_412:\n        /* \"#utility.yul\":13126:13132   */\n      dup1\n        /* \"#utility.yul\":13121:13124   */\n      dup5\n        /* \"#utility.yul\":13117:13133   */\n      add\n        /* \"#utility.yul\":13110:13133   */\n      swap2\n      pop\n        /* \"#utility.yul\":12859:13139   */\n      pop\n        /* \"#utility.yul\":12749:13139   */\n      swap3\n      swap2\n      pop\n      pop\n      jump\t// out\n        /* \"#utility.yul\":13145:13296   */\n    tag_254:\n        /* \"#utility.yul\":13285:13288   */\n      0x2d00000000000000000000000000000000000000000000000000000000000000\n        /* \"#utility.yul\":13281:13282   */\n      0x00\n        /* \"#utility.yul\":13273:13279   */\n      dup3\n        /* \"#utility.yul\":13269:13283   */\n      add\n        /* \"#utility.yul\":13262:13289   */\n      mstore\n        /* \"#utility.yul\":13145:13296   */\n      pop\n      jump\t// out\n        /* \"#utility.yul\":13302:13702   */\n    tag_255:\n        /* \"#utility.yul\":13462:13465   */\n      0x00\n        /* \"#utility.yul\":13483:13567   */\n      tag_415\n        /* \"#utility.yul\":13565:13566   */\n      0x01\n        /* \"#utility.yul\":13560:13563   */\n      dup4\n        /* \"#utility.yul\":13483:13567   */\n      tag_252\n      jump\t// in\n    tag_415:\n        /* \"#utility.yul\":13476:13567   */\n      swap2\n      pop\n        /* \"#utility.yul\":13576:13669   */\n      tag_416\n        /* \"#utility.yul\":13665:13668   */\n      dup3\n        /* \"#utility.yul\":13576:13669   */\n      tag_254\n      jump\t// in\n    tag_416:\n        /* \"#utility.yul\":13694:13695   */\n      0x01\n        /* \"#utility.yul\":13689:13692   */\n      dup3\n        /* \"#utility.yul\":13685:13696   */\n      add\n        /* \"#utility.yul\":13678:13696   */\n      swap1\n      pop\n        /* \"#utility.yul\":13302:13702   */\n      swap2\n      swap1\n      pop\n      jump\t// out\n        /* \"#utility.yul\":13708:13859   */\n    tag_256:\n        /* \"#utility.yul\":13848:13851   */\n      0x2000000000000000000000000000000000000000000000000000000000000000\n        /* \"#utility.yul\":13844:13845   */\n      0x00\n        /* \"#utility.yul\":13836:13842   */\n      dup3\n        /* \"#utility.yul\":13832:13846   */\n      add\n        /* \"#utility.yul\":13825:13852   */\n      mstore\n        /* \"#utility.yul\":13708:13859   */\n      pop\n      jump\t// out\n        /* \"#utility.yul\":13865:14265   */\n    tag_257:\n        /* \"#utility.yul\":14025:14028   */\n      0x00\n        /* \"#utility.yul\":14046:14130   */\n      tag_419\n        /* \"#utility.yul\":14128:14129   */\n      0x01\n        /* \"#utility.yul\":14123:14126   */\n      dup4\n        /* \"#utility.yul\":14046:14130   */\n      tag_252\n      jump\t// in\n    tag_419:\n        /* \"#utility.yul\":14039:14130   */\n      swap2\n      pop\n        /* \"#utility.yul\":14139:14232   */\n      tag_420\n        /* \"#utility.yul\":14228:14231   */\n      dup3\n        /* \"#utility.yul\":14139:14232   */\n      tag_256\n      jump\t// in\n    tag_420:\n        /* \"#utility.yul\":14257:14258   */\n      0x01\n        /* \"#utility.yul\":14252:14255   */\n      dup3\n        /* \"#utility.yul\":14248:14259   */\n      add\n        /* \"#utility.yul\":14241:14259   */\n      swap1\n      pop\n        /* \"#utility.yul\":13865:14265   */\n      swap2\n      swap1\n      pop\n      jump\t// out\n        /* \"#utility.yul\":14271:14422   */\n    tag_258:\n        /* \"#utility.yul\":14411:14414   */\n      0x3a00000000000000000000000000000000000000000000000000000000000000\n        /* \"#utility.yul\":14407:14408   */\n      0x00\n        /* \"#utility.yul\":14399:14405   */\n      dup3\n        /* \"#utility.yul\":14395:14409   */\n      add\n        /* \"#utility.yul\":14388:14415   */\n      mstore\n        /* \"#utility.yul\":14271:14422   */\n      pop\n      jump\t// out\n        /* \"#utility.yul\":14428:14828   */\n    tag_259:\n        /* \"#utility.yul\":14588:14591   */\n      0x00\n        /* \"#utility.yul\":14609:14693   */\n      tag_423\n        /* \"#utility.yul\":14691:14692   */\n      0x01\n        /* \"#utility.yul\":14686:14689   */\n      dup4\n        /* \"#utility.yul\":14609:14693   */\n      tag_252\n      jump\t// in\n    tag_423:\n        /* \"#utility.yul\":14602:14693   */\n      swap2\n      pop\n        /* \"#utility.yul\":14702:14795   */\n      tag_424\n        /* \"#utility.yul\":14791:14794   */\n      dup3\n        /* \"#utility.yul\":14702:14795   */\n      tag_258\n      jump\t// in\n    tag_424:\n        /* \"#utility.yul\":14820:14821   */\n      0x01\n        /* \"#utility.yul\":14815:14818   */\n      dup3\n        /* \"#utility.yul\":14811:14822   */\n      add\n        /* \"#utility.yul\":14804:14822   */\n      swap1\n      pop\n        /* \"#utility.yul\":14428:14828   */\n      swap2\n      swap1\n      pop\n      jump\t// out\n        /* \"#utility.yul\":14834:17239   */\n    tag_192:\n        /* \"#utility.yul\":15711:15714   */\n      0x00\n        /* \"#utility.yul\":15733:15828   */\n      tag_426\n        /* \"#utility.yul\":15824:15827   */\n      dup3\n        /* \"#utility.yul\":15815:15821   */\n      dup10\n        /* \"#utility.yul\":15733:15828   */\n      tag_253\n      jump\t// in\n    tag_426:\n        /* \"#utility.yul\":15726:15828   */\n      swap2\n      pop\n        /* \"#utility.yul\":15845:15993   */\n      tag_427\n        /* \"#utility.yul\":15989:15992   */\n      dup3\n        /* \"#utility.yul\":15845:15993   */\n      tag_255\n      jump\t// in\n    tag_427:\n        /* \"#utility.yul\":15838:15993   */\n      swap2\n      pop\n        /* \"#utility.yul\":16010:16105   */\n      tag_428\n        /* \"#utility.yul\":16101:16104   */\n      dup3\n        /* \"#utility.yul\":16092:16098   */\n      dup9\n        /* \"#utility.yul\":16010:16105   */\n      tag_253\n      jump\t// in\n    tag_428:\n        /* \"#utility.yul\":16003:16105   */\n      swap2\n      pop\n        /* \"#utility.yul\":16122:16270   */\n      tag_429\n        /* \"#utility.yul\":16266:16269   */\n      dup3\n        /* \"#utility.yul\":16122:16270   */\n      tag_255\n      jump\t// in\n    tag_429:\n        /* \"#utility.yul\":16115:16270   */\n      swap2\n      pop\n        /* \"#utility.yul\":16287:16382   */\n      tag_430\n        /* \"#utility.yul\":16378:16381   */\n      dup3\n        /* \"#utility.yul\":16369:16375   */\n      dup8\n        /* \"#utility.yul\":16287:16382   */\n      tag_253\n      jump\t// in\n    tag_430:\n        /* \"#utility.yul\":16280:16382   */\n      swap2\n      pop\n        /* \"#utility.yul\":16399:16547   */\n      tag_431\n        /* \"#utility.yul\":16543:16546   */\n      dup3\n        /* \"#utility.yul\":16399:16547   */\n      tag_257\n      jump\t// in\n    tag_431:\n        /* \"#utility.yul\":16392:16547   */\n      swap2\n      pop\n        /* \"#utility.yul\":16564:16659   */\n      tag_432\n        /* \"#utility.yul\":16655:16658   */\n      dup3\n        /* \"#utility.yul\":16646:16652   */\n      dup7\n        /* \"#utility.yul\":16564:16659   */\n      tag_253\n      jump\t// in\n    tag_432:\n        /* \"#utility.yul\":16557:16659   */\n      swap2\n      pop\n        /* \"#utility.yul\":16676:16824   */\n      tag_433\n        /* \"#utility.yul\":16820:16823   */\n      dup3\n        /* \"#utility.yul\":16676:16824   */\n      tag_259\n      jump\t// in\n    tag_433:\n        /* \"#utility.yul\":16669:16824   */\n      swap2\n      pop\n        /* \"#utility.yul\":16841:16936   */\n      tag_434\n        /* \"#utility.yul\":16932:16935   */\n      dup3\n        /* \"#utility.yul\":16923:16929   */\n      dup6\n        /* \"#utility.yul\":16841:16936   */\n      tag_253\n      jump\t// in\n    tag_434:\n        /* \"#utility.yul\":16834:16936   */\n      swap2\n      pop\n        /* \"#utility.yul\":16953:17101   */\n      tag_435\n        /* \"#utility.yul\":17097:17100   */\n      dup3\n        /* \"#utility.yul\":16953:17101   */\n      tag_259\n      jump\t// in\n    tag_435:\n        /* \"#utility.yul\":16946:17101   */\n      swap2\n      pop\n        /* \"#utility.yul\":17118:17213   */\n      tag_436\n        /* \"#utility.yul\":17209:17212   */\n      dup3\n        /* \"#utility.yul\":17200:17206   */\n      dup5\n        /* \"#utility.yul\":17118:17213   */\n      tag_253\n      jump\t// in\n    tag_436:\n        /* \"#utility.yul\":17111:17213   */\n      swap2\n      pop\n        /* \"#utility.yul\":17230:17233   */\n      dup2\n        /* \"#utility.yul\":17223:17233   */\n      swap1\n      pop\n        /* \"#utility.yul\":14834:17239   */\n      swap8\n      swap7\n      pop\n      pop\n      pop\n      pop\n      pop\n      pop\n      pop\n      jump\t// out\n        /* \"#utility.yul\":17245:17687   */\n    tag_205:\n        /* \"#utility.yul\":17394:17398   */\n      0x00\n        /* \"#utility.yul\":17432:17434   */\n      0x60\n        /* \"#utility.yul\":17421:17430   */\n      dup3\n        /* \"#utility.yul\":17417:17435   */\n      add\n        /* \"#utility.yul\":17409:17435   */\n      swap1\n      pop\n        /* \"#utility.yul\":17445:17516   */\n      tag_438\n        /* \"#utility.yul\":17513:17514   */\n      0x00\n        /* \"#utility.yul\":17502:17511   */\n      dup4\n        /* \"#utility.yul\":17498:17515   */\n      add\n        /* \"#utility.yul\":17489:17495   */\n      dup7\n        /* \"#utility.yul\":17445:17516   */\n      tag_243\n      jump\t// in\n    tag_438:\n        /* \"#utility.yul\":17526:17598   */\n      tag_439\n        /* \"#utility.yul\":17594:17596   */\n      0x20\n        /* \"#utility.yul\":17583:17592   */\n      dup4\n        /* \"#utility.yul\":17579:17597   */\n      add\n        /* \"#utility.yul\":17570:17576   */\n      dup6\n        /* \"#utility.yul\":17526:17598   */\n      tag_240\n      jump\t// in\n    tag_439:\n        /* \"#utility.yul\":17608:17680   */\n      tag_440\n        /* \"#utility.yul\":17676:17678   */\n      0x40\n        /* \"#utility.yul\":17665:17674   */\n      dup4\n        /* \"#utility.yul\":17661:17679   */\n      add\n        /* \"#utility.yul\":17652:17658   */\n      dup5\n        /* \"#utility.yul\":17608:17680   */\n      tag_240\n      jump\t// in\n    tag_440:\n        /* \"#utility.yul\":17245:17687   */\n      swap5\n      swap4\n      pop\n      pop\n      pop\n      pop\n      jump\t// out\n\n    auxdata: 0xa2646970667358221220019850ab23b908c5e02652c920fe65e506d4895d8d94382bab70b7fa1ae00b6664736f6c63430008170033\n}\n",
				"bytecode": {
					"linkReferences": {},
					"object": "608060405234801562000010575f80fd5b506040518060400160405280601c81526020017f556e69766572736974795f417374616e6149545f417373616e616c69000000008152506040518060400160405280600381526020017f554141000000000000000000000000000000000000000000000000000000000081525081600390816200008e9190620005ee565b508060049081620000a09190620005ee565b505050620000d633601260ff16600a620000bb91906200084f565b6107d0620000ca91906200089f565b620000dc60201b60201c565b620009e8565b5f73ffffffffffffffffffffffffffffffffffffffff168273ffffffffffffffffffffffffffffffffffffffff16036200014f575f6040517fec442f050000000000000000000000000000000000000000000000000000000081526004016200014691906200092c565b60405180910390fd5b620001625f83836200016660201b60201c565b5050565b5f73ffffffffffffffffffffffffffffffffffffffff168373ffffffffffffffffffffffffffffffffffffffff1603620001ba578060025f828254620001ad919062000947565b925050819055506200028b565b5f805f8573ffffffffffffffffffffffffffffffffffffffff1673ffffffffffffffffffffffffffffffffffffffff1681526020019081526020015f205490508181101562000246578381836040517fe450d38c0000000000000000000000000000000000000000000000000000000081526004016200023d9392919062000992565b60405180910390fd5b8181035f808673ffffffffffffffffffffffffffffffffffffffff1673ffffffffffffffffffffffffffffffffffffffff1681526020019081526020015f2081905550505b5f73ffffffffffffffffffffffffffffffffffffffff168273ffffffffffffffffffffffffffffffffffffffff1603620002d4578060025f82825403925050819055506200031e565b805f808473ffffffffffffffffffffffffffffffffffffffff1673ffffffffffffffffffffffffffffffffffffffff1681526020019081526020015f205f82825401925050819055505b8173ffffffffffffffffffffffffffffffffffffffff168373ffffffffffffffffffffffffffffffffffffffff167fddf252ad1be2c89b69c2b068fc378daa952ba7f163c4a11628f55a4df523b3ef836040516200037d9190620009cd565b60405180910390a3505050565b5f81519050919050565b7f4e487b71000000000000000000000000000000000000000000000000000000005f52604160045260245ffd5b7f4e487b71000000000000000000000000000000000000000000000000000000005f52602260045260245ffd5b5f60028204905060018216806200040657607f821691505b6020821081036200041c576200041b620003c1565b5b50919050565b5f819050815f5260205f209050919050565b5f6020601f8301049050919050565b5f82821b905092915050565b5f60088302620004807fffffffffffffffffffffffffffffffffffffffffffffffffffffffffffffffff8262000443565b6200048c868362000443565b95508019841693508086168417925050509392505050565b5f819050919050565b5f819050919050565b5f620004d6620004d0620004ca84620004a4565b620004ad565b620004a4565b9050919050565b5f819050919050565b620004f183620004b6565b620005096200050082620004dd565b8484546200044f565b825550505050565b5f90565b6200051f62000511565b6200052c818484620004e6565b505050565b5b818110156200055357620005475f8262000515565b60018101905062000532565b5050565b601f821115620005a2576200056c8162000422565b620005778462000434565b8101602085101562000587578190505b6200059f620005968562000434565b83018262000531565b50505b505050565b5f82821c905092915050565b5f620005c45f1984600802620005a7565b1980831691505092915050565b5f620005de8383620005b3565b9150826002028217905092915050565b620005f9826200038a565b67ffffffffffffffff81111562000615576200061462000394565b5b620006218254620003ee565b6200062e82828562000557565b5f60209050601f83116001811462000664575f84156200064f578287015190505b6200065b8582620005d1565b865550620006ca565b601f198416620006748662000422565b5f5b828110156200069d5784890151825560018201915060208501945060208101905062000676565b86831015620006bd5784890151620006b9601f891682620005b3565b8355505b6001600288020188555050505b505050505050565b7f4e487b71000000000000000000000000000000000000000000000000000000005f52601160045260245ffd5b5f8160011c9050919050565b5f808291508390505b60018511156200075c57808604811115620007345762000733620006d2565b5b6001851615620007445780820291505b80810290506200075485620006ff565b945062000714565b94509492505050565b5f8262000776576001905062000848565b8162000785575f905062000848565b81600181146200079e5760028114620007a957620007df565b600191505062000848565b60ff841115620007be57620007bd620006d2565b5b8360020a915084821115620007d857620007d7620006d2565b5b5062000848565b5060208310610133831016604e8410600b8410161715620008195782820a905083811115620008135762000812620006d2565b5b62000848565b6200082884848460016200070b565b92509050818404811115620008425762000841620006d2565b5b81810290505b9392505050565b5f6200085b82620004a4565b91506200086883620004a4565b9250620008977fffffffffffffffffffffffffffffffffffffffffffffffffffffffffffffffff848462000765565b905092915050565b5f620008ab82620004a4565b9150620008b883620004a4565b9250828202620008c881620004a4565b91508282048414831517620008e257620008e1620006d2565b5b5092915050565b5f73ffffffffffffffffffffffffffffffffffffffff82169050919050565b5f6200091482620008e9565b9050919050565b620009268162000908565b82525050565b5f602082019050620009415f8301846200091b565b92915050565b5f6200095382620004a4565b91506200096083620004a4565b92508282019050808211156200097b576200097a620006d2565b5b92915050565b6200098c81620004a4565b82525050565b5f606082019050620009a75f8301866200091b565b620009b6602083018562000981565b620009c5604083018462000981565b949350505050565b5f602082019050620009e25f83018462000981565b92915050565b61192e80620009f65f395ff3fe608060405234801561000f575f80fd5b50600436106100fe575f3560e01c8063841b39fc11610095578063bead3f5011610064578063bead3f50146102b2578063d45e3f4a146102d0578063dd62ed3e146102ee578063f76f8d781461031e576100fe565b8063841b39fc1461022857806395d89b4114610246578063a3f4df7e14610264578063a9059cbb14610282576100fe565b80632e0f2625116100d15780632e0f26251461019e5780632ff2e9dc146101bc578063313ce567146101da57806370a08231146101f8576100fe565b806306fdde0314610102578063095ea7b31461012057806318160ddd1461015057806323b872dd1461016e575b5f80fd5b61010a61033c565b604051610117919061101c565b60405180910390f35b61013a600480360381019061013591906110cd565b6103cc565b6040516101479190611125565b60405180910390f35b6101586103ee565b604051610165919061114d565b60405180910390f35b61018860048036038101906101839190611166565b6103f7565b6040516101959190611125565b60405180910390f35b6101a661045b565b6040516101b391906111d1565b60405180910390f35b6101c4610460565b6040516101d1919061114d565b60405180910390f35b6101e2610481565b6040516101ef91906111d1565b60405180910390f35b610212600480360381019061020d91906111ea565b610489565b60405161021f919061114d565b60405180910390f35b6102306104ce565b60405161023d9190611224565b60405180910390f35b61024e6104d5565b60405161025b919061101c565b60405180910390f35b61026c610565565b604051610279919061101c565b60405180910390f35b61029c600480360381019061029791906110cd565b61059e565b6040516102a99190611125565b60405180910390f35b6102ba610607565b6040516102c79190611224565b60405180910390f35b6102d8610615565b6040516102e5919061101c565b60405180910390f35b6103086004803603810190610303919061123d565b61066c565b604051610315919061114d565b60405180910390f35b6103266106ee565b604051610333919061101c565b60405180910390f35b60606003805461034b906112a8565b80601f0160208091040260200160405190810160405280929190818152602001828054610377906112a8565b80156103c25780601f10610399576101008083540402835291602001916103c2565b820191905f5260205f20905b8154815290600101906020018083116103a557829003601f168201915b5050505050905090565b5f806103d6610727565b90506103e381858561072e565b600191505092915050565b5f600254905090565b5f80610404858585610740565b90508015610450577f360b0720d9fa9b8bac8c66aee32c6d152199e1fcdde1447d98bde22348f201bd6104364261076e565b8686604051610447939291906112d8565b60405180910390a15b809150509392505050565b601281565b601260ff16600a6104719190611470565b6107d061047e91906114ba565b81565b5f6012905090565b5f805f8373ffffffffffffffffffffffffffffffffffffffff1673ffffffffffffffffffffffffffffffffffffffff1681526020019081526020015f20549050919050565b5f30905090565b6060600480546104e4906112a8565b80601f0160208091040260200160405190810160405280929190818152602001828054610510906112a8565b801561055b5780601f106105325761010080835404028352916020019161055b565b820191905f5260205f20905b81548152906001019060200180831161053e57829003601f168201915b5050505050905090565b6040518060400160405280601c81526020017f556e69766572736974795f417374616e6149545f417373616e616c690000000081525081565b5f806105aa84846108c7565b905080156105fd577f360b0720d9fa9b8bac8c66aee32c6d152199e1fcdde1447d98bde22348f201bd6105dc4261076e565b6105e4610727565b866040516105f4939291906112d8565b60405180910390a15b8091505092915050565b5f610610610727565b905090565b60605f4311610659576040517f08c379a00000000000000000000000000000000000000000000000000000000081526004016106509061156b565b60405180910390fd5b5f429050610666816108e9565b91505090565b5f60015f8473ffffffffffffffffffffffffffffffffffffffff1673ffffffffffffffffffffffffffffffffffffffff1681526020019081526020015f205f8373ffffffffffffffffffffffffffffffffffffffff1673ffffffffffffffffffffffffffffffffffffffff1681526020019081526020015f2054905092915050565b6040518060400160405280600381526020017f554141000000000000000000000000000000000000000000000000000000000081525081565b5f33905090565b61073b8383836001610a28565b505050565b5f8061074a610727565b9050610757858285610bf7565b610762858585610c89565b60019150509392505050565b60605f82036107b4576040518060400160405280600181526020017f300000000000000000000000000000000000000000000000000000000000000081525090506108c2565b5f8290505f5b5f82146107e35780806107cc90611589565b915050600a826107dc91906115fd565b91506107ba565b5f8167ffffffffffffffff8111156107fe576107fd61162d565b5b6040519080825280601f01601f1916602001820160405280156108305781602001600182028036833780820191505090505b5090505b5f85146108bb57600182610848919061165a565b9150600a85610857919061168d565b603061086391906116bd565b60f81b818381518110610879576108786116f0565b5b60200101907effffffffffffffffffffffffffffffffffffffffffffffffffffffffffffff191690815f1a905350600a856108b491906115fd565b9450610834565b8093505050505b919050565b5f806108d1610727565b90506108de818585610c89565b600191505092915050565b60605f6301e1338090505f6107b2828561090391906115fd565b61090d91906116bd565b90505f6228207290505f6001828588610926919061168d565b61093091906115fd565b61093a91906116bd565b90505f6201518090505f600182858a610953919061168d565b61095d91906115fd565b61096791906116bd565b90505f610e1090505f81848b61097d919061168d565b61098791906115fd565b90505f603c90505f81848d61099c919061168d565b6109a691906115fd565b90505f828d6109b5919061168d565b90505f6109c18b61076e565b6109ca8a61076e565b6109d38961076e565b6109dc8861076e565b6109e58761076e565b6109ee8761076e565b604051602001610a0396959493929190611835565b6040516020818303038152906040529050809c50505050505050505050505050919050565b5f73ffffffffffffffffffffffffffffffffffffffff168473ffffffffffffffffffffffffffffffffffffffff1603610a98575f6040517fe602df05000000000000000000000000000000000000000000000000000000008152600401610a8f9190611224565b60405180910390fd5b5f73ffffffffffffffffffffffffffffffffffffffff168373ffffffffffffffffffffffffffffffffffffffff1603610b08575f6040517f94280d62000000000000000000000000000000000000000000000000000000008152600401610aff9190611224565b60405180910390fd5b8160015f8673ffffffffffffffffffffffffffffffffffffffff1673ffffffffffffffffffffffffffffffffffffffff1681526020019081526020015f205f8573ffffffffffffffffffffffffffffffffffffffff1673ffffffffffffffffffffffffffffffffffffffff1681526020019081526020015f20819055508015610bf1578273ffffffffffffffffffffffffffffffffffffffff168473ffffffffffffffffffffffffffffffffffffffff167f8c5be1e5ebec7d5bd14f71427d1e84f3dd0314c0f7b2291e5b200ac8c7c3b92584604051610be8919061114d565b60405180910390a35b50505050565b5f610c02848461066c565b90507fffffffffffffffffffffffffffffffffffffffffffffffffffffffffffffffff8114610c835781811015610c74578281836040517ffb8f41b2000000000000000000000000000000000000000000000000000000008152600401610c6b939291906118c3565b60405180910390fd5b610c8284848484035f610a28565b5b50505050565b5f73ffffffffffffffffffffffffffffffffffffffff168373ffffffffffffffffffffffffffffffffffffffff1603610cf9575f6040517f96c6fd1e000000000000000000000000000000000000000000000000000000008152600401610cf09190611224565b60405180910390fd5b5f73ffffffffffffffffffffffffffffffffffffffff168273ffffffffffffffffffffffffffffffffffffffff1603610d69575f6040517fec442f05000000000000000000000000000000000000000000000000000000008152600401610d609190611224565b60405180910390fd5b610d74838383610d79565b505050565b5f73ffffffffffffffffffffffffffffffffffffffff168373ffffffffffffffffffffffffffffffffffffffff1603610dc9578060025f828254610dbd91906116bd565b92505081905550610e97565b5f805f8573ffffffffffffffffffffffffffffffffffffffff1673ffffffffffffffffffffffffffffffffffffffff1681526020019081526020015f2054905081811015610e52578381836040517fe450d38c000000000000000000000000000000000000000000000000000000008152600401610e49939291906118c3565b60405180910390fd5b8181035f808673ffffffffffffffffffffffffffffffffffffffff1673ffffffffffffffffffffffffffffffffffffffff1681526020019081526020015f2081905550505b5f73ffffffffffffffffffffffffffffffffffffffff168273ffffffffffffffffffffffffffffffffffffffff1603610ede578060025f8282540392505081905550610f28565b805f808473ffffffffffffffffffffffffffffffffffffffff1673ffffffffffffffffffffffffffffffffffffffff1681526020019081526020015f205f82825401925050819055505b8173ffffffffffffffffffffffffffffffffffffffff168373ffffffffffffffffffffffffffffffffffffffff167fddf252ad1be2c89b69c2b068fc378daa952ba7f163c4a11628f55a4df523b3ef83604051610f85919061114d565b60405180910390a3505050565b5f81519050919050565b5f82825260208201905092915050565b5f5b83811015610fc9578082015181840152602081019050610fae565b5f8484015250505050565b5f601f19601f8301169050919050565b5f610fee82610f92565b610ff88185610f9c565b9350611008818560208601610fac565b61101181610fd4565b840191505092915050565b5f6020820190508181035f8301526110348184610fe4565b905092915050565b5f80fd5b5f73ffffffffffffffffffffffffffffffffffffffff82169050919050565b5f61106982611040565b9050919050565b6110798161105f565b8114611083575f80fd5b50565b5f8135905061109481611070565b92915050565b5f819050919050565b6110ac8161109a565b81146110b6575f80fd5b50565b5f813590506110c7816110a3565b92915050565b5f80604083850312156110e3576110e261103c565b5b5f6110f085828601611086565b9250506020611101858286016110b9565b9150509250929050565b5f8115159050919050565b61111f8161110b565b82525050565b5f6020820190506111385f830184611116565b92915050565b6111478161109a565b82525050565b5f6020820190506111605f83018461113e565b92915050565b5f805f6060848603121561117d5761117c61103c565b5b5f61118a86828701611086565b935050602061119b86828701611086565b92505060406111ac868287016110b9565b9150509250925092565b5f60ff82169050919050565b6111cb816111b6565b82525050565b5f6020820190506111e45f8301846111c2565b92915050565b5f602082840312156111ff576111fe61103c565b5b5f61120c84828501611086565b91505092915050565b61121e8161105f565b82525050565b5f6020820190506112375f830184611215565b92915050565b5f80604083850312156112535761125261103c565b5b5f61126085828601611086565b925050602061127185828601611086565b9150509250929050565b7f4e487b71000000000000000000000000000000000000000000000000000000005f52602260045260245ffd5b5f60028204905060018216806112bf57607f821691505b6020821081036112d2576112d161127b565b5b50919050565b5f6060820190508181035f8301526112f08186610fe4565b90506112ff6020830185611215565b61130c6040830184611215565b949350505050565b7f4e487b71000000000000000000000000000000000000000000000000000000005f52601160045260245ffd5b5f8160011c9050919050565b5f808291508390505b60018511156113965780860481111561137257611371611314565b5b60018516156113815780820291505b808102905061138f85611341565b9450611356565b94509492505050565b5f826113ae5760019050611469565b816113bb575f9050611469565b81600181146113d157600281146113db5761140a565b6001915050611469565b60ff8411156113ed576113ec611314565b5b8360020a91508482111561140457611403611314565b5b50611469565b5060208310610133831016604e8410600b841016171561143f5782820a90508381111561143a57611439611314565b5b611469565b61144c848484600161134d565b9250905081840481111561146357611462611314565b5b81810290505b9392505050565b5f61147a8261109a565b91506114858361109a565b92506114b27fffffffffffffffffffffffffffffffffffffffffffffffffffffffffffffffff848461139f565b905092915050565b5f6114c48261109a565b91506114cf8361109a565b92508282026114dd8161109a565b915082820484148315176114f4576114f3611314565b5b5092915050565b7f4e6f207472616e73616374696f6e732068617665206f636375727265642079655f8201527f7400000000000000000000000000000000000000000000000000000000000000602082015250565b5f611555602183610f9c565b9150611560826114fb565b604082019050919050565b5f6020820190508181035f83015261158281611549565b9050919050565b5f6115938261109a565b91507fffffffffffffffffffffffffffffffffffffffffffffffffffffffffffffffff82036115c5576115c4611314565b5b600182019050919050565b7f4e487b71000000000000000000000000000000000000000000000000000000005f52601260045260245ffd5b5f6116078261109a565b91506116128361109a565b925082611622576116216115d0565b5b828204905092915050565b7f4e487b71000000000000000000000000000000000000000000000000000000005f52604160045260245ffd5b5f6116648261109a565b915061166f8361109a565b925082820390508181111561168757611686611314565b5b92915050565b5f6116978261109a565b91506116a28361109a565b9250826116b2576116b16115d0565b5b828206905092915050565b5f6116c78261109a565b91506116d28361109a565b92508282019050808211156116ea576116e9611314565b5b92915050565b7f4e487b71000000000000000000000000000000000000000000000000000000005f52603260045260245ffd5b5f81905092915050565b5f61173182610f92565b61173b818561171d565b935061174b818560208601610fac565b80840191505092915050565b7f2d000000000000000000000000000000000000000000000000000000000000005f82015250565b5f61178b60018361171d565b915061179682611757565b600182019050919050565b7f20000000000000000000000000000000000000000000000000000000000000005f82015250565b5f6117d560018361171d565b91506117e0826117a1565b600182019050919050565b7f3a000000000000000000000000000000000000000000000000000000000000005f82015250565b5f61181f60018361171d565b915061182a826117eb565b600182019050919050565b5f6118408289611727565b915061184b8261177f565b91506118578288611727565b91506118628261177f565b915061186e8287611727565b9150611879826117c9565b91506118858286611727565b915061189082611813565b915061189c8285611727565b91506118a782611813565b91506118b38284611727565b9150819050979650505050505050565b5f6060820190506118d65f830186611215565b6118e3602083018561113e565b6118f0604083018461113e565b94935050505056fea2646970667358221220019850ab23b908c5e02652c920fe65e506d4895d8d94382bab70b7fa1ae00b6664736f6c63430008170033",
					"opcodes": "PUSH1 0x80 PUSH1 0x40 MSTORE CALLVALUE DUP1 ISZERO PUSH3 0x10 JUMPI PUSH0 DUP1 REVERT JUMPDEST POP PUSH1 0x40 MLOAD DUP1 PUSH1 0x40 ADD PUSH1 0x40 MSTORE DUP1 PUSH1 0x1C DUP2 MSTORE PUSH1 0x20 ADD PUSH32 0x556E69766572736974795F417374616E6149545F417373616E616C6900000000 DUP2 MSTORE POP PUSH1 0x40 MLOAD DUP1 PUSH1 0x40 ADD PUSH1 0x40 MSTORE DUP1 PUSH1 0x3 DUP2 MSTORE PUSH1 0x20 ADD PUSH32 0x5541410000000000000000000000000000000000000000000000000000000000 DUP2 MSTORE POP DUP2 PUSH1 0x3 SWAP1 DUP2 PUSH3 0x8E SWAP2 SWAP1 PUSH3 0x5EE JUMP JUMPDEST POP DUP1 PUSH1 0x4 SWAP1 DUP2 PUSH3 0xA0 SWAP2 SWAP1 PUSH3 0x5EE JUMP JUMPDEST POP POP POP PUSH3 0xD6 CALLER PUSH1 0x12 PUSH1 0xFF AND PUSH1 0xA PUSH3 0xBB SWAP2 SWAP1 PUSH3 0x84F JUMP JUMPDEST PUSH2 0x7D0 PUSH3 0xCA SWAP2 SWAP1 PUSH3 0x89F JUMP JUMPDEST PUSH3 0xDC PUSH1 0x20 SHL PUSH1 0x20 SHR JUMP JUMPDEST PUSH3 0x9E8 JUMP JUMPDEST PUSH0 PUSH20 0xFFFFFFFFFFFFFFFFFFFFFFFFFFFFFFFFFFFFFFFF AND DUP3 PUSH20 0xFFFFFFFFFFFFFFFFFFFFFFFFFFFFFFFFFFFFFFFF AND SUB PUSH3 0x14F JUMPI PUSH0 PUSH1 0x40 MLOAD PUSH32 0xEC442F0500000000000000000000000000000000000000000000000000000000 DUP2 MSTORE PUSH1 0x4 ADD PUSH3 0x146 SWAP2 SWAP1 PUSH3 0x92C JUMP JUMPDEST PUSH1 0x40 MLOAD DUP1 SWAP2 SUB SWAP1 REVERT JUMPDEST PUSH3 0x162 PUSH0 DUP4 DUP4 PUSH3 0x166 PUSH1 0x20 SHL PUSH1 0x20 SHR JUMP JUMPDEST POP POP JUMP JUMPDEST PUSH0 PUSH20 0xFFFFFFFFFFFFFFFFFFFFFFFFFFFFFFFFFFFFFFFF AND DUP4 PUSH20 0xFFFFFFFFFFFFFFFFFFFFFFFFFFFFFFFFFFFFFFFF AND SUB PUSH3 0x1BA JUMPI DUP1 PUSH1 0x2 PUSH0 DUP3 DUP3 SLOAD PUSH3 0x1AD SWAP2 SWAP1 PUSH3 0x947 JUMP JUMPDEST SWAP3 POP POP DUP2 SWAP1 SSTORE POP PUSH3 0x28B JUMP JUMPDEST PUSH0 DUP1 PUSH0 DUP6 PUSH20 0xFFFFFFFFFFFFFFFFFFFFFFFFFFFFFFFFFFFFFFFF AND PUSH20 0xFFFFFFFFFFFFFFFFFFFFFFFFFFFFFFFFFFFFFFFF AND DUP2 MSTORE PUSH1 0x20 ADD SWAP1 DUP2 MSTORE PUSH1 0x20 ADD PUSH0 KECCAK256 SLOAD SWAP1 POP DUP2 DUP2 LT ISZERO PUSH3 0x246 JUMPI DUP4 DUP2 DUP4 PUSH1 0x40 MLOAD PUSH32 0xE450D38C00000000000000000000000000000000000000000000000000000000 DUP2 MSTORE PUSH1 0x4 ADD PUSH3 0x23D SWAP4 SWAP3 SWAP2 SWAP1 PUSH3 0x992 JUMP JUMPDEST PUSH1 0x40 MLOAD DUP1 SWAP2 SUB SWAP1 REVERT JUMPDEST DUP2 DUP2 SUB PUSH0 DUP1 DUP7 PUSH20 0xFFFFFFFFFFFFFFFFFFFFFFFFFFFFFFFFFFFFFFFF AND PUSH20 0xFFFFFFFFFFFFFFFFFFFFFFFFFFFFFFFFFFFFFFFF AND DUP2 MSTORE PUSH1 0x20 ADD SWAP1 DUP2 MSTORE PUSH1 0x20 ADD PUSH0 KECCAK256 DUP2 SWAP1 SSTORE POP POP JUMPDEST PUSH0 PUSH20 0xFFFFFFFFFFFFFFFFFFFFFFFFFFFFFFFFFFFFFFFF AND DUP3 PUSH20 0xFFFFFFFFFFFFFFFFFFFFFFFFFFFFFFFFFFFFFFFF AND SUB PUSH3 0x2D4 JUMPI DUP1 PUSH1 0x2 PUSH0 DUP3 DUP3 SLOAD SUB SWAP3 POP POP DUP2 SWAP1 SSTORE POP PUSH3 0x31E JUMP JUMPDEST DUP1 PUSH0 DUP1 DUP5 PUSH20 0xFFFFFFFFFFFFFFFFFFFFFFFFFFFFFFFFFFFFFFFF AND PUSH20 0xFFFFFFFFFFFFFFFFFFFFFFFFFFFFFFFFFFFFFFFF AND DUP2 MSTORE PUSH1 0x20 ADD SWAP1 DUP2 MSTORE PUSH1 0x20 ADD PUSH0 KECCAK256 PUSH0 DUP3 DUP3 SLOAD ADD SWAP3 POP POP DUP2 SWAP1 SSTORE POP JUMPDEST DUP2 PUSH20 0xFFFFFFFFFFFFFFFFFFFFFFFFFFFFFFFFFFFFFFFF AND DUP4 PUSH20 0xFFFFFFFFFFFFFFFFFFFFFFFFFFFFFFFFFFFFFFFF AND PUSH32 0xDDF252AD1BE2C89B69C2B068FC378DAA952BA7F163C4A11628F55A4DF523B3EF DUP4 PUSH1 0x40 MLOAD PUSH3 0x37D SWAP2 SWAP1 PUSH3 0x9CD JUMP JUMPDEST PUSH1 0x40 MLOAD DUP1 SWAP2 SUB SWAP1 LOG3 POP POP POP JUMP JUMPDEST PUSH0 DUP2 MLOAD SWAP1 POP SWAP2 SWAP1 POP JUMP JUMPDEST PUSH32 0x4E487B7100000000000000000000000000000000000000000000000000000000 PUSH0 MSTORE PUSH1 0x41 PUSH1 0x4 MSTORE PUSH1 0x24 PUSH0 REVERT JUMPDEST PUSH32 0x4E487B7100000000000000000000000000000000000000000000000000000000 PUSH0 MSTORE PUSH1 0x22 PUSH1 0x4 MSTORE PUSH1 0x24 PUSH0 REVERT JUMPDEST PUSH0 PUSH1 0x2 DUP3 DIV SWAP1 POP PUSH1 0x1 DUP3 AND DUP1 PUSH3 0x406 JUMPI PUSH1 0x7F DUP3 AND SWAP2 POP JUMPDEST PUSH1 0x20 DUP3 LT DUP2 SUB PUSH3 0x41C JUMPI PUSH3 0x41B PUSH3 0x3C1 JUMP JUMPDEST JUMPDEST POP SWAP2 SWAP1 POP JUMP JUMPDEST PUSH0 DUP2 SWAP1 POP DUP2 PUSH0 MSTORE PUSH1 0x20 PUSH0 KECCAK256 SWAP1 POP SWAP2 SWAP1 POP JUMP JUMPDEST PUSH0 PUSH1 0x20 PUSH1 0x1F DUP4 ADD DIV SWAP1 POP SWAP2 SWAP1 POP JUMP JUMPDEST PUSH0 DUP3 DUP3 SHL SWAP1 POP SWAP3 SWAP2 POP POP JUMP JUMPDEST PUSH0 PUSH1 0x8 DUP4 MUL PUSH3 0x480 PUSH32 0xFFFFFFFFFFFFFFFFFFFFFFFFFFFFFFFFFFFFFFFFFFFFFFFFFFFFFFFFFFFFFFFF DUP3 PUSH3 0x443 JUMP JUMPDEST PUSH3 0x48C DUP7 DUP4 PUSH3 0x443 JUMP JUMPDEST SWAP6 POP DUP1 NOT DUP5 AND SWAP4 POP DUP1 DUP7 AND DUP5 OR SWAP3 POP POP POP SWAP4 SWAP3 POP POP POP JUMP JUMPDEST PUSH0 DUP2 SWAP1 POP SWAP2 SWAP1 POP JUMP JUMPDEST PUSH0 DUP2 SWAP1 POP SWAP2 SWAP1 POP JUMP JUMPDEST PUSH0 PUSH3 0x4D6 PUSH3 0x4D0 PUSH3 0x4CA DUP5 PUSH3 0x4A4 JUMP JUMPDEST PUSH3 0x4AD JUMP JUMPDEST PUSH3 0x4A4 JUMP JUMPDEST SWAP1 POP SWAP2 SWAP1 POP JUMP JUMPDEST PUSH0 DUP2 SWAP1 POP SWAP2 SWAP1 POP JUMP JUMPDEST PUSH3 0x4F1 DUP4 PUSH3 0x4B6 JUMP JUMPDEST PUSH3 0x509 PUSH3 0x500 DUP3 PUSH3 0x4DD JUMP JUMPDEST DUP5 DUP5 SLOAD PUSH3 0x44F JUMP JUMPDEST DUP3 SSTORE POP POP POP POP JUMP JUMPDEST PUSH0 SWAP1 JUMP JUMPDEST PUSH3 0x51F PUSH3 0x511 JUMP JUMPDEST PUSH3 0x52C DUP2 DUP5 DUP5 PUSH3 0x4E6 JUMP JUMPDEST POP POP POP JUMP JUMPDEST JUMPDEST DUP2 DUP2 LT ISZERO PUSH3 0x553 JUMPI PUSH3 0x547 PUSH0 DUP3 PUSH3 0x515 JUMP JUMPDEST PUSH1 0x1 DUP2 ADD SWAP1 POP PUSH3 0x532 JUMP JUMPDEST POP POP JUMP JUMPDEST PUSH1 0x1F DUP3 GT ISZERO PUSH3 0x5A2 JUMPI PUSH3 0x56C DUP2 PUSH3 0x422 JUMP JUMPDEST PUSH3 0x577 DUP5 PUSH3 0x434 JUMP JUMPDEST DUP2 ADD PUSH1 0x20 DUP6 LT ISZERO PUSH3 0x587 JUMPI DUP2 SWAP1 POP JUMPDEST PUSH3 0x59F PUSH3 0x596 DUP6 PUSH3 0x434 JUMP JUMPDEST DUP4 ADD DUP3 PUSH3 0x531 JUMP JUMPDEST POP POP JUMPDEST POP POP POP JUMP JUMPDEST PUSH0 DUP3 DUP3 SHR SWAP1 POP SWAP3 SWAP2 POP POP JUMP JUMPDEST PUSH0 PUSH3 0x5C4 PUSH0 NOT DUP5 PUSH1 0x8 MUL PUSH3 0x5A7 JUMP JUMPDEST NOT DUP1 DUP4 AND SWAP2 POP POP SWAP3 SWAP2 POP POP JUMP JUMPDEST PUSH0 PUSH3 0x5DE DUP4 DUP4 PUSH3 0x5B3 JUMP JUMPDEST SWAP2 POP DUP3 PUSH1 0x2 MUL DUP3 OR SWAP1 POP SWAP3 SWAP2 POP POP JUMP JUMPDEST PUSH3 0x5F9 DUP3 PUSH3 0x38A JUMP JUMPDEST PUSH8 0xFFFFFFFFFFFFFFFF DUP2 GT ISZERO PUSH3 0x615 JUMPI PUSH3 0x614 PUSH3 0x394 JUMP JUMPDEST JUMPDEST PUSH3 0x621 DUP3 SLOAD PUSH3 0x3EE JUMP JUMPDEST PUSH3 0x62E DUP3 DUP3 DUP6 PUSH3 0x557 JUMP JUMPDEST PUSH0 PUSH1 0x20 SWAP1 POP PUSH1 0x1F DUP4 GT PUSH1 0x1 DUP2 EQ PUSH3 0x664 JUMPI PUSH0 DUP5 ISZERO PUSH3 0x64F JUMPI DUP3 DUP8 ADD MLOAD SWAP1 POP JUMPDEST PUSH3 0x65B DUP6 DUP3 PUSH3 0x5D1 JUMP JUMPDEST DUP7 SSTORE POP PUSH3 0x6CA JUMP JUMPDEST PUSH1 0x1F NOT DUP5 AND PUSH3 0x674 DUP7 PUSH3 0x422 JUMP JUMPDEST PUSH0 JUMPDEST DUP3 DUP2 LT ISZERO PUSH3 0x69D JUMPI DUP5 DUP10 ADD MLOAD DUP3 SSTORE PUSH1 0x1 DUP3 ADD SWAP2 POP PUSH1 0x20 DUP6 ADD SWAP5 POP PUSH1 0x20 DUP2 ADD SWAP1 POP PUSH3 0x676 JUMP JUMPDEST DUP7 DUP4 LT ISZERO PUSH3 0x6BD JUMPI DUP5 DUP10 ADD MLOAD PUSH3 0x6B9 PUSH1 0x1F DUP10 AND DUP3 PUSH3 0x5B3 JUMP JUMPDEST DUP4 SSTORE POP JUMPDEST PUSH1 0x1 PUSH1 0x2 DUP9 MUL ADD DUP9 SSTORE POP POP POP JUMPDEST POP POP POP POP POP POP JUMP JUMPDEST PUSH32 0x4E487B7100000000000000000000000000000000000000000000000000000000 PUSH0 MSTORE PUSH1 0x11 PUSH1 0x4 MSTORE PUSH1 0x24 PUSH0 REVERT JUMPDEST PUSH0 DUP2 PUSH1 0x1 SHR SWAP1 POP SWAP2 SWAP1 POP JUMP JUMPDEST PUSH0 DUP1 DUP3 SWAP2 POP DUP4 SWAP1 POP JUMPDEST PUSH1 0x1 DUP6 GT ISZERO PUSH3 0x75C JUMPI DUP1 DUP7 DIV DUP2 GT ISZERO PUSH3 0x734 JUMPI PUSH3 0x733 PUSH3 0x6D2 JUMP JUMPDEST JUMPDEST PUSH1 0x1 DUP6 AND ISZERO PUSH3 0x744 JUMPI DUP1 DUP3 MUL SWAP2 POP JUMPDEST DUP1 DUP2 MUL SWAP1 POP PUSH3 0x754 DUP6 PUSH3 0x6FF JUMP JUMPDEST SWAP5 POP PUSH3 0x714 JUMP JUMPDEST SWAP5 POP SWAP5 SWAP3 POP POP POP JUMP JUMPDEST PUSH0 DUP3 PUSH3 0x776 JUMPI PUSH1 0x1 SWAP1 POP PUSH3 0x848 JUMP JUMPDEST DUP2 PUSH3 0x785 JUMPI PUSH0 SWAP1 POP PUSH3 0x848 JUMP JUMPDEST DUP2 PUSH1 0x1 DUP2 EQ PUSH3 0x79E JUMPI PUSH1 0x2 DUP2 EQ PUSH3 0x7A9 JUMPI PUSH3 0x7DF JUMP JUMPDEST PUSH1 0x1 SWAP2 POP POP PUSH3 0x848 JUMP JUMPDEST PUSH1 0xFF DUP5 GT ISZERO PUSH3 0x7BE JUMPI PUSH3 0x7BD PUSH3 0x6D2 JUMP JUMPDEST JUMPDEST DUP4 PUSH1 0x2 EXP SWAP2 POP DUP5 DUP3 GT ISZERO PUSH3 0x7D8 JUMPI PUSH3 0x7D7 PUSH3 0x6D2 JUMP JUMPDEST JUMPDEST POP PUSH3 0x848 JUMP JUMPDEST POP PUSH1 0x20 DUP4 LT PUSH2 0x133 DUP4 LT AND PUSH1 0x4E DUP5 LT PUSH1 0xB DUP5 LT AND OR ISZERO PUSH3 0x819 JUMPI DUP3 DUP3 EXP SWAP1 POP DUP4 DUP2 GT ISZERO PUSH3 0x813 JUMPI PUSH3 0x812 PUSH3 0x6D2 JUMP JUMPDEST JUMPDEST PUSH3 0x848 JUMP JUMPDEST PUSH3 0x828 DUP5 DUP5 DUP5 PUSH1 0x1 PUSH3 0x70B JUMP JUMPDEST SWAP3 POP SWAP1 POP DUP2 DUP5 DIV DUP2 GT ISZERO PUSH3 0x842 JUMPI PUSH3 0x841 PUSH3 0x6D2 JUMP JUMPDEST JUMPDEST DUP2 DUP2 MUL SWAP1 POP JUMPDEST SWAP4 SWAP3 POP POP POP JUMP JUMPDEST PUSH0 PUSH3 0x85B DUP3 PUSH3 0x4A4 JUMP JUMPDEST SWAP2 POP PUSH3 0x868 DUP4 PUSH3 0x4A4 JUMP JUMPDEST SWAP3 POP PUSH3 0x897 PUSH32 0xFFFFFFFFFFFFFFFFFFFFFFFFFFFFFFFFFFFFFFFFFFFFFFFFFFFFFFFFFFFFFFFF DUP5 DUP5 PUSH3 0x765 JUMP JUMPDEST SWAP1 POP SWAP3 SWAP2 POP POP JUMP JUMPDEST PUSH0 PUSH3 0x8AB DUP3 PUSH3 0x4A4 JUMP JUMPDEST SWAP2 POP PUSH3 0x8B8 DUP4 PUSH3 0x4A4 JUMP JUMPDEST SWAP3 POP DUP3 DUP3 MUL PUSH3 0x8C8 DUP2 PUSH3 0x4A4 JUMP JUMPDEST SWAP2 POP DUP3 DUP3 DIV DUP5 EQ DUP4 ISZERO OR PUSH3 0x8E2 JUMPI PUSH3 0x8E1 PUSH3 0x6D2 JUMP JUMPDEST JUMPDEST POP SWAP3 SWAP2 POP POP JUMP JUMPDEST PUSH0 PUSH20 0xFFFFFFFFFFFFFFFFFFFFFFFFFFFFFFFFFFFFFFFF DUP3 AND SWAP1 POP SWAP2 SWAP1 POP JUMP JUMPDEST PUSH0 PUSH3 0x914 DUP3 PUSH3 0x8E9 JUMP JUMPDEST SWAP1 POP SWAP2 SWAP1 POP JUMP JUMPDEST PUSH3 0x926 DUP2 PUSH3 0x908 JUMP JUMPDEST DUP3 MSTORE POP POP JUMP JUMPDEST PUSH0 PUSH1 0x20 DUP3 ADD SWAP1 POP PUSH3 0x941 PUSH0 DUP4 ADD DUP5 PUSH3 0x91B JUMP JUMPDEST SWAP3 SWAP2 POP POP JUMP JUMPDEST PUSH0 PUSH3 0x953 DUP3 PUSH3 0x4A4 JUMP JUMPDEST SWAP2 POP PUSH3 0x960 DUP4 PUSH3 0x4A4 JUMP JUMPDEST SWAP3 POP DUP3 DUP3 ADD SWAP1 POP DUP1 DUP3 GT ISZERO PUSH3 0x97B JUMPI PUSH3 0x97A PUSH3 0x6D2 JUMP JUMPDEST JUMPDEST SWAP3 SWAP2 POP POP JUMP JUMPDEST PUSH3 0x98C DUP2 PUSH3 0x4A4 JUMP JUMPDEST DUP3 MSTORE POP POP JUMP JUMPDEST PUSH0 PUSH1 0x60 DUP3 ADD SWAP1 POP PUSH3 0x9A7 PUSH0 DUP4 ADD DUP7 PUSH3 0x91B JUMP JUMPDEST PUSH3 0x9B6 PUSH1 0x20 DUP4 ADD DUP6 PUSH3 0x981 JUMP JUMPDEST PUSH3 0x9C5 PUSH1 0x40 DUP4 ADD DUP5 PUSH3 0x981 JUMP JUMPDEST SWAP5 SWAP4 POP POP POP POP JUMP JUMPDEST PUSH0 PUSH1 0x20 DUP3 ADD SWAP1 POP PUSH3 0x9E2 PUSH0 DUP4 ADD DUP5 PUSH3 0x981 JUMP JUMPDEST SWAP3 SWAP2 POP POP JUMP JUMPDEST PUSH2 0x192E DUP1 PUSH3 0x9F6 PUSH0 CODECOPY PUSH0 RETURN INVALID PUSH1 0x80 PUSH1 0x40 MSTORE CALLVALUE DUP1 ISZERO PUSH2 0xF JUMPI PUSH0 DUP1 REVERT JUMPDEST POP PUSH1 0x4 CALLDATASIZE LT PUSH2 0xFE JUMPI PUSH0 CALLDATALOAD PUSH1 0xE0 SHR DUP1 PUSH4 0x841B39FC GT PUSH2 0x95 JUMPI DUP1 PUSH4 0xBEAD3F50 GT PUSH2 0x64 JUMPI DUP1 PUSH4 0xBEAD3F50 EQ PUSH2 0x2B2 JUMPI DUP1 PUSH4 0xD45E3F4A EQ PUSH2 0x2D0 JUMPI DUP1 PUSH4 0xDD62ED3E EQ PUSH2 0x2EE JUMPI DUP1 PUSH4 0xF76F8D78 EQ PUSH2 0x31E JUMPI PUSH2 0xFE JUMP JUMPDEST DUP1 PUSH4 0x841B39FC EQ PUSH2 0x228 JUMPI DUP1 PUSH4 0x95D89B41 EQ PUSH2 0x246 JUMPI DUP1 PUSH4 0xA3F4DF7E EQ PUSH2 0x264 JUMPI DUP1 PUSH4 0xA9059CBB EQ PUSH2 0x282 JUMPI PUSH2 0xFE JUMP JUMPDEST DUP1 PUSH4 0x2E0F2625 GT PUSH2 0xD1 JUMPI DUP1 PUSH4 0x2E0F2625 EQ PUSH2 0x19E JUMPI DUP1 PUSH4 0x2FF2E9DC EQ PUSH2 0x1BC JUMPI DUP1 PUSH4 0x313CE567 EQ PUSH2 0x1DA JUMPI DUP1 PUSH4 0x70A08231 EQ PUSH2 0x1F8 JUMPI PUSH2 0xFE JUMP JUMPDEST DUP1 PUSH4 0x6FDDE03 EQ PUSH2 0x102 JUMPI DUP1 PUSH4 0x95EA7B3 EQ PUSH2 0x120 JUMPI DUP1 PUSH4 0x18160DDD EQ PUSH2 0x150 JUMPI DUP1 PUSH4 0x23B872DD EQ PUSH2 0x16E JUMPI JUMPDEST PUSH0 DUP1 REVERT JUMPDEST PUSH2 0x10A PUSH2 0x33C JUMP JUMPDEST PUSH1 0x40 MLOAD PUSH2 0x117 SWAP2 SWAP1 PUSH2 0x101C JUMP JUMPDEST PUSH1 0x40 MLOAD DUP1 SWAP2 SUB SWAP1 RETURN JUMPDEST PUSH2 0x13A PUSH1 0x4 DUP1 CALLDATASIZE SUB DUP2 ADD SWAP1 PUSH2 0x135 SWAP2 SWAP1 PUSH2 0x10CD JUMP JUMPDEST PUSH2 0x3CC JUMP JUMPDEST PUSH1 0x40 MLOAD PUSH2 0x147 SWAP2 SWAP1 PUSH2 0x1125 JUMP JUMPDEST PUSH1 0x40 MLOAD DUP1 SWAP2 SUB SWAP1 RETURN JUMPDEST PUSH2 0x158 PUSH2 0x3EE JUMP JUMPDEST PUSH1 0x40 MLOAD PUSH2 0x165 SWAP2 SWAP1 PUSH2 0x114D JUMP JUMPDEST PUSH1 0x40 MLOAD DUP1 SWAP2 SUB SWAP1 RETURN JUMPDEST PUSH2 0x188 PUSH1 0x4 DUP1 CALLDATASIZE SUB DUP2 ADD SWAP1 PUSH2 0x183 SWAP2 SWAP1 PUSH2 0x1166 JUMP JUMPDEST PUSH2 0x3F7 JUMP JUMPDEST PUSH1 0x40 MLOAD PUSH2 0x195 SWAP2 SWAP1 PUSH2 0x1125 JUMP JUMPDEST PUSH1 0x40 MLOAD DUP1 SWAP2 SUB SWAP1 RETURN JUMPDEST PUSH2 0x1A6 PUSH2 0x45B JUMP JUMPDEST PUSH1 0x40 MLOAD PUSH2 0x1B3 SWAP2 SWAP1 PUSH2 0x11D1 JUMP JUMPDEST PUSH1 0x40 MLOAD DUP1 SWAP2 SUB SWAP1 RETURN JUMPDEST PUSH2 0x1C4 PUSH2 0x460 JUMP JUMPDEST PUSH1 0x40 MLOAD PUSH2 0x1D1 SWAP2 SWAP1 PUSH2 0x114D JUMP JUMPDEST PUSH1 0x40 MLOAD DUP1 SWAP2 SUB SWAP1 RETURN JUMPDEST PUSH2 0x1E2 PUSH2 0x481 JUMP JUMPDEST PUSH1 0x40 MLOAD PUSH2 0x1EF SWAP2 SWAP1 PUSH2 0x11D1 JUMP JUMPDEST PUSH1 0x40 MLOAD DUP1 SWAP2 SUB SWAP1 RETURN JUMPDEST PUSH2 0x212 PUSH1 0x4 DUP1 CALLDATASIZE SUB DUP2 ADD SWAP1 PUSH2 0x20D SWAP2 SWAP1 PUSH2 0x11EA JUMP JUMPDEST PUSH2 0x489 JUMP JUMPDEST PUSH1 0x40 MLOAD PUSH2 0x21F SWAP2 SWAP1 PUSH2 0x114D JUMP JUMPDEST PUSH1 0x40 MLOAD DUP1 SWAP2 SUB SWAP1 RETURN JUMPDEST PUSH2 0x230 PUSH2 0x4CE JUMP JUMPDEST PUSH1 0x40 MLOAD PUSH2 0x23D SWAP2 SWAP1 PUSH2 0x1224 JUMP JUMPDEST PUSH1 0x40 MLOAD DUP1 SWAP2 SUB SWAP1 RETURN JUMPDEST PUSH2 0x24E PUSH2 0x4D5 JUMP JUMPDEST PUSH1 0x40 MLOAD PUSH2 0x25B SWAP2 SWAP1 PUSH2 0x101C JUMP JUMPDEST PUSH1 0x40 MLOAD DUP1 SWAP2 SUB SWAP1 RETURN JUMPDEST PUSH2 0x26C PUSH2 0x565 JUMP JUMPDEST PUSH1 0x40 MLOAD PUSH2 0x279 SWAP2 SWAP1 PUSH2 0x101C JUMP JUMPDEST PUSH1 0x40 MLOAD DUP1 SWAP2 SUB SWAP1 RETURN JUMPDEST PUSH2 0x29C PUSH1 0x4 DUP1 CALLDATASIZE SUB DUP2 ADD SWAP1 PUSH2 0x297 SWAP2 SWAP1 PUSH2 0x10CD JUMP JUMPDEST PUSH2 0x59E JUMP JUMPDEST PUSH1 0x40 MLOAD PUSH2 0x2A9 SWAP2 SWAP1 PUSH2 0x1125 JUMP JUMPDEST PUSH1 0x40 MLOAD DUP1 SWAP2 SUB SWAP1 RETURN JUMPDEST PUSH2 0x2BA PUSH2 0x607 JUMP JUMPDEST PUSH1 0x40 MLOAD PUSH2 0x2C7 SWAP2 SWAP1 PUSH2 0x1224 JUMP JUMPDEST PUSH1 0x40 MLOAD DUP1 SWAP2 SUB SWAP1 RETURN JUMPDEST PUSH2 0x2D8 PUSH2 0x615 JUMP JUMPDEST PUSH1 0x40 MLOAD PUSH2 0x2E5 SWAP2 SWAP1 PUSH2 0x101C JUMP JUMPDEST PUSH1 0x40 MLOAD DUP1 SWAP2 SUB SWAP1 RETURN JUMPDEST PUSH2 0x308 PUSH1 0x4 DUP1 CALLDATASIZE SUB DUP2 ADD SWAP1 PUSH2 0x303 SWAP2 SWAP1 PUSH2 0x123D JUMP JUMPDEST PUSH2 0x66C JUMP JUMPDEST PUSH1 0x40 MLOAD PUSH2 0x315 SWAP2 SWAP1 PUSH2 0x114D JUMP JUMPDEST PUSH1 0x40 MLOAD DUP1 SWAP2 SUB SWAP1 RETURN JUMPDEST PUSH2 0x326 PUSH2 0x6EE JUMP JUMPDEST PUSH1 0x40 MLOAD PUSH2 0x333 SWAP2 SWAP1 PUSH2 0x101C JUMP JUMPDEST PUSH1 0x40 MLOAD DUP1 SWAP2 SUB SWAP1 RETURN JUMPDEST PUSH1 0x60 PUSH1 0x3 DUP1 SLOAD PUSH2 0x34B SWAP1 PUSH2 0x12A8 JUMP JUMPDEST DUP1 PUSH1 0x1F ADD PUSH1 0x20 DUP1 SWAP2 DIV MUL PUSH1 0x20 ADD PUSH1 0x40 MLOAD SWAP1 DUP2 ADD PUSH1 0x40 MSTORE DUP1 SWAP3 SWAP2 SWAP1 DUP2 DUP2 MSTORE PUSH1 0x20 ADD DUP3 DUP1 SLOAD PUSH2 0x377 SWAP1 PUSH2 0x12A8 JUMP JUMPDEST DUP1 ISZERO PUSH2 0x3C2 JUMPI DUP1 PUSH1 0x1F LT PUSH2 0x399 JUMPI PUSH2 0x100 DUP1 DUP4 SLOAD DIV MUL DUP4 MSTORE SWAP2 PUSH1 0x20 ADD SWAP2 PUSH2 0x3C2 JUMP JUMPDEST DUP3 ADD SWAP2 SWAP1 PUSH0 MSTORE PUSH1 0x20 PUSH0 KECCAK256 SWAP1 JUMPDEST DUP2 SLOAD DUP2 MSTORE SWAP1 PUSH1 0x1 ADD SWAP1 PUSH1 0x20 ADD DUP1 DUP4 GT PUSH2 0x3A5 JUMPI DUP3 SWAP1 SUB PUSH1 0x1F AND DUP3 ADD SWAP2 JUMPDEST POP POP POP POP POP SWAP1 POP SWAP1 JUMP JUMPDEST PUSH0 DUP1 PUSH2 0x3D6 PUSH2 0x727 JUMP JUMPDEST SWAP1 POP PUSH2 0x3E3 DUP2 DUP6 DUP6 PUSH2 0x72E JUMP JUMPDEST PUSH1 0x1 SWAP2 POP POP SWAP3 SWAP2 POP POP JUMP JUMPDEST PUSH0 PUSH1 0x2 SLOAD SWAP1 POP SWAP1 JUMP JUMPDEST PUSH0 DUP1 PUSH2 0x404 DUP6 DUP6 DUP6 PUSH2 0x740 JUMP JUMPDEST SWAP1 POP DUP1 ISZERO PUSH2 0x450 JUMPI PUSH32 0x360B0720D9FA9B8BAC8C66AEE32C6D152199E1FCDDE1447D98BDE22348F201BD PUSH2 0x436 TIMESTAMP PUSH2 0x76E JUMP JUMPDEST DUP7 DUP7 PUSH1 0x40 MLOAD PUSH2 0x447 SWAP4 SWAP3 SWAP2 SWAP1 PUSH2 0x12D8 JUMP JUMPDEST PUSH1 0x40 MLOAD DUP1 SWAP2 SUB SWAP1 LOG1 JUMPDEST DUP1 SWAP2 POP POP SWAP4 SWAP3 POP POP POP JUMP JUMPDEST PUSH1 0x12 DUP2 JUMP JUMPDEST PUSH1 0x12 PUSH1 0xFF AND PUSH1 0xA PUSH2 0x471 SWAP2 SWAP1 PUSH2 0x1470 JUMP JUMPDEST PUSH2 0x7D0 PUSH2 0x47E SWAP2 SWAP1 PUSH2 0x14BA JUMP JUMPDEST DUP2 JUMP JUMPDEST PUSH0 PUSH1 0x12 SWAP1 POP SWAP1 JUMP JUMPDEST PUSH0 DUP1 PUSH0 DUP4 PUSH20 0xFFFFFFFFFFFFFFFFFFFFFFFFFFFFFFFFFFFFFFFF AND PUSH20 0xFFFFFFFFFFFFFFFFFFFFFFFFFFFFFFFFFFFFFFFF AND DUP2 MSTORE PUSH1 0x20 ADD SWAP1 DUP2 MSTORE PUSH1 0x20 ADD PUSH0 KECCAK256 SLOAD SWAP1 POP SWAP2 SWAP1 POP JUMP JUMPDEST PUSH0 ADDRESS SWAP1 POP SWAP1 JUMP JUMPDEST PUSH1 0x60 PUSH1 0x4 DUP1 SLOAD PUSH2 0x4E4 SWAP1 PUSH2 0x12A8 JUMP JUMPDEST DUP1 PUSH1 0x1F ADD PUSH1 0x20 DUP1 SWAP2 DIV MUL PUSH1 0x20 ADD PUSH1 0x40 MLOAD SWAP1 DUP2 ADD PUSH1 0x40 MSTORE DUP1 SWAP3 SWAP2 SWAP1 DUP2 DUP2 MSTORE PUSH1 0x20 ADD DUP3 DUP1 SLOAD PUSH2 0x510 SWAP1 PUSH2 0x12A8 JUMP JUMPDEST DUP1 ISZERO PUSH2 0x55B JUMPI DUP1 PUSH1 0x1F LT PUSH2 0x532 JUMPI PUSH2 0x100 DUP1 DUP4 SLOAD DIV MUL DUP4 MSTORE SWAP2 PUSH1 0x20 ADD SWAP2 PUSH2 0x55B JUMP JUMPDEST DUP3 ADD SWAP2 SWAP1 PUSH0 MSTORE PUSH1 0x20 PUSH0 KECCAK256 SWAP1 JUMPDEST DUP2 SLOAD DUP2 MSTORE SWAP1 PUSH1 0x1 ADD SWAP1 PUSH1 0x20 ADD DUP1 DUP4 GT PUSH2 0x53E JUMPI DUP3 SWAP1 SUB PUSH1 0x1F AND DUP3 ADD SWAP2 JUMPDEST POP POP POP POP POP SWAP1 POP SWAP1 JUMP JUMPDEST PUSH1 0x40 MLOAD DUP1 PUSH1 0x40 ADD PUSH1 0x40 MSTORE DUP1 PUSH1 0x1C DUP2 MSTORE PUSH1 0x20 ADD PUSH32 0x556E69766572736974795F417374616E6149545F417373616E616C6900000000 DUP2 MSTORE POP DUP2 JUMP JUMPDEST PUSH0 DUP1 PUSH2 0x5AA DUP5 DUP5 PUSH2 0x8C7 JUMP JUMPDEST SWAP1 POP DUP1 ISZERO PUSH2 0x5FD JUMPI PUSH32 0x360B0720D9FA9B8BAC8C66AEE32C6D152199E1FCDDE1447D98BDE22348F201BD PUSH2 0x5DC TIMESTAMP PUSH2 0x76E JUMP JUMPDEST PUSH2 0x5E4 PUSH2 0x727 JUMP JUMPDEST DUP7 PUSH1 0x40 MLOAD PUSH2 0x5F4 SWAP4 SWAP3 SWAP2 SWAP1 PUSH2 0x12D8 JUMP JUMPDEST PUSH1 0x40 MLOAD DUP1 SWAP2 SUB SWAP1 LOG1 JUMPDEST DUP1 SWAP2 POP POP SWAP3 SWAP2 POP POP JUMP JUMPDEST PUSH0 PUSH2 0x610 PUSH2 0x727 JUMP JUMPDEST SWAP1 POP SWAP1 JUMP JUMPDEST PUSH1 0x60 PUSH0 NUMBER GT PUSH2 0x659 JUMPI PUSH1 0x40 MLOAD PUSH32 0x8C379A000000000000000000000000000000000000000000000000000000000 DUP2 MSTORE PUSH1 0x4 ADD PUSH2 0x650 SWAP1 PUSH2 0x156B JUMP JUMPDEST PUSH1 0x40 MLOAD DUP1 SWAP2 SUB SWAP1 REVERT JUMPDEST PUSH0 TIMESTAMP SWAP1 POP PUSH2 0x666 DUP2 PUSH2 0x8E9 JUMP JUMPDEST SWAP2 POP POP SWAP1 JUMP JUMPDEST PUSH0 PUSH1 0x1 PUSH0 DUP5 PUSH20 0xFFFFFFFFFFFFFFFFFFFFFFFFFFFFFFFFFFFFFFFF AND PUSH20 0xFFFFFFFFFFFFFFFFFFFFFFFFFFFFFFFFFFFFFFFF AND DUP2 MSTORE PUSH1 0x20 ADD SWAP1 DUP2 MSTORE PUSH1 0x20 ADD PUSH0 KECCAK256 PUSH0 DUP4 PUSH20 0xFFFFFFFFFFFFFFFFFFFFFFFFFFFFFFFFFFFFFFFF AND PUSH20 0xFFFFFFFFFFFFFFFFFFFFFFFFFFFFFFFFFFFFFFFF AND DUP2 MSTORE PUSH1 0x20 ADD SWAP1 DUP2 MSTORE PUSH1 0x20 ADD PUSH0 KECCAK256 SLOAD SWAP1 POP SWAP3 SWAP2 POP POP JUMP JUMPDEST PUSH1 0x40 MLOAD DUP1 PUSH1 0x40 ADD PUSH1 0x40 MSTORE DUP1 PUSH1 0x3 DUP2 MSTORE PUSH1 0x20 ADD PUSH32 0x5541410000000000000000000000000000000000000000000000000000000000 DUP2 MSTORE POP DUP2 JUMP JUMPDEST PUSH0 CALLER SWAP1 POP SWAP1 JUMP JUMPDEST PUSH2 0x73B DUP4 DUP4 DUP4 PUSH1 0x1 PUSH2 0xA28 JUMP JUMPDEST POP POP POP JUMP JUMPDEST PUSH0 DUP1 PUSH2 0x74A PUSH2 0x727 JUMP JUMPDEST SWAP1 POP PUSH2 0x757 DUP6 DUP3 DUP6 PUSH2 0xBF7 JUMP JUMPDEST PUSH2 0x762 DUP6 DUP6 DUP6 PUSH2 0xC89 JUMP JUMPDEST PUSH1 0x1 SWAP2 POP POP SWAP4 SWAP3 POP POP POP JUMP JUMPDEST PUSH1 0x60 PUSH0 DUP3 SUB PUSH2 0x7B4 JUMPI PUSH1 0x40 MLOAD DUP1 PUSH1 0x40 ADD PUSH1 0x40 MSTORE DUP1 PUSH1 0x1 DUP2 MSTORE PUSH1 0x20 ADD PUSH32 0x3000000000000000000000000000000000000000000000000000000000000000 DUP2 MSTORE POP SWAP1 POP PUSH2 0x8C2 JUMP JUMPDEST PUSH0 DUP3 SWAP1 POP PUSH0 JUMPDEST PUSH0 DUP3 EQ PUSH2 0x7E3 JUMPI DUP1 DUP1 PUSH2 0x7CC SWAP1 PUSH2 0x1589 JUMP JUMPDEST SWAP2 POP POP PUSH1 0xA DUP3 PUSH2 0x7DC SWAP2 SWAP1 PUSH2 0x15FD JUMP JUMPDEST SWAP2 POP PUSH2 0x7BA JUMP JUMPDEST PUSH0 DUP2 PUSH8 0xFFFFFFFFFFFFFFFF DUP2 GT ISZERO PUSH2 0x7FE JUMPI PUSH2 0x7FD PUSH2 0x162D JUMP JUMPDEST JUMPDEST PUSH1 0x40 MLOAD SWAP1 DUP1 DUP3 MSTORE DUP1 PUSH1 0x1F ADD PUSH1 0x1F NOT AND PUSH1 0x20 ADD DUP3 ADD PUSH1 0x40 MSTORE DUP1 ISZERO PUSH2 0x830 JUMPI DUP2 PUSH1 0x20 ADD PUSH1 0x1 DUP3 MUL DUP1 CALLDATASIZE DUP4 CALLDATACOPY DUP1 DUP3 ADD SWAP2 POP POP SWAP1 POP JUMPDEST POP SWAP1 POP JUMPDEST PUSH0 DUP6 EQ PUSH2 0x8BB JUMPI PUSH1 0x1 DUP3 PUSH2 0x848 SWAP2 SWAP1 PUSH2 0x165A JUMP JUMPDEST SWAP2 POP PUSH1 0xA DUP6 PUSH2 0x857 SWAP2 SWAP1 PUSH2 0x168D JUMP JUMPDEST PUSH1 0x30 PUSH2 0x863 SWAP2 SWAP1 PUSH2 0x16BD JUMP JUMPDEST PUSH1 0xF8 SHL DUP2 DUP4 DUP2 MLOAD DUP2 LT PUSH2 0x879 JUMPI PUSH2 0x878 PUSH2 0x16F0 JUMP JUMPDEST JUMPDEST PUSH1 0x20 ADD ADD SWAP1 PUSH31 0xFFFFFFFFFFFFFFFFFFFFFFFFFFFFFFFFFFFFFFFFFFFFFFFFFFFFFFFFFFFFFF NOT AND SWAP1 DUP2 PUSH0 BYTE SWAP1 MSTORE8 POP PUSH1 0xA DUP6 PUSH2 0x8B4 SWAP2 SWAP1 PUSH2 0x15FD JUMP JUMPDEST SWAP5 POP PUSH2 0x834 JUMP JUMPDEST DUP1 SWAP4 POP POP POP POP JUMPDEST SWAP2 SWAP1 POP JUMP JUMPDEST PUSH0 DUP1 PUSH2 0x8D1 PUSH2 0x727 JUMP JUMPDEST SWAP1 POP PUSH2 0x8DE DUP2 DUP6 DUP6 PUSH2 0xC89 JUMP JUMPDEST PUSH1 0x1 SWAP2 POP POP SWAP3 SWAP2 POP POP JUMP JUMPDEST PUSH1 0x60 PUSH0 PUSH4 0x1E13380 SWAP1 POP PUSH0 PUSH2 0x7B2 DUP3 DUP6 PUSH2 0x903 SWAP2 SWAP1 PUSH2 0x15FD JUMP JUMPDEST PUSH2 0x90D SWAP2 SWAP1 PUSH2 0x16BD JUMP JUMPDEST SWAP1 POP PUSH0 PUSH3 0x282072 SWAP1 POP PUSH0 PUSH1 0x1 DUP3 DUP6 DUP9 PUSH2 0x926 SWAP2 SWAP1 PUSH2 0x168D JUMP JUMPDEST PUSH2 0x930 SWAP2 SWAP1 PUSH2 0x15FD JUMP JUMPDEST PUSH2 0x93A SWAP2 SWAP1 PUSH2 0x16BD JUMP JUMPDEST SWAP1 POP PUSH0 PUSH3 0x15180 SWAP1 POP PUSH0 PUSH1 0x1 DUP3 DUP6 DUP11 PUSH2 0x953 SWAP2 SWAP1 PUSH2 0x168D JUMP JUMPDEST PUSH2 0x95D SWAP2 SWAP1 PUSH2 0x15FD JUMP JUMPDEST PUSH2 0x967 SWAP2 SWAP1 PUSH2 0x16BD JUMP JUMPDEST SWAP1 POP PUSH0 PUSH2 0xE10 SWAP1 POP PUSH0 DUP2 DUP5 DUP12 PUSH2 0x97D SWAP2 SWAP1 PUSH2 0x168D JUMP JUMPDEST PUSH2 0x987 SWAP2 SWAP1 PUSH2 0x15FD JUMP JUMPDEST SWAP1 POP PUSH0 PUSH1 0x3C SWAP1 POP PUSH0 DUP2 DUP5 DUP14 PUSH2 0x99C SWAP2 SWAP1 PUSH2 0x168D JUMP JUMPDEST PUSH2 0x9A6 SWAP2 SWAP1 PUSH2 0x15FD JUMP JUMPDEST SWAP1 POP PUSH0 DUP3 DUP14 PUSH2 0x9B5 SWAP2 SWAP1 PUSH2 0x168D JUMP JUMPDEST SWAP1 POP PUSH0 PUSH2 0x9C1 DUP12 PUSH2 0x76E JUMP JUMPDEST PUSH2 0x9CA DUP11 PUSH2 0x76E JUMP JUMPDEST PUSH2 0x9D3 DUP10 PUSH2 0x76E JUMP JUMPDEST PUSH2 0x9DC DUP9 PUSH2 0x76E JUMP JUMPDEST PUSH2 0x9E5 DUP8 PUSH2 0x76E JUMP JUMPDEST PUSH2 0x9EE DUP8 PUSH2 0x76E JUMP JUMPDEST PUSH1 0x40 MLOAD PUSH1 0x20 ADD PUSH2 0xA03 SWAP7 SWAP6 SWAP5 SWAP4 SWAP3 SWAP2 SWAP1 PUSH2 0x1835 JUMP JUMPDEST PUSH1 0x40 MLOAD PUSH1 0x20 DUP2 DUP4 SUB SUB DUP2 MSTORE SWAP1 PUSH1 0x40 MSTORE SWAP1 POP DUP1 SWAP13 POP POP POP POP POP POP POP POP POP POP POP POP POP SWAP2 SWAP1 POP JUMP JUMPDEST PUSH0 PUSH20 0xFFFFFFFFFFFFFFFFFFFFFFFFFFFFFFFFFFFFFFFF AND DUP5 PUSH20 0xFFFFFFFFFFFFFFFFFFFFFFFFFFFFFFFFFFFFFFFF AND SUB PUSH2 0xA98 JUMPI PUSH0 PUSH1 0x40 MLOAD PUSH32 0xE602DF0500000000000000000000000000000000000000000000000000000000 DUP2 MSTORE PUSH1 0x4 ADD PUSH2 0xA8F SWAP2 SWAP1 PUSH2 0x1224 JUMP JUMPDEST PUSH1 0x40 MLOAD DUP1 SWAP2 SUB SWAP1 REVERT JUMPDEST PUSH0 PUSH20 0xFFFFFFFFFFFFFFFFFFFFFFFFFFFFFFFFFFFFFFFF AND DUP4 PUSH20 0xFFFFFFFFFFFFFFFFFFFFFFFFFFFFFFFFFFFFFFFF AND SUB PUSH2 0xB08 JUMPI PUSH0 PUSH1 0x40 MLOAD PUSH32 0x94280D6200000000000000000000000000000000000000000000000000000000 DUP2 MSTORE PUSH1 0x4 ADD PUSH2 0xAFF SWAP2 SWAP1 PUSH2 0x1224 JUMP JUMPDEST PUSH1 0x40 MLOAD DUP1 SWAP2 SUB SWAP1 REVERT JUMPDEST DUP2 PUSH1 0x1 PUSH0 DUP7 PUSH20 0xFFFFFFFFFFFFFFFFFFFFFFFFFFFFFFFFFFFFFFFF AND PUSH20 0xFFFFFFFFFFFFFFFFFFFFFFFFFFFFFFFFFFFFFFFF AND DUP2 MSTORE PUSH1 0x20 ADD SWAP1 DUP2 MSTORE PUSH1 0x20 ADD PUSH0 KECCAK256 PUSH0 DUP6 PUSH20 0xFFFFFFFFFFFFFFFFFFFFFFFFFFFFFFFFFFFFFFFF AND PUSH20 0xFFFFFFFFFFFFFFFFFFFFFFFFFFFFFFFFFFFFFFFF AND DUP2 MSTORE PUSH1 0x20 ADD SWAP1 DUP2 MSTORE PUSH1 0x20 ADD PUSH0 KECCAK256 DUP2 SWAP1 SSTORE POP DUP1 ISZERO PUSH2 0xBF1 JUMPI DUP3 PUSH20 0xFFFFFFFFFFFFFFFFFFFFFFFFFFFFFFFFFFFFFFFF AND DUP5 PUSH20 0xFFFFFFFFFFFFFFFFFFFFFFFFFFFFFFFFFFFFFFFF AND PUSH32 0x8C5BE1E5EBEC7D5BD14F71427D1E84F3DD0314C0F7B2291E5B200AC8C7C3B925 DUP5 PUSH1 0x40 MLOAD PUSH2 0xBE8 SWAP2 SWAP1 PUSH2 0x114D JUMP JUMPDEST PUSH1 0x40 MLOAD DUP1 SWAP2 SUB SWAP1 LOG3 JUMPDEST POP POP POP POP JUMP JUMPDEST PUSH0 PUSH2 0xC02 DUP5 DUP5 PUSH2 0x66C JUMP JUMPDEST SWAP1 POP PUSH32 0xFFFFFFFFFFFFFFFFFFFFFFFFFFFFFFFFFFFFFFFFFFFFFFFFFFFFFFFFFFFFFFFF DUP2 EQ PUSH2 0xC83 JUMPI DUP2 DUP2 LT ISZERO PUSH2 0xC74 JUMPI DUP3 DUP2 DUP4 PUSH1 0x40 MLOAD PUSH32 0xFB8F41B200000000000000000000000000000000000000000000000000000000 DUP2 MSTORE PUSH1 0x4 ADD PUSH2 0xC6B SWAP4 SWAP3 SWAP2 SWAP1 PUSH2 0x18C3 JUMP JUMPDEST PUSH1 0x40 MLOAD DUP1 SWAP2 SUB SWAP1 REVERT JUMPDEST PUSH2 0xC82 DUP5 DUP5 DUP5 DUP5 SUB PUSH0 PUSH2 0xA28 JUMP JUMPDEST JUMPDEST POP POP POP POP JUMP JUMPDEST PUSH0 PUSH20 0xFFFFFFFFFFFFFFFFFFFFFFFFFFFFFFFFFFFFFFFF AND DUP4 PUSH20 0xFFFFFFFFFFFFFFFFFFFFFFFFFFFFFFFFFFFFFFFF AND SUB PUSH2 0xCF9 JUMPI PUSH0 PUSH1 0x40 MLOAD PUSH32 0x96C6FD1E00000000000000000000000000000000000000000000000000000000 DUP2 MSTORE PUSH1 0x4 ADD PUSH2 0xCF0 SWAP2 SWAP1 PUSH2 0x1224 JUMP JUMPDEST PUSH1 0x40 MLOAD DUP1 SWAP2 SUB SWAP1 REVERT JUMPDEST PUSH0 PUSH20 0xFFFFFFFFFFFFFFFFFFFFFFFFFFFFFFFFFFFFFFFF AND DUP3 PUSH20 0xFFFFFFFFFFFFFFFFFFFFFFFFFFFFFFFFFFFFFFFF AND SUB PUSH2 0xD69 JUMPI PUSH0 PUSH1 0x40 MLOAD PUSH32 0xEC442F0500000000000000000000000000000000000000000000000000000000 DUP2 MSTORE PUSH1 0x4 ADD PUSH2 0xD60 SWAP2 SWAP1 PUSH2 0x1224 JUMP JUMPDEST PUSH1 0x40 MLOAD DUP1 SWAP2 SUB SWAP1 REVERT JUMPDEST PUSH2 0xD74 DUP4 DUP4 DUP4 PUSH2 0xD79 JUMP JUMPDEST POP POP POP JUMP JUMPDEST PUSH0 PUSH20 0xFFFFFFFFFFFFFFFFFFFFFFFFFFFFFFFFFFFFFFFF AND DUP4 PUSH20 0xFFFFFFFFFFFFFFFFFFFFFFFFFFFFFFFFFFFFFFFF AND SUB PUSH2 0xDC9 JUMPI DUP1 PUSH1 0x2 PUSH0 DUP3 DUP3 SLOAD PUSH2 0xDBD SWAP2 SWAP1 PUSH2 0x16BD JUMP JUMPDEST SWAP3 POP POP DUP2 SWAP1 SSTORE POP PUSH2 0xE97 JUMP JUMPDEST PUSH0 DUP1 PUSH0 DUP6 PUSH20 0xFFFFFFFFFFFFFFFFFFFFFFFFFFFFFFFFFFFFFFFF AND PUSH20 0xFFFFFFFFFFFFFFFFFFFFFFFFFFFFFFFFFFFFFFFF AND DUP2 MSTORE PUSH1 0x20 ADD SWAP1 DUP2 MSTORE PUSH1 0x20 ADD PUSH0 KECCAK256 SLOAD SWAP1 POP DUP2 DUP2 LT ISZERO PUSH2 0xE52 JUMPI DUP4 DUP2 DUP4 PUSH1 0x40 MLOAD PUSH32 0xE450D38C00000000000000000000000000000000000000000000000000000000 DUP2 MSTORE PUSH1 0x4 ADD PUSH2 0xE49 SWAP4 SWAP3 SWAP2 SWAP1 PUSH2 0x18C3 JUMP JUMPDEST PUSH1 0x40 MLOAD DUP1 SWAP2 SUB SWAP1 REVERT JUMPDEST DUP2 DUP2 SUB PUSH0 DUP1 DUP7 PUSH20 0xFFFFFFFFFFFFFFFFFFFFFFFFFFFFFFFFFFFFFFFF AND PUSH20 0xFFFFFFFFFFFFFFFFFFFFFFFFFFFFFFFFFFFFFFFF AND DUP2 MSTORE PUSH1 0x20 ADD SWAP1 DUP2 MSTORE PUSH1 0x20 ADD PUSH0 KECCAK256 DUP2 SWAP1 SSTORE POP POP JUMPDEST PUSH0 PUSH20 0xFFFFFFFFFFFFFFFFFFFFFFFFFFFFFFFFFFFFFFFF AND DUP3 PUSH20 0xFFFFFFFFFFFFFFFFFFFFFFFFFFFFFFFFFFFFFFFF AND SUB PUSH2 0xEDE JUMPI DUP1 PUSH1 0x2 PUSH0 DUP3 DUP3 SLOAD SUB SWAP3 POP POP DUP2 SWAP1 SSTORE POP PUSH2 0xF28 JUMP JUMPDEST DUP1 PUSH0 DUP1 DUP5 PUSH20 0xFFFFFFFFFFFFFFFFFFFFFFFFFFFFFFFFFFFFFFFF AND PUSH20 0xFFFFFFFFFFFFFFFFFFFFFFFFFFFFFFFFFFFFFFFF AND DUP2 MSTORE PUSH1 0x20 ADD SWAP1 DUP2 MSTORE PUSH1 0x20 ADD PUSH0 KECCAK256 PUSH0 DUP3 DUP3 SLOAD ADD SWAP3 POP POP DUP2 SWAP1 SSTORE POP JUMPDEST DUP2 PUSH20 0xFFFFFFFFFFFFFFFFFFFFFFFFFFFFFFFFFFFFFFFF AND DUP4 PUSH20 0xFFFFFFFFFFFFFFFFFFFFFFFFFFFFFFFFFFFFFFFF AND PUSH32 0xDDF252AD1BE2C89B69C2B068FC378DAA952BA7F163C4A11628F55A4DF523B3EF DUP4 PUSH1 0x40 MLOAD PUSH2 0xF85 SWAP2 SWAP1 PUSH2 0x114D JUMP JUMPDEST PUSH1 0x40 MLOAD DUP1 SWAP2 SUB SWAP1 LOG3 POP POP POP JUMP JUMPDEST PUSH0 DUP2 MLOAD SWAP1 POP SWAP2 SWAP1 POP JUMP JUMPDEST PUSH0 DUP3 DUP3 MSTORE PUSH1 0x20 DUP3 ADD SWAP1 POP SWAP3 SWAP2 POP POP JUMP JUMPDEST PUSH0 JUMPDEST DUP4 DUP2 LT ISZERO PUSH2 0xFC9 JUMPI DUP1 DUP3 ADD MLOAD DUP2 DUP5 ADD MSTORE PUSH1 0x20 DUP2 ADD SWAP1 POP PUSH2 0xFAE JUMP JUMPDEST PUSH0 DUP5 DUP5 ADD MSTORE POP POP POP POP JUMP JUMPDEST PUSH0 PUSH1 0x1F NOT PUSH1 0x1F DUP4 ADD AND SWAP1 POP SWAP2 SWAP1 POP JUMP JUMPDEST PUSH0 PUSH2 0xFEE DUP3 PUSH2 0xF92 JUMP JUMPDEST PUSH2 0xFF8 DUP2 DUP6 PUSH2 0xF9C JUMP JUMPDEST SWAP4 POP PUSH2 0x1008 DUP2 DUP6 PUSH1 0x20 DUP7 ADD PUSH2 0xFAC JUMP JUMPDEST PUSH2 0x1011 DUP2 PUSH2 0xFD4 JUMP JUMPDEST DUP5 ADD SWAP2 POP POP SWAP3 SWAP2 POP POP JUMP JUMPDEST PUSH0 PUSH1 0x20 DUP3 ADD SWAP1 POP DUP2 DUP2 SUB PUSH0 DUP4 ADD MSTORE PUSH2 0x1034 DUP2 DUP5 PUSH2 0xFE4 JUMP JUMPDEST SWAP1 POP SWAP3 SWAP2 POP POP JUMP JUMPDEST PUSH0 DUP1 REVERT JUMPDEST PUSH0 PUSH20 0xFFFFFFFFFFFFFFFFFFFFFFFFFFFFFFFFFFFFFFFF DUP3 AND SWAP1 POP SWAP2 SWAP1 POP JUMP JUMPDEST PUSH0 PUSH2 0x1069 DUP3 PUSH2 0x1040 JUMP JUMPDEST SWAP1 POP SWAP2 SWAP1 POP JUMP JUMPDEST PUSH2 0x1079 DUP2 PUSH2 0x105F JUMP JUMPDEST DUP2 EQ PUSH2 0x1083 JUMPI PUSH0 DUP1 REVERT JUMPDEST POP JUMP JUMPDEST PUSH0 DUP2 CALLDATALOAD SWAP1 POP PUSH2 0x1094 DUP2 PUSH2 0x1070 JUMP JUMPDEST SWAP3 SWAP2 POP POP JUMP JUMPDEST PUSH0 DUP2 SWAP1 POP SWAP2 SWAP1 POP JUMP JUMPDEST PUSH2 0x10AC DUP2 PUSH2 0x109A JUMP JUMPDEST DUP2 EQ PUSH2 0x10B6 JUMPI PUSH0 DUP1 REVERT JUMPDEST POP JUMP JUMPDEST PUSH0 DUP2 CALLDATALOAD SWAP1 POP PUSH2 0x10C7 DUP2 PUSH2 0x10A3 JUMP JUMPDEST SWAP3 SWAP2 POP POP JUMP JUMPDEST PUSH0 DUP1 PUSH1 0x40 DUP4 DUP6 SUB SLT ISZERO PUSH2 0x10E3 JUMPI PUSH2 0x10E2 PUSH2 0x103C JUMP JUMPDEST JUMPDEST PUSH0 PUSH2 0x10F0 DUP6 DUP3 DUP7 ADD PUSH2 0x1086 JUMP JUMPDEST SWAP3 POP POP PUSH1 0x20 PUSH2 0x1101 DUP6 DUP3 DUP7 ADD PUSH2 0x10B9 JUMP JUMPDEST SWAP2 POP POP SWAP3 POP SWAP3 SWAP1 POP JUMP JUMPDEST PUSH0 DUP2 ISZERO ISZERO SWAP1 POP SWAP2 SWAP1 POP JUMP JUMPDEST PUSH2 0x111F DUP2 PUSH2 0x110B JUMP JUMPDEST DUP3 MSTORE POP POP JUMP JUMPDEST PUSH0 PUSH1 0x20 DUP3 ADD SWAP1 POP PUSH2 0x1138 PUSH0 DUP4 ADD DUP5 PUSH2 0x1116 JUMP JUMPDEST SWAP3 SWAP2 POP POP JUMP JUMPDEST PUSH2 0x1147 DUP2 PUSH2 0x109A JUMP JUMPDEST DUP3 MSTORE POP POP JUMP JUMPDEST PUSH0 PUSH1 0x20 DUP3 ADD SWAP1 POP PUSH2 0x1160 PUSH0 DUP4 ADD DUP5 PUSH2 0x113E JUMP JUMPDEST SWAP3 SWAP2 POP POP JUMP JUMPDEST PUSH0 DUP1 PUSH0 PUSH1 0x60 DUP5 DUP7 SUB SLT ISZERO PUSH2 0x117D JUMPI PUSH2 0x117C PUSH2 0x103C JUMP JUMPDEST JUMPDEST PUSH0 PUSH2 0x118A DUP7 DUP3 DUP8 ADD PUSH2 0x1086 JUMP JUMPDEST SWAP4 POP POP PUSH1 0x20 PUSH2 0x119B DUP7 DUP3 DUP8 ADD PUSH2 0x1086 JUMP JUMPDEST SWAP3 POP POP PUSH1 0x40 PUSH2 0x11AC DUP7 DUP3 DUP8 ADD PUSH2 0x10B9 JUMP JUMPDEST SWAP2 POP POP SWAP3 POP SWAP3 POP SWAP3 JUMP JUMPDEST PUSH0 PUSH1 0xFF DUP3 AND SWAP1 POP SWAP2 SWAP1 POP JUMP JUMPDEST PUSH2 0x11CB DUP2 PUSH2 0x11B6 JUMP JUMPDEST DUP3 MSTORE POP POP JUMP JUMPDEST PUSH0 PUSH1 0x20 DUP3 ADD SWAP1 POP PUSH2 0x11E4 PUSH0 DUP4 ADD DUP5 PUSH2 0x11C2 JUMP JUMPDEST SWAP3 SWAP2 POP POP JUMP JUMPDEST PUSH0 PUSH1 0x20 DUP3 DUP5 SUB SLT ISZERO PUSH2 0x11FF JUMPI PUSH2 0x11FE PUSH2 0x103C JUMP JUMPDEST JUMPDEST PUSH0 PUSH2 0x120C DUP5 DUP3 DUP6 ADD PUSH2 0x1086 JUMP JUMPDEST SWAP2 POP POP SWAP3 SWAP2 POP POP JUMP JUMPDEST PUSH2 0x121E DUP2 PUSH2 0x105F JUMP JUMPDEST DUP3 MSTORE POP POP JUMP JUMPDEST PUSH0 PUSH1 0x20 DUP3 ADD SWAP1 POP PUSH2 0x1237 PUSH0 DUP4 ADD DUP5 PUSH2 0x1215 JUMP JUMPDEST SWAP3 SWAP2 POP POP JUMP JUMPDEST PUSH0 DUP1 PUSH1 0x40 DUP4 DUP6 SUB SLT ISZERO PUSH2 0x1253 JUMPI PUSH2 0x1252 PUSH2 0x103C JUMP JUMPDEST JUMPDEST PUSH0 PUSH2 0x1260 DUP6 DUP3 DUP7 ADD PUSH2 0x1086 JUMP JUMPDEST SWAP3 POP POP PUSH1 0x20 PUSH2 0x1271 DUP6 DUP3 DUP7 ADD PUSH2 0x1086 JUMP JUMPDEST SWAP2 POP POP SWAP3 POP SWAP3 SWAP1 POP JUMP JUMPDEST PUSH32 0x4E487B7100000000000000000000000000000000000000000000000000000000 PUSH0 MSTORE PUSH1 0x22 PUSH1 0x4 MSTORE PUSH1 0x24 PUSH0 REVERT JUMPDEST PUSH0 PUSH1 0x2 DUP3 DIV SWAP1 POP PUSH1 0x1 DUP3 AND DUP1 PUSH2 0x12BF JUMPI PUSH1 0x7F DUP3 AND SWAP2 POP JUMPDEST PUSH1 0x20 DUP3 LT DUP2 SUB PUSH2 0x12D2 JUMPI PUSH2 0x12D1 PUSH2 0x127B JUMP JUMPDEST JUMPDEST POP SWAP2 SWAP1 POP JUMP JUMPDEST PUSH0 PUSH1 0x60 DUP3 ADD SWAP1 POP DUP2 DUP2 SUB PUSH0 DUP4 ADD MSTORE PUSH2 0x12F0 DUP2 DUP7 PUSH2 0xFE4 JUMP JUMPDEST SWAP1 POP PUSH2 0x12FF PUSH1 0x20 DUP4 ADD DUP6 PUSH2 0x1215 JUMP JUMPDEST PUSH2 0x130C PUSH1 0x40 DUP4 ADD DUP5 PUSH2 0x1215 JUMP JUMPDEST SWAP5 SWAP4 POP POP POP POP JUMP JUMPDEST PUSH32 0x4E487B7100000000000000000000000000000000000000000000000000000000 PUSH0 MSTORE PUSH1 0x11 PUSH1 0x4 MSTORE PUSH1 0x24 PUSH0 REVERT JUMPDEST PUSH0 DUP2 PUSH1 0x1 SHR SWAP1 POP SWAP2 SWAP1 POP JUMP JUMPDEST PUSH0 DUP1 DUP3 SWAP2 POP DUP4 SWAP1 POP JUMPDEST PUSH1 0x1 DUP6 GT ISZERO PUSH2 0x1396 JUMPI DUP1 DUP7 DIV DUP2 GT ISZERO PUSH2 0x1372 JUMPI PUSH2 0x1371 PUSH2 0x1314 JUMP JUMPDEST JUMPDEST PUSH1 0x1 DUP6 AND ISZERO PUSH2 0x1381 JUMPI DUP1 DUP3 MUL SWAP2 POP JUMPDEST DUP1 DUP2 MUL SWAP1 POP PUSH2 0x138F DUP6 PUSH2 0x1341 JUMP JUMPDEST SWAP5 POP PUSH2 0x1356 JUMP JUMPDEST SWAP5 POP SWAP5 SWAP3 POP POP POP JUMP JUMPDEST PUSH0 DUP3 PUSH2 0x13AE JUMPI PUSH1 0x1 SWAP1 POP PUSH2 0x1469 JUMP JUMPDEST DUP2 PUSH2 0x13BB JUMPI PUSH0 SWAP1 POP PUSH2 0x1469 JUMP JUMPDEST DUP2 PUSH1 0x1 DUP2 EQ PUSH2 0x13D1 JUMPI PUSH1 0x2 DUP2 EQ PUSH2 0x13DB JUMPI PUSH2 0x140A JUMP JUMPDEST PUSH1 0x1 SWAP2 POP POP PUSH2 0x1469 JUMP JUMPDEST PUSH1 0xFF DUP5 GT ISZERO PUSH2 0x13ED JUMPI PUSH2 0x13EC PUSH2 0x1314 JUMP JUMPDEST JUMPDEST DUP4 PUSH1 0x2 EXP SWAP2 POP DUP5 DUP3 GT ISZERO PUSH2 0x1404 JUMPI PUSH2 0x1403 PUSH2 0x1314 JUMP JUMPDEST JUMPDEST POP PUSH2 0x1469 JUMP JUMPDEST POP PUSH1 0x20 DUP4 LT PUSH2 0x133 DUP4 LT AND PUSH1 0x4E DUP5 LT PUSH1 0xB DUP5 LT AND OR ISZERO PUSH2 0x143F JUMPI DUP3 DUP3 EXP SWAP1 POP DUP4 DUP2 GT ISZERO PUSH2 0x143A JUMPI PUSH2 0x1439 PUSH2 0x1314 JUMP JUMPDEST JUMPDEST PUSH2 0x1469 JUMP JUMPDEST PUSH2 0x144C DUP5 DUP5 DUP5 PUSH1 0x1 PUSH2 0x134D JUMP JUMPDEST SWAP3 POP SWAP1 POP DUP2 DUP5 DIV DUP2 GT ISZERO PUSH2 0x1463 JUMPI PUSH2 0x1462 PUSH2 0x1314 JUMP JUMPDEST JUMPDEST DUP2 DUP2 MUL SWAP1 POP JUMPDEST SWAP4 SWAP3 POP POP POP JUMP JUMPDEST PUSH0 PUSH2 0x147A DUP3 PUSH2 0x109A JUMP JUMPDEST SWAP2 POP PUSH2 0x1485 DUP4 PUSH2 0x109A JUMP JUMPDEST SWAP3 POP PUSH2 0x14B2 PUSH32 0xFFFFFFFFFFFFFFFFFFFFFFFFFFFFFFFFFFFFFFFFFFFFFFFFFFFFFFFFFFFFFFFF DUP5 DUP5 PUSH2 0x139F JUMP JUMPDEST SWAP1 POP SWAP3 SWAP2 POP POP JUMP JUMPDEST PUSH0 PUSH2 0x14C4 DUP3 PUSH2 0x109A JUMP JUMPDEST SWAP2 POP PUSH2 0x14CF DUP4 PUSH2 0x109A JUMP JUMPDEST SWAP3 POP DUP3 DUP3 MUL PUSH2 0x14DD DUP2 PUSH2 0x109A JUMP JUMPDEST SWAP2 POP DUP3 DUP3 DIV DUP5 EQ DUP4 ISZERO OR PUSH2 0x14F4 JUMPI PUSH2 0x14F3 PUSH2 0x1314 JUMP JUMPDEST JUMPDEST POP SWAP3 SWAP2 POP POP JUMP JUMPDEST PUSH32 0x4E6F207472616E73616374696F6E732068617665206F63637572726564207965 PUSH0 DUP3 ADD MSTORE PUSH32 0x7400000000000000000000000000000000000000000000000000000000000000 PUSH1 0x20 DUP3 ADD MSTORE POP JUMP JUMPDEST PUSH0 PUSH2 0x1555 PUSH1 0x21 DUP4 PUSH2 0xF9C JUMP JUMPDEST SWAP2 POP PUSH2 0x1560 DUP3 PUSH2 0x14FB JUMP JUMPDEST PUSH1 0x40 DUP3 ADD SWAP1 POP SWAP2 SWAP1 POP JUMP JUMPDEST PUSH0 PUSH1 0x20 DUP3 ADD SWAP1 POP DUP2 DUP2 SUB PUSH0 DUP4 ADD MSTORE PUSH2 0x1582 DUP2 PUSH2 0x1549 JUMP JUMPDEST SWAP1 POP SWAP2 SWAP1 POP JUMP JUMPDEST PUSH0 PUSH2 0x1593 DUP3 PUSH2 0x109A JUMP JUMPDEST SWAP2 POP PUSH32 0xFFFFFFFFFFFFFFFFFFFFFFFFFFFFFFFFFFFFFFFFFFFFFFFFFFFFFFFFFFFFFFFF DUP3 SUB PUSH2 0x15C5 JUMPI PUSH2 0x15C4 PUSH2 0x1314 JUMP JUMPDEST JUMPDEST PUSH1 0x1 DUP3 ADD SWAP1 POP SWAP2 SWAP1 POP JUMP JUMPDEST PUSH32 0x4E487B7100000000000000000000000000000000000000000000000000000000 PUSH0 MSTORE PUSH1 0x12 PUSH1 0x4 MSTORE PUSH1 0x24 PUSH0 REVERT JUMPDEST PUSH0 PUSH2 0x1607 DUP3 PUSH2 0x109A JUMP JUMPDEST SWAP2 POP PUSH2 0x1612 DUP4 PUSH2 0x109A JUMP JUMPDEST SWAP3 POP DUP3 PUSH2 0x1622 JUMPI PUSH2 0x1621 PUSH2 0x15D0 JUMP JUMPDEST JUMPDEST DUP3 DUP3 DIV SWAP1 POP SWAP3 SWAP2 POP POP JUMP JUMPDEST PUSH32 0x4E487B7100000000000000000000000000000000000000000000000000000000 PUSH0 MSTORE PUSH1 0x41 PUSH1 0x4 MSTORE PUSH1 0x24 PUSH0 REVERT JUMPDEST PUSH0 PUSH2 0x1664 DUP3 PUSH2 0x109A JUMP JUMPDEST SWAP2 POP PUSH2 0x166F DUP4 PUSH2 0x109A JUMP JUMPDEST SWAP3 POP DUP3 DUP3 SUB SWAP1 POP DUP2 DUP2 GT ISZERO PUSH2 0x1687 JUMPI PUSH2 0x1686 PUSH2 0x1314 JUMP JUMPDEST JUMPDEST SWAP3 SWAP2 POP POP JUMP JUMPDEST PUSH0 PUSH2 0x1697 DUP3 PUSH2 0x109A JUMP JUMPDEST SWAP2 POP PUSH2 0x16A2 DUP4 PUSH2 0x109A JUMP JUMPDEST SWAP3 POP DUP3 PUSH2 0x16B2 JUMPI PUSH2 0x16B1 PUSH2 0x15D0 JUMP JUMPDEST JUMPDEST DUP3 DUP3 MOD SWAP1 POP SWAP3 SWAP2 POP POP JUMP JUMPDEST PUSH0 PUSH2 0x16C7 DUP3 PUSH2 0x109A JUMP JUMPDEST SWAP2 POP PUSH2 0x16D2 DUP4 PUSH2 0x109A JUMP JUMPDEST SWAP3 POP DUP3 DUP3 ADD SWAP1 POP DUP1 DUP3 GT ISZERO PUSH2 0x16EA JUMPI PUSH2 0x16E9 PUSH2 0x1314 JUMP JUMPDEST JUMPDEST SWAP3 SWAP2 POP POP JUMP JUMPDEST PUSH32 0x4E487B7100000000000000000000000000000000000000000000000000000000 PUSH0 MSTORE PUSH1 0x32 PUSH1 0x4 MSTORE PUSH1 0x24 PUSH0 REVERT JUMPDEST PUSH0 DUP2 SWAP1 POP SWAP3 SWAP2 POP POP JUMP JUMPDEST PUSH0 PUSH2 0x1731 DUP3 PUSH2 0xF92 JUMP JUMPDEST PUSH2 0x173B DUP2 DUP6 PUSH2 0x171D JUMP JUMPDEST SWAP4 POP PUSH2 0x174B DUP2 DUP6 PUSH1 0x20 DUP7 ADD PUSH2 0xFAC JUMP JUMPDEST DUP1 DUP5 ADD SWAP2 POP POP SWAP3 SWAP2 POP POP JUMP JUMPDEST PUSH32 0x2D00000000000000000000000000000000000000000000000000000000000000 PUSH0 DUP3 ADD MSTORE POP JUMP JUMPDEST PUSH0 PUSH2 0x178B PUSH1 0x1 DUP4 PUSH2 0x171D JUMP JUMPDEST SWAP2 POP PUSH2 0x1796 DUP3 PUSH2 0x1757 JUMP JUMPDEST PUSH1 0x1 DUP3 ADD SWAP1 POP SWAP2 SWAP1 POP JUMP JUMPDEST PUSH32 0x2000000000000000000000000000000000000000000000000000000000000000 PUSH0 DUP3 ADD MSTORE POP JUMP JUMPDEST PUSH0 PUSH2 0x17D5 PUSH1 0x1 DUP4 PUSH2 0x171D JUMP JUMPDEST SWAP2 POP PUSH2 0x17E0 DUP3 PUSH2 0x17A1 JUMP JUMPDEST PUSH1 0x1 DUP3 ADD SWAP1 POP SWAP2 SWAP1 POP JUMP JUMPDEST PUSH32 0x3A00000000000000000000000000000000000000000000000000000000000000 PUSH0 DUP3 ADD MSTORE POP JUMP JUMPDEST PUSH0 PUSH2 0x181F PUSH1 0x1 DUP4 PUSH2 0x171D JUMP JUMPDEST SWAP2 POP PUSH2 0x182A DUP3 PUSH2 0x17EB JUMP JUMPDEST PUSH1 0x1 DUP3 ADD SWAP1 POP SWAP2 SWAP1 POP JUMP JUMPDEST PUSH0 PUSH2 0x1840 DUP3 DUP10 PUSH2 0x1727 JUMP JUMPDEST SWAP2 POP PUSH2 0x184B DUP3 PUSH2 0x177F JUMP JUMPDEST SWAP2 POP PUSH2 0x1857 DUP3 DUP9 PUSH2 0x1727 JUMP JUMPDEST SWAP2 POP PUSH2 0x1862 DUP3 PUSH2 0x177F JUMP JUMPDEST SWAP2 POP PUSH2 0x186E DUP3 DUP8 PUSH2 0x1727 JUMP JUMPDEST SWAP2 POP PUSH2 0x1879 DUP3 PUSH2 0x17C9 JUMP JUMPDEST SWAP2 POP PUSH2 0x1885 DUP3 DUP7 PUSH2 0x1727 JUMP JUMPDEST SWAP2 POP PUSH2 0x1890 DUP3 PUSH2 0x1813 JUMP JUMPDEST SWAP2 POP PUSH2 0x189C DUP3 DUP6 PUSH2 0x1727 JUMP JUMPDEST SWAP2 POP PUSH2 0x18A7 DUP3 PUSH2 0x1813 JUMP JUMPDEST SWAP2 POP PUSH2 0x18B3 DUP3 DUP5 PUSH2 0x1727 JUMP JUMPDEST SWAP2 POP DUP2 SWAP1 POP SWAP8 SWAP7 POP POP POP POP POP POP POP JUMP JUMPDEST PUSH0 PUSH1 0x60 DUP3 ADD SWAP1 POP PUSH2 0x18D6 PUSH0 DUP4 ADD DUP7 PUSH2 0x1215 JUMP JUMPDEST PUSH2 0x18E3 PUSH1 0x20 DUP4 ADD DUP6 PUSH2 0x113E JUMP JUMPDEST PUSH2 0x18F0 PUSH1 0x40 DUP4 ADD DUP5 PUSH2 0x113E JUMP JUMPDEST SWAP5 SWAP4 POP POP POP POP JUMP INVALID LOG2 PUSH5 0x6970667358 0x22 SLT KECCAK256 ADD SWAP9 POP 0xAB 0x23 0xB9 ADDMOD 0xC5 0xE0 0x26 MSTORE 0xC9 KECCAK256 INVALID PUSH6 0xE506D4895D8D SWAP5 CODESIZE 0x2B 0xAB PUSH17 0xB7FA1AE00B6664736F6C63430008170033 "
				},
				"gasEstimates": {
					"creation": {
						"codeDepositCost": "1289200",
						"executionCost": "infinite",
						"totalCost": "infinite"
					},
					"external": {
						"DECIMALS()": "354",
						"INITIAL_SUPPLY()": "infinite",
						"NAME()": "infinite",
						"SYMBOL()": "infinite",
						"allowance(address,address)": "infinite",
						"approve(address,uint256)": "infinite",
						"balanceOf(address)": "2918",
						"decimals()": "405",
						"getLatestTransactionTimestamp()": "infinite",
						"getTransactionReceiver()": "402",
						"getTransactionSender()": "435",
						"name()": "infinite",
						"symbol()": "infinite",
						"totalSupply()": "2500",
						"transfer(address,uint256)": "infinite",
						"transferFrom(address,address,uint256)": "infinite"
					},
					"internal": {
						"_uintToString(uint256)": "infinite",
						"timestampToDate(uint256)": "infinite"
					}
				},
				"methodIdentifiers": {
					"DECIMALS()": "2e0f2625",
					"INITIAL_SUPPLY()": "2ff2e9dc",
					"NAME()": "a3f4df7e",
					"SYMBOL()": "f76f8d78",
					"allowance(address,address)": "dd62ed3e",
					"approve(address,uint256)": "095ea7b3",
					"balanceOf(address)": "70a08231",
					"decimals()": "313ce567",
					"getLatestTransactionTimestamp()": "d45e3f4a",
					"getTransactionReceiver()": "841b39fc",
					"getTransactionSender()": "bead3f50",
					"name()": "06fdde03",
					"symbol()": "95d89b41",
					"totalSupply()": "18160ddd",
					"transfer(address,uint256)": "a9059cbb",
					"transferFrom(address,address,uint256)": "23b872dd"
				}
			},
			"storageLayout": {
				"storage": [
					{
						"astId": 307,
						"contract": "AstanaIT_University_Assanali.sol:University_AstanaIT_Assanali",
						"label": "_balances",
						"offset": 0,
						"slot": "0",
						"type": "t_mapping(t_address,t_uint256)"
					},
					{
						"astId": 313,
						"contract": "AstanaIT_University_Assanali.sol:University_AstanaIT_Assanali",
						"label": "_allowances",
						"offset": 0,
						"slot": "1",
						"type": "t_mapping(t_address,t_mapping(t_address,t_uint256))"
					},
					{
						"astId": 315,
						"contract": "AstanaIT_University_Assanali.sol:University_AstanaIT_Assanali",
						"label": "_totalSupply",
						"offset": 0,
						"slot": "2",
						"type": "t_uint256"
					},
					{
						"astId": 317,
						"contract": "AstanaIT_University_Assanali.sol:University_AstanaIT_Assanali",
						"label": "_name",
						"offset": 0,
						"slot": "3",
						"type": "t_string_storage"
					},
					{
						"astId": 319,
						"contract": "AstanaIT_University_Assanali.sol:University_AstanaIT_Assanali",
						"label": "_symbol",
						"offset": 0,
						"slot": "4",
						"type": "t_string_storage"
					}
				],
				"types": {
					"t_address": {
						"encoding": "inplace",
						"label": "address",
						"numberOfBytes": "20"
					},
					"t_mapping(t_address,t_mapping(t_address,t_uint256))": {
						"encoding": "mapping",
						"key": "t_address",
						"label": "mapping(address => mapping(address => uint256))",
						"numberOfBytes": "32",
						"value": "t_mapping(t_address,t_uint256)"
					},
					"t_mapping(t_address,t_uint256)": {
						"encoding": "mapping",
						"key": "t_address",
						"label": "mapping(address => uint256)",
						"numberOfBytes": "32",
						"value": "t_uint256"
					},
					"t_string_storage": {
						"encoding": "bytes",
						"label": "string",
						"numberOfBytes": "32"
					},
					"t_uint256": {
						"encoding": "inplace",
						"label": "uint256",
						"numberOfBytes": "32"
					}
				}
			},
			"userdoc": {
				"kind": "user",
				"methods": {},
				"version": 1
			}
		}
	}
}