{
	"data": {
		"bytecode": {
			"linkReferences": {},
			"object": "608060405234801562000010575f80fd5b506040518060400160405280601c81526020017f556e69766572736974795f417374616e6149545f417373616e616c69000000008152506040518060400160405280600381526020017f554141000000000000000000000000000000000000000000000000000000000081525081600390816200008e9190620005ee565b508060049081620000a09190620005ee565b505050620000d633601260ff16600a620000bb91906200084f565b6107d0620000ca91906200089f565b620000dc60201b60201c565b620009e8565b5f73ffffffffffffffffffffffffffffffffffffffff168273ffffffffffffffffffffffffffffffffffffffff16036200014f575f6040517fec442f050000000000000000000000000000000000000000000000000000000081526004016200014691906200092c565b60405180910390fd5b620001625f83836200016660201b60201c565b5050565b5f73ffffffffffffffffffffffffffffffffffffffff168373ffffffffffffffffffffffffffffffffffffffff1603620001ba578060025f828254620001ad919062000947565b925050819055506200028b565b5f805f8573ffffffffffffffffffffffffffffffffffffffff1673ffffffffffffffffffffffffffffffffffffffff1681526020019081526020015f205490508181101562000246578381836040517fe450d38c0000000000000000000000000000000000000000000000000000000081526004016200023d9392919062000992565b60405180910390fd5b8181035f808673ffffffffffffffffffffffffffffffffffffffff1673ffffffffffffffffffffffffffffffffffffffff1681526020019081526020015f2081905550505b5f73ffffffffffffffffffffffffffffffffffffffff168273ffffffffffffffffffffffffffffffffffffffff1603620002d4578060025f82825403925050819055506200031e565b805f808473ffffffffffffffffffffffffffffffffffffffff1673ffffffffffffffffffffffffffffffffffffffff1681526020019081526020015f205f82825401925050819055505b8173ffffffffffffffffffffffffffffffffffffffff168373ffffffffffffffffffffffffffffffffffffffff167fddf252ad1be2c89b69c2b068fc378daa952ba7f163c4a11628f55a4df523b3ef836040516200037d9190620009cd565b60405180910390a3505050565b5f81519050919050565b7f4e487b71000000000000000000000000000000000000000000000000000000005f52604160045260245ffd5b7f4e487b71000000000000000000000000000000000000000000000000000000005f52602260045260245ffd5b5f60028204905060018216806200040657607f821691505b6020821081036200041c576200041b620003c1565b5b50919050565b5f819050815f5260205f209050919050565b5f6020601f8301049050919050565b5f82821b905092915050565b5f60088302620004807fffffffffffffffffffffffffffffffffffffffffffffffffffffffffffffffff8262000443565b6200048c868362000443565b95508019841693508086168417925050509392505050565b5f819050919050565b5f819050919050565b5f620004d6620004d0620004ca84620004a4565b620004ad565b620004a4565b9050919050565b5f819050919050565b620004f183620004b6565b620005096200050082620004dd565b8484546200044f565b825550505050565b5f90565b6200051f62000511565b6200052c818484620004e6565b505050565b5b818110156200055357620005475f8262000515565b60018101905062000532565b5050565b601f821115620005a2576200056c8162000422565b620005778462000434565b8101602085101562000587578190505b6200059f620005968562000434565b83018262000531565b50505b505050565b5f82821c905092915050565b5f620005c45f1984600802620005a7565b1980831691505092915050565b5f620005de8383620005b3565b9150826002028217905092915050565b620005f9826200038a565b67ffffffffffffffff81111562000615576200061462000394565b5b620006218254620003ee565b6200062e82828562000557565b5f60209050601f83116001811462000664575f84156200064f578287015190505b6200065b8582620005d1565b865550620006ca565b601f198416620006748662000422565b5f5b828110156200069d5784890151825560018201915060208501945060208101905062000676565b86831015620006bd5784890151620006b9601f891682620005b3565b8355505b6001600288020188555050505b505050505050565b7f4e487b71000000000000000000000000000000000000000000000000000000005f52601160045260245ffd5b5f8160011c9050919050565b5f808291508390505b60018511156200075c57808604811115620007345762000733620006d2565b5b6001851615620007445780820291505b80810290506200075485620006ff565b945062000714565b94509492505050565b5f8262000776576001905062000848565b8162000785575f905062000848565b81600181146200079e5760028114620007a957620007df565b600191505062000848565b60ff841115620007be57620007bd620006d2565b5b8360020a915084821115620007d857620007d7620006d2565b5b5062000848565b5060208310610133831016604e8410600b8410161715620008195782820a905083811115620008135762000812620006d2565b5b62000848565b6200082884848460016200070b565b92509050818404811115620008425762000841620006d2565b5b81810290505b9392505050565b5f6200085b82620004a4565b91506200086883620004a4565b9250620008977fffffffffffffffffffffffffffffffffffffffffffffffffffffffffffffffff848462000765565b905092915050565b5f620008ab82620004a4565b9150620008b883620004a4565b9250828202620008c881620004a4565b91508282048414831517620008e257620008e1620006d2565b5b5092915050565b5f73ffffffffffffffffffffffffffffffffffffffff82169050919050565b5f6200091482620008e9565b9050919050565b620009268162000908565b82525050565b5f602082019050620009415f8301846200091b565b92915050565b5f6200095382620004a4565b91506200096083620004a4565b92508282019050808211156200097b576200097a620006d2565b5b92915050565b6200098c81620004a4565b82525050565b5f606082019050620009a75f8301866200091b565b620009b6602083018562000981565b620009c5604083018462000981565b949350505050565b5f602082019050620009e25f83018462000981565b92915050565b61192e80620009f65f395ff3fe608060405234801561000f575f80fd5b50600436106100fe575f3560e01c8063841b39fc11610095578063bead3f5011610064578063bead3f50146102b2578063d45e3f4a146102d0578063dd62ed3e146102ee578063f76f8d781461031e576100fe565b8063841b39fc1461022857806395d89b4114610246578063a3f4df7e14610264578063a9059cbb14610282576100fe565b80632e0f2625116100d15780632e0f26251461019e5780632ff2e9dc146101bc578063313ce567146101da57806370a08231146101f8576100fe565b806306fdde0314610102578063095ea7b31461012057806318160ddd1461015057806323b872dd1461016e575b5f80fd5b61010a61033c565b604051610117919061101c565b60405180910390f35b61013a600480360381019061013591906110cd565b6103cc565b6040516101479190611125565b60405180910390f35b6101586103ee565b604051610165919061114d565b60405180910390f35b61018860048036038101906101839190611166565b6103f7565b6040516101959190611125565b60405180910390f35b6101a661045b565b6040516101b391906111d1565b60405180910390f35b6101c4610460565b6040516101d1919061114d565b60405180910390f35b6101e2610481565b6040516101ef91906111d1565b60405180910390f35b610212600480360381019061020d91906111ea565b610489565b60405161021f919061114d565b60405180910390f35b6102306104ce565b60405161023d9190611224565b60405180910390f35b61024e6104d5565b60405161025b919061101c565b60405180910390f35b61026c610565565b604051610279919061101c565b60405180910390f35b61029c600480360381019061029791906110cd565b61059e565b6040516102a99190611125565b60405180910390f35b6102ba610607565b6040516102c79190611224565b60405180910390f35b6102d8610615565b6040516102e5919061101c565b60405180910390f35b6103086004803603810190610303919061123d565b61066c565b604051610315919061114d565b60405180910390f35b6103266106ee565b604051610333919061101c565b60405180910390f35b60606003805461034b906112a8565b80601f0160208091040260200160405190810160405280929190818152602001828054610377906112a8565b80156103c25780601f10610399576101008083540402835291602001916103c2565b820191905f5260205f20905b8154815290600101906020018083116103a557829003601f168201915b5050505050905090565b5f806103d6610727565b90506103e381858561072e565b600191505092915050565b5f600254905090565b5f80610404858585610740565b90508015610450577f360b0720d9fa9b8bac8c66aee32c6d152199e1fcdde1447d98bde22348f201bd6104364261076e565b8686604051610447939291906112d8565b60405180910390a15b809150509392505050565b601281565b601260ff16600a6104719190611470565b6107d061047e91906114ba565b81565b5f6012905090565b5f805f8373ffffffffffffffffffffffffffffffffffffffff1673ffffffffffffffffffffffffffffffffffffffff1681526020019081526020015f20549050919050565b5f30905090565b6060600480546104e4906112a8565b80601f0160208091040260200160405190810160405280929190818152602001828054610510906112a8565b801561055b5780601f106105325761010080835404028352916020019161055b565b820191905f5260205f20905b81548152906001019060200180831161053e57829003601f168201915b5050505050905090565b6040518060400160405280601c81526020017f556e69766572736974795f417374616e6149545f417373616e616c690000000081525081565b5f806105aa84846108c7565b905080156105fd577f360b0720d9fa9b8bac8c66aee32c6d152199e1fcdde1447d98bde22348f201bd6105dc4261076e565b6105e4610727565b866040516105f4939291906112d8565b60405180910390a15b8091505092915050565b5f610610610727565b905090565b60605f4311610659576040517f08c379a00000000000000000000000000000000000000000000000000000000081526004016106509061156b565b60405180910390fd5b5f429050610666816108e9565b91505090565b5f60015f8473ffffffffffffffffffffffffffffffffffffffff1673ffffffffffffffffffffffffffffffffffffffff1681526020019081526020015f205f8373ffffffffffffffffffffffffffffffffffffffff1673ffffffffffffffffffffffffffffffffffffffff1681526020019081526020015f2054905092915050565b6040518060400160405280600381526020017f554141000000000000000000000000000000000000000000000000000000000081525081565b5f33905090565b61073b8383836001610a28565b505050565b5f8061074a610727565b9050610757858285610bf7565b610762858585610c89565b60019150509392505050565b60605f82036107b4576040518060400160405280600181526020017f300000000000000000000000000000000000000000000000000000000000000081525090506108c2565b5f8290505f5b5f82146107e35780806107cc90611589565b915050600a826107dc91906115fd565b91506107ba565b5f8167ffffffffffffffff8111156107fe576107fd61162d565b5b6040519080825280601f01601f1916602001820160405280156108305781602001600182028036833780820191505090505b5090505b5f85146108bb57600182610848919061165a565b9150600a85610857919061168d565b603061086391906116bd565b60f81b818381518110610879576108786116f0565b5b60200101907effffffffffffffffffffffffffffffffffffffffffffffffffffffffffffff191690815f1a905350600a856108b491906115fd565b9450610834565b8093505050505b919050565b5f806108d1610727565b90506108de818585610c89565b600191505092915050565b60605f6301e1338090505f6107b2828561090391906115fd565b61090d91906116bd565b90505f6228207290505f6001828588610926919061168d565b61093091906115fd565b61093a91906116bd565b90505f6201518090505f600182858a610953919061168d565b61095d91906115fd565b61096791906116bd565b90505f610e1090505f81848b61097d919061168d565b61098791906115fd565b90505f603c90505f81848d61099c919061168d565b6109a691906115fd565b90505f828d6109b5919061168d565b90505f6109c18b61076e565b6109ca8a61076e565b6109d38961076e565b6109dc8861076e565b6109e58761076e565b6109ee8761076e565b604051602001610a0396959493929190611835565b6040516020818303038152906040529050809c50505050505050505050505050919050565b5f73ffffffffffffffffffffffffffffffffffffffff168473ffffffffffffffffffffffffffffffffffffffff1603610a98575f6040517fe602df05000000000000000000000000000000000000000000000000000000008152600401610a8f9190611224565b60405180910390fd5b5f73ffffffffffffffffffffffffffffffffffffffff168373ffffffffffffffffffffffffffffffffffffffff1603610b08575f6040517f94280d62000000000000000000000000000000000000000000000000000000008152600401610aff9190611224565b60405180910390fd5b8160015f8673ffffffffffffffffffffffffffffffffffffffff1673ffffffffffffffffffffffffffffffffffffffff1681526020019081526020015f205f8573ffffffffffffffffffffffffffffffffffffffff1673ffffffffffffffffffffffffffffffffffffffff1681526020019081526020015f20819055508015610bf1578273ffffffffffffffffffffffffffffffffffffffff168473ffffffffffffffffffffffffffffffffffffffff167f8c5be1e5ebec7d5bd14f71427d1e84f3dd0314c0f7b2291e5b200ac8c7c3b92584604051610be8919061114d565b60405180910390a35b50505050565b5f610c02848461066c565b90507fffffffffffffffffffffffffffffffffffffffffffffffffffffffffffffffff8114610c835781811015610c74578281836040517ffb8f41b2000000000000000000000000000000000000000000000000000000008152600401610c6b939291906118c3565b60405180910390fd5b610c8284848484035f610a28565b5b50505050565b5f73ffffffffffffffffffffffffffffffffffffffff168373ffffffffffffffffffffffffffffffffffffffff1603610cf9575f6040517f96c6fd1e000000000000000000000000000000000000000000000000000000008152600401610cf09190611224565b60405180910390fd5b5f73ffffffffffffffffffffffffffffffffffffffff168273ffffffffffffffffffffffffffffffffffffffff1603610d69575f6040517fec442f05000000000000000000000000000000000000000000000000000000008152600401610d609190611224565b60405180910390fd5b610d74838383610d79565b505050565b5f73ffffffffffffffffffffffffffffffffffffffff168373ffffffffffffffffffffffffffffffffffffffff1603610dc9578060025f828254610dbd91906116bd565b92505081905550610e97565b5f805f8573ffffffffffffffffffffffffffffffffffffffff1673ffffffffffffffffffffffffffffffffffffffff1681526020019081526020015f2054905081811015610e52578381836040517fe450d38c000000000000000000000000000000000000000000000000000000008152600401610e49939291906118c3565b60405180910390fd5b8181035f808673ffffffffffffffffffffffffffffffffffffffff1673ffffffffffffffffffffffffffffffffffffffff1681526020019081526020015f2081905550505b5f73ffffffffffffffffffffffffffffffffffffffff168273ffffffffffffffffffffffffffffffffffffffff1603610ede578060025f8282540392505081905550610f28565b805f808473ffffffffffffffffffffffffffffffffffffffff1673ffffffffffffffffffffffffffffffffffffffff1681526020019081526020015f205f82825401925050819055505b8173ffffffffffffffffffffffffffffffffffffffff168373ffffffffffffffffffffffffffffffffffffffff167fddf252ad1be2c89b69c2b068fc378daa952ba7f163c4a11628f55a4df523b3ef83604051610f85919061114d565b60405180910390a3505050565b5f81519050919050565b5f82825260208201905092915050565b5f5b83811015610fc9578082015181840152602081019050610fae565b5f8484015250505050565b5f601f19601f8301169050919050565b5f610fee82610f92565b610ff88185610f9c565b9350611008818560208601610fac565b61101181610fd4565b840191505092915050565b5f6020820190508181035f8301526110348184610fe4565b905092915050565b5f80fd5b5f73ffffffffffffffffffffffffffffffffffffffff82169050919050565b5f61106982611040565b9050919050565b6110798161105f565b8114611083575f80fd5b50565b5f8135905061109481611070565b92915050565b5f819050919050565b6110ac8161109a565b81146110b6575f80fd5b50565b5f813590506110c7816110a3565b92915050565b5f80604083850312156110e3576110e261103c565b5b5f6110f085828601611086565b9250506020611101858286016110b9565b9150509250929050565b5f8115159050919050565b61111f8161110b565b82525050565b5f6020820190506111385f830184611116565b92915050565b6111478161109a565b82525050565b5f6020820190506111605f83018461113e565b92915050565b5f805f6060848603121561117d5761117c61103c565b5b5f61118a86828701611086565b935050602061119b86828701611086565b92505060406111ac868287016110b9565b9150509250925092565b5f60ff82169050919050565b6111cb816111b6565b82525050565b5f6020820190506111e45f8301846111c2565b92915050565b5f602082840312156111ff576111fe61103c565b5b5f61120c84828501611086565b91505092915050565b61121e8161105f565b82525050565b5f6020820190506112375f830184611215565b92915050565b5f80604083850312156112535761125261103c565b5b5f61126085828601611086565b925050602061127185828601611086565b9150509250929050565b7f4e487b71000000000000000000000000000000000000000000000000000000005f52602260045260245ffd5b5f60028204905060018216806112bf57607f821691505b6020821081036112d2576112d161127b565b5b50919050565b5f6060820190508181035f8301526112f08186610fe4565b90506112ff6020830185611215565b61130c6040830184611215565b949350505050565b7f4e487b71000000000000000000000000000000000000000000000000000000005f52601160045260245ffd5b5f8160011c9050919050565b5f808291508390505b60018511156113965780860481111561137257611371611314565b5b60018516156113815780820291505b808102905061138f85611341565b9450611356565b94509492505050565b5f826113ae5760019050611469565b816113bb575f9050611469565b81600181146113d157600281146113db5761140a565b6001915050611469565b60ff8411156113ed576113ec611314565b5b8360020a91508482111561140457611403611314565b5b50611469565b5060208310610133831016604e8410600b841016171561143f5782820a90508381111561143a57611439611314565b5b611469565b61144c848484600161134d565b9250905081840481111561146357611462611314565b5b81810290505b9392505050565b5f61147a8261109a565b91506114858361109a565b92506114b27fffffffffffffffffffffffffffffffffffffffffffffffffffffffffffffffff848461139f565b905092915050565b5f6114c48261109a565b91506114cf8361109a565b92508282026114dd8161109a565b915082820484148315176114f4576114f3611314565b5b5092915050565b7f4e6f207472616e73616374696f6e732068617665206f636375727265642079655f8201527f7400000000000000000000000000000000000000000000000000000000000000602082015250565b5f611555602183610f9c565b9150611560826114fb565b604082019050919050565b5f6020820190508181035f83015261158281611549565b9050919050565b5f6115938261109a565b91507fffffffffffffffffffffffffffffffffffffffffffffffffffffffffffffffff82036115c5576115c4611314565b5b600182019050919050565b7f4e487b71000000000000000000000000000000000000000000000000000000005f52601260045260245ffd5b5f6116078261109a565b91506116128361109a565b925082611622576116216115d0565b5b828204905092915050565b7f4e487b71000000000000000000000000000000000000000000000000000000005f52604160045260245ffd5b5f6116648261109a565b915061166f8361109a565b925082820390508181111561168757611686611314565b5b92915050565b5f6116978261109a565b91506116a28361109a565b9250826116b2576116b16115d0565b5b828206905092915050565b5f6116c78261109a565b91506116d28361109a565b92508282019050808211156116ea576116e9611314565b5b92915050565b7f4e487b71000000000000000000000000000000000000000000000000000000005f52603260045260245ffd5b5f81905092915050565b5f61173182610f92565b61173b818561171d565b935061174b818560208601610fac565b80840191505092915050565b7f2d000000000000000000000000000000000000000000000000000000000000005f82015250565b5f61178b60018361171d565b915061179682611757565b600182019050919050565b7f20000000000000000000000000000000000000000000000000000000000000005f82015250565b5f6117d560018361171d565b91506117e0826117a1565b600182019050919050565b7f3a000000000000000000000000000000000000000000000000000000000000005f82015250565b5f61181f60018361171d565b915061182a826117eb565b600182019050919050565b5f6118408289611727565b915061184b8261177f565b91506118578288611727565b91506118628261177f565b915061186e8287611727565b9150611879826117c9565b91506118858286611727565b915061189082611813565b915061189c8285611727565b91506118a782611813565b91506118b38284611727565b9150819050979650505050505050565b5f6060820190506118d65f830186611215565b6118e3602083018561113e565b6118f0604083018461113e565b94935050505056fea2646970667358221220019850ab23b908c5e02652c920fe65e506d4895d8d94382bab70b7fa1ae00b6664736f6c63430008170033",
			"opcodes": "PUSH1 0x80 PUSH1 0x40 MSTORE CALLVALUE DUP1 ISZERO PUSH3 0x10 JUMPI PUSH0 DUP1 REVERT JUMPDEST POP PUSH1 0x40 MLOAD DUP1 PUSH1 0x40 ADD PUSH1 0x40 MSTORE DUP1 PUSH1 0x1C DUP2 MSTORE PUSH1 0x20 ADD PUSH32 0x556E69766572736974795F417374616E6149545F417373616E616C6900000000 DUP2 MSTORE POP PUSH1 0x40 MLOAD DUP1 PUSH1 0x40 ADD PUSH1 0x40 MSTORE DUP1 PUSH1 0x3 DUP2 MSTORE PUSH1 0x20 ADD PUSH32 0x5541410000000000000000000000000000000000000000000000000000000000 DUP2 MSTORE POP DUP2 PUSH1 0x3 SWAP1 DUP2 PUSH3 0x8E SWAP2 SWAP1 PUSH3 0x5EE JUMP JUMPDEST POP DUP1 PUSH1 0x4 SWAP1 DUP2 PUSH3 0xA0 SWAP2 SWAP1 PUSH3 0x5EE JUMP JUMPDEST POP POP POP PUSH3 0xD6 CALLER PUSH1 0x12 PUSH1 0xFF AND PUSH1 0xA PUSH3 0xBB SWAP2 SWAP1 PUSH3 0x84F JUMP JUMPDEST PUSH2 0x7D0 PUSH3 0xCA SWAP2 SWAP1 PUSH3 0x89F JUMP JUMPDEST PUSH3 0xDC PUSH1 0x20 SHL PUSH1 0x20 SHR JUMP JUMPDEST PUSH3 0x9E8 JUMP JUMPDEST PUSH0 PUSH20 0xFFFFFFFFFFFFFFFFFFFFFFFFFFFFFFFFFFFFFFFF AND DUP3 PUSH20 0xFFFFFFFFFFFFFFFFFFFFFFFFFFFFFFFFFFFFFFFF AND SUB PUSH3 0x14F JUMPI PUSH0 PUSH1 0x40 MLOAD PUSH32 0xEC442F0500000000000000000000000000000000000000000000000000000000 DUP2 MSTORE PUSH1 0x4 ADD PUSH3 0x146 SWAP2 SWAP1 PUSH3 0x92C JUMP JUMPDEST PUSH1 0x40 MLOAD DUP1 SWAP2 SUB SWAP1 REVERT JUMPDEST PUSH3 0x162 PUSH0 DUP4 DUP4 PUSH3 0x166 PUSH1 0x20 SHL PUSH1 0x20 SHR JUMP JUMPDEST POP POP JUMP JUMPDEST PUSH0 PUSH20 0xFFFFFFFFFFFFFFFFFFFFFFFFFFFFFFFFFFFFFFFF AND DUP4 PUSH20 0xFFFFFFFFFFFFFFFFFFFFFFFFFFFFFFFFFFFFFFFF AND SUB PUSH3 0x1BA JUMPI DUP1 PUSH1 0x2 PUSH0 DUP3 DUP3 SLOAD PUSH3 0x1AD SWAP2 SWAP1 PUSH3 0x947 JUMP JUMPDEST SWAP3 POP POP DUP2 SWAP1 SSTORE POP PUSH3 0x28B JUMP JUMPDEST PUSH0 DUP1 PUSH0 DUP6 PUSH20 0xFFFFFFFFFFFFFFFFFFFFFFFFFFFFFFFFFFFFFFFF AND PUSH20 0xFFFFFFFFFFFFFFFFFFFFFFFFFFFFFFFFFFFFFFFF AND DUP2 MSTORE PUSH1 0x20 ADD SWAP1 DUP2 MSTORE PUSH1 0x20 ADD PUSH0 KECCAK256 SLOAD SWAP1 POP DUP2 DUP2 LT ISZERO PUSH3 0x246 JUMPI DUP4 DUP2 DUP4 PUSH1 0x40 MLOAD PUSH32 0xE450D38C00000000000000000000000000000000000000000000000000000000 DUP2 MSTORE PUSH1 0x4 ADD PUSH3 0x23D SWAP4 SWAP3 SWAP2 SWAP1 PUSH3 0x992 JUMP JUMPDEST PUSH1 0x40 MLOAD DUP1 SWAP2 SUB SWAP1 REVERT JUMPDEST DUP2 DUP2 SUB PUSH0 DUP1 DUP7 PUSH20 0xFFFFFFFFFFFFFFFFFFFFFFFFFFFFFFFFFFFFFFFF AND PUSH20 0xFFFFFFFFFFFFFFFFFFFFFFFFFFFFFFFFFFFFFFFF AND DUP2 MSTORE PUSH1 0x20 ADD SWAP1 DUP2 MSTORE PUSH1 0x20 ADD PUSH0 KECCAK256 DUP2 SWAP1 SSTORE POP POP JUMPDEST PUSH0 PUSH20 0xFFFFFFFFFFFFFFFFFFFFFFFFFFFFFFFFFFFFFFFF AND DUP3 PUSH20 0xFFFFFFFFFFFFFFFFFFFFFFFFFFFFFFFFFFFFFFFF AND SUB PUSH3 0x2D4 JUMPI DUP1 PUSH1 0x2 PUSH0 DUP3 DUP3 SLOAD SUB SWAP3 POP POP DUP2 SWAP1 SSTORE POP PUSH3 0x31E JUMP JUMPDEST DUP1 PUSH0 DUP1 DUP5 PUSH20 0xFFFFFFFFFFFFFFFFFFFFFFFFFFFFFFFFFFFFFFFF AND PUSH20 0xFFFFFFFFFFFFFFFFFFFFFFFFFFFFFFFFFFFFFFFF AND DUP2 MSTORE PUSH1 0x20 ADD SWAP1 DUP2 MSTORE PUSH1 0x20 ADD PUSH0 KECCAK256 PUSH0 DUP3 DUP3 SLOAD ADD SWAP3 POP POP DUP2 SWAP1 SSTORE POP JUMPDEST DUP2 PUSH20 0xFFFFFFFFFFFFFFFFFFFFFFFFFFFFFFFFFFFFFFFF AND DUP4 PUSH20 0xFFFFFFFFFFFFFFFFFFFFFFFFFFFFFFFFFFFFFFFF AND PUSH32 0xDDF252AD1BE2C89B69C2B068FC378DAA952BA7F163C4A11628F55A4DF523B3EF DUP4 PUSH1 0x40 MLOAD PUSH3 0x37D SWAP2 SWAP1 PUSH3 0x9CD JUMP JUMPDEST PUSH1 0x40 MLOAD DUP1 SWAP2 SUB SWAP1 LOG3 POP POP POP JUMP JUMPDEST PUSH0 DUP2 MLOAD SWAP1 POP SWAP2 SWAP1 POP JUMP JUMPDEST PUSH32 0x4E487B7100000000000000000000000000000000000000000000000000000000 PUSH0 MSTORE PUSH1 0x41 PUSH1 0x4 MSTORE PUSH1 0x24 PUSH0 REVERT JUMPDEST PUSH32 0x4E487B7100000000000000000000000000000000000000000000000000000000 PUSH0 MSTORE PUSH1 0x22 PUSH1 0x4 MSTORE PUSH1 0x24 PUSH0 REVERT JUMPDEST PUSH0 PUSH1 0x2 DUP3 DIV SWAP1 POP PUSH1 0x1 DUP3 AND DUP1 PUSH3 0x406 JUMPI PUSH1 0x7F DUP3 AND SWAP2 POP JUMPDEST PUSH1 0x20 DUP3 LT DUP2 SUB PUSH3 0x41C JUMPI PUSH3 0x41B PUSH3 0x3C1 JUMP JUMPDEST JUMPDEST POP SWAP2 SWAP1 POP JUMP JUMPDEST PUSH0 DUP2 SWAP1 POP DUP2 PUSH0 MSTORE PUSH1 0x20 PUSH0 KECCAK256 SWAP1 POP SWAP2 SWAP1 POP JUMP JUMPDEST PUSH0 PUSH1 0x20 PUSH1 0x1F DUP4 ADD DIV SWAP1 POP SWAP2 SWAP1 POP JUMP JUMPDEST PUSH0 DUP3 DUP3 SHL SWAP1 POP SWAP3 SWAP2 POP POP JUMP JUMPDEST PUSH0 PUSH1 0x8 DUP4 MUL PUSH3 0x480 PUSH32 0xFFFFFFFFFFFFFFFFFFFFFFFFFFFFFFFFFFFFFFFFFFFFFFFFFFFFFFFFFFFFFFFF DUP3 PUSH3 0x443 JUMP JUMPDEST PUSH3 0x48C DUP7 DUP4 PUSH3 0x443 JUMP JUMPDEST SWAP6 POP DUP1 NOT DUP5 AND SWAP4 POP DUP1 DUP7 AND DUP5 OR SWAP3 POP POP POP SWAP4 SWAP3 POP POP POP JUMP JUMPDEST PUSH0 DUP2 SWAP1 POP SWAP2 SWAP1 POP JUMP JUMPDEST PUSH0 DUP2 SWAP1 POP SWAP2 SWAP1 POP JUMP JUMPDEST PUSH0 PUSH3 0x4D6 PUSH3 0x4D0 PUSH3 0x4CA DUP5 PUSH3 0x4A4 JUMP JUMPDEST PUSH3 0x4AD JUMP JUMPDEST PUSH3 0x4A4 JUMP JUMPDEST SWAP1 POP SWAP2 SWAP1 POP JUMP JUMPDEST PUSH0 DUP2 SWAP1 POP SWAP2 SWAP1 POP JUMP JUMPDEST PUSH3 0x4F1 DUP4 PUSH3 0x4B6 JUMP JUMPDEST PUSH3 0x509 PUSH3 0x500 DUP3 PUSH3 0x4DD JUMP JUMPDEST DUP5 DUP5 SLOAD PUSH3 0x44F JUMP JUMPDEST DUP3 SSTORE POP POP POP POP JUMP JUMPDEST PUSH0 SWAP1 JUMP JUMPDEST PUSH3 0x51F PUSH3 0x511 JUMP JUMPDEST PUSH3 0x52C DUP2 DUP5 DUP5 PUSH3 0x4E6 JUMP JUMPDEST POP POP POP JUMP JUMPDEST JUMPDEST DUP2 DUP2 LT ISZERO PUSH3 0x553 JUMPI PUSH3 0x547 PUSH0 DUP3 PUSH3 0x515 JUMP JUMPDEST PUSH1 0x1 DUP2 ADD SWAP1 POP PUSH3 0x532 JUMP JUMPDEST POP POP JUMP JUMPDEST PUSH1 0x1F DUP3 GT ISZERO PUSH3 0x5A2 JUMPI PUSH3 0x56C DUP2 PUSH3 0x422 JUMP JUMPDEST PUSH3 0x577 DUP5 PUSH3 0x434 JUMP JUMPDEST DUP2 ADD PUSH1 0x20 DUP6 LT ISZERO PUSH3 0x587 JUMPI DUP2 SWAP1 POP JUMPDEST PUSH3 0x59F PUSH3 0x596 DUP6 PUSH3 0x434 JUMP JUMPDEST DUP4 ADD DUP3 PUSH3 0x531 JUMP JUMPDEST POP POP JUMPDEST POP POP POP JUMP JUMPDEST PUSH0 DUP3 DUP3 SHR SWAP1 POP SWAP3 SWAP2 POP POP JUMP JUMPDEST PUSH0 PUSH3 0x5C4 PUSH0 NOT DUP5 PUSH1 0x8 MUL PUSH3 0x5A7 JUMP JUMPDEST NOT DUP1 DUP4 AND SWAP2 POP POP SWAP3 SWAP2 POP POP JUMP JUMPDEST PUSH0 PUSH3 0x5DE DUP4 DUP4 PUSH3 0x5B3 JUMP JUMPDEST SWAP2 POP DUP3 PUSH1 0x2 MUL DUP3 OR SWAP1 POP SWAP3 SWAP2 POP POP JUMP JUMPDEST PUSH3 0x5F9 DUP3 PUSH3 0x38A JUMP JUMPDEST PUSH8 0xFFFFFFFFFFFFFFFF DUP2 GT ISZERO PUSH3 0x615 JUMPI PUSH3 0x614 PUSH3 0x394 JUMP JUMPDEST JUMPDEST PUSH3 0x621 DUP3 SLOAD PUSH3 0x3EE JUMP JUMPDEST PUSH3 0x62E DUP3 DUP3 DUP6 PUSH3 0x557 JUMP JUMPDEST PUSH0 PUSH1 0x20 SWAP1 POP PUSH1 0x1F DUP4 GT PUSH1 0x1 DUP2 EQ PUSH3 0x664 JUMPI PUSH0 DUP5 ISZERO PUSH3 0x64F JUMPI DUP3 DUP8 ADD MLOAD SWAP1 POP JUMPDEST PUSH3 0x65B DUP6 DUP3 PUSH3 0x5D1 JUMP JUMPDEST DUP7 SSTORE POP PUSH3 0x6CA JUMP JUMPDEST PUSH1 0x1F NOT DUP5 AND PUSH3 0x674 DUP7 PUSH3 0x422 JUMP JUMPDEST PUSH0 JUMPDEST DUP3 DUP2 LT ISZERO PUSH3 0x69D JUMPI DUP5 DUP10 ADD MLOAD DUP3 SSTORE PUSH1 0x1 DUP3 ADD SWAP2 POP PUSH1 0x20 DUP6 ADD SWAP5 POP PUSH1 0x20 DUP2 ADD SWAP1 POP PUSH3 0x676 JUMP JUMPDEST DUP7 DUP4 LT ISZERO PUSH3 0x6BD JUMPI DUP5 DUP10 ADD MLOAD PUSH3 0x6B9 PUSH1 0x1F DUP10 AND DUP3 PUSH3 0x5B3 JUMP JUMPDEST DUP4 SSTORE POP JUMPDEST PUSH1 0x1 PUSH1 0x2 DUP9 MUL ADD DUP9 SSTORE POP POP POP JUMPDEST POP POP POP POP POP POP JUMP JUMPDEST PUSH32 0x4E487B7100000000000000000000000000000000000000000000000000000000 PUSH0 MSTORE PUSH1 0x11 PUSH1 0x4 MSTORE PUSH1 0x24 PUSH0 REVERT JUMPDEST PUSH0 DUP2 PUSH1 0x1 SHR SWAP1 POP SWAP2 SWAP1 POP JUMP JUMPDEST PUSH0 DUP1 DUP3 SWAP2 POP DUP4 SWAP1 POP JUMPDEST PUSH1 0x1 DUP6 GT ISZERO PUSH3 0x75C JUMPI DUP1 DUP7 DIV DUP2 GT ISZERO PUSH3 0x734 JUMPI PUSH3 0x733 PUSH3 0x6D2 JUMP JUMPDEST JUMPDEST PUSH1 0x1 DUP6 AND ISZERO PUSH3 0x744 JUMPI DUP1 DUP3 MUL SWAP2 POP JUMPDEST DUP1 DUP2 MUL SWAP1 POP PUSH3 0x754 DUP6 PUSH3 0x6FF JUMP JUMPDEST SWAP5 POP PUSH3 0x714 JUMP JUMPDEST SWAP5 POP SWAP5 SWAP3 POP POP POP JUMP JUMPDEST PUSH0 DUP3 PUSH3 0x776 JUMPI PUSH1 0x1 SWAP1 POP PUSH3 0x848 JUMP JUMPDEST DUP2 PUSH3 0x785 JUMPI PUSH0 SWAP1 POP PUSH3 0x848 JUMP JUMPDEST DUP2 PUSH1 0x1 DUP2 EQ PUSH3 0x79E JUMPI PUSH1 0x2 DUP2 EQ PUSH3 0x7A9 JUMPI PUSH3 0x7DF JUMP JUMPDEST PUSH1 0x1 SWAP2 POP POP PUSH3 0x848 JUMP JUMPDEST PUSH1 0xFF DUP5 GT ISZERO PUSH3 0x7BE JUMPI PUSH3 0x7BD PUSH3 0x6D2 JUMP JUMPDEST JUMPDEST DUP4 PUSH1 0x2 EXP SWAP2 POP DUP5 DUP3 GT ISZERO PUSH3 0x7D8 JUMPI PUSH3 0x7D7 PUSH3 0x6D2 JUMP JUMPDEST JUMPDEST POP PUSH3 0x848 JUMP JUMPDEST POP PUSH1 0x20 DUP4 LT PUSH2 0x133 DUP4 LT AND PUSH1 0x4E DUP5 LT PUSH1 0xB DUP5 LT AND OR ISZERO PUSH3 0x819 JUMPI DUP3 DUP3 EXP SWAP1 POP DUP4 DUP2 GT ISZERO PUSH3 0x813 JUMPI PUSH3 0x812 PUSH3 0x6D2 JUMP JUMPDEST JUMPDEST PUSH3 0x848 JUMP JUMPDEST PUSH3 0x828 DUP5 DUP5 DUP5 PUSH1 0x1 PUSH3 0x70B JUMP JUMPDEST SWAP3 POP SWAP1 POP DUP2 DUP5 DIV DUP2 GT ISZERO PUSH3 0x842 JUMPI PUSH3 0x841 PUSH3 0x6D2 JUMP JUMPDEST JUMPDEST DUP2 DUP2 MUL SWAP1 POP JUMPDEST SWAP4 SWAP3 POP POP POP JUMP JUMPDEST PUSH0 PUSH3 0x85B DUP3 PUSH3 0x4A4 JUMP JUMPDEST SWAP2 POP PUSH3 0x868 DUP4 PUSH3 0x4A4 JUMP JUMPDEST SWAP3 POP PUSH3 0x897 PUSH32 0xFFFFFFFFFFFFFFFFFFFFFFFFFFFFFFFFFFFFFFFFFFFFFFFFFFFFFFFFFFFFFFFF DUP5 DUP5 PUSH3 0x765 JUMP JUMPDEST SWAP1 POP SWAP3 SWAP2 POP POP JUMP JUMPDEST PUSH0 PUSH3 0x8AB DUP3 PUSH3 0x4A4 JUMP JUMPDEST SWAP2 POP PUSH3 0x8B8 DUP4 PUSH3 0x4A4 JUMP JUMPDEST SWAP3 POP DUP3 DUP3 MUL PUSH3 0x8C8 DUP2 PUSH3 0x4A4 JUMP JUMPDEST SWAP2 POP DUP3 DUP3 DIV DUP5 EQ DUP4 ISZERO OR PUSH3 0x8E2 JUMPI PUSH3 0x8E1 PUSH3 0x6D2 JUMP JUMPDEST JUMPDEST POP SWAP3 SWAP2 POP POP JUMP JUMPDEST PUSH0 PUSH20 0xFFFFFFFFFFFFFFFFFFFFFFFFFFFFFFFFFFFFFFFF DUP3 AND SWAP1 POP SWAP2 SWAP1 POP JUMP JUMPDEST PUSH0 PUSH3 0x914 DUP3 PUSH3 0x8E9 JUMP JUMPDEST SWAP1 POP SWAP2 SWAP1 POP JUMP JUMPDEST PUSH3 0x926 DUP2 PUSH3 0x908 JUMP JUMPDEST DUP3 MSTORE POP POP JUMP JUMPDEST PUSH0 PUSH1 0x20 DUP3 ADD SWAP1 POP PUSH3 0x941 PUSH0 DUP4 ADD DUP5 PUSH3 0x91B JUMP JUMPDEST SWAP3 SWAP2 POP POP JUMP JUMPDEST PUSH0 PUSH3 0x953 DUP3 PUSH3 0x4A4 JUMP JUMPDEST SWAP2 POP PUSH3 0x960 DUP4 PUSH3 0x4A4 JUMP JUMPDEST SWAP3 POP DUP3 DUP3 ADD SWAP1 POP DUP1 DUP3 GT ISZERO PUSH3 0x97B JUMPI PUSH3 0x97A PUSH3 0x6D2 JUMP JUMPDEST JUMPDEST SWAP3 SWAP2 POP POP JUMP JUMPDEST PUSH3 0x98C DUP2 PUSH3 0x4A4 JUMP JUMPDEST DUP3 MSTORE POP POP JUMP JUMPDEST PUSH0 PUSH1 0x60 DUP3 ADD SWAP1 POP PUSH3 0x9A7 PUSH0 DUP4 ADD DUP7 PUSH3 0x91B JUMP JUMPDEST PUSH3 0x9B6 PUSH1 0x20 DUP4 ADD DUP6 PUSH3 0x981 JUMP JUMPDEST PUSH3 0x9C5 PUSH1 0x40 DUP4 ADD DUP5 PUSH3 0x981 JUMP JUMPDEST SWAP5 SWAP4 POP POP POP POP JUMP JUMPDEST PUSH0 PUSH1 0x20 DUP3 ADD SWAP1 POP PUSH3 0x9E2 PUSH0 DUP4 ADD DUP5 PUSH3 0x981 JUMP JUMPDEST SWAP3 SWAP2 POP POP JUMP JUMPDEST PUSH2 0x192E DUP1 PUSH3 0x9F6 PUSH0 CODECOPY PUSH0 RETURN INVALID PUSH1 0x80 PUSH1 0x40 MSTORE CALLVALUE DUP1 ISZERO PUSH2 0xF JUMPI PUSH0 DUP1 REVERT JUMPDEST POP PUSH1 0x4 CALLDATASIZE LT PUSH2 0xFE JUMPI PUSH0 CALLDATALOAD PUSH1 0xE0 SHR DUP1 PUSH4 0x841B39FC GT PUSH2 0x95 JUMPI DUP1 PUSH4 0xBEAD3F50 GT PUSH2 0x64 JUMPI DUP1 PUSH4 0xBEAD3F50 EQ PUSH2 0x2B2 JUMPI DUP1 PUSH4 0xD45E3F4A EQ PUSH2 0x2D0 JUMPI DUP1 PUSH4 0xDD62ED3E EQ PUSH2 0x2EE JUMPI DUP1 PUSH4 0xF76F8D78 EQ PUSH2 0x31E JUMPI PUSH2 0xFE JUMP JUMPDEST DUP1 PUSH4 0x841B39FC EQ PUSH2 0x228 JUMPI DUP1 PUSH4 0x95D89B41 EQ PUSH2 0x246 JUMPI DUP1 PUSH4 0xA3F4DF7E EQ PUSH2 0x264 JUMPI DUP1 PUSH4 0xA9059CBB EQ PUSH2 0x282 JUMPI PUSH2 0xFE JUMP JUMPDEST DUP1 PUSH4 0x2E0F2625 GT PUSH2 0xD1 JUMPI DUP1 PUSH4 0x2E0F2625 EQ PUSH2 0x19E JUMPI DUP1 PUSH4 0x2FF2E9DC EQ PUSH2 0x1BC JUMPI DUP1 PUSH4 0x313CE567 EQ PUSH2 0x1DA JUMPI DUP1 PUSH4 0x70A08231 EQ PUSH2 0x1F8 JUMPI PUSH2 0xFE JUMP JUMPDEST DUP1 PUSH4 0x6FDDE03 EQ PUSH2 0x102 JUMPI DUP1 PUSH4 0x95EA7B3 EQ PUSH2 0x120 JUMPI DUP1 PUSH4 0x18160DDD EQ PUSH2 0x150 JUMPI DUP1 PUSH4 0x23B872DD EQ PUSH2 0x16E JUMPI JUMPDEST PUSH0 DUP1 REVERT JUMPDEST PUSH2 0x10A PUSH2 0x33C JUMP JUMPDEST PUSH1 0x40 MLOAD PUSH2 0x117 SWAP2 SWAP1 PUSH2 0x101C JUMP JUMPDEST PUSH1 0x40 MLOAD DUP1 SWAP2 SUB SWAP1 RETURN JUMPDEST PUSH2 0x13A PUSH1 0x4 DUP1 CALLDATASIZE SUB DUP2 ADD SWAP1 PUSH2 0x135 SWAP2 SWAP1 PUSH2 0x10CD JUMP JUMPDEST PUSH2 0x3CC JUMP JUMPDEST PUSH1 0x40 MLOAD PUSH2 0x147 SWAP2 SWAP1 PUSH2 0x1125 JUMP JUMPDEST PUSH1 0x40 MLOAD DUP1 SWAP2 SUB SWAP1 RETURN JUMPDEST PUSH2 0x158 PUSH2 0x3EE JUMP JUMPDEST PUSH1 0x40 MLOAD PUSH2 0x165 SWAP2 SWAP1 PUSH2 0x114D JUMP JUMPDEST PUSH1 0x40 MLOAD DUP1 SWAP2 SUB SWAP1 RETURN JUMPDEST PUSH2 0x188 PUSH1 0x4 DUP1 CALLDATASIZE SUB DUP2 ADD SWAP1 PUSH2 0x183 SWAP2 SWAP1 PUSH2 0x1166 JUMP JUMPDEST PUSH2 0x3F7 JUMP JUMPDEST PUSH1 0x40 MLOAD PUSH2 0x195 SWAP2 SWAP1 PUSH2 0x1125 JUMP JUMPDEST PUSH1 0x40 MLOAD DUP1 SWAP2 SUB SWAP1 RETURN JUMPDEST PUSH2 0x1A6 PUSH2 0x45B JUMP JUMPDEST PUSH1 0x40 MLOAD PUSH2 0x1B3 SWAP2 SWAP1 PUSH2 0x11D1 JUMP JUMPDEST PUSH1 0x40 MLOAD DUP1 SWAP2 SUB SWAP1 RETURN JUMPDEST PUSH2 0x1C4 PUSH2 0x460 JUMP JUMPDEST PUSH1 0x40 MLOAD PUSH2 0x1D1 SWAP2 SWAP1 PUSH2 0x114D JUMP JUMPDEST PUSH1 0x40 MLOAD DUP1 SWAP2 SUB SWAP1 RETURN JUMPDEST PUSH2 0x1E2 PUSH2 0x481 JUMP JUMPDEST PUSH1 0x40 MLOAD PUSH2 0x1EF SWAP2 SWAP1 PUSH2 0x11D1 JUMP JUMPDEST PUSH1 0x40 MLOAD DUP1 SWAP2 SUB SWAP1 RETURN JUMPDEST PUSH2 0x212 PUSH1 0x4 DUP1 CALLDATASIZE SUB DUP2 ADD SWAP1 PUSH2 0x20D SWAP2 SWAP1 PUSH2 0x11EA JUMP JUMPDEST PUSH2 0x489 JUMP JUMPDEST PUSH1 0x40 MLOAD PUSH2 0x21F SWAP2 SWAP1 PUSH2 0x114D JUMP JUMPDEST PUSH1 0x40 MLOAD DUP1 SWAP2 SUB SWAP1 RETURN JUMPDEST PUSH2 0x230 PUSH2 0x4CE JUMP JUMPDEST PUSH1 0x40 MLOAD PUSH2 0x23D SWAP2 SWAP1 PUSH2 0x1224 JUMP JUMPDEST PUSH1 0x40 MLOAD DUP1 SWAP2 SUB SWAP1 RETURN JUMPDEST PUSH2 0x24E PUSH2 0x4D5 JUMP JUMPDEST PUSH1 0x40 MLOAD PUSH2 0x25B SWAP2 SWAP1 PUSH2 0x101C JUMP JUMPDEST PUSH1 0x40 MLOAD DUP1 SWAP2 SUB SWAP1 RETURN JUMPDEST PUSH2 0x26C PUSH2 0x565 JUMP JUMPDEST PUSH1 0x40 MLOAD PUSH2 0x279 SWAP2 SWAP1 PUSH2 0x101C JUMP JUMPDEST PUSH1 0x40 MLOAD DUP1 SWAP2 SUB SWAP1 RETURN JUMPDEST PUSH2 0x29C PUSH1 0x4 DUP1 CALLDATASIZE SUB DUP2 ADD SWAP1 PUSH2 0x297 SWAP2 SWAP1 PUSH2 0x10CD JUMP JUMPDEST PUSH2 0x59E JUMP JUMPDEST PUSH1 0x40 MLOAD PUSH2 0x2A9 SWAP2 SWAP1 PUSH2 0x1125 JUMP JUMPDEST PUSH1 0x40 MLOAD DUP1 SWAP2 SUB SWAP1 RETURN JUMPDEST PUSH2 0x2BA PUSH2 0x607 JUMP JUMPDEST PUSH1 0x40 MLOAD PUSH2 0x2C7 SWAP2 SWAP1 PUSH2 0x1224 JUMP JUMPDEST PUSH1 0x40 MLOAD DUP1 SWAP2 SUB SWAP1 RETURN JUMPDEST PUSH2 0x2D8 PUSH2 0x615 JUMP JUMPDEST PUSH1 0x40 MLOAD PUSH2 0x2E5 SWAP2 SWAP1 PUSH2 0x101C JUMP JUMPDEST PUSH1 0x40 MLOAD DUP1 SWAP2 SUB SWAP1 RETURN JUMPDEST PUSH2 0x308 PUSH1 0x4 DUP1 CALLDATASIZE SUB DUP2 ADD SWAP1 PUSH2 0x303 SWAP2 SWAP1 PUSH2 0x123D JUMP JUMPDEST PUSH2 0x66C JUMP JUMPDEST PUSH1 0x40 MLOAD PUSH2 0x315 SWAP2 SWAP1 PUSH2 0x114D JUMP JUMPDEST PUSH1 0x40 MLOAD DUP1 SWAP2 SUB SWAP1 RETURN JUMPDEST PUSH2 0x326 PUSH2 0x6EE JUMP JUMPDEST PUSH1 0x40 MLOAD PUSH2 0x333 SWAP2 SWAP1 PUSH2 0x101C JUMP JUMPDEST PUSH1 0x40 MLOAD DUP1 SWAP2 SUB SWAP1 RETURN JUMPDEST PUSH1 0x60 PUSH1 0x3 DUP1 SLOAD PUSH2 0x34B SWAP1 PUSH2 0x12A8 JUMP JUMPDEST DUP1 PUSH1 0x1F ADD PUSH1 0x20 DUP1 SWAP2 DIV MUL PUSH1 0x20 ADD PUSH1 0x40 MLOAD SWAP1 DUP2 ADD PUSH1 0x40 MSTORE DUP1 SWAP3 SWAP2 SWAP1 DUP2 DUP2 MSTORE PUSH1 0x20 ADD DUP3 DUP1 SLOAD PUSH2 0x377 SWAP1 PUSH2 0x12A8 JUMP JUMPDEST DUP1 ISZERO PUSH2 0x3C2 JUMPI DUP1 PUSH1 0x1F LT PUSH2 0x399 JUMPI PUSH2 0x100 DUP1 DUP4 SLOAD DIV MUL DUP4 MSTORE SWAP2 PUSH1 0x20 ADD SWAP2 PUSH2 0x3C2 JUMP JUMPDEST DUP3 ADD SWAP2 SWAP1 PUSH0 MSTORE PUSH1 0x20 PUSH0 KECCAK256 SWAP1 JUMPDEST DUP2 SLOAD DUP2 MSTORE SWAP1 PUSH1 0x1 ADD SWAP1 PUSH1 0x20 ADD DUP1 DUP4 GT PUSH2 0x3A5 JUMPI DUP3 SWAP1 SUB PUSH1 0x1F AND DUP3 ADD SWAP2 JUMPDEST POP POP POP POP POP SWAP1 POP SWAP1 JUMP JUMPDEST PUSH0 DUP1 PUSH2 0x3D6 PUSH2 0x727 JUMP JUMPDEST SWAP1 POP PUSH2 0x3E3 DUP2 DUP6 DUP6 PUSH2 0x72E JUMP JUMPDEST PUSH1 0x1 SWAP2 POP POP SWAP3 SWAP2 POP POP JUMP JUMPDEST PUSH0 PUSH1 0x2 SLOAD SWAP1 POP SWAP1 JUMP JUMPDEST PUSH0 DUP1 PUSH2 0x404 DUP6 DUP6 DUP6 PUSH2 0x740 JUMP JUMPDEST SWAP1 POP DUP1 ISZERO PUSH2 0x450 JUMPI PUSH32 0x360B0720D9FA9B8BAC8C66AEE32C6D152199E1FCDDE1447D98BDE22348F201BD PUSH2 0x436 TIMESTAMP PUSH2 0x76E JUMP JUMPDEST DUP7 DUP7 PUSH1 0x40 MLOAD PUSH2 0x447 SWAP4 SWAP3 SWAP2 SWAP1 PUSH2 0x12D8 JUMP JUMPDEST PUSH1 0x40 MLOAD DUP1 SWAP2 SUB SWAP1 LOG1 JUMPDEST DUP1 SWAP2 POP POP SWAP4 SWAP3 POP POP POP JUMP JUMPDEST PUSH1 0x12 DUP2 JUMP JUMPDEST PUSH1 0x12 PUSH1 0xFF AND PUSH1 0xA PUSH2 0x471 SWAP2 SWAP1 PUSH2 0x1470 JUMP JUMPDEST PUSH2 0x7D0 PUSH2 0x47E SWAP2 SWAP1 PUSH2 0x14BA JUMP JUMPDEST DUP2 JUMP JUMPDEST PUSH0 PUSH1 0x12 SWAP1 POP SWAP1 JUMP JUMPDEST PUSH0 DUP1 PUSH0 DUP4 PUSH20 0xFFFFFFFFFFFFFFFFFFFFFFFFFFFFFFFFFFFFFFFF AND PUSH20 0xFFFFFFFFFFFFFFFFFFFFFFFFFFFFFFFFFFFFFFFF AND DUP2 MSTORE PUSH1 0x20 ADD SWAP1 DUP2 MSTORE PUSH1 0x20 ADD PUSH0 KECCAK256 SLOAD SWAP1 POP SWAP2 SWAP1 POP JUMP JUMPDEST PUSH0 ADDRESS SWAP1 POP SWAP1 JUMP JUMPDEST PUSH1 0x60 PUSH1 0x4 DUP1 SLOAD PUSH2 0x4E4 SWAP1 PUSH2 0x12A8 JUMP JUMPDEST DUP1 PUSH1 0x1F ADD PUSH1 0x20 DUP1 SWAP2 DIV MUL PUSH1 0x20 ADD PUSH1 0x40 MLOAD SWAP1 DUP2 ADD PUSH1 0x40 MSTORE DUP1 SWAP3 SWAP2 SWAP1 DUP2 DUP2 MSTORE PUSH1 0x20 ADD DUP3 DUP1 SLOAD PUSH2 0x510 SWAP1 PUSH2 0x12A8 JUMP JUMPDEST DUP1 ISZERO PUSH2 0x55B JUMPI DUP1 PUSH1 0x1F LT PUSH2 0x532 JUMPI PUSH2 0x100 DUP1 DUP4 SLOAD DIV MUL DUP4 MSTORE SWAP2 PUSH1 0x20 ADD SWAP2 PUSH2 0x55B JUMP JUMPDEST DUP3 ADD SWAP2 SWAP1 PUSH0 MSTORE PUSH1 0x20 PUSH0 KECCAK256 SWAP1 JUMPDEST DUP2 SLOAD DUP2 MSTORE SWAP1 PUSH1 0x1 ADD SWAP1 PUSH1 0x20 ADD DUP1 DUP4 GT PUSH2 0x53E JUMPI DUP3 SWAP1 SUB PUSH1 0x1F AND DUP3 ADD SWAP2 JUMPDEST POP POP POP POP POP SWAP1 POP SWAP1 JUMP JUMPDEST PUSH1 0x40 MLOAD DUP1 PUSH1 0x40 ADD PUSH1 0x40 MSTORE DUP1 PUSH1 0x1C DUP2 MSTORE PUSH1 0x20 ADD PUSH32 0x556E69766572736974795F417374616E6149545F417373616E616C6900000000 DUP2 MSTORE POP DUP2 JUMP JUMPDEST PUSH0 DUP1 PUSH2 0x5AA DUP5 DUP5 PUSH2 0x8C7 JUMP JUMPDEST SWAP1 POP DUP1 ISZERO PUSH2 0x5FD JUMPI PUSH32 0x360B0720D9FA9B8BAC8C66AEE32C6D152199E1FCDDE1447D98BDE22348F201BD PUSH2 0x5DC TIMESTAMP PUSH2 0x76E JUMP JUMPDEST PUSH2 0x5E4 PUSH2 0x727 JUMP JUMPDEST DUP7 PUSH1 0x40 MLOAD PUSH2 0x5F4 SWAP4 SWAP3 SWAP2 SWAP1 PUSH2 0x12D8 JUMP JUMPDEST PUSH1 0x40 MLOAD DUP1 SWAP2 SUB SWAP1 LOG1 JUMPDEST DUP1 SWAP2 POP POP SWAP3 SWAP2 POP POP JUMP JUMPDEST PUSH0 PUSH2 0x610 PUSH2 0x727 JUMP JUMPDEST SWAP1 POP SWAP1 JUMP JUMPDEST PUSH1 0x60 PUSH0 NUMBER GT PUSH2 0x659 JUMPI PUSH1 0x40 MLOAD PUSH32 0x8C379A000000000000000000000000000000000000000000000000000000000 DUP2 MSTORE PUSH1 0x4 ADD PUSH2 0x650 SWAP1 PUSH2 0x156B JUMP JUMPDEST PUSH1 0x40 MLOAD DUP1 SWAP2 SUB SWAP1 REVERT JUMPDEST PUSH0 TIMESTAMP SWAP1 POP PUSH2 0x666 DUP2 PUSH2 0x8E9 JUMP JUMPDEST SWAP2 POP POP SWAP1 JUMP JUMPDEST PUSH0 PUSH1 0x1 PUSH0 DUP5 PUSH20 0xFFFFFFFFFFFFFFFFFFFFFFFFFFFFFFFFFFFFFFFF AND PUSH20 0xFFFFFFFFFFFFFFFFFFFFFFFFFFFFFFFFFFFFFFFF AND DUP2 MSTORE PUSH1 0x20 ADD SWAP1 DUP2 MSTORE PUSH1 0x20 ADD PUSH0 KECCAK256 PUSH0 DUP4 PUSH20 0xFFFFFFFFFFFFFFFFFFFFFFFFFFFFFFFFFFFFFFFF AND PUSH20 0xFFFFFFFFFFFFFFFFFFFFFFFFFFFFFFFFFFFFFFFF AND DUP2 MSTORE PUSH1 0x20 ADD SWAP1 DUP2 MSTORE PUSH1 0x20 ADD PUSH0 KECCAK256 SLOAD SWAP1 POP SWAP3 SWAP2 POP POP JUMP JUMPDEST PUSH1 0x40 MLOAD DUP1 PUSH1 0x40 ADD PUSH1 0x40 MSTORE DUP1 PUSH1 0x3 DUP2 MSTORE PUSH1 0x20 ADD PUSH32 0x5541410000000000000000000000000000000000000000000000000000000000 DUP2 MSTORE POP DUP2 JUMP JUMPDEST PUSH0 CALLER SWAP1 POP SWAP1 JUMP JUMPDEST PUSH2 0x73B DUP4 DUP4 DUP4 PUSH1 0x1 PUSH2 0xA28 JUMP JUMPDEST POP POP POP JUMP JUMPDEST PUSH0 DUP1 PUSH2 0x74A PUSH2 0x727 JUMP JUMPDEST SWAP1 POP PUSH2 0x757 DUP6 DUP3 DUP6 PUSH2 0xBF7 JUMP JUMPDEST PUSH2 0x762 DUP6 DUP6 DUP6 PUSH2 0xC89 JUMP JUMPDEST PUSH1 0x1 SWAP2 POP POP SWAP4 SWAP3 POP POP POP JUMP JUMPDEST PUSH1 0x60 PUSH0 DUP3 SUB PUSH2 0x7B4 JUMPI PUSH1 0x40 MLOAD DUP1 PUSH1 0x40 ADD PUSH1 0x40 MSTORE DUP1 PUSH1 0x1 DUP2 MSTORE PUSH1 0x20 ADD PUSH32 0x3000000000000000000000000000000000000000000000000000000000000000 DUP2 MSTORE POP SWAP1 POP PUSH2 0x8C2 JUMP JUMPDEST PUSH0 DUP3 SWAP1 POP PUSH0 JUMPDEST PUSH0 DUP3 EQ PUSH2 0x7E3 JUMPI DUP1 DUP1 PUSH2 0x7CC SWAP1 PUSH2 0x1589 JUMP JUMPDEST SWAP2 POP POP PUSH1 0xA DUP3 PUSH2 0x7DC SWAP2 SWAP1 PUSH2 0x15FD JUMP JUMPDEST SWAP2 POP PUSH2 0x7BA JUMP JUMPDEST PUSH0 DUP2 PUSH8 0xFFFFFFFFFFFFFFFF DUP2 GT ISZERO PUSH2 0x7FE JUMPI PUSH2 0x7FD PUSH2 0x162D JUMP JUMPDEST JUMPDEST PUSH1 0x40 MLOAD SWAP1 DUP1 DUP3 MSTORE DUP1 PUSH1 0x1F ADD PUSH1 0x1F NOT AND PUSH1 0x20 ADD DUP3 ADD PUSH1 0x40 MSTORE DUP1 ISZERO PUSH2 0x830 JUMPI DUP2 PUSH1 0x20 ADD PUSH1 0x1 DUP3 MUL DUP1 CALLDATASIZE DUP4 CALLDATACOPY DUP1 DUP3 ADD SWAP2 POP POP SWAP1 POP JUMPDEST POP SWAP1 POP JUMPDEST PUSH0 DUP6 EQ PUSH2 0x8BB JUMPI PUSH1 0x1 DUP3 PUSH2 0x848 SWAP2 SWAP1 PUSH2 0x165A JUMP JUMPDEST SWAP2 POP PUSH1 0xA DUP6 PUSH2 0x857 SWAP2 SWAP1 PUSH2 0x168D JUMP JUMPDEST PUSH1 0x30 PUSH2 0x863 SWAP2 SWAP1 PUSH2 0x16BD JUMP JUMPDEST PUSH1 0xF8 SHL DUP2 DUP4 DUP2 MLOAD DUP2 LT PUSH2 0x879 JUMPI PUSH2 0x878 PUSH2 0x16F0 JUMP JUMPDEST JUMPDEST PUSH1 0x20 ADD ADD SWAP1 PUSH31 0xFFFFFFFFFFFFFFFFFFFFFFFFFFFFFFFFFFFFFFFFFFFFFFFFFFFFFFFFFFFFFF NOT AND SWAP1 DUP2 PUSH0 BYTE SWAP1 MSTORE8 POP PUSH1 0xA DUP6 PUSH2 0x8B4 SWAP2 SWAP1 PUSH2 0x15FD JUMP JUMPDEST SWAP5 POP PUSH2 0x834 JUMP JUMPDEST DUP1 SWAP4 POP POP POP POP JUMPDEST SWAP2 SWAP1 POP JUMP JUMPDEST PUSH0 DUP1 PUSH2 0x8D1 PUSH2 0x727 JUMP JUMPDEST SWAP1 POP PUSH2 0x8DE DUP2 DUP6 DUP6 PUSH2 0xC89 JUMP JUMPDEST PUSH1 0x1 SWAP2 POP POP SWAP3 SWAP2 POP POP JUMP JUMPDEST PUSH1 0x60 PUSH0 PUSH4 0x1E13380 SWAP1 POP PUSH0 PUSH2 0x7B2 DUP3 DUP6 PUSH2 0x903 SWAP2 SWAP1 PUSH2 0x15FD JUMP JUMPDEST PUSH2 0x90D SWAP2 SWAP1 PUSH2 0x16BD JUMP JUMPDEST SWAP1 POP PUSH0 PUSH3 0x282072 SWAP1 POP PUSH0 PUSH1 0x1 DUP3 DUP6 DUP9 PUSH2 0x926 SWAP2 SWAP1 PUSH2 0x168D JUMP JUMPDEST PUSH2 0x930 SWAP2 SWAP1 PUSH2 0x15FD JUMP JUMPDEST PUSH2 0x93A SWAP2 SWAP1 PUSH2 0x16BD JUMP JUMPDEST SWAP1 POP PUSH0 PUSH3 0x15180 SWAP1 POP PUSH0 PUSH1 0x1 DUP3 DUP6 DUP11 PUSH2 0x953 SWAP2 SWAP1 PUSH2 0x168D JUMP JUMPDEST PUSH2 0x95D SWAP2 SWAP1 PUSH2 0x15FD JUMP JUMPDEST PUSH2 0x967 SWAP2 SWAP1 PUSH2 0x16BD JUMP JUMPDEST SWAP1 POP PUSH0 PUSH2 0xE10 SWAP1 POP PUSH0 DUP2 DUP5 DUP12 PUSH2 0x97D SWAP2 SWAP1 PUSH2 0x168D JUMP JUMPDEST PUSH2 0x987 SWAP2 SWAP1 PUSH2 0x15FD JUMP JUMPDEST SWAP1 POP PUSH0 PUSH1 0x3C SWAP1 POP PUSH0 DUP2 DUP5 DUP14 PUSH2 0x99C SWAP2 SWAP1 PUSH2 0x168D JUMP JUMPDEST PUSH2 0x9A6 SWAP2 SWAP1 PUSH2 0x15FD JUMP JUMPDEST SWAP1 POP PUSH0 DUP3 DUP14 PUSH2 0x9B5 SWAP2 SWAP1 PUSH2 0x168D JUMP JUMPDEST SWAP1 POP PUSH0 PUSH2 0x9C1 DUP12 PUSH2 0x76E JUMP JUMPDEST PUSH2 0x9CA DUP11 PUSH2 0x76E JUMP JUMPDEST PUSH2 0x9D3 DUP10 PUSH2 0x76E JUMP JUMPDEST PUSH2 0x9DC DUP9 PUSH2 0x76E JUMP JUMPDEST PUSH2 0x9E5 DUP8 PUSH2 0x76E JUMP JUMPDEST PUSH2 0x9EE DUP8 PUSH2 0x76E JUMP JUMPDEST PUSH1 0x40 MLOAD PUSH1 0x20 ADD PUSH2 0xA03 SWAP7 SWAP6 SWAP5 SWAP4 SWAP3 SWAP2 SWAP1 PUSH2 0x1835 JUMP JUMPDEST PUSH1 0x40 MLOAD PUSH1 0x20 DUP2 DUP4 SUB SUB DUP2 MSTORE SWAP1 PUSH1 0x40 MSTORE SWAP1 POP DUP1 SWAP13 POP POP POP POP POP POP POP POP POP POP POP POP POP SWAP2 SWAP1 POP JUMP JUMPDEST PUSH0 PUSH20 0xFFFFFFFFFFFFFFFFFFFFFFFFFFFFFFFFFFFFFFFF AND DUP5 PUSH20 0xFFFFFFFFFFFFFFFFFFFFFFFFFFFFFFFFFFFFFFFF AND SUB PUSH2 0xA98 JUMPI PUSH0 PUSH1 0x40 MLOAD PUSH32 0xE602DF0500000000000000000000000000000000000000000000000000000000 DUP2 MSTORE PUSH1 0x4 ADD PUSH2 0xA8F SWAP2 SWAP1 PUSH2 0x1224 JUMP JUMPDEST PUSH1 0x40 MLOAD DUP1 SWAP2 SUB SWAP1 REVERT JUMPDEST PUSH0 PUSH20 0xFFFFFFFFFFFFFFFFFFFFFFFFFFFFFFFFFFFFFFFF AND DUP4 PUSH20 0xFFFFFFFFFFFFFFFFFFFFFFFFFFFFFFFFFFFFFFFF AND SUB PUSH2 0xB08 JUMPI PUSH0 PUSH1 0x40 MLOAD PUSH32 0x94280D6200000000000000000000000000000000000000000000000000000000 DUP2 MSTORE PUSH1 0x4 ADD PUSH2 0xAFF SWAP2 SWAP1 PUSH2 0x1224 JUMP JUMPDEST PUSH1 0x40 MLOAD DUP1 SWAP2 SUB SWAP1 REVERT JUMPDEST DUP2 PUSH1 0x1 PUSH0 DUP7 PUSH20 0xFFFFFFFFFFFFFFFFFFFFFFFFFFFFFFFFFFFFFFFF AND PUSH20 0xFFFFFFFFFFFFFFFFFFFFFFFFFFFFFFFFFFFFFFFF AND DUP2 MSTORE PUSH1 0x20 ADD SWAP1 DUP2 MSTORE PUSH1 0x20 ADD PUSH0 KECCAK256 PUSH0 DUP6 PUSH20 0xFFFFFFFFFFFFFFFFFFFFFFFFFFFFFFFFFFFFFFFF AND PUSH20 0xFFFFFFFFFFFFFFFFFFFFFFFFFFFFFFFFFFFFFFFF AND DUP2 MSTORE PUSH1 0x20 ADD SWAP1 DUP2 MSTORE PUSH1 0x20 ADD PUSH0 KECCAK256 DUP2 SWAP1 SSTORE POP DUP1 ISZERO PUSH2 0xBF1 JUMPI DUP3 PUSH20 0xFFFFFFFFFFFFFFFFFFFFFFFFFFFFFFFFFFFFFFFF AND DUP5 PUSH20 0xFFFFFFFFFFFFFFFFFFFFFFFFFFFFFFFFFFFFFFFF AND PUSH32 0x8C5BE1E5EBEC7D5BD14F71427D1E84F3DD0314C0F7B2291E5B200AC8C7C3B925 DUP5 PUSH1 0x40 MLOAD PUSH2 0xBE8 SWAP2 SWAP1 PUSH2 0x114D JUMP JUMPDEST PUSH1 0x40 MLOAD DUP1 SWAP2 SUB SWAP1 LOG3 JUMPDEST POP POP POP POP JUMP JUMPDEST PUSH0 PUSH2 0xC02 DUP5 DUP5 PUSH2 0x66C JUMP JUMPDEST SWAP1 POP PUSH32 0xFFFFFFFFFFFFFFFFFFFFFFFFFFFFFFFFFFFFFFFFFFFFFFFFFFFFFFFFFFFFFFFF DUP2 EQ PUSH2 0xC83 JUMPI DUP2 DUP2 LT ISZERO PUSH2 0xC74 JUMPI DUP3 DUP2 DUP4 PUSH1 0x40 MLOAD PUSH32 0xFB8F41B200000000000000000000000000000000000000000000000000000000 DUP2 MSTORE PUSH1 0x4 ADD PUSH2 0xC6B SWAP4 SWAP3 SWAP2 SWAP1 PUSH2 0x18C3 JUMP JUMPDEST PUSH1 0x40 MLOAD DUP1 SWAP2 SUB SWAP1 REVERT JUMPDEST PUSH2 0xC82 DUP5 DUP5 DUP5 DUP5 SUB PUSH0 PUSH2 0xA28 JUMP JUMPDEST JUMPDEST POP POP POP POP JUMP JUMPDEST PUSH0 PUSH20 0xFFFFFFFFFFFFFFFFFFFFFFFFFFFFFFFFFFFFFFFF AND DUP4 PUSH20 0xFFFFFFFFFFFFFFFFFFFFFFFFFFFFFFFFFFFFFFFF AND SUB PUSH2 0xCF9 JUMPI PUSH0 PUSH1 0x40 MLOAD PUSH32 0x96C6FD1E00000000000000000000000000000000000000000000000000000000 DUP2 MSTORE PUSH1 0x4 ADD PUSH2 0xCF0 SWAP2 SWAP1 PUSH2 0x1224 JUMP JUMPDEST PUSH1 0x40 MLOAD DUP1 SWAP2 SUB SWAP1 REVERT JUMPDEST PUSH0 PUSH20 0xFFFFFFFFFFFFFFFFFFFFFFFFFFFFFFFFFFFFFFFF AND DUP3 PUSH20 0xFFFFFFFFFFFFFFFFFFFFFFFFFFFFFFFFFFFFFFFF AND SUB PUSH2 0xD69 JUMPI PUSH0 PUSH1 0x40 MLOAD PUSH32 0xEC442F0500000000000000000000000000000000000000000000000000000000 DUP2 MSTORE PUSH1 0x4 ADD PUSH2 0xD60 SWAP2 SWAP1 PUSH2 0x1224 JUMP JUMPDEST PUSH1 0x40 MLOAD DUP1 SWAP2 SUB SWAP1 REVERT JUMPDEST PUSH2 0xD74 DUP4 DUP4 DUP4 PUSH2 0xD79 JUMP JUMPDEST POP POP POP JUMP JUMPDEST PUSH0 PUSH20 0xFFFFFFFFFFFFFFFFFFFFFFFFFFFFFFFFFFFFFFFF AND DUP4 PUSH20 0xFFFFFFFFFFFFFFFFFFFFFFFFFFFFFFFFFFFFFFFF AND SUB PUSH2 0xDC9 JUMPI DUP1 PUSH1 0x2 PUSH0 DUP3 DUP3 SLOAD PUSH2 0xDBD SWAP2 SWAP1 PUSH2 0x16BD JUMP JUMPDEST SWAP3 POP POP DUP2 SWAP1 SSTORE POP PUSH2 0xE97 JUMP JUMPDEST PUSH0 DUP1 PUSH0 DUP6 PUSH20 0xFFFFFFFFFFFFFFFFFFFFFFFFFFFFFFFFFFFFFFFF AND PUSH20 0xFFFFFFFFFFFFFFFFFFFFFFFFFFFFFFFFFFFFFFFF AND DUP2 MSTORE PUSH1 0x20 ADD SWAP1 DUP2 MSTORE PUSH1 0x20 ADD PUSH0 KECCAK256 SLOAD SWAP1 POP DUP2 DUP2 LT ISZERO PUSH2 0xE52 JUMPI DUP4 DUP2 DUP4 PUSH1 0x40 MLOAD PUSH32 0xE450D38C00000000000000000000000000000000000000000000000000000000 DUP2 MSTORE PUSH1 0x4 ADD PUSH2 0xE49 SWAP4 SWAP3 SWAP2 SWAP1 PUSH2 0x18C3 JUMP JUMPDEST PUSH1 0x40 MLOAD DUP1 SWAP2 SUB SWAP1 REVERT JUMPDEST DUP2 DUP2 SUB PUSH0 DUP1 DUP7 PUSH20 0xFFFFFFFFFFFFFFFFFFFFFFFFFFFFFFFFFFFFFFFF AND PUSH20 0xFFFFFFFFFFFFFFFFFFFFFFFFFFFFFFFFFFFFFFFF AND DUP2 MSTORE PUSH1 0x20 ADD SWAP1 DUP2 MSTORE PUSH1 0x20 ADD PUSH0 KECCAK256 DUP2 SWAP1 SSTORE POP POP JUMPDEST PUSH0 PUSH20 0xFFFFFFFFFFFFFFFFFFFFFFFFFFFFFFFFFFFFFFFF AND DUP3 PUSH20 0xFFFFFFFFFFFFFFFFFFFFFFFFFFFFFFFFFFFFFFFF AND SUB PUSH2 0xEDE JUMPI DUP1 PUSH1 0x2 PUSH0 DUP3 DUP3 SLOAD SUB SWAP3 POP POP DUP2 SWAP1 SSTORE POP PUSH2 0xF28 JUMP JUMPDEST DUP1 PUSH0 DUP1 DUP5 PUSH20 0xFFFFFFFFFFFFFFFFFFFFFFFFFFFFFFFFFFFFFFFF AND PUSH20 0xFFFFFFFFFFFFFFFFFFFFFFFFFFFFFFFFFFFFFFFF AND DUP2 MSTORE PUSH1 0x20 ADD SWAP1 DUP2 MSTORE PUSH1 0x20 ADD PUSH0 KECCAK256 PUSH0 DUP3 DUP3 SLOAD ADD SWAP3 POP POP DUP2 SWAP1 SSTORE POP JUMPDEST DUP2 PUSH20 0xFFFFFFFFFFFFFFFFFFFFFFFFFFFFFFFFFFFFFFFF AND DUP4 PUSH20 0xFFFFFFFFFFFFFFFFFFFFFFFFFFFFFFFFFFFFFFFF AND PUSH32 0xDDF252AD1BE2C89B69C2B068FC378DAA952BA7F163C4A11628F55A4DF523B3EF DUP4 PUSH1 0x40 MLOAD PUSH2 0xF85 SWAP2 SWAP1 PUSH2 0x114D JUMP JUMPDEST PUSH1 0x40 MLOAD DUP1 SWAP2 SUB SWAP1 LOG3 POP POP POP JUMP JUMPDEST PUSH0 DUP2 MLOAD SWAP1 POP SWAP2 SWAP1 POP JUMP JUMPDEST PUSH0 DUP3 DUP3 MSTORE PUSH1 0x20 DUP3 ADD SWAP1 POP SWAP3 SWAP2 POP POP JUMP JUMPDEST PUSH0 JUMPDEST DUP4 DUP2 LT ISZERO PUSH2 0xFC9 JUMPI DUP1 DUP3 ADD MLOAD DUP2 DUP5 ADD MSTORE PUSH1 0x20 DUP2 ADD SWAP1 POP PUSH2 0xFAE JUMP JUMPDEST PUSH0 DUP5 DUP5 ADD MSTORE POP POP POP POP JUMP JUMPDEST PUSH0 PUSH1 0x1F NOT PUSH1 0x1F DUP4 ADD AND SWAP1 POP SWAP2 SWAP1 POP JUMP JUMPDEST PUSH0 PUSH2 0xFEE DUP3 PUSH2 0xF92 JUMP JUMPDEST PUSH2 0xFF8 DUP2 DUP6 PUSH2 0xF9C JUMP JUMPDEST SWAP4 POP PUSH2 0x1008 DUP2 DUP6 PUSH1 0x20 DUP7 ADD PUSH2 0xFAC JUMP JUMPDEST PUSH2 0x1011 DUP2 PUSH2 0xFD4 JUMP JUMPDEST DUP5 ADD SWAP2 POP POP SWAP3 SWAP2 POP POP JUMP JUMPDEST PUSH0 PUSH1 0x20 DUP3 ADD SWAP1 POP DUP2 DUP2 SUB PUSH0 DUP4 ADD MSTORE PUSH2 0x1034 DUP2 DUP5 PUSH2 0xFE4 JUMP JUMPDEST SWAP1 POP SWAP3 SWAP2 POP POP JUMP JUMPDEST PUSH0 DUP1 REVERT JUMPDEST PUSH0 PUSH20 0xFFFFFFFFFFFFFFFFFFFFFFFFFFFFFFFFFFFFFFFF DUP3 AND SWAP1 POP SWAP2 SWAP1 POP JUMP JUMPDEST PUSH0 PUSH2 0x1069 DUP3 PUSH2 0x1040 JUMP JUMPDEST SWAP1 POP SWAP2 SWAP1 POP JUMP JUMPDEST PUSH2 0x1079 DUP2 PUSH2 0x105F JUMP JUMPDEST DUP2 EQ PUSH2 0x1083 JUMPI PUSH0 DUP1 REVERT JUMPDEST POP JUMP JUMPDEST PUSH0 DUP2 CALLDATALOAD SWAP1 POP PUSH2 0x1094 DUP2 PUSH2 0x1070 JUMP JUMPDEST SWAP3 SWAP2 POP POP JUMP JUMPDEST PUSH0 DUP2 SWAP1 POP SWAP2 SWAP1 POP JUMP JUMPDEST PUSH2 0x10AC DUP2 PUSH2 0x109A JUMP JUMPDEST DUP2 EQ PUSH2 0x10B6 JUMPI PUSH0 DUP1 REVERT JUMPDEST POP JUMP JUMPDEST PUSH0 DUP2 CALLDATALOAD SWAP1 POP PUSH2 0x10C7 DUP2 PUSH2 0x10A3 JUMP JUMPDEST SWAP3 SWAP2 POP POP JUMP JUMPDEST PUSH0 DUP1 PUSH1 0x40 DUP4 DUP6 SUB SLT ISZERO PUSH2 0x10E3 JUMPI PUSH2 0x10E2 PUSH2 0x103C JUMP JUMPDEST JUMPDEST PUSH0 PUSH2 0x10F0 DUP6 DUP3 DUP7 ADD PUSH2 0x1086 JUMP JUMPDEST SWAP3 POP POP PUSH1 0x20 PUSH2 0x1101 DUP6 DUP3 DUP7 ADD PUSH2 0x10B9 JUMP JUMPDEST SWAP2 POP POP SWAP3 POP SWAP3 SWAP1 POP JUMP JUMPDEST PUSH0 DUP2 ISZERO ISZERO SWAP1 POP SWAP2 SWAP1 POP JUMP JUMPDEST PUSH2 0x111F DUP2 PUSH2 0x110B JUMP JUMPDEST DUP3 MSTORE POP POP JUMP JUMPDEST PUSH0 PUSH1 0x20 DUP3 ADD SWAP1 POP PUSH2 0x1138 PUSH0 DUP4 ADD DUP5 PUSH2 0x1116 JUMP JUMPDEST SWAP3 SWAP2 POP POP JUMP JUMPDEST PUSH2 0x1147 DUP2 PUSH2 0x109A JUMP JUMPDEST DUP3 MSTORE POP POP JUMP JUMPDEST PUSH0 PUSH1 0x20 DUP3 ADD SWAP1 POP PUSH2 0x1160 PUSH0 DUP4 ADD DUP5 PUSH2 0x113E JUMP JUMPDEST SWAP3 SWAP2 POP POP JUMP JUMPDEST PUSH0 DUP1 PUSH0 PUSH1 0x60 DUP5 DUP7 SUB SLT ISZERO PUSH2 0x117D JUMPI PUSH2 0x117C PUSH2 0x103C JUMP JUMPDEST JUMPDEST PUSH0 PUSH2 0x118A DUP7 DUP3 DUP8 ADD PUSH2 0x1086 JUMP JUMPDEST SWAP4 POP POP PUSH1 0x20 PUSH2 0x119B DUP7 DUP3 DUP8 ADD PUSH2 0x1086 JUMP JUMPDEST SWAP3 POP POP PUSH1 0x40 PUSH2 0x11AC DUP7 DUP3 DUP8 ADD PUSH2 0x10B9 JUMP JUMPDEST SWAP2 POP POP SWAP3 POP SWAP3 POP SWAP3 JUMP JUMPDEST PUSH0 PUSH1 0xFF DUP3 AND SWAP1 POP SWAP2 SWAP1 POP JUMP JUMPDEST PUSH2 0x11CB DUP2 PUSH2 0x11B6 JUMP JUMPDEST DUP3 MSTORE POP POP JUMP JUMPDEST PUSH0 PUSH1 0x20 DUP3 ADD SWAP1 POP PUSH2 0x11E4 PUSH0 DUP4 ADD DUP5 PUSH2 0x11C2 JUMP JUMPDEST SWAP3 SWAP2 POP POP JUMP JUMPDEST PUSH0 PUSH1 0x20 DUP3 DUP5 SUB SLT ISZERO PUSH2 0x11FF JUMPI PUSH2 0x11FE PUSH2 0x103C JUMP JUMPDEST JUMPDEST PUSH0 PUSH2 0x120C DUP5 DUP3 DUP6 ADD PUSH2 0x1086 JUMP JUMPDEST SWAP2 POP POP SWAP3 SWAP2 POP POP JUMP JUMPDEST PUSH2 0x121E DUP2 PUSH2 0x105F JUMP JUMPDEST DUP3 MSTORE POP POP JUMP JUMPDEST PUSH0 PUSH1 0x20 DUP3 ADD SWAP1 POP PUSH2 0x1237 PUSH0 DUP4 ADD DUP5 PUSH2 0x1215 JUMP JUMPDEST SWAP3 SWAP2 POP POP JUMP JUMPDEST PUSH0 DUP1 PUSH1 0x40 DUP4 DUP6 SUB SLT ISZERO PUSH2 0x1253 JUMPI PUSH2 0x1252 PUSH2 0x103C JUMP JUMPDEST JUMPDEST PUSH0 PUSH2 0x1260 DUP6 DUP3 DUP7 ADD PUSH2 0x1086 JUMP JUMPDEST SWAP3 POP POP PUSH1 0x20 PUSH2 0x1271 DUP6 DUP3 DUP7 ADD PUSH2 0x1086 JUMP JUMPDEST SWAP2 POP POP SWAP3 POP SWAP3 SWAP1 POP JUMP JUMPDEST PUSH32 0x4E487B7100000000000000000000000000000000000000000000000000000000 PUSH0 MSTORE PUSH1 0x22 PUSH1 0x4 MSTORE PUSH1 0x24 PUSH0 REVERT JUMPDEST PUSH0 PUSH1 0x2 DUP3 DIV SWAP1 POP PUSH1 0x1 DUP3 AND DUP1 PUSH2 0x12BF JUMPI PUSH1 0x7F DUP3 AND SWAP2 POP JUMPDEST PUSH1 0x20 DUP3 LT DUP2 SUB PUSH2 0x12D2 JUMPI PUSH2 0x12D1 PUSH2 0x127B JUMP JUMPDEST JUMPDEST POP SWAP2 SWAP1 POP JUMP JUMPDEST PUSH0 PUSH1 0x60 DUP3 ADD SWAP1 POP DUP2 DUP2 SUB PUSH0 DUP4 ADD MSTORE PUSH2 0x12F0 DUP2 DUP7 PUSH2 0xFE4 JUMP JUMPDEST SWAP1 POP PUSH2 0x12FF PUSH1 0x20 DUP4 ADD DUP6 PUSH2 0x1215 JUMP JUMPDEST PUSH2 0x130C PUSH1 0x40 DUP4 ADD DUP5 PUSH2 0x1215 JUMP JUMPDEST SWAP5 SWAP4 POP POP POP POP JUMP JUMPDEST PUSH32 0x4E487B7100000000000000000000000000000000000000000000000000000000 PUSH0 MSTORE PUSH1 0x11 PUSH1 0x4 MSTORE PUSH1 0x24 PUSH0 REVERT JUMPDEST PUSH0 DUP2 PUSH1 0x1 SHR SWAP1 POP SWAP2 SWAP1 POP JUMP JUMPDEST PUSH0 DUP1 DUP3 SWAP2 POP DUP4 SWAP1 POP JUMPDEST PUSH1 0x1 DUP6 GT ISZERO PUSH2 0x1396 JUMPI DUP1 DUP7 DIV DUP2 GT ISZERO PUSH2 0x1372 JUMPI PUSH2 0x1371 PUSH2 0x1314 JUMP JUMPDEST JUMPDEST PUSH1 0x1 DUP6 AND ISZERO PUSH2 0x1381 JUMPI DUP1 DUP3 MUL SWAP2 POP JUMPDEST DUP1 DUP2 MUL SWAP1 POP PUSH2 0x138F DUP6 PUSH2 0x1341 JUMP JUMPDEST SWAP5 POP PUSH2 0x1356 JUMP JUMPDEST SWAP5 POP SWAP5 SWAP3 POP POP POP JUMP JUMPDEST PUSH0 DUP3 PUSH2 0x13AE JUMPI PUSH1 0x1 SWAP1 POP PUSH2 0x1469 JUMP JUMPDEST DUP2 PUSH2 0x13BB JUMPI PUSH0 SWAP1 POP PUSH2 0x1469 JUMP JUMPDEST DUP2 PUSH1 0x1 DUP2 EQ PUSH2 0x13D1 JUMPI PUSH1 0x2 DUP2 EQ PUSH2 0x13DB JUMPI PUSH2 0x140A JUMP JUMPDEST PUSH1 0x1 SWAP2 POP POP PUSH2 0x1469 JUMP JUMPDEST PUSH1 0xFF DUP5 GT ISZERO PUSH2 0x13ED JUMPI PUSH2 0x13EC PUSH2 0x1314 JUMP JUMPDEST JUMPDEST DUP4 PUSH1 0x2 EXP SWAP2 POP DUP5 DUP3 GT ISZERO PUSH2 0x1404 JUMPI PUSH2 0x1403 PUSH2 0x1314 JUMP JUMPDEST JUMPDEST POP PUSH2 0x1469 JUMP JUMPDEST POP PUSH1 0x20 DUP4 LT PUSH2 0x133 DUP4 LT AND PUSH1 0x4E DUP5 LT PUSH1 0xB DUP5 LT AND OR ISZERO PUSH2 0x143F JUMPI DUP3 DUP3 EXP SWAP1 POP DUP4 DUP2 GT ISZERO PUSH2 0x143A JUMPI PUSH2 0x1439 PUSH2 0x1314 JUMP JUMPDEST JUMPDEST PUSH2 0x1469 JUMP JUMPDEST PUSH2 0x144C DUP5 DUP5 DUP5 PUSH1 0x1 PUSH2 0x134D JUMP JUMPDEST SWAP3 POP SWAP1 POP DUP2 DUP5 DIV DUP2 GT ISZERO PUSH2 0x1463 JUMPI PUSH2 0x1462 PUSH2 0x1314 JUMP JUMPDEST JUMPDEST DUP2 DUP2 MUL SWAP1 POP JUMPDEST SWAP4 SWAP3 POP POP POP JUMP JUMPDEST PUSH0 PUSH2 0x147A DUP3 PUSH2 0x109A JUMP JUMPDEST SWAP2 POP PUSH2 0x1485 DUP4 PUSH2 0x109A JUMP JUMPDEST SWAP3 POP PUSH2 0x14B2 PUSH32 0xFFFFFFFFFFFFFFFFFFFFFFFFFFFFFFFFFFFFFFFFFFFFFFFFFFFFFFFFFFFFFFFF DUP5 DUP5 PUSH2 0x139F JUMP JUMPDEST SWAP1 POP SWAP3 SWAP2 POP POP JUMP JUMPDEST PUSH0 PUSH2 0x14C4 DUP3 PUSH2 0x109A JUMP JUMPDEST SWAP2 POP PUSH2 0x14CF DUP4 PUSH2 0x109A JUMP JUMPDEST SWAP3 POP DUP3 DUP3 MUL PUSH2 0x14DD DUP2 PUSH2 0x109A JUMP JUMPDEST SWAP2 POP DUP3 DUP3 DIV DUP5 EQ DUP4 ISZERO OR PUSH2 0x14F4 JUMPI PUSH2 0x14F3 PUSH2 0x1314 JUMP JUMPDEST JUMPDEST POP SWAP3 SWAP2 POP POP JUMP JUMPDEST PUSH32 0x4E6F207472616E73616374696F6E732068617665206F63637572726564207965 PUSH0 DUP3 ADD MSTORE PUSH32 0x7400000000000000000000000000000000000000000000000000000000000000 PUSH1 0x20 DUP3 ADD MSTORE POP JUMP JUMPDEST PUSH0 PUSH2 0x1555 PUSH1 0x21 DUP4 PUSH2 0xF9C JUMP JUMPDEST SWAP2 POP PUSH2 0x1560 DUP3 PUSH2 0x14FB JUMP JUMPDEST PUSH1 0x40 DUP3 ADD SWAP1 POP SWAP2 SWAP1 POP JUMP JUMPDEST PUSH0 PUSH1 0x20 DUP3 ADD SWAP1 POP DUP2 DUP2 SUB PUSH0 DUP4 ADD MSTORE PUSH2 0x1582 DUP2 PUSH2 0x1549 JUMP JUMPDEST SWAP1 POP SWAP2 SWAP1 POP JUMP JUMPDEST PUSH0 PUSH2 0x1593 DUP3 PUSH2 0x109A JUMP JUMPDEST SWAP2 POP PUSH32 0xFFFFFFFFFFFFFFFFFFFFFFFFFFFFFFFFFFFFFFFFFFFFFFFFFFFFFFFFFFFFFFFF DUP3 SUB PUSH2 0x15C5 JUMPI PUSH2 0x15C4 PUSH2 0x1314 JUMP JUMPDEST JUMPDEST PUSH1 0x1 DUP3 ADD SWAP1 POP SWAP2 SWAP1 POP JUMP JUMPDEST PUSH32 0x4E487B7100000000000000000000000000000000000000000000000000000000 PUSH0 MSTORE PUSH1 0x12 PUSH1 0x4 MSTORE PUSH1 0x24 PUSH0 REVERT JUMPDEST PUSH0 PUSH2 0x1607 DUP3 PUSH2 0x109A JUMP JUMPDEST SWAP2 POP PUSH2 0x1612 DUP4 PUSH2 0x109A JUMP JUMPDEST SWAP3 POP DUP3 PUSH2 0x1622 JUMPI PUSH2 0x1621 PUSH2 0x15D0 JUMP JUMPDEST JUMPDEST DUP3 DUP3 DIV SWAP1 POP SWAP3 SWAP2 POP POP JUMP JUMPDEST PUSH32 0x4E487B7100000000000000000000000000000000000000000000000000000000 PUSH0 MSTORE PUSH1 0x41 PUSH1 0x4 MSTORE PUSH1 0x24 PUSH0 REVERT JUMPDEST PUSH0 PUSH2 0x1664 DUP3 PUSH2 0x109A JUMP JUMPDEST SWAP2 POP PUSH2 0x166F DUP4 PUSH2 0x109A JUMP JUMPDEST SWAP3 POP DUP3 DUP3 SUB SWAP1 POP DUP2 DUP2 GT ISZERO PUSH2 0x1687 JUMPI PUSH2 0x1686 PUSH2 0x1314 JUMP JUMPDEST JUMPDEST SWAP3 SWAP2 POP POP JUMP JUMPDEST PUSH0 PUSH2 0x1697 DUP3 PUSH2 0x109A JUMP JUMPDEST SWAP2 POP PUSH2 0x16A2 DUP4 PUSH2 0x109A JUMP JUMPDEST SWAP3 POP DUP3 PUSH2 0x16B2 JUMPI PUSH2 0x16B1 PUSH2 0x15D0 JUMP JUMPDEST JUMPDEST DUP3 DUP3 MOD SWAP1 POP SWAP3 SWAP2 POP POP JUMP JUMPDEST PUSH0 PUSH2 0x16C7 DUP3 PUSH2 0x109A JUMP JUMPDEST SWAP2 POP PUSH2 0x16D2 DUP4 PUSH2 0x109A JUMP JUMPDEST SWAP3 POP DUP3 DUP3 ADD SWAP1 POP DUP1 DUP3 GT ISZERO PUSH2 0x16EA JUMPI PUSH2 0x16E9 PUSH2 0x1314 JUMP JUMPDEST JUMPDEST SWAP3 SWAP2 POP POP JUMP JUMPDEST PUSH32 0x4E487B7100000000000000000000000000000000000000000000000000000000 PUSH0 MSTORE PUSH1 0x32 PUSH1 0x4 MSTORE PUSH1 0x24 PUSH0 REVERT JUMPDEST PUSH0 DUP2 SWAP1 POP SWAP3 SWAP2 POP POP JUMP JUMPDEST PUSH0 PUSH2 0x1731 DUP3 PUSH2 0xF92 JUMP JUMPDEST PUSH2 0x173B DUP2 DUP6 PUSH2 0x171D JUMP JUMPDEST SWAP4 POP PUSH2 0x174B DUP2 DUP6 PUSH1 0x20 DUP7 ADD PUSH2 0xFAC JUMP JUMPDEST DUP1 DUP5 ADD SWAP2 POP POP SWAP3 SWAP2 POP POP JUMP JUMPDEST PUSH32 0x2D00000000000000000000000000000000000000000000000000000000000000 PUSH0 DUP3 ADD MSTORE POP JUMP JUMPDEST PUSH0 PUSH2 0x178B PUSH1 0x1 DUP4 PUSH2 0x171D JUMP JUMPDEST SWAP2 POP PUSH2 0x1796 DUP3 PUSH2 0x1757 JUMP JUMPDEST PUSH1 0x1 DUP3 ADD SWAP1 POP SWAP2 SWAP1 POP JUMP JUMPDEST PUSH32 0x2000000000000000000000000000000000000000000000000000000000000000 PUSH0 DUP3 ADD MSTORE POP JUMP JUMPDEST PUSH0 PUSH2 0x17D5 PUSH1 0x1 DUP4 PUSH2 0x171D JUMP JUMPDEST SWAP2 POP PUSH2 0x17E0 DUP3 PUSH2 0x17A1 JUMP JUMPDEST PUSH1 0x1 DUP3 ADD SWAP1 POP SWAP2 SWAP1 POP JUMP JUMPDEST PUSH32 0x3A00000000000000000000000000000000000000000000000000000000000000 PUSH0 DUP3 ADD MSTORE POP JUMP JUMPDEST PUSH0 PUSH2 0x181F PUSH1 0x1 DUP4 PUSH2 0x171D JUMP JUMPDEST SWAP2 POP PUSH2 0x182A DUP3 PUSH2 0x17EB JUMP JUMPDEST PUSH1 0x1 DUP3 ADD SWAP1 POP SWAP2 SWAP1 POP JUMP JUMPDEST PUSH0 PUSH2 0x1840 DUP3 DUP10 PUSH2 0x1727 JUMP JUMPDEST SWAP2 POP PUSH2 0x184B DUP3 PUSH2 0x177F JUMP JUMPDEST SWAP2 POP PUSH2 0x1857 DUP3 DUP9 PUSH2 0x1727 JUMP JUMPDEST SWAP2 POP PUSH2 0x1862 DUP3 PUSH2 0x177F JUMP JUMPDEST SWAP2 POP PUSH2 0x186E DUP3 DUP8 PUSH2 0x1727 JUMP JUMPDEST SWAP2 POP PUSH2 0x1879 DUP3 PUSH2 0x17C9 JUMP JUMPDEST SWAP2 POP PUSH2 0x1885 DUP3 DUP7 PUSH2 0x1727 JUMP JUMPDEST SWAP2 POP PUSH2 0x1890 DUP3 PUSH2 0x1813 JUMP JUMPDEST SWAP2 POP PUSH2 0x189C DUP3 DUP6 PUSH2 0x1727 JUMP JUMPDEST SWAP2 POP PUSH2 0x18A7 DUP3 PUSH2 0x1813 JUMP JUMPDEST SWAP2 POP PUSH2 0x18B3 DUP3 DUP5 PUSH2 0x1727 JUMP JUMPDEST SWAP2 POP DUP2 SWAP1 POP SWAP8 SWAP7 POP POP POP POP POP POP POP JUMP JUMPDEST PUSH0 PUSH1 0x60 DUP3 ADD SWAP1 POP PUSH2 0x18D6 PUSH0 DUP4 ADD DUP7 PUSH2 0x1215 JUMP JUMPDEST PUSH2 0x18E3 PUSH1 0x20 DUP4 ADD DUP6 PUSH2 0x113E JUMP JUMPDEST PUSH2 0x18F0 PUSH1 0x40 DUP4 ADD DUP5 PUSH2 0x113E JUMP JUMPDEST SWAP5 SWAP4 POP POP POP POP JUMP INVALID LOG2 PUSH5 0x6970667358 0x22 SLT KECCAK256 ADD SWAP9 POP 0xAB 0x23 0xB9 ADDMOD 0xC5 0xE0 0x26 MSTORE 0xC9 KECCAK256 INVALID PUSH6 0xE506D4895D8D SWAP5 CODESIZE 0x2B 0xAB PUSH17 0xB7FA1AE00B6664736F6C63430008170033 "
		},
		"gasEstimates": {
			"creation": {
				"codeDepositCost": "1289200",
				"executionCost": "infinite",
				"totalCost": "infinite"
			},
			"external": {
				"DECIMALS()": "354",
				"INITIAL_SUPPLY()": "infinite",
				"NAME()": "infinite",
				"SYMBOL()": "infinite",
				"allowance(address,address)": "infinite",
				"approve(address,uint256)": "infinite",
				"balanceOf(address)": "2918",
				"decimals()": "405",
				"getLatestTransactionTimestamp()": "infinite",
				"getTransactionReceiver()": "402",
				"getTransactionSender()": "435",
				"name()": "infinite",
				"symbol()": "infinite",
				"totalSupply()": "2500",
				"transfer(address,uint256)": "infinite",
				"transferFrom(address,address,uint256)": "infinite"
			},
			"internal": {
				"_uintToString(uint256)": "infinite",
				"timestampToDate(uint256)": "infinite"
			}
		},
		"methodIdentifiers": {
			"DECIMALS()": "2e0f2625",
			"INITIAL_SUPPLY()": "2ff2e9dc",
			"NAME()": "a3f4df7e",
			"SYMBOL()": "f76f8d78",
			"allowance(address,address)": "dd62ed3e",
			"approve(address,uint256)": "095ea7b3",
			"balanceOf(address)": "70a08231",
			"decimals()": "313ce567",
			"getLatestTransactionTimestamp()": "d45e3f4a",
			"getTransactionReceiver()": "841b39fc",
			"getTransactionSender()": "bead3f50",
			"name()": "06fdde03",
			"symbol()": "95d89b41",
			"totalSupply()": "18160ddd",
			"transfer(address,uint256)": "a9059cbb",
			"transferFrom(address,address,uint256)": "23b872dd"
		}
	},
	"abi": [
		{
			"inputs": [],
			"stateMutability": "nonpayable",
			"type": "constructor"
		},
		{
			"inputs": [
				{
					"internalType": "address",
					"name": "spender",
					"type": "address"
				},
				{
					"internalType": "uint256",
					"name": "allowance",
					"type": "uint256"
				},
				{
					"internalType": "uint256",
					"name": "needed",
					"type": "uint256"
				}
			],
			"name": "ERC20InsufficientAllowance",
			"type": "error"
		},
		{
			"inputs": [
				{
					"internalType": "address",
					"name": "sender",
					"type": "address"
				},
				{
					"internalType": "uint256",
					"name": "balance",
					"type": "uint256"
				},
				{
					"internalType": "uint256",
					"name": "needed",
					"type": "uint256"
				}
			],
			"name": "ERC20InsufficientBalance",
			"type": "error"
		},
		{
			"inputs": [
				{
					"internalType": "address",
					"name": "approver",
					"type": "address"
				}
			],
			"name": "ERC20InvalidApprover",
			"type": "error"
		},
		{
			"inputs": [
				{
					"internalType": "address",
					"name": "receiver",
					"type": "address"
				}
			],
			"name": "ERC20InvalidReceiver",
			"type": "error"
		},
		{
			"inputs": [
				{
					"internalType": "address",
					"name": "sender",
					"type": "address"
				}
			],
			"name": "ERC20InvalidSender",
			"type": "error"
		},
		{
			"inputs": [
				{
					"internalType": "address",
					"name": "spender",
					"type": "address"
				}
			],
			"name": "ERC20InvalidSpender",
			"type": "error"
		},
		{
			"anonymous": false,
			"inputs": [
				{
					"indexed": true,
					"internalType": "address",
					"name": "owner",
					"type": "address"
				},
				{
					"indexed": true,
					"internalType": "address",
					"name": "spender",
					"type": "address"
				},
				{
					"indexed": false,
					"internalType": "uint256",
					"name": "value",
					"type": "uint256"
				}
			],
			"name": "Approval",
			"type": "event"
		},
		{
			"anonymous": false,
			"inputs": [
				{
					"indexed": false,
					"internalType": "string",
					"name": "timestamp",
					"type": "string"
				},
				{
					"indexed": false,
					"internalType": "address",
					"name": "sender",
					"type": "address"
				},
				{
					"indexed": false,
					"internalType": "address",
					"name": "receiver",
					"type": "address"
				}
			],
			"name": "LatestTransactionInfo",
			"type": "event"
		},
		{
			"anonymous": false,
			"inputs": [
				{
					"indexed": true,
					"internalType": "address",
					"name": "from",
					"type": "address"
				},
				{
					"indexed": true,
					"internalType": "address",
					"name": "to",
					"type": "address"
				},
				{
					"indexed": false,
					"internalType": "uint256",
					"name": "value",
					"type": "uint256"
				}
			],
			"name": "Transfer",
			"type": "event"
		},
		{
			"inputs": [],
			"name": "DECIMALS",
			"outputs": [
				{
					"internalType": "uint8",
					"name": "",
					"type": "uint8"
				}
			],
			"stateMutability": "view",
			"type": "function"
		},
		{
			"inputs": [],
			"name": "INITIAL_SUPPLY",
			"outputs": [
				{
					"internalType": "uint256",
					"name": "",
					"type": "uint256"
				}
			],
			"stateMutability": "view",
			"type": "function"
		},
		{
			"inputs": [],
			"name": "NAME",
			"outputs": [
				{
					"internalType": "string",
					"name": "",
					"type": "string"
				}
			],
			"stateMutability": "view",
			"type": "function"
		},
		{
			"inputs": [],
			"name": "SYMBOL",
			"outputs": [
				{
					"internalType": "string",
					"name": "",
					"type": "string"
				}
			],
			"stateMutability": "view",
			"type": "function"
		},
		{
			"inputs": [
				{
					"internalType": "address",
					"name": "owner",
					"type": "address"
				},
				{
					"internalType": "address",
					"name": "spender",
					"type": "address"
				}
			],
			"name": "allowance",
			"outputs": [
				{
					"internalType": "uint256",
					"name": "",
					"type": "uint256"
				}
			],
			"stateMutability": "view",
			"type": "function"
		},
		{
			"inputs": [
				{
					"internalType": "address",
					"name": "spender",
					"type": "address"
				},
				{
					"internalType": "uint256",
					"name": "value",
					"type": "uint256"
				}
			],
			"name": "approve",
			"outputs": [
				{
					"internalType": "bool",
					"name": "",
					"type": "bool"
				}
			],
			"stateMutability": "nonpayable",
			"type": "function"
		},
		{
			"inputs": [
				{
					"internalType": "address",
					"name": "account",
					"type": "address"
				}
			],
			"name": "balanceOf",
			"outputs": [
				{
					"internalType": "uint256",
					"name": "",
					"type": "uint256"
				}
			],
			"stateMutability": "view",
			"type": "function"
		},
		{
			"inputs": [],
			"name": "decimals",
			"outputs": [
				{
					"internalType": "uint8",
					"name": "",
					"type": "uint8"
				}
			],
			"stateMutability": "view",
			"type": "function"
		},
		{
			"inputs": [],
			"name": "getLatestTransactionTimestamp",
			"outputs": [
				{
					"internalType": "string",
					"name": "",
					"type": "string"
				}
			],
			"stateMutability": "view",
			"type": "function"
		},
		{
			"inputs": [],
			"name": "getTransactionReceiver",
			"outputs": [
				{
					"internalType": "address",
					"name": "",
					"type": "address"
				}
			],
			"stateMutability": "view",
			"type": "function"
		},
		{
			"inputs": [],
			"name": "getTransactionSender",
			"outputs": [
				{
					"internalType": "address",
					"name": "",
					"type": "address"
				}
			],
			"stateMutability": "view",
			"type": "function"
		},
		{
			"inputs": [],
			"name": "name",
			"outputs": [
				{
					"internalType": "string",
					"name": "",
					"type": "string"
				}
			],
			"stateMutability": "view",
			"type": "function"
		},
		{
			"inputs": [],
			"name": "symbol",
			"outputs": [
				{
					"internalType": "string",
					"name": "",
					"type": "string"
				}
			],
			"stateMutability": "view",
			"type": "function"
		},
		{
			"inputs": [],
			"name": "totalSupply",
			"outputs": [
				{
					"internalType": "uint256",
					"name": "",
					"type": "uint256"
				}
			],
			"stateMutability": "view",
			"type": "function"
		},
		{
			"inputs": [
				{
					"internalType": "address",
					"name": "to",
					"type": "address"
				},
				{
					"internalType": "uint256",
					"name": "amount",
					"type": "uint256"
				}
			],
			"name": "transfer",
			"outputs": [
				{
					"internalType": "bool",
					"name": "",
					"type": "bool"
				}
			],
			"stateMutability": "nonpayable",
			"type": "function"
		},
		{
			"inputs": [
				{
					"internalType": "address",
					"name": "from",
					"type": "address"
				},
				{
					"internalType": "address",
					"name": "to",
					"type": "address"
				},
				{
					"internalType": "uint256",
					"name": "amount",
					"type": "uint256"
				}
			],
			"name": "transferFrom",
			"outputs": [
				{
					"internalType": "bool",
					"name": "",
					"type": "bool"
				}
			],
			"stateMutability": "nonpayable",
			"type": "function"
		}
	]
}